:020000040800F2
:1000000000400420490A0008A1090008A3090008CB
:10001000A5090008A7090008A9090008990A00080D
:1000200000000000000000000000000091470008F0
:10003000AB09000800000000314700082133000828
:10004000990A0008990A0008990A0008990A000804
:10005000990A0008990A0008990A0008990A0008F4
:10006000990A0008990A0008990A0008990A0008E4
:10007000990A0008990A0008990A0008990A0008D4
:10008000990A0008990A0008990A0008990A0008C4
:10009000990A0008990A0008990A0008990A0008B4
:1000A000990A0008990A0008990A0008990A0008A4
:1000B000990A0008990A0008990A0008990A000894
:1000C000990A0008990A0008990A0008990A000884
:1000D000990A0008990A0008990A0008990A000874
:1000E000990A0008990A0008990A0008990A000864
:1000F000990A0008AD090008990A0008990A000841
:10010000990A0008990A0008990A0008990A000843
:10011000990A0008990A0008990A0008990A000833
:10012000990A0008990A0008990A0008990A000823
:10013000990A0008990A0008990A0008990A000813
:10014000990A0008990A0008990A0008990A000803
:10015000990A0008990A0008990A0008990A0008F3
:100160000000000000000000990A0008990A000839
:10017000990A0008990A0008990A0008990A0008D3
:10018000990A0008990A0008990A0008000000006E
:1001900000000000990A00080000000000000000B4
:1001A0000000000000000000990A0008990A0008F9
:1001B000990A0008990A0008990A0008990A000893
:1001C000990A0008990A00080000000000000000D9
:1001D000000000000000000000000000990A000874
:1001E000990A0008990A00080000000000000000B9
:1001F000990A0008990A0008990A000800000000FE
:1002000000000000990A0008990A0008990A0008ED
:10021000990A0008990A0008990A0008990A000832
:10022000990A00080000000000000000990A000878
:10023000990A000800000000000000000000000013
:10024000000000000000000000000000990A000803
:04025000990A0008FF
:1002600010B5054C237833B9044B13B10448AFF3F0
:1002700000800123237010BD10000020000000004A
:10028000D849000808B5034B1BB103490348AFF335
:10029000008008BD0000000014000020D8490008BC
:1002A00008B5012003F0C6F8FBE708B50A2003F003
:1002B000C1F8FBE708B5012003F0BCF8FBE708B57F
:1002C0000A2003F0B7F8FBE77047000008B50021EB
:1002D0000D4A0E4803F064F80D4B002118600D4ADA
:1002E0000D4803F05DF80D4B002118600C4A0D48D5
:1002F00003F056F80C4B002118600C4A0C4803F030
:100300004FF80C4B186008BDA44A0008A102000871
:1003100038000020804A0008B502000834000020A0
:100320005C4A0008AB02000830000020384A000890
:10033000BF0200082C00002010B59CB02022002134
:100340000AA804F00FFB1822002102A804F00AFBFF
:10035000204A136923F0300343F02003136113692B
:1003600003F030030193019B53691C07FCD5012264
:100370004FF480330324CDE9082302230820CDE97C
:100380001234CDE916331893002305214022CDE91C
:10039000190308A8CDE914121B9301F075FC08B1EC
:1003A00072B6FEE71F23CDE90400CDE90600042163
:1003B00002A8CDE9023401F031FB08B172B6FEE7C4
:1003C000054A136823F0300343F0200313601CB088
:1003D00010BD00BF000802440020024080B594B068
:1003E00000F05CFBFFF7A8FF142200210CA804F02A
:1003F000B9FA884B0024D3F88C202027012642F03C
:100400000402C3F88C20D3F88C20202102F00402CF
:100410000192019AD3F88C207F4842F08002C3F801
:100420008C20D3F88C2002F080020292029AD3F83A
:100430008C2042F00102C3F88C20D3F88C2002F00B
:1004400001020392039AD3F88C2042F00202C3F80F
:100450008C20D3F88C30002203F002030493049B19
:1004600001F070F96C480CA9CDE90C76CDE90E4489
:1004700001F0CAF84FF4807368480CA9CDE90C3438
:100480000E9401F0C1F8204601F002FA08B172B6EC
:10049000FEE701F00DFA054608B172B6FEE7014627
:1004A0001C2205A804F05EFA3A4629460CA804F07E
:1004B00059FA04274FF48023594C5A492046C4E97D
:1004C0000013C4E90255C4E90A5525616761258313
:1004D000E66184F8205084F834502563A56384F8DD
:1004E0003C5000F03FFB08B172B6FEE74FF440030A
:1004F000DFF854E140F60572CDE905E34FF4F5630A
:10050000CDE909234FF44053474D204605A90795EF
:100510008DF820600B9300F0DFFD08B172B6FEE7A6
:100520004FF0060C0523CDE90DC37F2311900CA9D4
:100530002046CDE90F370C9500F0F0FB034608B1DB
:1005400072B6FEE739483A4AC0E90233C0E90023EF
:100550001022C0E905260F22C0E90966C0E9072775
:10056000C0E90B66C0E90D3303828374C36300F0F6
:100570004FFF08B172B6FEE72E4C2F4B2F4DC4E94A
:100580000206C4E90400C4E9060020622046C4E96A
:10059000005301F0DCF8014608B172B6FEE72046D0
:1005A00001F02AF9014608B172B6FEE7204601F0D3
:1005B00049F9034608B172B6FEE74FF480022048BD
:1005C00020494FF00054C0E9001207224FF040517B
:1005D000C0E90323C0E90A324FF08042C0E9064176
:1005E000C0E90833C0E90D23C0E91233C0E9143370
:1005F000C0E9163383604361C363036602F0E0FB26
:1006000008B172B6FEE702F095FEFFF75FFE02F05A
:10061000A7FEFEE7000C024400080242000002426E
:1006200084010020008002420200300420010020EA
:1006300000A80040CC000020FF7BF00000540040E8
:100640003C000020003001400000C07D0368B3F191
:10065000804F01D100F046BA704772B6FEE7002223
:100660000F216FF0010000F05BBE000010B50446E2
:10067000BCB01422002103A804F074F9D022002198
:1006800008A804F06FF92268214B9A423DD14FF43B
:1006900000120023CDE9082304220323CDE90A3206
:1006A0000223CDE90E320822402110924FF480221D
:1006B00008A8CDE90C131392309301F09FFE08B106
:1006C000FFF7CBFF134B1448D3F88C2003A942F457
:1006D0008062C3F88C20D3F88C2002F480620192EF
:1006E000019AD3F88C2042F00102C3F88C20D3F891
:1006F0008C30022203F001030293029B0323CDE915
:1007000003230023059300F07FFF3CB010BD00BF22
:1007100000800242000C02440000024210B5044670
:10072000BCB01422002103A804F01CF9D02200213F
:1007300008A804F017F922681C4B9A4233D104230D
:100740000022CDE908234FF4807308A82D9301F00F
:1007500055FE08B1FFF781FF154B1648D3F8A020CE
:1007600003A942F40072C3F8A020D3F8A02002F439
:1007700000720192019AD3F88C2042F00202C3F871
:100780008C20D3F88C304FF4405203F002030293D4
:10079000029B0223CDE903230023CDE9053309237E
:1007A000079300F031FF3CB010BD00BF00A800402F
:1007B000000C02440004024210B50446BCB01422EE
:1007C000002103A804F0CEF8D022002108A804F0EC
:1007D000C9F822681A4B9A4230D14FF400520023D4
:1007E00008A8CDE9082301F009FE08B1FFF735FF9D
:1007F000144CC022D4F88C30134843F00203C4F8E0
:100800008C30D4F88C3003A903F002030193019BD0
:100810001223CDE903230023CDE9053304230793F5
:1008200000F0F2FED4F89C3043F40013C4F89C307E
:10083000D4F89C3003F400130293029B3CB010BD2B
:1008400000540040000C02440004024210B504466B
:10085000BCB01422002103A804F084F8D0220021A7
:1008600008A804F07FF82268234B9A4241D14FF048
:10087000006200230321CDE9082304232022402025
:10088000CDE9141302231B924FF48032CDE91603F5
:1008900008A8CDE918331D92339301F0AFFD08B1DC
:1008A000FFF7DBFE154B1648D3F8A42003A942F44A
:1008B0008052C3F8A420D3F8A42002F480520192FD
:1008C000019AD3F88C2042F00102C3F88C20D3F8AF
:1008D0008C3048F2E00203F001030293029B0223F2
:1008E000CDE903230023CDE905330523079300F069
:1008F0008BFE3CB010BD00BF00300140000C024434
:100900000000024230B5224B89B0D3F89C20054646
:1009100042F00102C3F89C20D3F89C30694603F0F2
:100920000103019302A8019B01F074FC059B43BBEA
:1009300001F05EFC4FF08043164A13606323D360DE
:10094000154BB0FBF3F3013B5360002310461361DA
:10095000936002F099FC044668B90E4802F0E2FA8E
:10096000044640B90F2D10D8024629462D2000F02C
:10097000D7FC0A4B1D602D2000F002FD204609B077
:1009800030BD01F035FC4000D4E70124F3E700BF9F
:10099000000C0244EC010020A086010008000020A9
:1009A000FEE7FEE7FEE7FEE7FEE77047014802F0DC
:1009B00021BB00BFEC01002001221D4910B5D1F878
:1009C00088301C4843F47003C1F888301A4B1A6011
:1009D0000022DA611A621C682040186017489A6287
:1009E000DA621A6358639A63D8631A6458649A6423
:1009F000186820F4802018601A654FF000638B603F
:100A00000F4B9A6902F04042B2F1404F0FD1DA69C0
:100A1000D20741BF0B4ADA6002F14432DA60DA6988
:100A200042F00202DA61DA6942F00102DA6110BDD5
:100A300000ED00E0E3EAE2EA000C0244800201017A
:100A4000002002403B2A19080D488546FFF7B4FFF5
:100A50000C480D490D4A002302E0D458C450043319
:100A6000C4188C42F9D30A4A0A4C002301E01360EF
:100A70000432A242FBD303F07DFFFFF7AFFCFEE799
:100A8000004004200000002010000020EC4A000874
:100A9000100000207C2D0020FEE7000010B5032090
:100AA00000F02CFC00F00EFF0B4B0C4A1B6A03F00D
:100AB0000F03D35CD8400A4B1860042000F06EFC92
:100AC0000F20FFF71FFF044618B9FFF7C8FD2046A7
:100AD00010BD0124FBE700BF000C0244D04A00080F
:100AE00000000020034A044B11681B780B4413607C
:100AF000704700BF3802002004000020014B186836
:100B0000704700BF3802002030B50725CC0D04F037
:100B1000040414300359C1F304518D4023EA050342
:100B20008A401343035130BD41F3000330B503F055
:100B30002403C1F301541C440C3050F8243021F03C
:100B4000024525F4401523EA050311400B4340F804
:100B5000243030BD806800F0010070478068C0F329
:100B600080007047002337B504460193002800F049
:100B7000C680856D25B9FFF779FDE56584F8545089
:100B800023689A68950041BF9A6822F0204222F0BB
:100B90003F029A609A68D00040F190809A68D10034
:100BA00000F1A3800121A26D42F01002A265E26D66
:100BB00042F00102E2651846FFF7D0FFA26D02F095
:100BC0001002024340F09780A26D184622F4817211
:100BD00042F00202A265FFF7BDFF78B94948FFF76E
:100BE000B9FF02464848FFF7B5FF024306D1474820
:100BF0006568826822F47C122A438260E568A26BF1
:100C000094F820002A43A568012842EA0502657E7F
:100C100042EA453242EA004202BF606A00F1FF3018
:100C200042EA4042A06A20B1E56A00F478702843A5
:100C30000243DD68364828401043D8601A69206BAB
:100C400022F0406202431A619A6812071ED4D868E3
:100C500094F83420257E520020F4804042EA853208
:100C600020F002000243DA6094F83C20012A3ED1D1
:100C7000D4E9102518692A436FF38A000243A06C57
:100C80000243E06C024342F001021A612269012A28
:100C900005BF186BE2691A6B02F1FF3206BF20F044
:100CA0000F00024322F00F021A63A36D23F0030327
:100CB00043F00103A365084603B030BD9A681549A7
:100CC00022F0104222F03F0242F080529A60124A13
:100CD0001268B2FBF1F2013252000192019A002A2D
:100CE0003FF45CAF019A013AF7E7002163E71A6924
:100CF00022F00102C9E7A36D43F01003A3650121AF
:100D0000D9E700BF00800242008102420083024214
:100D10000740F0FF400D0300000000200023F7B55E
:100D2000019390F854300546012B0E4600F0C8811F
:100D30000123046880F854302046FFF70FFF002895
:100D400040F0B8811F270B6804F1300C012B08BF5D
:100D5000B649C3F3846302BFD1F8C82042F0010250
:100D6000C1F8C8207168880900F00C005CF8002008
:100D700001F01F018F4022EA07028B4013434CF819
:100D800000302046FFF7EAFEA26802F008020243A4
:100D90003AD1B3683168B3F1004F73D12046FFF701
:100DA000B3FE636943F0004363613769E068042F71
:100DB000326804F160036DD07169C0F3C100400076
:100DC00053F827C081409A4802F0F8420CEA00002C
:100DD0001043014341F0004143F827103169B069E5
:100DE00053F8212022F08072024343F82120317F02
:100DF00030694F1E53F820207942794122F0007269
:100E000042EA416243F820202046FFF7A3FE70BB70
:100E1000F7683368874AD4F8B01007F0180CC3F3AA
:100E2000130022FA0CF21A4021EA00010A43C4F826
:100E3000B020814A97421AD1002840F08A800120D0
:100E40009A0E013202F01F0109294FEA826201FA6B
:100E500000F300F2A48002F0F842884002430B4401
:100E60001B0543EA02012046B268FFF74DFE3268D7
:100E7000724B1A4240F0B5800020002385F85430B0
:100E800003B0F0BD1A462046FFF73EFE636923F02B
:100E9000004389E7216E216EC2F31300C1F3846120
:100EA000002839D1C2F38462914202BF226E22F03F
:100EB00000422266626E3268616EC2F31300C1F3B3
:100EC000846100282FD1C2F38462914202BF626E16
:100ED00022F0004262669A6832689968C2F3130091
:100EE000C1F3846130BBC2F38462914202BF9A684D
:100EF00022F000429A60DA683268D968C2F31300BF
:100F0000C1F38461E8B9C2F38462914202BFDA6836
:100F100022F00042DA6077E792FAA2F2002AC9D002
:100F2000B2FA82F2C0E792FAA2F2002AD3D0B2FA61
:100F300082F2CAE792FAA2F2002ADCD0B2FA82F276
:100F4000D3E792FAA2F2002A3FF45EAFB2FA82F23D
:100F5000DBE793FAA3F232B1B2FA82F1481C00F057
:100F60001F00092825D893FAA3F193FAA3F093FA66
:100F7000A3F3B1FA81F1B0FA80F0B3FA83F301225E
:100F800001310130890600F01F00013301F0F84102
:100F9000824003F01F030A4303EB430360E78840EA
:100FA00002F0F842194402431E39090541F000736A
:100FB00057E7481C93FAA3F3B2FA82F1B3FA83F32A
:100FC00001220131013301F01F01800603F01F03EC
:100FD0008A4000F0F84003EB43030243A3F11E01F3
:100FE000E3E7174B174E9968B24201F0E0702FD13A
:100FF0000E023FF541AF0D4A94427FF43DAF9A682F
:1010000022F0E072024342F400029A600E4B0F4A53
:101010001B68B3FBF2F301335B000193019B002BD0
:101020003FF42AAF019B013BF7E700BF008002427B
:1010300000F0FF03FFFF0F0000007F40000008806A
:1010400000830242000021C300000020400D030085
:101050001C4EB2420ED1C9013FF50EAF1A4A94425E
:101060007FF40AAF9A6822F0E072024342F0807285
:101070009A6001E7154EB2420DD14A023FF5FCAE2F
:10108000134A94427FF4F8AE9A6822F0E072024369
:1010900042F48002ECE70F4B9A427FF4EDAE0C4B2A
:1010A0009C423FF4E9AED4F8C83043F00103C4F8E1
:1010B000C830E1E6AA6D184642F02002AA65DCE6D7
:1010C0000220DDE60000294300810242000052C7F1
:1010D0000080024200005A4770B590F8543005462F
:1010E000012B0E4600F0FE80012204684B6880F858
:1010F00054202046FFF732FDA26802F008020243A6
:101100003CD10968784A914264D1B3F1A07F55D0AF
:101110000BD8B3F5400F14D0B3F1807F56D0B3F5A0
:10112000000F51D00022704910E0B3F1C07F4FD0C2
:10113000B3F1E07FF6D1B26822F07C7242F0E07247
:1011400004E0B26822F07C7242F440022046FFF7CD
:10115000EBFC236AB26923F4E04313432362AB6DD3
:1011600023F48033AB6580232360337B012B6368DA
:101170000CBF43F0800323F0800363605A4B326856
:10118000D6E904019A42E36840F08C80C3F3C103BE
:101190005B009840E368C3F3C1035B009940930C84
:1011A00003F00C032034E25802F0F0220A4342EA32
:1011B00000420020E25085F8540070BDB26822F071
:1011C0007C7242F0A072C1E7484ABFE7484ABDE7D7
:1011D000484ABBE7B3F1A07F18D011D8B3F5400F50
:1011E00014D0B3F1807F02D0B3F5000F58D1414A3B
:1011F0002046FFF799FC32683F4B9A4239D116E0FE
:10120000B3F1C07FF3D0B3F1E07F49D13A48B3687E
:101210008142C3F3130221D1CAB9C3F3846301220B
:1012200002FA03F3D4F8A0201343C4F8A030AB6D46
:1012300023F40033AB654FF480732360337B012BC1
:1012400063680CBF43F4807323F4807395E793FACB
:10125000A3F3002BE3D0B3FA83F3E0E7CAB9C3F3F7
:101260008463012202FA03F3D4F8A4201343C4F8E0
:10127000A430AB6D23F48023AB654FF4007323607F
:10128000337B012B63680CBF43F4007323F40073BA
:1012900073E793FAA3F3002BE3D0B3FA83F3E0E709
:1012A0000022A5E703F01803182B17BFE36880009E
:1012B000C3F3C103C3F102031EBF5B0003F01E03AF
:1012C000D840E36803F01803182B17BFE3688900C0
:1012D000C3F3C103C3F102031EBF5B0003F01E038F
:1012E000D9405CE7022068E70000C07DFFFF8F0067
:1012F000FFFF0F01FFFF8F01FFFF1F0007490302E0
:10130000CA6803F4E06322F4E0621204120C13438F
:1013100043F0BF6343F40033CB60704700ED00E05F
:10132000154B30B5DC68C4F30224C4F10703251D56
:10133000042B28BF0423062D4FF0FF3594BF002453
:10134000033C05FA03F321EA0303A54022EA050260
:10135000A340002843EA0203ACBF00F16040074A03
:101360004FEA0313DBB2ABBF00F5614000F00F00A2
:1013700080F80033135430BD00ED00E014ED00E0C0
:10138000002807DB01234109034A00F01F008340C6
:1013900042F82130704700BF00E100E0042818D86F
:1013A000DFE800F00A18261703004FF0E022136967
:1013B00043F00403136170474FF0E022136923F0F8
:1013C00004031361114AD2F8E43023F00C03C2F88D
:1013D000E43070474FF0E022136923F004031361F7
:1013E0000A4AD2F8E43023F00C0343F00403EEE79A
:1013F0004FF0E022136923F004031361034AD2F88B
:10140000E43023F00C0343F00803E0E7000C02444F
:1014100038B50446002800F0CD8090F85C3003F029
:10142000FF021BB980F85D20FFF778F92268936905
:1014300023F010039361FFF761FB054623689A6967
:10144000110700F1AA809A6942F001029A61FFF740
:1014500055FB054623689A69D20740F1AD809A6929
:1014600042F002029A61634A934204BF6168C2F883
:101470000011227C012A9A690CBF22F0400242F03E
:1014800040029A61627C012A9A690CBF42F4804250
:1014900022F480429A61A27C012A9A690CBF22F44C
:1014A000805242F480529A619A69A06822F4407294
:1014B00002439A619A6922F0A4029A611A6922F0A1
:1014C00010021A61E268012A7DD19A6942F0040291
:1014D0009A61A269B0F5407F02F1FF31E26902F141
:1014E000FF324FEA022242EA4162216A01F1FF31F2
:1014F00042EA0102616901F1FF3142EA0142DA6127
:101500000ED1E26A511E226B013A120142EA012217
:10151000A16A01390A43616A013942EA0142DA608B
:10152000D3F8C020E16B34480A43C3F8C0203349E4
:10153000334A656B8B4218BF0246D3F88010226491
:1015400021F4F81141EA0541C3F8801002F170015D
:101550006164D3F88010A56B21F0706141EA0561E8
:10156000C3F8801002F1B003A36402F5C473E3640E
:1015700002F51873236502F51E7321496365214B3B
:10158000824208BF0B4600219A422FD301232166D5
:101590000020A16584F85C300DE0FFF7AFFA401B36
:1015A0000A287FF64BAF236E43F001032366032323
:1015B00084F85C30012038BDFFF7A0FA401B0A28F0
:1015C0007FF648AFEFE7002A83D0022A0AD0996954
:1015D000032A41F080019961196941F010011961F4
:1015E0007FF477AF9A6942F0200271E742F8041B5A
:1015F000CAE700BF00A4004000AC004000A80040C3
:1016000050AF0040A0B200402DE9F04F00234FF052
:101610000F094A4A4A4D02EA90280A6832FA03F44E
:1016200001D1BDE8F08F012404FA03FA1AEA02029C
:1016300070D04C6824F01007022F16D14FEAD30C5B
:1016400000EB8C0C03F0070EDCF820604FEA8E0EE6
:1016500009FA0EFB26EA0B0B0E6906F00F0606FAD6
:101660000EF646EA0B06CCF820600326D0F800B050
:101670004FEA430E06FA0EFC2BEA0C0B6FEA0C063F
:1016800004F0030C0CFA0EFC013F4CEA0B0C012F8A
:10169000C0F800C040D9032C3CD0C76837408E68E2
:1016A00006FA0EF63E43C660E60033D523F0030784
:1016B00007F1884707F5083703F00306D7F860C03D
:1016C000F60009FA06FE2CEA0E0C08FA06F646EABF
:1016D0000C063E66D7432E6814F4801F0CBF3E40B4
:1016E00016432E606E6814F4001F0CBF3E40164374
:1016F0006E60D5F8846014F4003F0CBF3E40164382
:10170000C5F88460D5F88060E40354BF3E401643BA
:10171000C5F88060013380E7876806EA070CCF6868
:1017200007FA0EF747EA0C078760476827EA0A0CB2
:1017300027099F4047EA0C074760AEE77F7F2F00ED
:10174000002002440AB1816170478162704710B580
:10175000044600284ED090F8413003F0FF021BB938
:1017600080F84020FFF728F8242384F841302368CC
:101770001A6822F001021A60626822F070621A612F
:101780009A6822F400429A60D4E90221012906D124
:1017900042F400429A605A6822F4006207E042F480
:1017A000044202299A60F6D15A6842F400625A60F3
:1017B0005A68002042F0007242F400425A60DA682F
:1017C00022F40042DA60D4E904210A43A16942EA22
:1017D0000122DA60D4E907210A431A601A6842F04C
:1017E00001021A602023606484F84130206384F889
:1017F000420010BD0120FCE710B590F841200346DF
:10180000202AD4B21CD190F84020012A18D02422DA
:1018100080F841200268106820F001001060106814
:1018200020F480501060106801430020116011689E
:1018300041F00101116083F8414083F8400010BD80
:101840000220FCE710B590F841200346202AD4B2CC
:101850001BD190F84020012A17D0242280F8412083
:101860000268106820F001001060106820F47060B9
:1018700040EA012100201160116841F0010111606E
:1018800083F8414083F8400010BD0220FCE70000CF
:101890000146064A106810F0010009BF13680120D4
:1018A00023F004030B4308BF136070470004034098
:1018B000034A0020136843F001031360704700BF20
:1018C000000403404E4B30B5DA6902F01802082AD2
:1018D00000F08F80DA6912F0180F09D11A684948B0
:1018E00012F0200F03D01B68C3F3C103D84030BDF2
:1018F000DA6902F01802102A7DD0DA6902F01802C3
:10190000182A7AD1996A9D6A9A6A15F47C5F9C6B51
:10191000C5F30520EBD0C2F30012C4F3CC0462433C
:1019200007EE900A06EE902A01F00302012AB8EEB3
:10193000E77AFAEEE96AF7EE005A0FD0032A4AD0A6
:101940005B6B9FED316AC3F3080307EE903AF8EE44
:10195000E77A77EEA67A77EEA57A37E01A689206EC
:1019600027D51968274AC1F3C101CA4007EE902A5A
:10197000B8EEE76A5B6BC6EE077AC3F3080307EEBF
:10198000103AB8EEC77A37EE267A37EE257A67EE48
:10199000877A1B4B5B6BC3F34623013307EE103A88
:1019A000F8EEC76A87EEA67AFCEEC77A17EE900AC1
:1019B0009DE75B6B9FED156AC3F3080307EE903A52
:1019C000F8EEE77A77EEA67A77EEA57AC6EE076AA2
:1019D00067EEA67ADDE75B6B9FED0D6AC3F3080344
:1019E00007EE903AF8EEE77A77EEA67A77EEA57AE8
:1019F000ECE708487BE7084879E7024877E700BF4B
:101A0000000C02440090D0030024744A0024744C5B
:101A100020BCBE4B00093D0040787D012DE9F0411E
:101A20000D46044610B90120BDE8F081864A1368CE
:101A300003F00F038B426FD32368DE0678D41807B8
:101A40000DD5824920690A6A120902F0700290429B
:101A500081BF0A6A22F4E06242EA00120A62590770
:101A60000BD57A49E0680A6A02F07002904281BFA1
:101A70000A6A22F0700202430A629A070BD5734980
:101A8000A0680A6A02F00F02904281BF0A6A22F03F
:101A90000F0202430A62DF0759D42268960700F159
:101AA000AC8069490B6803F00F03AB4200F2B280CF
:101AB000500700F1BB8011070DD5644920690B6AFE
:101AC0001B0903F0700398423FBF0B6A23F4E063E5
:101AD00043EA00130B62D3060DD55C4A6169136AB1
:101AE0001B0A03F0700399423FBF136A23F4E043DB
:101AF00043EA01231362FFF7E5FEBDE8F041534BD3
:101B0000534A1B6A03F00F03D35CD840514B186053
:101B1000514B1868FEF7F6BE136823F00F030B4312
:101B20001360136803F00F038B427FF47CAF83E7ED
:101B3000464960690A6A120A02F07002904281BF47
:101B40000A6A22F4E04242EA00220A6277E7616808
:101B50003E4B03291A681DD112F0007F3FF463AF9A
:101B6000DA6941F2883822F003020A43DA61FEF7AB
:101B7000C5FF63680646032B344F18D1FB6903F099
:101B80001803182B89D0FEF7B9FF801B4045F5D903
:101B9000032049E7022902D112F4003FDEE70129C0
:101BA00002D112F4007FD9E712F0020FD6E7022B20
:101BB0000BD1FB6903F01803102B3FF46EAFFEF757
:101BC0009DFF801B4045F4D9E2E7012B10D1FB6952
:101BD00003F01803082B3FF460AFFEF78FFF801B64
:101BE0004045F4D9D4E7FEF789FF801B4045CFD8A4
:101BF000FB6913F0180FF6D14FE71449A0680B6A80
:101C000003F00F0398423FBF0B6A23F00F03034317
:101C10000B6246E70B6823F00F032B430B600B6846
:101C200003F00F03AB427FF4FEAE41E70749E068E3
:101C30000B6A03F0700398423FBF0B6A23F07003F6
:101C400003430B6237E700BF00200240000C024450
:101C5000D04A0008000000200800002008B5FFF767
:101C600031FE064B064A1B6A03F00F03D35C03F0F8
:101C70001F03D840034B186008BD00BF000C02448E
:101C8000D04A0008000000202DE9F0410446002859
:101C90006AD0994BDE699F6A036806F01806DA0677
:101CA00007F0030710D5082EC36903D0182E24D1DE
:101CB000022F22D1002B57D08F4A216A936923F437
:101CC0007C1343EA014393612368D90743D4236813
:101CD0009A0700F19E8023681D0700F1F6802368B3
:101CE000580700F1218123689B0600F19A81A16ABF
:101CF000002940F0BB8100201AE07F4DD3B12B6852
:101D000043F480732B60FEF7F9FE80462B689B0539
:101D100007D5AB69226A23F47C1343EA0243AB6123
:101D2000D2E7FEF7EBFEA0EB08000228EED9032075
:101D3000BDE8F0812B6823F480732B60FEF7DEFE94
:101D400080462B689805BFD5FEF7D8FEA0EB0800AB
:101D50000228F6D9EBE7102E636803D0182E05D1C0
:101D6000032F03D1002BB2D10120E1E7B3F5803F6F
:101D7000614D12D12B6843F480332B60FEF7BEFE19
:101D80000546DFF87481D8F800309B039FD4FEF736
:101D9000B5FE401B6428F6D9C9E7C3B92B6823F404
:101DA00080332B602B6823F480132B602B6823F483
:101DB00080232B60FEF7A2FE80462B68980386D511
:101DC000FEF79CFEA0EB08006428F6D9AFE7B3F558
:101DD000A02F08D12B6843F480232B602B6823F4B9
:101DE00080132B60C6E7B3F5A81F2B6806D143F418
:101DF00080232B602B6843F48013F2E723F48033B5
:101E00002B602B6823F480232B602B6823F4801332
:101E1000B3E7E3681EB1182E2ED1012F2CD1002B71
:101E2000A2D076B1FEF76AFE0746334D2B689907BC
:101E30001CD52B69626923F4FE0343EA02432B613C
:101E400049E72D4A2169136803F018038B42E9D052
:101E5000136823F018030B431360FFF7FFFE274BB3
:101E60001868FEF74FFD0028DCD07DE7FEF746FE40
:101E7000C01B0228DAD95AE71F4DABB12B68226983
:101E800023F0180313432B602B6843F001032B60EE
:101E9000FEF734FE07462B689A07CAD4FEF72EFEDB
:101EA000C01B0228F7D942E72B6823F001032B60FF
:101EB000FEF724FE07462B689B077FF50CAFFEF765
:101EC0001DFEC01B0228F6D931E7A3690A4DBBB13C
:101ED000D5F8F03043F08063C5F8F030FEF70EFE21
:101EE0000746D5F8F03019013FF5F9AEFEF706FECA
:101EF000C01B0228F5D91AE7000C02440800002094
:101F0000D5F8F03023F08063C5F8F030FEF7F6FD29
:101F10000746D5F8F0301A017FF5E1AEFEF7EEFD89
:101F2000C01B0228F5D902E7AF4D6B6ADF071AD54F
:101F3000A368AE4D012B26D1D5F8F03043F0010354
:101F4000C5F8F030FEF7DAFD41F288380546A74FB4
:101F5000D7F8F03099073FF5C6AEFEF7CFFD401B2E
:101F60004045F5D9E3E66B6A43F001036B62FEF787
:101F7000C5FD07466B6AD807DAD4FEF7BFFDC01B64
:101F80000228F7D9D3E60BBBD5F8F03041F28838F8
:101F900023F00103C5F8F030D5F8F03023F08003CA
:101FA000C5F8F030D5F8F03023F00403C5F8F03070
:101FB000FEF7A4FD0746D5F8F0309A077FF593AEFB
:101FC000FEF79CFDC01B4045F5D9B0E6052B0CD1B2
:101FD000D5F8F03043F00403C5F8F030D5F8F03010
:101FE00023F08003C5F8F030A6E7852BD5F8F03054
:101FF00008D143F00403C5F8F030D5F8F03043F0D1
:102000008003EFE723F00103C5F8F030D5F8F03096
:1020100023F00403C5F8F030D5F8F03023F0800346
:102020008EE7636A714D83B12B6843F480532B6054
:10203000FEF764FD07462B689B043FF558AEFEF79C
:102040005DFDC01B0228F6D971E62B6823F480538E
:102050002B60FEF753FD07462B6898047FF547AECB
:10206000FEF74CFDC01B0228F6D960E6182E5F4D26
:1020700072D02B68022923F080732B6059D1FEF7B0
:102080003DFD06462B6899014DD4AB6AE26A23F404
:102090007C5323F003031343226B43EA0223AB6216
:1020A000A36BE26B013B013A5B02120402F4FE02F5
:1020B0009BB21343626B013AC2F308021343226CD2
:1020C000013A120602F0FE4213436B63AB6A23F03F
:1020D0001003AB62E36CDB00AB63AB6A43F010034D
:1020E000AB62AB6A626C23F00C031343AB62AB6A66
:1020F000A26C23F020031343AB62AB6A43F480333A
:10210000AB622B6843F080732B60FEF7F7FC04464C
:10211000364D2B689A013FF5EEADFEF7EFFC001B44
:102120000228F6D903E6FEF7E9FC801B0228A9D9AC
:10213000FDE5FEF7E3FC04462B689B0106D4AB6A81
:1021400023F4E02323F00303AB62D4E5FEF7D6FCCF
:10215000001B0228F0D9EAE50129AA6A6B6B3FF45B
:1021600003AEE06A02F0030181427FF4FDAD216B12
:10217000C2F305228A427FF4F7AD626BC3F3080114
:10218000013A91427FF4F0ADA26BC3F34621013ACC
:1021900091427FF4E9ADE26BC3F30641013A91420B
:1021A0007FF4E2AD226CC3F30663013A93427FF4FD
:1021B000DBADAB6BE26CC3F3CC0393423FF49BAD5E
:1021C0000A4DAB6A23F01003AB62FEF797FC06469C
:1021D000FEF794FCB042FBD0E36CDB00AB63AB6A70
:1021E00043F01003B0E700BF00080244000C0244B3
:1021F00008B5FFF733FD054B054A1B6AC3F302130D
:10220000D35C03F01F03D84008BD00BF000C02449C
:10221000C84A00081F230D4A0360D36903F0030373
:102220004360136A03F00F02826003F07002C26021
:102230001A091B0A03F07003436102F07002044B99
:1022400002611B6803F00F030B607047000C02442F
:102250000020024070B5334C0546236823F08063AC
:102260002360FEF74BFC064623681A014CD4E36A50
:102270002A6823F47C5323F0030313436A6843EA78
:102280000223E362EB682A69013B013A5B02120414
:1022900002F4FE029BB21343AA68013AC2F3080299
:1022A00013436A69013A120602F0FE421343E363E4
:1022B000E36AAA6923F00C031343E362E36AEA6961
:1022C00023F020031343E362E36A6A6A1343E36281
:1022D000E36A23F01003E362236C2A6A6FF3CF03EF
:1022E00043EAC2032364E36A0E4D43F01003E36242
:1022F000236843F080632360FEF700FC04462B68EC
:102300001B0108D5002005E0FEF7F8FB801B022822
:10231000AAD9032070BDFEF7F1FB001B0228EED9FD
:10232000F7E700BF000C024470B5334C0546236844
:1023300023F080532360FEF7E1FB064623689A00F2
:102340004CD4236B2A6823F47C5323F003031343F8
:102350006A6843EA02232363EB682A69013B013A76
:102360005B02120402F4FE029BB21343AA68013A14
:10237000C2F3080213436A69013A120602F0FE42F0
:1023800013436364236BAA6923F00C031343236391
:10239000236BEA6923F0200313432363236B6A6AE8
:1023A00013432363236B23F010032363A36C2A6A74
:1023B0006FF3CF0343EAC203A364236B0E4D43F0D4
:1023C00010032363236843F080532360FEF796FBDA
:1023D00004462B689B0008D5002005E0FEF78EFB25
:1023E000801B0228AAD9032070BDFEF787FB001BC3
:1023F0000228EED9F7E700BF000C024402682DE97D
:10240000F843D701054608D52049806DD1F8E8305A
:1024100023F040430343C1F8E830D60715D5EB6DF0
:10242000052B26D8DFE803F008032008080805F18B
:102430000800FFF70FFFF0B9144AE96DD2F8D83061
:1024400023F007030B43C2F8D83000262B689C0703
:1024500008D52B6E102B00F072810ED89BB1082B83
:1024600016D00126344624E005F13000FFF75CFF6A
:10247000E1E70126EAE70326E8E723F00802202A3D
:1024800001D0182BEDD1344607E000BF000C024408
:1024900005F10800FFF7DEFE0446002C40F05481F1
:1024A000AA4A296ED2F8D83023F038030B43C2F879
:1024B000D8302B6858070DD56B6E802B00F06581E6
:1024C00000F24A81002B00F04F81402B00F0578131
:1024D000012634462B6819070FD5AB6EB3F5806F14
:1024E00000F0748100F25881002B00F05E81B3F59A
:1024F000007F00F06581012634462B68DA060FD58F
:10250000EB6EB3F5005F00F0828100F26681002B74
:1025100000F06C81B3F5805F00F0738101263446D2
:102520002B689B060FD52B6FB3F5803F00F0908191
:1025300000F27481002B00F07A81B3F5004F00F0B7
:102540008181012634462B68DF040FD56B6FB3F110
:10255000007F00F09E8100F28281002B00F08881D4
:10256000B3F1807F00F08F81012634462B689804F8
:102570000BD5AB6FB3F5803F00F0A38100F29081E3
:10258000002B00F09381012634462B6859040BD5AB
:10259000EB6FB3F5802F00F0AD8100F29A81002B34
:1025A00000F09D81012634462B681A040CD5D5F81D
:1025B0008030B3F5801F00F0B78100F2A381002BBB
:1025C00000F0A681012634462B68DB030BD5D5F835
:1025D0008430B3F1807F00F0AF8133F0007300F0FE
:1025E000B081012634466B68DF040BD5D5F88830FE
:1025F000B3F1806F00F0B38133F0006300F0B48179
:1026000001263446D5E90013180509D54F4BDA6980
:1026100022F40042DA61DA69D5F8C8000243DA61CF
:10262000890310D5D5F88C30B3F5007F00F0C58153
:1026300000F2A881002B00F0AE81B3F5807F00F09E
:10264000B681012634462B685A0310D5D5F8903050
:10265000B3F5005F00F0D38100F2B681002B00F0EB
:10266000BC81B3F5805F00F0C481012634462B683D
:102670009B0216D5D5F8A030022B00F0C78103D9F4
:10268000033B022B00F2C881002C40F0C8812F4A86
:10269000D5F8A010D2F8E83023F007030B43C2F8B6
:1026A000E830D5E900039F0510D5D5F8A41031F026
:1026B000080340F0B681002C40F0B681234AD2F8DE
:1026C000E83023F008030B43C2F8E830800140F102
:1026D000B8811F4F7B6A43F001037B62FEF70EFA5D
:1026E00080467B6AD90740F1A381002C40F0FB8132
:1026F000164FD7F8F03013F4407340F0C581D5F889
:10270000BC30124903F44072B2F5407F40F0E781DB
:10271000C869104A20F47C5002EA13120243CA61CD
:102720000A4AC3F30B03D2F8F01021F44071C2F847
:10273000F010D2F8F0100B43C2F8F03081E105F14F
:102740003000FFF7F1FDA7E62646B2E6000C024492
:1027500000080244CFFFFF0023F04002B2F5807F63
:1027600002D0C02B7FF4B4AEA4B9B04A696ED2F8DF
:10277000D83023F4E0730B43C2F8D830AAE605F151
:102780000800FFF767FD0446EEE705F13000FFF7AC
:10279000CBFDF8E726469DE623F40072B2F5006F04
:1027A00003D0B3F5C06F7FF4A6AEA4B99F4AA96E5B
:1027B000D2F8D83023F460630B43C2F8D8309CE6DB
:1027C00005F10800FFF746FD0446EEE705F130008D
:1027D000FFF7AAFDF8E726468FE623F48052B2F50C
:1027E000804F03D0B3F5405F7FF498AEA4B98F4A11
:1027F000E96ED2F8D83023F4E0430B43C2F8D83066
:102800008EE605F10800FFF725FD0446EEE705F129
:102810003000FFF789FDF8E7264681E623F4004201
:10282000B2F5003F03D0B3F5C03F7FF48AAEA4B940
:102830007E4A296FD2F8D83023F460330B43C2F8B4
:10284000D83080E605F10800FFF704FD0446EEE706
:1028500005F13000FFF768FDF8E7264673E623F040
:102860008072B2F1806F03D0B3F1407F7FF47CAE11
:10287000A4B96E4A696FD2F8E03023F0E0630B43ED
:10288000C2F8E03072E605F10800FFF7E3FC044609
:10289000EEE705F13000FFF747FDF8E7264665E66D
:1028A00023F48033B3F5003F7FF46DAE7CB95F4A0B
:1028B000A96FD2F8E43023F440330B43C2F8E4307C
:1028C00063E605F13000FFF72FFD0446EEE72646EC
:1028D0005BE623F48023B3F5002F7FF463AE7CB96D
:1028E000524AE96FD2F8E43023F440230B43C2F894
:1028F000E43059E605F13000FFF716FD0446EEE737
:10290000264651E623F48013B3F5001F7FF45AAE38
:1029100084B9464AD5F88010D2F8E43023F4401345
:102920000B43C2F8E4304FE605F13000FFF7FCFC42
:102930000446EDE7264647E605F13000FFF7F4FCD4
:10294000044654B9394AD5F88410D2F8E43023F05B
:1029500040730B43C2F8E43045E6264643E605F1F2
:102960003000FFF7E1FC044654B9304AD5F888102E
:10297000D2F8E43023F040630B43C2F8E43041E680
:1029800026463FE623F48072B2F5806F03D0B3F59C
:10299000407F7FF456AEACB9244AD5F88C10D2F8FB
:1029A000DC3023F4E0630B43C2F8DC304BE605F186
:1029B0000800FFF74FFC0446EDE705F13000FFF794
:1029C000B3FCF8E726463EE623F48052B2F5804F8A
:1029D00003D0B3F5405F7FF448AEACB9134AD5F8E5
:1029E0009010D2F8DC3023F4E0430B43C2F8DC3023
:1029F0003DE605F10800FFF72DFC0446EDE705F183
:102A00003000FFF791FCF8E7264630E605F10800B4
:102A1000FFF720FC044637E60126344641E6264609
:102A20003FE60126344651E626464FE6000C0244B6
:102A3000FEF764F8A0EB080002287FF652AE0326EA
:102A4000344629684F0108D5D5F89820102A5AD065
:102A50004BD8002A4DD001263446480207D5D5F878
:102A60009C30002B57D0402B66D0012634462B6873
:102A7000190179D5D5F8AC30042B00F28E80DFE84F
:102A800003F0638187686800D5F8BC2093423FF467
:102A900036AED7F8F020D7F8F03022F4407143F486
:102AA0008033C7F8F030D7F8F030D20723F4803302
:102AB000C7F8F030C7F8F0107FF521AEFEF71EF82A
:102AC00041F288398046D7F8F0309B073FF517AEC2
:102AD000FEF714F8A0EB08004845F4D9AFE7CA693F
:102AE00022F47C521BE62646ABE722F01003202B93
:102AF000B1D174B9A348D0F8E83023F030031343C0
:102B0000C0F8E830A9E79F48836A43F40033836242
:102B1000EFE72646A1E79B4A936A43F400339362AA
:102B200084B9984AD5F89C10D2F8E43023F04003D9
:102B30000B43C2F8E4309AE705F10800FFF78AFB7F
:102B40000446EDE7264692E78E4A936A43F4003343
:102B500093622CBB8B4AD5F8AC10D2F8E03023F04E
:102B600007030B43C2F8E0302B68DA0029D5D5F80B
:102B7000B030102B40D015D893B3082B36D0012697
:102B800034461EE005F10800FFF764FB0446E0E769
:102B900005F13000FFF7C8FBF8E701263446E3E70C
:102BA0002646E1E7182B01D0202BE8D14CBB754A13
:102BB000D5F8B010D2F8E03023F038030B43C2F858
:102BC000E0302B689B002FD5D5F8B430802B51D046
:102BD00019D8002B42D0402B46D00126344623E0A2
:102BE000684A936A43F400339362DFE705F1080013
:102BF000FFF730FB0446D9E705F13000FFF794FBFF
:102C0000F8E72646DDE7C02B02D0B3F5807FE4D19C
:102C1000002C34D15B4AD5F8B410D2F8E03023F45C
:102C2000E0730B43C2F8E0302B685F000BD5D5F89A
:102C3000B830B3F5806F3ED023D853B3B3F5007FDF
:102C400033D0012634466B6898074CD5D5F8A830A8
:102C5000032B78D8DFE803F03B36713B494A936A8F
:102C600043F400339362D3E705F10800FFF7F2FA6B
:102C70000446CDE705F13000FFF756FBF8E726469E
:102C8000D2E723F40072B2F5006F02D0B3F5C06F43
:102C9000D7D1ACB93B4AD5F8B810D2F8E03023F41C
:102CA00060630B43C2F8E030CDE705F10800FFF7A1
:102CB000D1FA0446EDE705F13000FFF735FBF8E700
:102CC0002646C0E72F4A936A43F400339362002CF0
:102CD0003CD12C4AD5F8A810D2F8E43023F00303F5
:102CE0000B43C2F8E4306B6859070AD5D5F8943025
:102CF000B3F5807F2CD0B3F5007F3AD06BB30126BB
:102D000034466B68DA0650D5D5F8C430202B4ED047
:102D1000302B3ED0102B37D001246B681B0709D510
:102D2000184AD5F8C010D2F8E83023F0C0030B439E
:102D3000C2F8E8302046BDE8F88305F10800FFF747
:102D400089FA0446C3E701263446CCE72646CAE79B
:102D50000C4A936A43F40033936284B9094AD5F864
:102D60009410D2F8E83023F440730B43C2F8E830F3
:102D7000C7E705F10800FFF76DFA0446EDE72646C0
:102D8000BFE700BF000C02440C4A936A43F40033CF
:102D90009362002CC1D1094AD5F8C410D2F8E430AE
:102DA00023F030030B43C2F8E4303446B5E705F1B5
:102DB0003000FFF7B9FA0446EBE700BF000C02440D
:102DC000F8B5044608B90120F8BD00230268836203
:102DD0004E4B9A42C36802D04D498A4201D10F2B13
:102DE000F1D8E16B08334909DB0801FB033347499C
:102DF0008A4203D001F180518A4262D1082BE2D885
:102E000094F8893003F0FF0223B9204684F8882023
:102E1000FDF71CFD0223226884F889301368656879
:102E200023F0010313609368A66B03F4F81CA369F5
:102E3000B3F1806F04D1B5F5800F59D1002E5CD06D
:102E400015F48001E06817685CD006285AD927F489
:102E5000807E276D4EEA07071760E7692B433843EA
:102E6000A76A33433843E76B384340EA0C0090606D
:102E7000606B0343606A0343206903436069034353
:102E8000206A0343E06C0343A0680343A06C034340
:102E9000A06D0343E06D0343206E0343D360136DC5
:102EA00023F00103136529B1D368616D23F000435A
:102EB0000B43D36000200123C4F88C0084F88930D0
:102EC00082E714498A4211D001F180518A420DD023
:102ED00011498A420AD001F180518A4206D00F4935
:102EE0008A4203D001F180518A4289D1102B86E7B2
:102EF000002DA5D1B6F1805FA2D1116841F48051B7
:102F000011609DE727F48077A6E700BF004C0140E1
:102F1000004C01500030014000380040003C0040AF
:102F20007047000090F83D30012B4CD1022380F80F
:102F30003D300368DA6842F00102DA60234A9342C6
:102F400033D002F1805293422FD0B3F1804F2CD076
:102F5000B3F1A04F29D01E4A934226D002F18052ED
:102F6000934222D01B4A93421FD002F180529342D7
:102F70001BD0194A934218D002F18052934214D0C8
:102F8000164A934211D002F1805293420DD0144A56
:102F900093420AD002F18052934206D0114A9342E2
:102FA00003D002F18052934207D199680E4A0A4039
:102FB000062A06D0B2F5803F03D01A6842F001021B
:102FC0001A60002070470120704700BF002C0140AC
:102FD0000004004000080040000C004000340140A4
:102FE0000018004000400140070001007047704792
:102FF00070477047036870B5DD681E690446B20704
:103000000ED5A9070CD56FF002021A6101220277D2
:103010009B699A0700F0A480FFF7E9FF002323775C
:10302000730711D568070FD56FF004022368204697
:103030001A61022222779B6913F4407F00F0968088
:10304000FFF7D5FF00232377310710D52A070ED5C8
:103050006FF00802236820461A6104222277DB6998
:103060009B0700F08980FFF7C2FF00232377F1065A
:1030700010D5EA060ED56FF01002236820461A61BB
:1030800008222277DB6913F4407F7BD0FFF7AFFF84
:1030900000232377F30708D5E80706D56FF0010270
:1030A000236820461A61FDF7D1FA16F4025F08D0B2
:1030B000290606D56FF40252236820461A6100F0F3
:1030C00014F9F20508D52B0606D56FF48072236833
:1030D00020461A6100F00AF9700608D5690606D57F
:1030E0006FF04002236820461A61FFF782FFB206A4
:1030F00008D5AB0606D56FF02002236820461A617A
:1031000000F0F2F8F00208D5E90206D56FF480125B
:10311000236820461A6100F0EAF8B20208D5AB0233
:1031200006D56FF40012236820461A6100F0E0F81B
:10313000700208D5690206D56FF480022368204624
:103140001A6100F0D6F8320222D52B0220D56FF496
:10315000000223682046BDE870401A6100F0CAB83A
:10316000FFF744FF2046FFF743FF57E7FFF73EFF17
:103170002046FFF73DFF65E7FFF738FF2046FFF7E2
:1031800037FF72E7FFF732FF2046FFF731FF7FE797
:1031900070BD0000354A0368904225D002F180528C
:1031A000904221D0B0F1804F1ED0B0F1A04F1BD083
:1031B0002F4A904218D002F18052904214D02D4AEA
:1031C000904211D002F1805290420DD02A4A904292
:1031D0000AD002F18052904206D0284A904203D091
:1031E00002F18052904208D14A6823F070031343E1
:1031F000CA6823F4407313430DE0214A9042F7D08C
:1032000002F180529042F3D01E4A9042F0D002F177
:1032100080529042ECD04A6923F08003134303604C
:103220008B68C3620B688362104B984211D003F124
:10323000805398420DD0114B98420AD003F180532D
:10324000984206D00F4B984203D003F18053984226
:1032500001D10B690363012343610369DB0742BFAB
:10326000036923F001030361704700BF002C014094
:103270000004004000080040000C00400034014001
:10328000001800400040014010B5044650B390F8CB
:103290003D3003F0FF021BB980F83C20FFF740FEF1
:1032A0000223206884F83D30211DFFF773FF0123BE
:1032B000002084F8483084F83E3084F83F3084F8A9
:1032C000403084F8413084F8423084F8433084F848
:1032D000443084F8453084F8463084F8473084F828
:1032E0003D3010BD0120FCE77047704770477047C4
:1032F00070477047704710B5EFF3058414B101248F
:10330000204610BD00F070FF0128F9D0EFF31083C4
:10331000002BF4D1EFF31184003C18BF0124EFE738
:1033200008B500F061FF012803D0BDE8084001F0B6
:1033300041B908BD08B5FFF7DEFF48B900F054FFFA
:103340000128034607D1054A106820B9136008BD5B
:103350006FF00500FBE74FF0FF30F8E7F4060020C0
:1033600010B5FFF7C8FF044678B900F03DFF01280B
:103370000ED1094B1A68012A0AD1084AD4770222D1
:103380001A6000F0F1FB204610BD6FF00500FBE76E
:103390004FF0FF30F8E700BFF406002000ED00E03A
:1033A0000023F0B587B006460F4614460593FFF795
:1033B000A2FF10BB0EB35CB3A56925B16B1E372B02
:1033C00002D907B0F0BD18256368DB0730D4636904
:1033D000ABB19A082168D4E902C0BCF1000F10D04B
:1033E0005B280AD9206940B13BB1CDE9010C3B46CD
:1033F0003046009500F052FB05900598E1E78022E9
:10340000E8E70028F9D12369002BF6D10C4601E04A
:103410001825802205ABCDE9005321463B463046B6
:1034200092B200F072FB01281CBF00230593E4E771
:103430000020C6E713B50446FFF75DFF70B900F042
:10344000D7FB211A002901900BDD01A800F03EFDF9
:10345000B0FA80F04009404202B010BD6FF00500A4
:10346000FAE76FF00300F7E7034B0360034B0B60D1
:1034700080231360704700BF980600209804002046
:10348000034B0360034B0B6080231360704700BF46
:103490003C0400203C0200204FF0FF3200F1080302
:1034A000C0E90223436003610023036070470023E7
:1034B0000361704730B50C68631C0AD103695A6810
:1034C0004A6091608B605960036808610133036052
:1034D00030BD00F10802134652681568A542FAD9BA
:1034E000EDE70369D0E901128A60516059688142B1
:1034F00008BF5A60002202611A68013A1A6018680F
:10350000704710B5044601F033F8A46B01F03EF8A3
:10351000B4FA84F0400910BD03461A6C084610B492
:1035200062B1DC68A1189C68D960A14228BF196803
:103530005DF8044B28BFD96001F040BA5DF8044B38
:10354000704770B5044601F013F894F8455004F143
:1035500024066DB2002D01DD636AB3B9FF2384F840
:10356000453001F013F801F003F894F8445004F1E9
:1035700010066DB2002D01DD23697BB9FF2384F8AD
:103580004430BDE8704001F001B8304600F084FDE1
:1035900008B100F023FE013D6DB2DBE7304600F0DC
:1035A0007BFD08B100F01AFE013D6DB2E2E770B597
:1035B0000E46044610B901F0A5F8FEE7C56B65B3E9
:1035C000036CA3FB053545BB00F0D2FFD4E90F31F6
:1035D0004B432268A563D0185B1A62601A44FF232C
:1035E000A06084F84430E26084F8453066B923690D
:1035F00033B104F1100000F04FFD08B100F0ACFF52
:1036000000F0C4FF012070BD04F11000FFF744FF7B
:1036100004F12400FFF740FFF2E701F073F8FEE742
:1036200037B50D461C4613B901F06CF8FEE708B13A
:103630001AB121B901F066F8FEE70029FAD150234A
:103640000193019B502B02D001F05CF8FEE70121B1
:10365000002D08BF2246C4E90F0584F84610204615
:103660002260019BFFF7A3FF20469DF8183084F8E5
:103670004C3003B030BD2DE9FF410E4604460192A7
:1036800010B901F03FF8FEE721B9036C13B101F066
:1036900039F8FEE700F0A8FD054620B9019B1BB1F3
:1036A00001F030F8FEE700254FF0000834E0019B00
:1036B0001BB900F06BFF002045E015B902A800F02F
:1036C00051FD00F063FF00F08BFA00F051FF94F819
:1036D0004430FF2B08BF84F8448094F84530FF2B1A
:1036E00008BF84F8458000F051FF01A902A800F04E
:1036F00045FD88BB2046FFF704FF38B3019904F16C
:10370000240000F08DFC2046FFF71BFF00F034FB87
:1037100008B900F021FF012500F02AFFA76B002F58
:10372000C5D031462046013FFFF7F6FEA763236967
:1037300033B104F1100000F0AFFC08B100F00CFF51
:1037400000F024FF012004B0BDE8F0812046FFF71F
:10375000F8FE00F011FBDEE72046FFF7F2FE00F076
:103760000BFB2046FFF7CDFE0028D4D0A3E70000D6
:1037700070B510B900F0C6FFFEE7B9B100230C4ADE
:103780001C4615465668864204D105EBC403C3E9BE
:1037900000100BE01BB91668002E08BF1346013459
:1037A000082C02F10802EDD1002BF0D170BD00BF52
:1037B000F806002070B504460D46164600F0D8FE07
:1037C00094F84430FF2B04BF002384F8443094F86D
:1037D0004530FF2B04BF002384F8453000F0D6FEAF
:1037E000A36B2BB93246294604F1240000F02CFCCF
:1037F0002046BDE87040FFF7A4BE00002DE9F0416F
:10380000044600F0B5FE304B304E1A68304F01329E
:103810001A603568002D4AD134601B68012B1FD116
:10382000B84640460135FFF737FE382D08F1140839
:10383000F7D1DFF8C480274D4046FFF72DFE28461C
:10384000FFF72AFE2448FFF727FE2448FFF724FE4F
:103850002348FFF721FE234BC3F80080224B1D6055
:10386000224A201D136801331360214A63641168E2
:10387000E36A8B4288BF136014225343F9184A68E5
:10388000A2609568E56068609060FA5861610132F5
:10389000FA5000F07BFE174B1B689BB13368DA6A65
:1038A000E36A9A420ED2BDE8F04100F055BE114BDA
:1038B0001B68002BD4D13368DA6AE36A9A4298BF56
:1038C0003460CDE7BDE8F0815C070020300C0020BB
:1038D000D0070020A80700208C07002078070020D0
:1038E00060070020A4070020A00700204007002058
:1038F0005407002050070020BC070020F8B50646FA
:103900001A4B1B4C1D6820680F460430FFF7E9FD79
:10391000731C13D197B1174B21685A688A6090685D
:103920002168C860216804314160216804319160D8
:10393000226853611A6801321A60F8BD2368AD1914
:103940005D6007D30C4B18682168BDE8F84004316E
:10395000FFF7B0BD094B186821680431FFF7AAFDD5
:10396000074B1A68AA4288BF1D60E6E75807002087
:10397000300C002060070020A0070020A4070020D2
:103980003C070020094B0A4A1B681268D06A50B9EC
:10399000084A1268012A07D833B9074B1868074B41
:1039A0001B68C01A70470020704700BF54070020F2
:1039B000300C0020D00700203C07002058070020D2
:1039C000064A13681968064B19B94FF0FF321A609E
:1039D00070471268D2681268F9E700BFA407002098
:1039E0003C07002010B590F8593004463BB9006BF5
:1039F00000F08AFF2046BDE8104000F085BF012B93
:103A0000F9D0022B02D000F07DFEFEE710BD2DE9BB
:103A1000F84F0D46DDE90AA90C9C96000746324690
:103A2000A521206B984600F09DFFD4F830B06DB111
:103A30006B1E04F133020F3513F8011F02F8011F4A
:103A400009B1AB42F8D1002384F84330BAF1370F03
:103A500002D900F057FEFEE7201DC4F82CA0C4F8E0
:103A60004CA0FFF724FD043E04F11800FFF71FFDF2
:103A7000CAF138010BEB0600A16143463A46216BBF
:103A80002461646220F0070000F0B4FD2060B9F109
:103A9000000F01D0C9F80040BDE8F88F2DE9F043D0
:103AA00087B00546DDE90F940E4617469846B9F1F2
:103AB000000F02D100F026FEFEE714B900F022FE4E
:103AC000FEE75C230593059A9A4202D000F01AFEA5
:103AD000FEE700212046059B00F044FF022384F806
:103AE000593004ABC4F8309001930E9B3A463146EE
:103AF0002846009302944346FFF789FF2046FFF7CC
:103B00007DFE049807B0BDE8F0832DE9F043074639
:103B100085B0900088461646994600F071FE05462D
:103B200020B94FF0FF3005B0BDE8F0835C2000F015
:103B300067FE0446A0B15C22002100F013FF0D9B3C
:103B4000256301930C9B324641463846009302940C
:103B50004B46FFF75CFF2046FFF750FE0120E2E7EF
:103B6000284600F0D1FEDCE730B5002589B007AA71
:103B700006A905A8CDE90555FFF776FC059B079A30
:103B80000293069B1049CDE9005310482B46FFF7DE
:103B900085FF80B100F08EFC012804460FD100F0B3
:103BA000B1FD4FF0FF320A4B1A600A4B1C600A4B02
:103BB0001D6000F057FD094B1B6809B030BD013492
:103BC000F9D100F09FFDFEE7264A0008353F0008C6
:103BD0003C0700205007002058070020E04A00085A
:103BE000024A136801331360704700BF3807002092
:103BF000014B1868704700BF580700202DE9F84FA7
:103C0000524B1B68002B40F09B80514B1C680134C9
:103C10001C608CB94F4B1A68126812B100F072FD2B
:103C2000FEE74D4A19681068186011604B4A136826
:103C300001331360FFF7C4FE494D00212B6849484A
:103C40009C4209D38C46434FDFF828E13B681B6850
:103C50009BB94FF0FF332B601422434B1B68DB6A88
:103C60005343C058414B1B68012898BF002B14BF19
:103C7000012000200843BDE8F88F3B68DB68DB6863
:103C80005A68944201D22A60E6E7D3F81490D3E947
:103C90000262B2609E6803F104085660D9F80420FD
:103CA000424504BFDA68C9F80420D9F80020C3F8F7
:103CB00014C0013AC9F80020D3F82890B9F1000FD8
:103CC00014D0D3E90762B260DE6903F1180A5660C6
:103CD000D9F80420524504BF1A6AC9F80420D9F85B
:103CE0000020C3F828C0013AC9F800201426DA6A77
:103CF000DEF800904A4588BFCEF80020724300EB02
:103D0000020ADAF80490C3F80890D9F808B0C3F8AA
:103D10000CB0CBF80480C9F8088050F80280C3F8D2
:103D200014A008F1010840F802800F4AD2F8008080
:103D3000DA6AD8F82C309A4288BF41F0010185E751
:103D40000B4A002013680133136094E73807002002
:103D500058070020A4070020A007002044070020E7
:103D60003C070020D0070020300C0020480700202E
:103D70004C070020540700202DE9F84F4B4C2368D6
:103D800013B900F0BFFCFEE700F0F2FB2368013B33
:103D9000236023682BB1002400F0F8FB2046BDE827
:103DA000F88F434A1268002AF5D09E4614244FF03B
:103DB000010C404A4049414B414D424E59E0D768C1
:103DC000D7F80CE0DEF82880DEE907078760DEF828
:103DD0001C000EF1180978600020D8F804704F45D7
:103DE00004BFDEF82070C8F80470D8F80070CEF870
:103DF0002800013FC8F80070DEF81480DEE90207F1
:103E00008760DEF808000EF104097860D8F80470C5
:103E10004F4504BFDEF80C70C8F80470D8F8007085
:103E2000013FC8F80070DEF82C70D1F800804745DB
:103E300088BF0F60674303EB070ADAF80480CEF807
:103E40000880D8F808B0CEF80CB0CBF80490C8F8C9
:103E5000089053F80780CEF814A008F1010843F841
:103E600007802F68DEF82C00FF6AB84201D3C6F83D
:103E700000C01768002FA2D1BEF1000F01D0FFF7DC
:103E80009FFD114D2C6844B101270E4EFFF7B6FE81
:103E900000B13760013CF9D12C600A4B1B68002B44
:103EA0003FF479AF00F058FB012475E73807002094
:103EB0005C0700208C07002054070020D00700205A
:103EC000300C0020480700204C07002010B510B926
:103ED00000F018FCFEE711B900F014FCFEE7134BEC
:103EE0001B6813B100F00EFCFEE7FFF779FE104BE4
:103EF00004681A6863182CBF0121002194420BD971
:103F000009B19A420AD300240360FFF735FF08B9CC
:103F100000F022FB204610BD0029F2D003600021F2
:103F2000981AFFF7EBFC0124EFE700BF38070020E9
:103F300058070020F8B51B4C1B4F1C4D2368A3B934
:103F40001B4B1B68012B01D900F006FBFFF71AFD84
:103F50000128F2D9FFF744FE164B1A68164B1B686E
:103F60009A4215D200F0CEFBFEE700F001FBFB68A1
:103F7000DE68301DFFF7B5FA2B68013B2B60236824
:103F8000013B236000F002FB3046FFF72BFDD5E735
:103F9000FFF7F8FC012801D9FCF796F9FFF7ECFED2
:103FA000CBE700BF74070020780700205C070020E3
:103FB000D00700203C07002058070020134B70B5A5
:103FC0001A68134B12B101221A6070BD1426114DEC
:103FD0001A602968104C06FB01F3E258E01872B130
:103FE00042680833526823449A42426008BF5268CC
:103FF0000A4B08BF4260D2681A602960E5E711B930
:1040000000F080FBFEE70139E5E700BF380700203C
:104010004807002054070020D0070020300C002063
:1040200010B50C4610B900F06DFBFEE7054B1968A2
:104030001831FFF73FFA2046BDE810400121FFF795
:104040005DBC00BF300C002070B50C46114610B9A5
:1040500000F058FBFEE70F4B42681D680029EA613B
:1040600096681D682E621D6805F1180575601D684B
:104070001B6805F1180595609862036803F1010358
:10408000036008BF2046BDE8704018BF4FF0FF3006
:10409000FFF734BC300C0020C36870B5D86810B985
:1040A00000F030FBFEE7836AD0E907128A60C1693D
:1040B00051605A6800F118018A4204BF026A5A60CE
:1040C000002282621A68013A1A60204B1B68002B9A
:1040D00030D1D0E9021243698A608168041D5160C1
:1040E0005A68A24204BFC2685A601A68013A1A604C
:1040F000174AC36A11688B424FF0140188BF1360DE
:104100004B43144AD518696881608E68C660746034
:104110008C60D15845610131D150FFF751FC0E4BF5
:10412000C26A1B68DB6A9A4285BF01200B4B0020E4
:10413000186070BD0A4B5A68C2619468046261607D
:1041400091601A68836201321A60E8E7380700203C
:1041500054070020D0070020300C00204807002022
:104160008C070020034B1B680360034B1B684360F4
:10417000704700BF440700205807002070B50D4667
:10418000044610B900F0BEFAFEE711B900F0BAFA21
:10419000FEE700F0EDF90F4B19682B685A1C17D099
:1041A0000D48266800686268864208D08A4206D8B0
:1041B000002301242B6000F0E9F9204670BD881A25
:1041C0008342F5D95B1A134420462B60FFF7CAFFE0
:1041D0000024F0E758070020440700200122014B8B
:1041E0001A60704748070020054B1B6833B1054B28
:1041F0001868B0FA80F0400940007047012070470D
:104200005007002038070020914208B54160006146
:104210000AD8D21A83699A420DD2084B011D186838
:10422000FFF748F9002008BD9A4201D2994202D214
:10423000034B011DF3E70120F5E700BF300D00201F
:10424000340D002070B504460D461646A1692B4674
:10425000324620462944FFF7D7FF00B970BDA36955
:1042600020461D44236A9847F0E700000E4B70B5C6
:104270001B680546DB680E46DC68201DFFF731F938
:1042800094F828305A0709D5324629462046FFF7C8
:10429000D9FF2046236ABDE87040184723F0010388
:1042A00084F82830F5E700BF340D002010B5084C25
:1042B00023681A6822B9074A11681360216010BD8B
:1042C000DB684FF0FF311868FFF7D0FFF0E700BF61
:1042D000340D0020300D0020F7B5114C00F048F9E6
:1042E0002568BDB90F4F104E3846FFF7D5F8304658
:1042F000FFF7D2F80D4B10211F600D4B0A201E60F6
:104300000C4A0D4B0095FFF78BF9206010B10B495B
:10431000FFF72EFA03B0BDE8F04000F037B900BF58
:104320002C0D00204C0D0020380D0020340D0020F5
:10433000300D0020840C0020340C00202B4A000893
:104340002DE9F043574F584E85B03B68D3F80090A5
:10435000B9F1000F23D00025DB68D3F80090FFF7F8
:104360003FFCFFF745FC336804469842DFF8408184
:1043700017D33060002D3CD04C4B1B681D68B5FA3C
:1043800085F56D092A46D8F80000A9EB0401FFF76E
:1043900011FAFFF7F1FC48B900F0DEF806E001255C
:1043A000DDE7FFF783FF3460FFF7E6FC0022694694
:1043B000D8F80000FFF75FF90028C6D0009B0298EC
:1043C000002B1FDB029C63691BBBFFF711FC3368EA
:1043D0000546984201D2FFF769FF009B3560013B1B
:1043E000082BE3D8DFE803F019193C435619193CB0
:1043F00043008145C6D8FFF7BFFC21464846FFF77A
:1044000035FFD3E7019B03999847009B002BCDDB39
:10441000D8E7201DFFF765F8D7E794F82830A169A1
:1044200043F0010384F82830019B2A4620461944B2
:10443000FFF7EAFE0028B9D094F8283059070AD5CA
:10444000A36901992A4620461944FFF7FBFE20463E
:10445000236A9847AAE723F0010384F82830F6E797
:1044600094F8283023F0010384F828309EE794F86C
:104470002830019943F0010384F82830A16111B973
:1044800000F040F9FEE72B462A4620462944FFF774
:10449000BBFE8BE794F828309A07E3D4204600F05F
:1044A00033FA83E7340D0020240D0020300D002066
:1044B0002C0D002010B588B0FFF70EFF0F4B1B68C6
:1044C000B3B1002407AA06A905A8CDE90544FEF763
:1044D000D7FF059B079A0293069B09490193022384
:1044E000084800932346FFF7D9FA074B186010B924
:1044F00000F008F9FEE7012008B010BD2C0D0020E7
:10450000304A000841430008280D0020002307B569
:104510000193074B1B68013302D000F0F3F8FEE76C
:1045200000F0F0F8019B002BFCD003B000BD00BFF1
:104530000C0000204FF0E02200234FF47A71136149
:104540009361044B1B68B3FBF1F3013B53610723F9
:1045500013617047000000204FF0E0234FF08052BD
:10456000C3F8042DBFF34F8FBFF36F8F7047000068
:1045700008B500F0C7F8044A136801331360BFF3AD
:104580004F8FBFF36F8F08BD0C00002008B5084B9C
:104590001A6812B900F0B6F8FEE71A68013A1A6014
:1045A000186818B9BDE8084000F0B7B808BD00BFEA
:1045B0000C00002010B500F0A5F80446FFF71EFB24
:1045C00028B14FF0E0234FF08052C3F8042D20466D
:1045D000BDE8104000F0A1B808B5836913F8023CAB
:1045E000022B03D1BDE8084000F05AB800F08AF869
:1045F000FEE7000010B54FF0807440E90224184A2D
:104600004FF0123440F80C2C4FF003324FF0023CC4
:1046100040E905244FF0013240F8203C40E9072CE6
:104620004FF010334FF011324FF0093440E90A32A5
:104630004FF008334FF0073C40E90C344FF006339D
:104640004FF0053240E90E3C4FF0043340E91032A0
:104650006FF0430340F8443C40F8481D10BD00BFD4
:104660000D4500084FF0E02310B50024D3F8202DAD
:1046700042F47F02C3F8202DD3F8202D42F07F4270
:10468000C3F8202DFFF756FF044B1C6000F028F8FC
:10469000FFF794FCFFF73AFF204610BD0C00002006
:1046A0000B4A1168086806C881F30B88022181F360
:1046B0001488203080F30988BFF36F8F4FF000001B
:1046C00080F31188104700BFAFF30080AFF3008084
:1046D000300C00200000000000000000000000007E
:1046E00007480068006880F3088862B661B6BFF3C7
:1046F0004F8FBFF36F8F02DF00BF00BFAFF30080AB
:1047000008ED00E0EFF311804FF0500181F31188C4
:10471000BFF34F8FBFF36F8F704780F31188BFF3E4
:104720004F8FBFF36F8F7047000000000000000044
:10473000EFF30980EFF30B82734620E9FC0F104A78
:10474000116808604FF0500080F31188BFF34F8F5D
:10475000BFF36F8FFFF732FC4FF0000080F311883A
:10476000074A11680868B0E8FC0F82F30B8880F3F1
:1047700009881847AFF30080AFF30080AFF30080E3
:10478000300C0020000000000000000000000000CD
:104790001EF0040F0CBFEFF30880EFF3098004490B
:1047A000084700BFAFF30080AFF30080AFF3008095
:1047B000D945000810B5104B1A461B688342FBD33D
:1047C00054681119884201BF4168104609195160A7
:1047D000446801198B420CD1084909688B4203D007
:1047E00059682144416019689042016018BF106007
:1047F00010BD1946F8E700BF740D0020700D0020B1
:10480000F8B50446FFF7ECF939490B68F3B9394AB2
:10481000394D50071FBFD01D20F0070002F5005290
:10482000131A0CBF4FF40053024600201344083BF8
:1048300023F0070368602A60C3E90000981AC2E900
:1048400000300B602D4B18602D4B1860002C44D0AD
:1048500004F00703A3F11102A24245D304F1100EA4
:10486000AEEB030CBCF1000F3EDD254F3E68664504
:104870003AD3214A15686868604501D22C688CB922
:104880000968A94230D0A3EB0E0329680344102B1A
:10489000146811600ED905EB0C00420705D0FFF734
:1048A00031FFFEE72A462546E5E74360C5F804C028
:1048B000FFF780FF00236A681049B61A42F00042F1
:1048C0006A60104A08682B601368864203F101038E
:1048D0003E6038BF0E6008341360FFF74DFA63077F
:1048E00004D0FFF70FFFFEE70024F6E72046F8BDEF
:1048F000700D00207C0D0020740D0020680D00203C
:104900006C0D0020640D002010B5044620B350F853
:10491000043C002B02DBFFF7F5FEFEE750F8082C05
:1049200012B1FFF7EFFEFEE723F0004340F8043C2E
:10493000FFF756F9094A54F8043C1168A4F108003D
:104940000B441360FFF736FFBDE81040044A1368BC
:1049500001331360FFF710BA10BD00BF6C0D0020CB
:10496000600D002002440346934200D1704703F8D3
:10497000011BF9E770B50D4B00260D4D5B1B9C101C
:10498000A64209D10B4D00F027F80B4B00265B1B0C
:104990009C10A64205D170BD55F8043B01369847DE
:1049A000EEE755F8043B01369847F2E7E44A000881
:1049B000E44A0008E44A0008E84A00080A44431EA2
:1049C000914200D1704710B511F8014B914203F8A4
:1049D000014FF9D110BD0000F8B500BFF8BC08BC0C
:1049E0009E467047F8B500BFF8BC08BC9E467047AD
:1049F0005461736B5F4170705F31306D730054614F
:104A0000736B5F4273775F31306D73005461736B0A
:104A10005F4170705F316D73005461736B5F4273FF
:104A2000775F316D730049444C4500546D725100FD
:104A3000546D722053766300F049000800000000B6
:104A40000000000000000000000000000002000064
:104A5000080000000000000000000000FE490008FF
:104A60000000000000000000000000000000000046
:104A7000000200001800000000000000000000001C
:104A80000C4A0008000000000000000000000000C8
:104A900000000000000200002000000000000000F4
:104AA00000000000194A000800000000000000009B
:104AB00000000000000000000002000028000000CC
:104AC00000000000000000000000000001020304DC
:104AD00000000000000000000102030406070809AE
:044AE000370000009B
:044AE400850200083F
:044AE800610200085F
:104AEC000090D0030100000010000000AAAAAAAA9E
:0400000508000A499C
:00000001FF
