:020000040800F2
:1000000000400420CD05000825050008270500084C
:10001000290500082B0500082D0500081D0600080D
:10002000000000000000000000000000212900087E
:100030002F05000800000000C1280008B5150008C1
:100040001D0600081D0600081D0600081D06000804
:100050001D0600081D0600081D0600081D060008F4
:100060001D0600081D0600081D0600081D060008E4
:100070001D0600081D0600081D0600081D060008D4
:100080001D0600081D0600081D0600081D060008C4
:100090001D0600081D0600081D0600081D060008B4
:1000A0001D0600081D0600081D0600081D060008A4
:1000B0001D0600081D0600081D0600081D06000894
:1000C0001D0600081D0600081D0600081D06000884
:1000D0001D0600081D0600081D0600081D06000874
:1000E0001D0600081D0600081D0600081D06000864
:1000F0001D060008310500081D0600081D06000841
:100100001D0600081D0600081D0600081D06000843
:100110001D0600081D0600081D0600081D06000833
:100120001D0600081D0600081D0600081D06000823
:100130001D0600081D0600081D0600081D06000813
:100140001D0600081D0600081D0600081D06000803
:100150001D0600081D0600081D0600081D060008F3
:1001600000000000000000001D0600081D06000839
:100170001D0600081D0600081D0600081D060008D3
:100180001D0600081D0600081D06000800000000EE
:10019000000000001D060008000000000000000034
:1001A00000000000000000001D0600081D060008F9
:1001B0001D0600081D0600081D0600081D06000893
:1001C0001D0600081D0600080000000000000000D9
:1001D0000000000000000000000000001D060008F4
:1001E0001D0600081D0600080000000000000000B9
:1001F0001D0600081D0600081D060008000000007E
:10020000000000001D0600081D0600081D0600086D
:100210001D0600081D0600081D0600081D06000832
:100220001D06000800000000000000001D06000878
:100230001D06000800000000000000000000000093
:100240000000000000000000000000001D06000883
:040250001D0600087F
:1002600010B5054C237833B9044B13B10448AFF3F0
:1002700000800123237010BD140000200000000046
:10028000682B000808B5034B1BB103490348AFF3C3
:10029000008008BD0000000018000020682B000846
:1002A00008B5012001F015FAFBE708B5012001F0BF
:1002B00010FAFBE708B5012001F00BFAFBE708B5DF
:1002C000012001F006FAFBE708B500210D4A0E48AF
:1002D00001F0B4F90D4B002118600D4A0D4801F0F2
:1002E000ADF90D4B002118600C4A0D4801F0A6F93C
:1002F0000C4B002118600C4A0C4801F09FF90C4B84
:10030000186008BD242C0008A10200083C00002051
:10031000002C0008B502000838000020DC2B000883
:10032000BF02000834000020B82B0008AB02000810
:100330003000002010B59CB0202200210AA802F055
:10034000D9FB1822002102A802F0D4FB204A13692D
:1003500023F0300343F020031361136903F03003EB
:100360000193019B53691C07FCD501224FF4803394
:100370000324CDE9082302230820CDE91234CDE976
:1003800016331893002305214022CDE9190308A84C
:10039000CDE914121B9300F0FFFB08B172B6FEE723
:1003A0001F23CDE90400CDE90600042102A8CDE910
:1003B000023400F0BBFA08B172B6FEE7054A1368D2
:1003C00023F0300343F0200313601CB010BD00BFC6
:1003D00000080244002002401FB500F021F9FFF799
:1003E000A9FF214B0020D3F88C2042F00402C3F86F
:1003F0008C20D3F88C2002F004020092009AD3F8EB
:100400008C2042F08002C3F88C20D3F88C2002F0BC
:1004100080020192019AD3F88C2042F00102C3F8C5
:100420008C20D3F88C2002F001020292029AD3F8B9
:100430008C2042F00202C3F88C20D3F88C3003F0F9
:1004400002030393039B00F0ABF908B172B6FEE719
:1004500000F0B6F908B172B6FEE701F0B9F8FFF79F
:1004600033FF01F0CBF8FEE7000C02440368B3F160
:10047000804F01D100F0F8B8704700220F216FF0D3
:10048000010000F015B90000224B70B5D3F89C2094
:1004900088B042F00102C3F89C20D3F89C30054696
:1004A00003F001030193694602A8019B00F03AFEA4
:1004B000059B43BB00F024FE4FF08043164E336093
:1004C0006323F360154BB0FBF3F3013B7360002330
:1004D00030463361B36001F021F8044668B9304614
:1004E00000F042FE044640B90F2D10D802462946BE
:1004F0002D2000F0DDF80A4B1D602D2000F008F9DA
:10050000204608B070BD00F0FBFD4000D4E7012498
:10051000F3E700BF000C024440000020A086010069
:1005200008000020FEE7FEE7FEE7FEE7FEE7704773
:10053000014800F081BE00BF4000002001221D499B
:1005400010B5D1F888301C4843F47003C1F88830E6
:100550001A4B1A600022DA611A621C682040186087
:1005600017489A62DA621A6358639A63D8631A6406
:1005700058649A64186820F4802018601A654FF057
:1005800000638B600F4B9A6902F04042B2F1404F1A
:100590000FD1DA69D20741BF0B4ADA6002F1443267
:1005A000DA60DA6942F00202DA61DA6942F00102E5
:1005B000DA6110BD00ED00E0E3EAE2EA000C02447B
:1005C00080020101002002403B2A19080D4885469F
:1005D000FFF7B4FF0C480D490D4A002302E0D45840
:1005E000C4500433C4188C42F9D30A4A0A4C00237D
:1005F00001E013600432A242FBD302F083FAFFF75A
:10060000EBFEFEE700400420000000201400002064
:100610007C2C000814000020D02B0020FEE70000F6
:1006200010B5032000F032F800F0D4F80B4B0C4A60
:100630001B6A03F00F03D35CD8400A4B18600420F8
:1006400000F074F80F20FFF71FFF044618B9FFF7FA
:1006500014FF204610BD0124FBE700BF000C02443C
:10066000502C000800000020034A044B11681B783E
:100670000B441360704700BF8C0000200400002072
:10068000014B1868704700BF8C0000200749030227
:10069000CA6803F4E06322F4E0621204120C13430C
:1006A00043F0BF6343F40033CB60704700ED00E0DC
:1006B000154B30B5DC68C4F30224C4F10703251DD3
:1006C000042B28BF0423062D4FF0FF3594BF0024D0
:1006D000033C05FA03F321EA0303A54022EA0502DD
:1006E000A340002843EA0203ACBF00F16040074A80
:1006F0004FEA0313DBB2ABBF00F5614000F00F001F
:1007000080F80033135430BD00ED00E014ED00E03C
:10071000002807DB01234109034A00F01F00834042
:1007200042F82130704700BF00E100E0042818D8EB
:10073000DFE800F00A18261703004FF0E0221369E3
:1007400043F00403136170474FF0E022136923F074
:1007500004031361114AD2F8E43023F00C03C2F809
:10076000E43070474FF0E022136923F00403136173
:100770000A4AD2F8E43023F00C0343F00403EEE716
:100780004FF0E022136923F004031361034AD2F807
:10079000E43023F00C0343F00803E0E7000C0244CC
:1007A0000146064A106810F0010009BF13680120D5
:1007B00023F004030B4308BF136070470004034099
:1007C000034A0020136843F001031360704700BF21
:1007D000000403404E4B30B5DA6902F01802082AD3
:1007E00000F08F80DA6912F0180F09D11A684948B1
:1007F00012F0200F03D01B68C3F3C103D84030BDF3
:10080000DA6902F01802102A7DD0DA6902F01802C3
:10081000182A7AD1996A9D6A9A6A15F47C5F9C6B52
:10082000C5F30520EBD0C2F30012C4F3CC0462433D
:1008300007EE900A06EE902A01F00302012AB8EEB4
:10084000E77AFAEEE96AF7EE005A0FD0032A4AD0A7
:100850005B6B9FED316AC3F3080307EE903AF8EE45
:10086000E77A77EEA67A77EEA57A37E01A689206ED
:1008700027D51968274AC1F3C101CA4007EE902A5B
:10088000B8EEE76A5B6BC6EE077AC3F3080307EEC0
:10089000103AB8EEC77A37EE267A37EE257A67EE49
:1008A000877A1B4B5B6BC3F34623013307EE103A89
:1008B000F8EEC76A87EEA67AFCEEC77A17EE900AC2
:1008C0009DE75B6B9FED156AC3F3080307EE903A53
:1008D000F8EEE77A77EEA67A77EEA57AC6EE076AA3
:1008E00067EEA67ADDE75B6B9FED0D6AC3F3080345
:1008F00007EE903AF8EEE77A77EEA67A77EEA57AE9
:10090000ECE708487BE7084879E7024877E700BF4B
:10091000000C02440090D0030024744A0024744C5C
:1009200020BCBE4B00093D0040787D012DE9F0411F
:100930000D46044610B90120BDE8F081864A1368CF
:1009400003F00F038B426FD32368DE0678D41807B9
:100950000DD5824920690A6A120902F0700290429C
:1009600081BF0A6A22F4E06242EA00120A62590771
:100970000BD57A49E0680A6A02F07002904281BFA2
:100980000A6A22F0700202430A629A070BD5734981
:10099000A0680A6A02F00F02904281BF0A6A22F040
:1009A0000F0202430A62DF0759D42268960700F15A
:1009B000AC8069490B6803F00F03AB4200F2B280D0
:1009C000500700F1BB8011070DD5644920690B6AFF
:1009D0001B0903F0700398423FBF0B6A23F4E063E6
:1009E00043EA00130B62D3060DD55C4A6169136AB2
:1009F0001B0A03F0700399423FBF136A23F4E043DC
:100A000043EA01231362FFF7E5FEBDE8F041534BD3
:100A1000534A1B6A03F00F03D35CD840514B186054
:100A2000514B1868FFF730BD136823F00F030B43D9
:100A30001360136803F00F038B427FF47CAF83E7EE
:100A4000464960690A6A120A02F07002904281BF48
:100A50000A6A22F4E04242EA00220A6277E7616809
:100A60003E4B03291A681DD112F0007F3FF463AF9B
:100A7000DA6941F2883822F003020A43DA61FFF7AB
:100A8000FFFD63680646032B344F18D1FB6903F062
:100A90001803182B89D0FFF7F3FD801B4045F5D9CB
:100AA000032049E7022902D112F4003FDEE70129C1
:100AB00002D112F4007FD9E712F0020FD6E7022B21
:100AC0000BD1FB6903F01803102B3FF46EAFFFF757
:100AD000D7FD801B4045F4D9E2E7012B10D1FB691B
:100AE00003F01803082B3FF460AFFFF7C9FD801B2C
:100AF0004045F4D9D4E7FFF7C3FD801B4045CFD86C
:100B0000FB6913F0180FF6D14FE71449A0680B6A80
:100B100003F00F0398423FBF0B6A23F00F03034318
:100B20000B6246E70B6823F00F032B430B600B6847
:100B300003F00F03AB427FF4FEAE41E70749E068E4
:100B40000B6A03F0700398423FBF0B6A23F07003F7
:100B500003430B6237E700BF00200240000C024451
:100B6000502C0008000000200800002008B5FFF706
:100B700031FE064B064A1B6A03F00F03D35C03F0F9
:100B80001F03D840034B186008BD00BF000C02448F
:100B9000502C0008000000202DE9F04104460028F8
:100BA0006AD0994BDE699F6A036806F01806DA0678
:100BB00007F0030710D5082EC36903D0182E24D1DF
:100BC000022F22D1002B57D08F4A216A936923F438
:100BD0007C1343EA014393612368D90743D4236814
:100BE0009A0700F19E8023681D0700F1F6802368B4
:100BF000580700F1218123689B0600F19A81A16AC0
:100C0000002940F0BB8100201AE07F4DD3B12B6852
:100C100043F480732B60FFF733FD80462B689B0500
:100C200007D5AB69226A23F47C1343EA0243AB6124
:100C3000D2E7FFF725FDA0EB08000228EED903203C
:100C4000BDE8F0812B6823F480732B60FFF718FD5B
:100C500080462B689805BFD5FFF712FDA0EB080072
:100C60000228F6D9EBE7102E636803D0182E05D1C1
:100C7000032F03D1002BB2D10120E1E7B3F5803F70
:100C8000614D12D12B6843F480332B60FFF7F8FCE1
:100C90000546DFF87481D8F800309B039FD4FFF736
:100CA000EFFC401B6428F6D9C9E7C3B92B6823F4CD
:100CB00080332B602B6823F480132B602B6823F484
:100CC00080232B60FFF7DCFC80462B68980386D5D9
:100CD000FFF7D6FCA0EB08006428F6D9AFE7B3F520
:100CE000A02F08D12B6843F480232B602B6823F4BA
:100CF00080132B60C6E7B3F5A81F2B6806D143F419
:100D000080232B602B6843F48013F2E723F48033B5
:100D10002B602B6823F480232B602B6823F4801333
:100D2000B3E7E3681EB1182E2ED1012F2CD1002B72
:100D3000A2D076B1FFF7A4FC0746334D2B68990784
:100D40001CD52B69626923F4FE0343EA02432B613D
:100D500049E72D4A2169136803F018038B42E9D053
:100D6000136823F018030B431360FFF7FFFE274BB4
:100D70001868FFF789FB0028DCD07DE7FFF780FCCF
:100D8000C01B0228DAD95AE71F4DABB12B68226984
:100D900023F0180313432B602B6843F001032B60EF
:100DA000FFF76EFC07462B689A07CAD4FFF768FC6A
:100DB000C01B0228F7D942E72B6823F001032B6000
:100DC000FFF75EFC07462B689B077FF50CAFFFF72C
:100DD00057FCC01B0228F6D931E7A3690A4DBBB105
:100DE000D5F8F03043F08063C5F8F030FFF748FCE9
:100DF0000746D5F8F03019013FF5F9AEFFF740FC92
:100E0000C01B0228F5D91AE7000C02440800002094
:100E1000D5F8F03023F08063C5F8F030FFF730FCF0
:100E20000746D5F8F0301A017FF5E1AEFFF728FC50
:100E3000C01B0228F5D902E7AF4D6B6ADF071AD550
:100E4000A368AE4D012B26D1D5F8F03043F0010355
:100E5000C5F8F030FFF714FC41F288380546A74F7B
:100E6000D7F8F03099073FF5C6AEFFF709FC401BF5
:100E70004045F5D9E3E66B6A43F001036B62FFF787
:100E8000FFFB07466B6AD807DAD4FFF7F9FBC01BF4
:100E90000228F7D9D3E60BBBD5F8F03041F28838F9
:100EA00023F00103C5F8F030D5F8F03023F08003CB
:100EB000C5F8F030D5F8F03023F00403C5F8F03071
:100EC000FFF7DEFB0746D5F8F0309A077FF593AEC3
:100ED000FFF7D6FBC01B4045F5D9B0E6052B0CD17A
:100EE000D5F8F03043F00403C5F8F030D5F8F03011
:100EF00023F08003C5F8F030A6E7852BD5F8F03055
:100F000008D143F00403C5F8F030D5F8F03043F0D1
:100F10008003EFE723F00103C5F8F030D5F8F03097
:100F200023F00403C5F8F030D5F8F03023F0800347
:100F30008EE7636A714D83B12B6843F480532B6055
:100F4000FFF79EFB07462B689B043FF558AEFFF763
:100F500097FBC01B0228F6D971E62B6823F4805357
:100F60002B60FFF78DFB07462B6898047FF547AE93
:100F7000FFF786FBC01B0228F6D960E6182E5F4DEE
:100F800072D02B68022923F080732B6059D1FFF7B0
:100F900077FB06462B6899014DD4AB6AE26A23F4CD
:100FA0007C5323F003031343226B43EA0223AB6217
:100FB000A36BE26B013B013A5B02120402F4FE02F6
:100FC0009BB21343626B013AC2F308021343226CD3
:100FD000013A120602F0FE4213436B63AB6A23F040
:100FE0001003AB62E36CDB00AB63AB6A43F010034E
:100FF000AB62AB6A626C23F00C031343AB62AB6A67
:10100000A26C23F020031343AB62AB6A43F480333A
:10101000AB622B6843F080732B60FFF731FB044613
:10102000364D2B689A013FF5EEADFFF729FB001B0B
:101030000228F6D903E6FFF723FB801B0228A9D973
:10104000FDE5FFF71DFB04462B689B0106D4AB6A48
:1010500023F4E02323F00303AB62D4E5FFF710FB96
:10106000001B0228F0D9EAE50129AA6A6B6B3FF45C
:1010700003AEE06A02F0030181427FF4FDAD216B13
:10108000C2F305228A427FF4F7AD626BC3F3080115
:10109000013A91427FF4F0ADA26BC3F34621013ACD
:1010A00091427FF4E9ADE26BC3F30641013A91420C
:1010B0007FF4E2AD226CC3F30663013A93427FF4FE
:1010C000DBADAB6BE26CC3F3CC0393423FF49BAD5F
:1010D0000A4DAB6A23F01003AB62FFF7D1FA064664
:1010E000FFF7CEFAB042FBD0E36CDB00AB63AB6A38
:1010F00043F01003B0E700BF00080244000C0244B4
:1011000008B5FFF733FD054B054A1B6AC3F302130D
:10111000D35C03F01F03D84008BD00BF000C02449D
:10112000482C00081F230D4A0360D36903F0030312
:101130004360136A03F00F02826003F07002C26022
:101140001A091B0A03F07003436102F07002044B9A
:1011500002611B6803F00F030B607047000C024430
:10116000002002407047000090F83D30012B4CD128
:10117000022380F83D300368DA6842F00102DA6049
:10118000234A934233D002F1805293422FD0B3F1DD
:10119000804F2CD0B3F1A04F29D01E4A934226D0C5
:1011A00002F18052934222D01B4A93421FD002F197
:1011B000805293421BD0194A934218D002F18052B8
:1011C000934214D0164A934211D002F180529342B6
:1011D0000DD0144A93420AD002F18052934206D0B5
:1011E000114A934203D002F18052934207D1996889
:1011F0000E4A0A40062A06D0B2F5803F03D01A688C
:1012000042F001021A60002070470120704700BFC1
:10121000002C01400004004000080040000C004089
:101220000034014000180040004001400700010068
:101230007047704770477047036870B5DD681E6976
:101240000446B2070ED5A9070CD56FF002021A6149
:10125000012202779B699A0700F0A480FFF7E9FF5B
:1012600000232377730711D568070FD56FF00402A9
:10127000236820461A61022222779B6913F4407F7B
:1012800000F09680FFF7D5FF00232377310710D5B4
:101290002A070ED56FF00802236820461A6104223F
:1012A0002277DB699B0700F08980FFF7C2FF0023EC
:1012B0002377F10610D5EA060ED56FF010022368E9
:1012C00020461A6108222277DB6913F4407F7BD025
:1012D000FFF7AFFF00232377F30708D5E80706D50C
:1012E0006FF00102236820461A61FFF7BFF816F479
:1012F000025F08D0290606D56FF402522368204603
:101300001A6100F03CF9F20508D52B0606D56FF4FA
:101310008072236820461A6100F032F9700608D501
:10132000690606D56FF04002236820461A61FFF770
:1013300082FFB20608D5AB0606D56FF020022368FF
:1013400020461A6100F01AF9F00208D5E90206D524
:101350006FF48012236820461A6100F012F9B2027D
:1013600008D5AB0206D56FF40012236820461A6137
:1013700000F008F9700208D5690206D56FF4800202
:10138000236820461A6100F0FEF8320222D52B02B3
:1013900020D56FF4000223682046BDE870401A6132
:1013A00000F0F2B8FFF744FF2046FFF743FF57E78E
:1013B000FFF73EFF2046FFF73DFF65E7FFF738FFE9
:1013C0002046FFF737FF72E7FFF732FF2046FFF7AF
:1013D00031FF7FE770BD0000494A0368904225D085
:1013E00002F18052904221D0B0F1804F1ED0B0F176
:1013F000A04F1BD0434A904218D002F18052904235
:1014000014D0414A904211D002F1805290420DD046
:101410003E4A90420AD002F18052904206D03C4AA5
:10142000904203D002F1805290422CD14A6823F0BE
:1014300070031343324A904233D002F180529042FB
:101440002FD0B0F1804F2CD0B0F1A04F29D02D4A31
:10145000904226D002F18052904222D02A4A9042F5
:101460001FD002F1805290421BD0284A904218D0DF
:1014700002F18052904214D0254A904211D002F1DC
:10148000805290420DD0234A90420AD002F18052FD
:10149000904206D0204A904203D002F180529042FE
:1014A00003D1CA6823F4407313434A6923F08003CD
:1014B000134303608B68C3620B688362104B9842CE
:1014C00011D003F1805398420DD0114B98420AD0AD
:1014D00003F18053984206D00F4B984203D003F19A
:1014E0008053984201D10B6903630123436103696F
:1014F000DB0742BF036923F001030361704700BFAC
:10150000002C01400004004000080040000C004096
:1015100000340140001800400040014010B504466E
:1015200050B390F83D3003F0FF021BB980F83C2027
:10153000FFF718FE0223206884F83D30211DFFF7D5
:101540004BFF0123002084F8483084F83E3084F8B3
:101550003F3084F8403084F8413084F8423084F8D9
:10156000433084F8443084F8453084F8463084F8B9
:10157000473084F83D3010BD0120FCE770477047CC
:101580007047704770477047704710B5EFF3058498
:1015900014B10124204610BD00F0EAFE0128F9D064
:1015A000EFF31083002BF4D1EFF31184003C18BF4C
:1015B0000124EFE708B54FF0E0231B6900F0D8FEE7
:1015C000012803D0BDE8084001F0BAB808BD00000A
:1015D00008B5FFF7DAFF48B900F0CAFE0128034654
:1015E00007D1054A106820B9136008BD6FF00500E7
:1015F000FBE74FF0FF30F8E74805002010B5FFF794
:10160000C4FF044678B900F0B3FE01280ED1094B9F
:101610001A68012A0AD1084AD47702221A6000F017
:10162000F5FB204610BD6FF00500FBE74FF0FF30E3
:10163000F8E700BF4805002000ED00E00023F0B50A
:1016400087B006460F4614460593FFF79EFFD8B9AC
:10165000D6B1002C2FD0A569002D08BF18256B1E10
:10166000372BAE4611D86368DB070ED4636973B1BC
:101670009A082168D4E902C0BCF1000F09D05B28A8
:1016800002D9206900B1DBB9059807B0F0BD80220E
:10169000EFE70028F8D12369002BF5D105ABCDE9A0
:1016A00000E330463B4692B200F080FB01281CBFAD
:1016B00000230593E8E721464FF0180E8022EDE75E
:1016C000CDE9010C3B463046009500F038FB059013
:1016D000DAE710B50446FFF758FF28B914B12046E1
:1016E00000F01CFD002010BD6FF00500FBE70000BE
:1016F000034B0360034B0B6080231360704700BFF4
:10170000EC040020EC020020034B0360034B0B6051
:1017100080231360704700BF9002002090000020DB
:101720004FF0FF3200F10803C0E902234360036178
:1017300000230360704700230361704730B50C68D5
:10174000631C0AD103695A684A6091608B605960D2
:10175000036808610133036030BD00F108021346DD
:1017600052681568A542FAD9EDE70369D0E901127C
:101770008A6051605968814208BF5A600022026144
:101780001A68013A1A601868704710B5044600F0EC
:10179000B5FFA46B00F0C0FFB4FA84F0400910BD9F
:1017A00003461A6C084610B46AB1DC6899681444A0
:1017B0008C4228BF1968DC6028BFD960D9685DF801
:1017C000044B01F0C3B95DF8044B704770B5044693
:1017D00000F094FF94F8455004F124066DB2002DFA
:1017E00014DCFF2384F8453000F096FF00F086FFFC
:1017F00094F8445004F110066DB2002D12DCFF2362
:1018000084F84430BDE8704000F086BF636A002B66
:10181000E7D0304600F00CFD08B100F0A3FD013D1B
:101820006DB2DCE72369002BE9D0304600F000FD03
:1018300008B100F097FD013D6DB2DEE770B50E46D0
:10184000044610B901F026F8FEE7C56B65B3036CDA
:10185000A3FB053545BB00F051FFD4E90F314B43E5
:101860002268A563D0185B1A62601A44FF23A06047
:1018700084F84430E26084F8453066B9236933B1B6
:1018800004F1100000F0D4FC08B100F02BFF00F0D0
:1018900043FF012070BD04F11000FFF741FF04F188
:1018A0002400FFF73DFFF2E700F0F4FFFEE737B555
:1018B0000D461C4613B900F0EDFFFEE708B11AB162
:1018C00021B900F0E7FFFEE70029FAD15023019388
:1018D000019B502B02D000F0DDFFFEE70121002D1F
:1018E00008BF2246C4E90F0584F84610204622604E
:1018F000019BFFF7A3FF20469DF8183084F84C3079
:1019000003B030BD2DE9FF410E460446019210B9E7
:1019100000F0C0FFFEE721B9036C13B100F0BAFF7D
:10192000FEE700F025FD0546D8B100254FF0000880
:1019300000F0E4FEA76BD7B131462046013FFFF728
:101940002FFFA763236933B104F1100000F070FC8E
:1019500008B100F0C7FE00F0DFFE012004B0BDE8D2
:10196000F081019B002BE1D000F094FFFEE7019B8A
:101970001BB900F0D1FE0020F0E715B902A800F075
:10198000B5FC00F0C9FE00F07DFA00F0B7FE94F857
:101990004430FF2B08BF84F8448094F84530FF2B77
:1019A00008BF84F8458000F0B7FE01A902A800F046
:1019B000A9FCC0B92046FFF7E8FE70B1019904F117
:1019C000240000F0F9FB2046FFF700FF00F018FBB1
:1019D00008B900F087FE0125AAE72046FFF7F6FECA
:1019E00000F00EFBF7E72046FFF7F0FE00F008FBE3
:1019F0002046FFF7CAFE0028EDD0BCE770B510B94D
:101A000000F048FFFEE7B9B100230C4A1C4615461A
:101A10005668864204D105EBC403C3E900100BE00D
:101A20001BB91668002E08BF13460134082C02F1BA
:101A30000802EDD1002BF0D170BD00BF4C05002095
:101A400070B504460D46164600F058FE94F8443032
:101A5000FF2B04BF002384F8443094F84530FF2B5B
:101A600004BF002384F8453000F056FEA36B2BB969
:101A70003246294604F1240000F0B2FB2046BDE8BE
:101A80007040FFF7A3BE00002DE9F041044600F0CE
:101A900035FE304B304E1A68304F01321A603568CF
:101AA000002D4AD134601B68012B1FD1B846404637
:101AB0000135FFF735FE382D08F11408F7D1DFF8AE
:101AC000C480274D4046FFF72BFE2846FFF728FE2F
:101AD0002448FFF725FE2448FFF722FE2348FFF79E
:101AE0001FFE234BC3F80080224B1D60224A201D9D
:101AF000136801331360214A63641168E36A8B42FF
:101B000088BF136014225343F9184A689568A2608D
:101B1000E56068609060FA5861610132FA5000F047
:101B2000FBFD174B1B689BB13368DA6AE36A9A4284
:101B30000ED2BDE8F04100F0D5BD114B1A68E36A42
:101B4000002AD3D13268D26A9A4298BF3460CDE776
:101B5000BDE8F081B0050020840A002024060020A2
:101B6000FC050020E0050020CC050020B405002085
:101B7000F8050020F405002094050020A8050020A9
:101B8000A405002010060020F8B506461A4B1B4C91
:101B90001D6820680F460430FFF7E7FD731C13D162
:101BA00097B1174B21685A688A6090682168C860AD
:101BB00021680431416021680431916022685361D9
:101BC0001A6801321A60F8BD2368AD195D6007D349
:101BD0000C4B18682168BDE8F8400431FFF7AEBD32
:101BE000094B186821680431FFF7A8FD074B1A68F4
:101BF000AA4288BF1D60E6E7AC050020840A0020E9
:101C0000B4050020F4050020F80500209005002010
:101C1000064A13681968064B19B94FF0FF321A606B
:101C200070471268D2681268F9E700BFF805002013
:101C30009005002010B590F8593004463BB9006B70
:101C400000F02AFF2046BDE8104000F025BF012B20
:101C5000F9D0022B02D000F01DFEFEE710BD0000FF
:101C600080B50F4C0F4F104D236833B90F4B1B68D5
:101C7000012BF8D900F036FDF5E700F03FFDFB68D9
:101C8000DE68301DFFF771FD2B68013B2B60236878
:101C9000013B236000F040FD3046FFF7CBFFE3E758
:101CA000C8050020CC050020B00500202406002037
:101CB0002DE9F84F0D46DDE90AA90C9C9600074670
:101CC0003246A521206B984600F014FFD4F830B0BE
:101CD0006DB16B1E04F133020F3513F8011F02F8CA
:101CE000011F09B1AB42F8D1002384F84330BAF1A7
:101CF000370F02D900F0CEFDFEE7201DC4F82CA05E
:101D0000C4F84CA0FFF717FD043E04F11800FFF7DC
:101D100012FDCAF138010BEB0600A16143463A46B9
:101D2000216B2461646220F0070000F029FD20602F
:101D3000B9F1000F01D0C9F80040BDE8F88F2DE9D6
:101D4000F04387B00546DDE90F940E4617469846E6
:101D5000B9F1000F02D100F09DFDFEE714B900F0CB
:101D600099FDFEE75C230593059A9A4202D000F0A4
:101D700091FDFEE700212046059B00F0BBFE0223FB
:101D800084F8593004ABC4F8309001930E9B3A4666
:101D900031462846009302944346FFF789FF2046C8
:101DA000FFF772FE049807B0BDE8F0832DE9F04319
:101DB000074685B0900088461646994600F0E8FD33
:101DC000054620B94FF0FF3005B0BDE8F0835C2038
:101DD00000F0DEFD0446A0B15C22002100F08AFE86
:101DE0000D9B256301930C9B324641463846009378
:101DF00002944B46FFF75CFF2046FFF745FE0120AB
:101E0000E2E7284600F048FEDCE7000030B5002598
:101E100089B007AA06A905A8CDE90555FFF768FC12
:101E2000059B079A0293069B1049CDE90053104881
:101E30002B46FFF784FF80B100F002FC0128044626
:101E40000FD100F027FD4FF0FF320A4B1A600A4B0A
:101E50001C600A4B1D6000F0CBFC094B1B6809B0ED
:101E600030BD0134F9D100F015FDFEE7602C00080B
:101E7000611C000890050020A4050020AC0500208E
:101E80000C000020024A136801331360704700BF42
:101E90008C050020014B1868704700BFAC0500207E
:101EA0002DE9F84F4B4B1B68002B40F08D804A4BBF
:101EB0001C6801341C608CB9484B1A68126812B156
:101EC00000F0E8FCFEE7464A1968106818601160E7
:101ED000444A136801331360FFF79AFEDFF814C118
:101EE0000020DCF80030404A9C42DFF80C810FD221
:101EF0001421D8F80030DB6A4B43D358022B3B4BFC
:101F000028BF01201B68002B18BF0120BDE8F88FF7
:101F1000DFF8C8E0DFF8E490DEF800301B6823B992
:101F20004FF0FF33CCF80030E2E7DEF80030DB683A
:101F3000DB6859688C4202D2CCF80010D8E75D69A2
:101F4000D3E902168E60716069681F1DB9424FF0B7
:101F5000000108BF6E6059612968013929609D6AD6
:101F60007DB1D3E907168E607160696803F1180AC4
:101F700051454FF0000108BF6E6099622968013930
:101F80002960D96AD9F80050A9424FF0140505FB21
:101F900001F502EB050ADAF8046088BFC9F8001001
:101FA000D6F808B09E60C3F80CB0CBF80470B760E8
:101FB000C3F814A0535901335351D8F80030DB6AE9
:101FC000994288BF0120A7E7094A0020136801331E
:101FD00013609BE78C050020AC050020F80500206D
:101FE000F405002098050020240600209C05002010
:101FF000A005002090050020840A0020A8050020EC
:102000002DE9F84F3D4C236813B900F043FCFEE77F
:1020100000F074FB2368013B236023682BB100248C
:1020200000F07AFB2046BDE8F88F354A1268002A96
:10203000F5D04FF0140C4FF00109324E324F3349B6
:10204000DFF8D4E0DFF8CC803EE0F368DB68986A24
:10205000D3E9072494606260426803F11805AA423C
:102060004FF0000208BF44609A620268013A0260C1
:102070005869D3E902249460626042681D1DAA4237
:10208000026808BF4460013A02603868DA6A824236
:102090000CFB02F001EB000ADAF8044088BF3A605A
:1020A000D4F808B09C60C3F80CB0CBF80450A5601D
:1020B0000C58C3F814A001340C50DEF80000C06ABC
:1020C000824201D3C8F800903268002ABDD10BB11A
:1020D000FFF79EFD0E4D2C6844B101270D4EFFF712
:1020E000DFFE00B13760013CF9D12C60094B1B6861
:1020F000002B94D000F0F6FA012491E78C05002023
:10210000B0050020E0050020A805002024060020DE
:10211000A00500209C050020840A002008B518B9FD
:10212000BDE8084000F0DEBA074B196811B100F0B5
:10213000B1FBFEE7FFF7A6FEFFF726FDFFF760FF06
:102140000028EDD008BD00BF8C050020154B70B5F0
:102150001A68154B12B101221A6070BD1426134D76
:102160001A602A68124906FB02F3CC58C81894B1C9
:102170004468083364680B449C4208BF6368446049
:1021800008BF4360142303FB02114B68D968094B55
:1021900019602A60E1E712B900F07CFBFEE7013A22
:1021A000E1E700BF8C0500209C050020A805002069
:1021B00024060020840A002010B50C4610B900F057
:1021C00069FBFEE7054B19681831FFF7B7FA20469F
:1021D000BDE810400121FFF7D7BC00BF840A0020F2
:1021E00070B50C46114610B900F054FBFEE70F4BDA
:1021F00042681D689668EA611D6800292E621D68A4
:1022000005F1180575601D681B6805F118059560D6
:102210009862036803F10103036008BF2046BDE82C
:10222000704018BF4FF0FF30FFF7AEBC840A0020AB
:10223000F8B5C368DB6813B900F02CFBFEE79A6AB7
:10224000D3E9070181604860506803F11804A04297
:1022500008BF5160002199621168013911601D4A5F
:10226000D96A1268002A29D1D3E902405A69A060CC
:10227000446054681D1DAC4208BF506010680138AE
:102280001060154A1068814288BF116014224A43C9
:10229000124886187468A7689C60DF607D60A5603E
:1022A0005E618358013383500D4B1B68DB6A994292
:1022B00085BF01200B4B00201860F8BD0A4A50680A
:1022C0008568D8611D626C6084609A62136801330E
:1022D0001360E9E78C050020A805002024060020F3
:1022E000840A00209C050020E0050020034B1B68A9
:1022F0000360034B1B684360704700BF98050020D4
:10230000AC05002070B50D46044610B900F0C2FAC5
:10231000FEE711B900F0BEFAFEE700F0EFF90F4B4F
:1023200019682B685A1C17D00D4826680068626827
:10233000864208D08A4206D8002301242B6000F090
:10234000EBF9204670BD881A8342F5D95B1A134415
:1023500020462B60FFF7CAFF0024F0E7AC05002001
:10236000980500200122014B1A6070479C0500204F
:10237000054B1B6833B1054B1868B0FA80F0400973
:102380004000704701207047A40500208C05002004
:10239000914208B5416000610AD8D21A83699A4215
:1023A0000DD2084B011D1868FFF7C8F9002008BDC1
:1023B0009A4201D2994202D2034B011DF3E7012058
:1023C000F5E700BF840B0020880B002070B50446A1
:1023D0000D461646A1692B46324620462944FFF792
:1023E000D7FF00B970BDA36920461D44236A9847F2
:1023F000F0E700000E4B70B51B680546DB680E4623
:10240000DC68201DFFF7B1F994F828305A0709D588
:10241000324629462046FFF7D9FF2046236ABDE809
:102420007040184723F0010384F82830F5E700BF17
:10243000880B0020F8B50546FFF72CFD0D4E04462D
:102440003368834209D90C4F3B681A6852B90B4A6A
:10245000116813603960012300E0002320462B60DF
:102460003460F8BDDB684FF0FF311868FFF7C2FF3A
:10247000EAE700BF780B0020880B0020840B0020C7
:102480002DE9F041514F524E86B03B68D3F80080A1
:10249000B8F1000F32D00024DB68D3F80080FFF7DA
:1024A000F1FC02A8FFF7C6FF029B0546002B3AD1BC
:1024B00034BB40452AD3FFF7A3FD29464046FFF72A
:1024C00099FF0022306802A9FFF71CFA0028DCD02F
:1024D000029B0498002B29DB049C63696BBB01A859
:1024E000FFF7A8FF029B0546013B082BE9D8DFE870
:1024F00003F028284B526528284B52000124CEE7D0
:10250000344B1B681C68B4FA84F4640922463068B2
:10251000A8EB0501FFF794FAFFF772FD0028D0D170
:1025200000F0E0F8CDE7FFF76BFDCAE7039B0599E4
:102530009847029B002BC4DBCEE7201DFFF715F95F
:10254000CDE794F82830A16943F0010384F82830DE
:10255000039B024619442046FFF71AFF0028B0D01B
:1025600094F8283059070AD5A36903992A462046CA
:102570001944FFF72BFF2046236A9847A1E723F071
:10258000010384F82830F6E794F8283023F001039B
:1025900084F8283095E794F8283043F0010384F854
:1025A00028300399A16111B900F074F9FEE70346E0
:1025B000024601442046FFF7EBFE82E794F82830FC
:1025C0009A07E3D4204600F067FA7AE7880B0020E8
:1025D000800B0020840B0020F7B5114C00F08EF822
:1025E0002568BDB90F4F104E3846FFF799F83046B1
:1025F000FFF796F80D4B10211F600D4B0A201E604F
:102600000C4A0D4B0095FFF752F9206010B10B49B1
:10261000FFF7F4F903B0BDE8F04000F07DB800BF6B
:10262000800B0020A00B00208C0B0020880B0020CA
:10263000840B0020D80A0020880A0020652C00089E
:1026400010B588B0FFF7C8FF0F4B1B68B3B100246B
:1026500007AA06A905A8CDE90544FFF755F8059B8B
:10266000079A0293069B09490193022308480093A5
:102670002346FFF764FB074B186010B900F00AF916
:10268000FEE7012008B010BD800B00206A2C000876
:10269000812400087C0B0020002307B50193074B21
:1026A0001B68013302D000F0F5F8FEE700F0F2F805
:1026B000019B002BFCD003B05DF804FB1000002050
:1026C0004FF0E02200234FF47A7113619361044BC1
:1026D0001B68B3FBF1F3013B5361072313617047A0
:1026E000000000204FF0E0234FF08052C3F8042D8B
:1026F000BFF34F8FBFF36F8F7047000008B500F036
:10270000C9F8044A136801331360BFF34F8FBFF356
:102710006F8F08BD1000002008B5084B1A6812B969
:1027200000F0B8F8FEE71A68013A1A60186818B99C
:10273000BDE8084000F0B9B808BD00BF1000002097
:1027400010B500F0A7F80446FFF7AAFB28B14FF038
:10275000E0234FF08052C3F8042D2046BDE810401E
:1027600000F0A3B808B5836913F8023C022B03D12B
:10277000BDE8084000F05CB800F08CF8FEE700000F
:1027800010B54FF0807440E90224184A4FF012341B
:1027900040F80C2C4FF003324FF0023C40E9052486
:1027A0004FF0013240F8203C40E9072C4FF0103345
:1027B0004FF011324FF0093440E90A324FF008333C
:1027C0004FF0073C40E90C344FF006334FF0053230
:1027D00040E90E3C4FF0043340E910326FF0430300
:1027E00040F8443C40F8481D10BD00BF9926000841
:1027F0004FF0E02310B50024D3F8202D42F47F02DF
:10280000C3F8202DD3F8202D42F07F42C3F8202DAD
:10281000FFF756FF044B1C6000F02AF8FFF796FC08
:10282000FFF73AFF204610BD100000200000000016
:102830000B4A1168086806C881F30B88022181F3EE
:102840001488203080F30988BFF36F8F4FF00000A9
:1028500080F31188104700BFAFF30080AFF3008012
:10286000840A0020000000000000000000000000BA
:1028700007480068006880F3088862B661B6BFF355
:102880004F8FBFF36F8F02DF00BF00BFAFF3008039
:1028900008ED00E0EFF311804FF0500181F3118853
:1028A000BFF34F8FBFF36F8F704780F31188BFF373
:1028B0004F8FBFF36F8F70470000000000000000D3
:1028C000EFF30980EFF30B82734620E9FC0F104A07
:1028D000116808604FF0500080F31188BFF34F8FEC
:1028E000BFF36F8FFFF732FC4FF0000080F31188C9
:1028F000074A11680868B0E8FC0F82F30B8880F380
:1029000009881847AFF30080AFF30080AFF3008071
:10291000840A002000000000000000000000000009
:102920001EF0040F0CBFEFF30880EFF30980044999
:10293000084700BFAFF30080AFF30080AFF3008023
:102940006527000810B5104B1A461B688342FBD35D
:1029500054681119884201BF416810460919516035
:10296000446801198B420CD1084909688B4203D095
:1029700059682144416019689042016018BF106095
:1029800010BD1946F8E700BFC80B0020C40B00209B
:10299000F8B50446FFF776FA39490B68F3B9394AB6
:1029A000394D50071FBFD01D20F0070002F500521F
:1029B000131A0CBF4FF40053024600201344083B87
:1029C00023F0070368602A60C3E90000981AC2E98F
:1029D00000300B602D4B18602D4B1860002C44D03C
:1029E00004F00703A3F11102A24245D304F1100E33
:1029F000AEEB030CBCF1000F3EDD254F3E68664593
:102A00003AD3214A15686868604501D22C688CB9B0
:102A10000968A94230D0A3EB0E0329680344102BA8
:102A2000146811600ED905EB0C00420705D0FFF7C2
:102A300031FFFEE72A462546E5E74360C5F804C0B6
:102A4000FFF780FF00236A681049B61A42F000427F
:102A50006A60104A08682B601368864203F101031C
:102A60003E6038BF0E6008341360FFF7C9FA630791
:102A700004D0FFF70FFFFEE70024F6E72046F8BD7D
:102A8000C40B0020D00B0020C80B0020BC0B002082
:102A9000C00B0020B80B002010B5044620B350F83E
:102AA000043C002B02DBFFF7F5FEFEE750F8082C94
:102AB00012B1FFF7EFFEFEE723F0004340F8043CBD
:102AC000FFF7E0F9094A54F8043C1168A4F1080042
:102AD0000B441360FFF736FFBDE81040044A13684B
:102AE00001331360FFF78CBA10BD00BFC00B00208C
:102AF000B40B002002440346934200D1704703F810
:102B0000011BF9E770B50D4D00260D4C641BA41098
:102B1000A64209D10B4D00260B4C00F025F8641B92
:102B2000A410A64205D170BD55F8043B0136984764
:102B3000EEE755F8043B01369847F2E7742C00089D
:102B4000742C0008742C0008782C00080A44431EDA
:102B5000914200D1704710B511F8014B914203F832
:102B6000014FF9D110BD0000F8B500BFF8BC08BC9A
:102B70009E467047F8B500BFF8BC08BC9E4670473B
:102B80005461736B5F4170705F31306D73005461DD
:102B9000736B5F4273775F31306D73005461736B99
:102BA0005F4170705F316D73005461736B5F42738E
:102BB000775F316D73000000802B0008000000007B
:102BC0000000000000000000000000000002000003
:102BD0001800000000000000000000008E2B00081C
:102BE00000000000000000000000000000000000E5
:102BF00000020000180000000000000000000000BB
:102C00009C2B0008000000000000000000000000F5
:102C1000000000000002000018000000000000009A
:102C200000000000A92B00080000000000000000C8
:102C3000000000000000000000020000180000007A
:102C4000000000000000000000000000010203047A
:102C5000000000000000000001020304060708094C
:102C600049444C4500546D725100546D72205376A6
:042C700063000000FD
:042C740085020008CD
:042C780061020008ED
:102C7C000090D0030100000010000000370000009D
:042C8C00AAAAAAAA9C
:04000005080005CD1D
:00000001FF
