:020000040800F2
:1000000000400420150B00086D0A00086F0A000864
:10001000710A0008730A0008750A0008650B0008D9
:10002000000000000000000000000000014800087F
:10003000770A000800000000BD4700085946000884
:10004000650B0008650B0008650B0008650B0008D0
:10005000650B0008650B0008650B0008650B0008C0
:10006000650B0008650B0008650B0008650B0008B0
:10007000650B0008650B0008650B0008650B0008A0
:10008000650B0008650B0008650B0008650B000890
:10009000650B0008650B0008650B0008650B000880
:1000A000650B0008650B0008650B0008650B000870
:1000B000650B0008650B0008650B0008650B000860
:1000C000650B0008650B0008650B0008650B000850
:1000D000650B0008650B0008650B0008650B000840
:1000E000650B0008650B0008650B0008650B000830
:1000F000650B0008790A0008650B0008650B00080D
:10010000650B0008650B0008650B0008650B00080F
:10011000650B0008650B0008650B0008650B0008FF
:10012000650B0008650B0008650B0008650B0008EF
:10013000650B0008650B0008650B0008650B0008DF
:10014000650B0008650B0008650B0008650B0008CF
:10015000650B0008650B0008650B0008650B0008BF
:100160000000000000000000650B0008650B00089F
:10017000650B0008650B0008650B0008650B00089F
:10018000650B0008650B0008650B00080000000007
:1001900000000000650B00080000000000000000E7
:1001A0000000000000000000650B0008650B00085F
:1001B000650B0008650B0008650B0008650B00085F
:1001C000650B0008650B000800000000000000003F
:1001D000000000000000000000000000650B0008A7
:1001E000650B0008650B000800000000000000001F
:1001F000650B0008650B0008650B00080000000097
:1002000000000000650B0008650B0008650B000886
:10021000650B0008650B0008650B0008650B0008FE
:10022000650B00080000000000000000650B0008DE
:10023000650B000800000000000000000000000046
:10024000000000000000000000000000650B000836
:04025000650B000832
:1002540010B5054C237833B9044B13B10448AFF3FC
:1002640000800123237010BD0C000020000000005A
:100274009C4A000808B5034B1BB103490348AFF37C
:10028400008008BD00000000100000209C4A000807
:1002940007B503F061FC019001224FF48071094815
:1002A40001F0D0FA084A0121136801A80133136050
:1002B40003F0D6FD00224FF48071024801F0C2FA27
:1002C400EAE700BF000802423400002007B503F04B
:1002D40043FC0A4C019001222021094801F0B2FAA2
:1002E40023680A21013301A8236003F0B9FD002229
:1002F4002021034801F0A6FAEDE700BF30000020FA
:100304000004024207B503F027FC0A4C01900122C5
:100314001021094801F096FA23683221013301A81B
:10032400236003F09DFD00221021034801F08AFAA6
:10033400EDE700BF2C0000200004024207B503F0E3
:100344000BFC0B4C019001224FF48061094801F031
:1003540079FA23686421013301A8236003F080FD46
:1003640000224FF48061034801F06CFAEBE700BF10
:10037400280000200004024210B59CB02022002175
:100384000AA804F04FFB1822002102A804F04AFB3B
:10039400204A136923F0300343F0200313611369E7
:1003A40003F030030193019B53691C07FCD5012220
:1003B4004FF480330324CDE9082302230820CDE938
:1003C4001234CDE916331893002305214022CDE9D8
:1003D400190308A8CDE914121B9301F0DDFC08B140
:1003E40072B6FEE71F23CDE90400CDE9060004211F
:1003F40002A8CDE9023401F099FB08B172B6FEE718
:10040400054A136823F0300343F0200313601CB043
:1004140010BD00BF000802440020024080B596B021
:1004240000F0A0FBFFF7A8FF142200210EA804F09F
:10043400F9FAA34B4FF49071D3F88C20A14842F001
:100444000402C3F88C20D3F88C20002402F00402A8
:100454000392039AD3F88C20012642F08002C3F859
:100464008C20D3F88C2002F080020492049AD3F8F2
:100474008C2042F00102C3F88C20D3F88C2002F0C7
:1004840001020592059AD3F88C2042F00202C3F8C7
:100494008C20D3F88C30002203F002030693069BD1
:1004A40001F0D0F900224FF48661874801F0CAF9BF
:1004B4004FF4907383480EA9CDE90E36CDE910446C
:1004C40001F018F94FF486637F480EA9CDE90E3682
:1004D400CDE9104401F00EF94FF480737B480EA966
:1004E400CDE90E34109401F005F9204601F050FADC
:1004F40008B172B6FEE701F05BFA054608B172B6C0
:10050400FEE71C2201460DEB020004F08BFA29469B
:1005140020220EA804F086FA04274FF480236C4CA2
:100524006C492046C4E90013C4E90255C4E90A55DC
:10053400256167612583E66184F8205084F834508E
:100544002563A56384F83C5000F070FB08B172B6D3
:10055400FEE74FF44003DFF8C0E140F60572CDE951
:1005640007E34FF4F563CDE90B234FF440535A4DA1
:10057400204607A909958DF828600D9300F022FE06
:1005840008B172B6FEE74FF0060C0523CDE90FC3A0
:100594007F2313900EA92046CDE911370E9500F064
:1005A40021FC034608B172B6FEE74C484C4AC0E948
:1005B4000233C0E900231022C0E905260F22C0E956
:1005C4000966C0E90727C0E90B66C0E90D33038259
:1005D4008374C36300F092FF08B172B6FEE7414C26
:1005E400414B424DC4E90206C4E90400C4E90600D3
:1005F40020622046C4E9005301F029F9014608B1FC
:1006040072B6FEE7204601F077F9014608B172B6EA
:10061400FEE7204601F096F9034608B172B6FEE7FC
:100624004FF48002324833494FF00054C0E90012BD
:1006340007224FF04051C0E90323C0E90A324FF0CA
:100644008042C0E90641C0E90833C0E90D23C0E98E
:100654001233C0E91433C0E9163383604361C363C2
:10066400036602F037FC08B172B6FEE700240125E8
:1006740023464FF480722049CDE900541F4803F00B
:10068400EEF923464FF480721D49CDE900541D480C
:1006940003F0E5F923464FF480721B49CDE9005479
:1006A4001A4803F0DCF923464FF480721849CDE967
:1006B4000054184803F0D3F903F000FAFEE700BF32
:1006C400000C0244000802420004024200000242FC
:1006D4008001002000800242020030041C0100203E
:1006E40000A80040C8000020FF7BF0000054004038
:1006F4003800002000300140B44A00089502000888
:10070400BD4A0008D1020008C74A000809030008CE
:10071400D14A0008410300080000C07D0368B3F11A
:10072400804F01D100F042BA704772B6FEE701F083
:1007340049B9000010B50446BCB01422002103A836
:1007440004F070F9D022002108A804F06BF92268A3
:10075400214B9A423DD14FF4001200230321CDE9ED
:10076400082304234022CDE90A13CDE90C23CDE963
:100774000E33082310934FF480231393022308A805
:10078400309301F0C3FE08B1FFF7CFFF134B1448B9
:10079400D3F88C2003A942F48062C3F88C20D3F8E8
:1007A4008C2002F480620192019AD3F88C2042F0EA
:1007B4000102C3F88C20D3F88C30022203F0010329
:1007C4000293029B0323CDE903230023059300F046
:1007D40091FF3CB010BD00BF00800242000C0244F7
:1007E4000000024210B50446BCB01422002103A844
:1007F40004F018F9D022002108A804F013F92268A3
:100804001C4B9A4233D104230022CDE908234FF430
:10081400807308A82D9301F079FE08B1FFF785FFD6
:10082400154B1648D3F8A02003A942F40072C3F86C
:10083400A020D3F8A02002F400720192019AD3F808
:100844008C2042F00202C3F88C20D3F88C304FF491
:10085400405203F002030293029B0223CDE90323D7
:100864000023CDE905330923079300F043FF3CB08F
:1008740010BD00BF00A80040000C02440004024266
:1008840010B50446BCB01422002103A804F0CAF831
:10089400D022002108A804F0C5F822681A4B9A4215
:1008A40030D14FF40052002308A8CDE9082301F009
:1008B4002DFE08B1FFF739FF144CC022D4F88C3058
:1008C400134843F00203C4F88C30D4F88C3003A9E5
:1008D40003F002030193019B1223CDE903230023B8
:1008E400CDE905330423079300F004FFD4F89C30CA
:1008F40043F40013C4F89C30D4F89C3003F4001380
:100904000293029B3CB010BD00540040000C024412
:100914000004024210B50446BCB01422002103A80E
:1009240004F080F8D022002108A804F07BF82268A3
:10093400234B9A4241D14FF000620023CDE90823B2
:10094400042340220321CDE916230222CDE9141306
:10095400CDE9182320231B934FF4803308A81D935B
:10096400339201F0D3FD08B1FFF7DFFE154B1648B3
:10097400D3F8A42003A942F48052C3F8A420D3F8E6
:10098400A42002F480520192019AD3F88C2042F000
:100994000102C3F88C20D3F88C3048F2E00203F053
:1009A40001030293029B0223CDE903230023CDE933
:1009B40005330523079300F09DFE3CB010BD00BF36
:1009C40000300140000C02440000024230B5224BCA
:1009D40089B0D3F89C20054642F00102C3F89C205C
:1009E400D3F89C30694603F00103019302A8019BEC
:1009F40001F098FC059B43BB01F082FC4FF080435F
:100A0400164A13606323D360154BB0FBF3F3013B29
:100A14005360002310461361936002F0BDFC04464A
:100A240068B90E4802F008FB044640B90F2D10D8EF
:100A3400024629462D2000F0E9FC0A4B1D602D20BA
:100A440000F014FD204609B030BD01F059FC40000F
:100A5400D4E70124F3E700BF000C0244E8010020BE
:100A6400A086010008000020FEE7FEE7FEE7FEE79F
:100A7400FEE77047014802F047BB00BFE8010020D1
:100A840001221D4910B5D1F888301C4843F4700385
:100A9400C1F888301A4B1A600022DA611A621C68A5
:100AA4002040186017489A62DA621A6358639A639E
:100AB400D8631A6458649A64186820F48020186013
:100AC4001A654FF000638B600F4B9A6902F0404245
:100AD400B2F1404F0FD1DA69D20741BF0B4ADA6055
:100AE40002F14432DA60DA6942F00202DA61DA6968
:100AF40042F00102DA6110BD00ED00E0E3EAE2EA4F
:100B0400000C024480020101002002403B2A190823
:100B14000D488546FFF7B4FF0C480D490D4A0023E4
:100B240002E0D458C4500433C4188C42F9D30A4A9E
:100B34000A4C002301E013600432A242FBD303F009
:100B440079FFFFF76BFCFEE7004004200000002063
:100B54000C000020104B00080C0000202C89002001
:100B6400FEE7000010B5032000F03EFC00F032FF69
:100B74000B4B0C4A1B6A03F00F03D35CD8400A4B9F
:100B84001860042000F080FC0F20FFF71FFF0446CC
:100B940018B9FFF7CCFD204610BD0124FBE700BFC8
:100BA400000C0244F14A000800000020034A044BF0
:100BB40011681B780B441360704700BF3402002097
:100BC40004000020014B1868704700BF3402002065
:100BD40030B50725CC0D04F0040414300359C1F3D7
:100BE40004518D4023EA05038A401343035130BD69
:100BF40041F3000330B503F02403C1F301541C4452
:100C04000C3050F8243021F0024525F4401523EA35
:100C1400050311400B4340F8243030BD806800F0D8
:100C2400010070478068C0F380007047002337B527
:100C340004460193002800F0C680856D25B9FFF7AE
:100C440079FDE56584F8545023689A68950041BF9E
:100C54009A6822F0204222F03F029A609A68D000FB
:100C640040F190809A68D10000F1A3800121A26D27
:100C740042F01002A265E26D42F00102E2651846FC
:100C8400FFF7D0FFA26D02F01002024340F09780FC
:100C9400A26D184622F4817242F00202A265FFF7A7
:100CA400BDFF78B94948FFF7B9FF02464848FFF746
:100CB400B5FF024306D147486568826822F47C1276
:100CC4002A438260E568A26B94F820002A43A56851
:100CD400012842EA0502657E42EA453242EA0042C0
:100CE40002BF606A00F1FF3042EA4042A06A20B1CC
:100CF400E56A00F4787028430243DD6836482840EA
:100D04001043D8601A69206B22F0406202431A61D2
:100D14009A6812071ED4D86894F83420257E5200AD
:100D240020F4804042EA853220F002000243DA6077
:100D340094F83C20012A3ED1D4E9102518692A43AD
:100D44006FF38A000243A06C0243E06C024342F05A
:100D540001021A612269012A05BF186BE2691A6B44
:100D640002F1FF3206BF20F00F00024322F00F020F
:100D74001A63A36D23F0030343F00103A36508463C
:100D840003B030BD9A68154922F0104222F03F02A8
:100D940042F080529A60124A1268B2FBF1F20132B8
:100DA40052000192019A002A3FF45CAF019A013A81
:100DB400F7E7002163E71A6922F00102C9E7A36D8E
:100DC40043F01003A3650121D9E700BF008002426C
:100DD40000810242008302420740F0FF400D0300FD
:100DE400000000200023F7B5019390F85430054625
:100DF400012B0E4600F0D1810123046880F85430A1
:100E04002046FFF70FFF002840F0C1810B68012B3B
:100E140006D0AE4A934214D1C968AD4A914210D16A
:100E2400AC4A94420BBFAC49D4F8C820D1F8C820CE
:100E340042F0010206BF42F00102C1F8C820C4F822
:100E4400C8201F27716804F1300C880900F00C00D9
:100E54005CF8002001F01F018F40C3F3846322EA91
:100E640007028B4013434CF800302046FFF7DAFEAC
:100E7400A26802F0080202433AD1B3683168B3F1C0
:100E8400004F73D12046FFF7A3FE636943F000438C
:100E940063613769E068042F326804F160036DD040
:100EA4007169C0F3C100400053F827C081408B48EA
:100EB40002F0F8420CEA00001043014341F0004103
:100EC40043F827103169B06953F8212022F0807269
:100ED400024343F82120317F30694F1E53F820200C
:100EE4007942794122F0007242EA416243F82020BB
:100EF4002046FFF793FE70BBF7683368784AD4F84E
:100F0400B01007F0180CC3F3130022FA0CF21A40C5
:100F140021EA00010A43C4F8B0206D4A97421AD16D
:100F2400002840F08A8001209A0E013202F01F014D
:100F340009294FEA826201FA00F300F2A48002F068
:100F4400F842884002430B441B0543EA0201204651
:100F5400B268FFF73DFE3268624B1A4240F0C4802B
:100F64000020002385F8543003B0F0BD1A46204613
:100F7400FFF72EFE636923F0004389E7216E216E9B
:100F8400C2F31300C1F38461002839D1C2F384622F
:100F9400914202BF226E22F000422266626E3268E3
:100FA400616EC2F31300C1F3846100282FD1C2F330
:100FB4008462914202BF626E22F0004262669A68C5
:100FC40032689968C2F31300C1F3846130BBC2F381
:100FD4008462914202BF9A6822F000429A60DA6801
:100FE4003268D968C2F31300C1F38461E8B9C2F36B
:100FF4008462914202BFDA6822F00042DA6077E745
:1010040092FAA2F2002AC9D0B2FA82F2C0E792FAA6
:10101400A2F2002AD3D0B2FA82F2CAE792FAA2F27A
:10102400002ADCD0B2FA82F2D3E792FAA2F2002AC2
:101034003FF45EAFB2FA82F2DBE793FAA3F232B185
:10104400B2FA82F1481C00F01F00092825D893FA4F
:10105400A3F193FAA3F093FAA3F3B1FA81F1B0FAEE
:1010640080F0B3FA83F3012201310130890600F0E4
:101074001F00013301F0F841824003F01F030A43CB
:1010840003EB430360E7884002F0F842194402434B
:101094001E39090541F0007357E7481C93FAA3F37E
:1010A400B2FA82F1B3FA83F301220131013301F080
:1010B4001F01800603F01F038A4000F0F84003EB91
:1010C40043030243A3F11E01E3E700BF020030041F
:1010D40000007F40008102420080024200F0FF03D2
:1010E400FFFF0F00000008802D4B2E4E9968B2427E
:1010F40001F0E0701CD10E023FF532AF2A4A94424F
:101104007FF42EAF9A6822F0E072024342F40002A8
:101114009A60264B264A1B68B3FBF2F301335B004B
:101124000193019B002B3FF41BAF019B013BF7E7AD
:10113400204EB2420ED1C9013FF512AF1E4A94426D
:101144007FF40EAF9A6822F0E072024342F080729C
:101154009A6005E7194EB2420DD14A023FF500AF3D
:10116400114A94427FF4FCAE9A6822F0E072024382
:1011740042F48002ECE7124B9A427FF4F1AE0E4A3D
:10118400D2F8C83043F00103C2F8C830E8E6AA6DCB
:10119400184642F02002AA65E3E60220E4E600BF16
:1011A40000830242000021C30080024200000020AC
:1011B400400D03000000294300810242000052C791
:1011C40000005A4770B590F854300546012B0E467E
:1011D40000F0FE80012204684B6880F85420204609
:1011E400FFF720FDA26802F0080202433CD109681F
:1011F400784A914264D1B3F1A07F55D00BD8B3F5AE
:10120400400F14D0B3F1807F56D0B3F5000F51D006
:101214000022704910E0B3F1C07F4FD0B3F1E07FFA
:10122400F6D1B26822F07C7242F0E07204E0B26857
:1012340022F07C7242F440022046FFF7D9FC236A74
:10124400B26923F4E04313432362AB6D23F4803388
:10125400AB6580232360337B012B63680CBF43F0B1
:10126400800323F0800363605A4B3268D6E904019B
:101274009A42E36840F08C80C3F3C1035B0098405A
:10128400E368C3F3C1035B009940930C03F00C03C0
:101294002034E25802F0F0220A4342EA00420020DD
:1012A400E25085F8540070BDB26822F07C7242F0BE
:1012B400A072C1E7484ABFE7484ABDE7484ABBE7CE
:1012C400B3F1A07F18D011D8B3F5400F14D0B3F107
:1012D400807F02D0B3F5000F58D1414A2046FFF772
:1012E40087FC32683F4B9A4239D116E0B3F1C07F94
:1012F400F3D0B3F1E07F49D13A48B3688142C3F3F4
:10130400130221D1CAB9C3F38463012202FA03F39D
:10131400D4F8A0201343C4F8A030AB6D23F40033F9
:10132400AB654FF480732360337B012B63680CBF80
:1013340043F4807323F4807395E793FAA3F3002BAB
:10134400E3D0B3FA83F3E0E7CAB9C3F384630122B9
:1013540002FA03F3D4F8A4201343C4F8A430AB6D09
:1013640023F48023AB654FF400732360337B012B9C
:1013740063680CBF43F4007323F4007373E793FAB8
:10138400A3F3002BE3D0B3FA83F3E0E70022A5E74D
:1013940003F01803182B17BFE3688000C3F3C103DD
:1013A400C3F102031EBF5B0003F01E03D840E368D1
:1013B40003F01803182B17BFE3688900C3F3C103B4
:1013C400C3F102031EBF5B0003F01E03D9405CE7B8
:1013D400022068E70000C07DFFFF8F00FFFF0F01C0
:1013E400FFFF8F01FFFF1F0007490302CA6803F4D0
:1013F400E06322F4E0621204120C134343F0BF636F
:1014040043F40033CB60704700ED00E0154B30B57A
:10141400DC68C4F30224C4F10703251D042B28BF90
:101424000423062D4FF0FF3594BF0024033C05FA36
:1014340003F321EA0303A54022EA0502A34000289E
:1014440043EA0203ACBF00F16040074A4FEA0313CA
:10145400DBB2ABBF00F5614000F00F0080F8003351
:10146400135430BD00ED00E014ED00E0002807DB6C
:1014740001234109034A00F01F00834042F8213050
:10148400704700BF00E100E0042818D8DFE800F04E
:101494000A18261703004FF0E022136943F00403EF
:1014A400136170474FF0E022136923F004031361C2
:1014B400114AD2F8E43023F00C03C2F8E430704748
:1014C4004FF0E022136923F0040313610A4AD2F8AF
:1014D400E43023F00C0343F00403EEE74FF0E02282
:1014E400136923F004031361034AD2F8E43023F0B0
:1014F4000C0343F00803E0E7000C024438B504464B
:10150400002800F0CD8090F85C3003F0FF021BB996
:1015140080F85D20FFF766F92268936923F01003D1
:101524009361FFF74FFB054623689A69110700F1A1
:10153400AA809A6942F001029A61FFF743FB0546CB
:1015440023689A69D20740F1AD809A6942F0020299
:101554009A61634A934204BF6168C2F80011227C15
:10156400012A9A690CBF22F0400242F040029A61BB
:10157400627C012A9A690CBF42F4804222F48042C0
:101584009A61A27C012A9A690CBF22F4805242F427
:1015940080529A619A69A06822F4407202439A6167
:1015A4009A6922F0A4029A611A6922F010021A615F
:1015B400E268012A7DD19A6942F004029A61A26923
:1015C400B0F5407F02F1FF31E26902F1FF324FEAE8
:1015D400022242EA4162216A01F1FF3142EA010238
:1015E400616901F1FF3142EA0142DA610ED1E26A36
:1015F400511E226B013A120142EA0122A16A013909
:101604000A43616A013942EA0142DA60D3F8C02030
:10161400E16B34480A43C3F8C0203349334A656B4D
:101624008B4218BF0246D3F88010226421F4F811CB
:1016340041EA0541C3F8801002F170016164D3F8F6
:101644008010A56B21F0706141EA0561C3F8801038
:1016540002F1B003A36402F5C473E36402F51873E2
:10166400236502F51E7321496365214B824208BF3D
:101674000B4600219A422FD3012321660020A16545
:1016840084F85C300DE0FFF79DFA401B0A287FF6D2
:101694004BAF236E43F001032366032384F85C30CD
:1016A400012038BDFFF78EFA401B0A287FF648AFA9
:1016B400EFE7002A83D0022A0AD09969032A41F06D
:1016C40080019961196941F0100119617FF477AFC4
:1016D4009A6942F0200271E742F8041BCAE700BF8E
:1016E40000A4004000AC004000A8004050AF0040FF
:1016F400A0B200402DE9F74F00234FF00F094F4AE5
:101704004F4C02EA902201920A6832FA03F502D1A0
:1017140003B0BDE8F08F012505FA03F818EA0202C8
:1017240000F08A804D6825F01007022F16D14FEA89
:10173400D30C00EB8C0C03F0070EDCF820604FEAAE
:101744008E0E09FA0EFA26EA0A0A0E6906F00F0648
:1017540006FA0EF646EA0A06CCF820600326D0F80C
:1017640000B04FEA430E06FA0EF605F0030A2BEA20
:10177400060B6FEA060C013F0AFA0EF646EA0B0660
:10178400012F06608E680BD9BAF1030F1AD0C7680F
:1017940006FA0EF60CEA070C46EA0C06C66013E0DD
:1017A40087680CEA070ACF6807FA0EF747EA0A07C0
:1017B4008760476827EA08082F099F4047EA080717
:1017C4004760E4E7012EE2D1EE0035D523F00307AC
:1017D40007F1884803F00306019FF60009FA06FEA4
:1017E40007FA06F6D74308F50838D8F860C015F4A8
:1017F400801F2CEA0E0C46EA0C06C8F860602668C6
:101804000CBF3E4016432660666815F4001F0CBFEB
:101814003E4016436660D4F8846015F4003F0CBF64
:101824003E401643C4F88460D4F88060ED0354BF8E
:101834003E401643C4F88060013365E77F7F2F0084
:10184400002002440AB1816170478162704710B57B
:10185400044600284ED090F8413003F0FF021BB933
:1018640080F84020FFF70CF8242384F841302368E3
:101874001A6822F001021A60626822F070621A612A
:101884009A6822F400429A60D4E90221012906D11F
:1018940042F400429A605A6822F4006207E042F47B
:1018A400044202299A60F6D15A6842F400625A60EE
:1018B4005A68002042F0007242F400425A60DA682A
:1018C40022F40042DA60D4E904210A43A16942EA1D
:1018D4000122DA60D4E907210A431A601A6842F047
:1018E40001021A602023606484F84130206384F884
:1018F400420010BD0120FCE710B590F841200346DA
:10190400202AD4B21CD190F84020012A18D02422D5
:1019140080F841200268106820F00100106010680F
:1019240020F4805010601068014300201160116899
:1019340041F00101116083F8414083F8400010BD7B
:101944000220FCE710B590F841200346202AD4B2C7
:101954001BD190F84020012A17D0242280F841207E
:101964000268106820F001001060106820F47060B4
:1019740040EA012100201160116841F00101116069
:1019840083F8414083F8400010BD0220FCE70000CA
:101994000146064A106810F0010009BF13680120CF
:1019A40023F004030B4308BF136070470004034093
:1019B400034A0020136843F001031360704700BF1B
:1019C40000040340024AD36A43F00103D362704720
:1019D400000802444E4B30B5DA6902F01802082AB6
:1019E40000F08F80DA6912F0180F09D11A6849489B
:1019F40012F0200F03D01B68C3F3C103D84030BDDD
:101A0400DA6902F01802102A7DD0DA6902F01802AD
:101A1400182A7AD1996A9D6A9A6A15F47C5F9C6B3C
:101A2400C5F30520EBD0C2F30012C4F3CC04624327
:101A340007EE900A06EE902A01F00302012AB8EE9E
:101A4400E77AFAEEE96AF7EE005A0FD0032A4AD091
:101A54005B6B9FED316AC3F3080307EE903AF8EE2F
:101A6400E77A77EEA67A77EEA57A37E01A689206D7
:101A740027D51968274AC1F3C101CA4007EE902A45
:101A8400B8EEE76A5B6BC6EE077AC3F3080307EEAA
:101A9400103AB8EEC77A37EE267A37EE257A67EE33
:101AA400877A1B4B5B6BC3F34623013307EE103A73
:101AB400F8EEC76A87EEA67AFCEEC77A17EE900AAC
:101AC4009DE75B6B9FED156AC3F3080307EE903A3D
:101AD400F8EEE77A77EEA67A77EEA57AC6EE076A8D
:101AE40067EEA67ADDE75B6B9FED0D6AC3F308032F
:101AF40007EE903AF8EEE77A77EEA67A77EEA57AD3
:101B0400ECE708487BE7084879E7024877E700BF35
:101B1400000C02440090D0030024744A0024744C46
:101B240020BCBE4B00093D0040787D012DE9F04109
:101B34000D46044610B90120BDE8F081864A1368B9
:101B440003F00F038B426FD32368DE0678D41807A3
:101B54000DD5824920690A6A120902F07002904286
:101B640081BF0A6A22F4E06242EA00120A6259075B
:101B74000BD57A49E0680A6A02F07002904281BF8C
:101B84000A6A22F0700202430A629A070BD573496B
:101B9400A0680A6A02F00F02904281BF0A6A22F02A
:101BA4000F0202430A62DF0759D42268960700F144
:101BB400AC8069490B6803F00F03AB4200F2B280BA
:101BC400500700F1BB8011070DD5644920690B6AE9
:101BD4001B0903F0700398423FBF0B6A23F4E063D0
:101BE40043EA00130B62D3060DD55C4A6169136A9C
:101BF4001B0A03F0700399423FBF136A23F4E043C6
:101C040043EA01231362FFF7E5FEBDE8F041534BBD
:101C1400534A1B6A03F00F03D35CD840514B18603E
:101C2400514B1868FEF7D2BE136823F00F030B4321
:101C34001360136803F00F038B427FF47CAF83E7D8
:101C4400464960690A6A120A02F07002904281BF32
:101C54000A6A22F4E04242EA00220A6277E76168F3
:101C64003E4B03291A681DD112F0007F3FF463AF85
:101C7400DA6941F2883822F003020A43DA61FEF796
:101C8400A1FF63680646032B344F18D1FB6903F0A8
:101C94001803182B89D0FEF795FF801B4045F5D912
:101CA400032049E7022902D112F4003FDEE70129AB
:101CB40002D112F4007FD9E712F0020FD6E7022B0B
:101CC4000BD1FB6903F01803102B3FF46EAFFEF742
:101CD40079FF801B4045F4D9E2E7012B10D1FB6961
:101CE40003F01803082B3FF460AFFEF76BFF801B73
:101CF4004045F4D9D4E7FEF765FF801B4045CFD8B3
:101D0400FB6913F0180FF6D14FE71449A0680B6A6A
:101D140003F00F0398423FBF0B6A23F00F03034302
:101D24000B6246E70B6823F00F032B430B600B6831
:101D340003F00F03AB427FF4FEAE41E70749E068CE
:101D44000B6A03F0700398423FBF0B6A23F07003E1
:101D540003430B6237E700BF00200240000C02443B
:101D6400F14A0008000000200800002008B5FFF731
:101D740031FE064B064A1B6A03F00F03D35C03F0E3
:101D84001F03D840034B186008BD00BF000C024479
:101D9400F14A0008000000202DE9F0410446002823
:101DA4006AD0994BDE699F6A036806F01806DA0662
:101DB40007F0030710D5082EC36903D0182E24D1C9
:101DC400022F22D1002B57D08F4A216A936923F422
:101DD4007C1343EA014393612368D90743D42368FE
:101DE4009A0700F19E8023681D0700F1F68023689E
:101DF400580700F1218123689B0600F19A81A16AAA
:101E0400002940F0BB8100201AE07F4DD3B12B683C
:101E140043F480732B60FEF7D5FE80462B689B0548
:101E240007D5AB69226A23F47C1343EA0243AB610E
:101E3400D2E7FEF7C7FEA0EB08000228EED9032084
:101E4400BDE8F0812B6823F480732B60FEF7BAFEA3
:101E540080462B689805BFD5FEF7B4FEA0EB0800BA
:101E64000228F6D9EBE7102E636803D0182E05D1AB
:101E7400032F03D1002BB2D10120E1E7B3F5803F5A
:101E8400614D12D12B6843F480332B60FEF79AFE28
:101E94000546DFF87481D8F800309B039FD4FEF721
:101EA40091FE401B6428F6D9C9E7C3B92B6823F413
:101EB40080332B602B6823F480132B602B6823F46E
:101EC40080232B60FEF77EFE80462B68980386D520
:101ED400FEF778FEA0EB08006428F6D9AFE7B3F567
:101EE400A02F08D12B6843F480232B602B6823F4A4
:101EF40080132B60C6E7B3F5A81F2B6806D143F403
:101F040080232B602B6843F48013F2E723F480339F
:101F14002B602B6823F480232B602B6823F480131D
:101F2400B3E7E3681EB1182E2ED1012F2CD1002B5C
:101F3400A2D076B1FEF746FE0746334D2B689907CB
:101F44001CD52B69626923F4FE0343EA02432B6127
:101F540049E72D4A2169136803F018038B42E9D03D
:101F6400136823F018030B431360FFF7FFFE274B9E
:101F74001868FEF72BFD0028DCD07DE7FEF722FE73
:101F8400C01B0228DAD95AE71F4DABB12B6822696E
:101F940023F0180313432B602B6843F001032B60D9
:101FA400FEF710FE07462B689A07CAD4FEF70AFE0E
:101FB400C01B0228F7D942E72B6823F001032B60EA
:101FC400FEF700FE07462B689B077FF50CAFFEF774
:101FD400F9FDC01B0228F6D931E7A3690A4DBBB14C
:101FE400D5F8F03043F08063C5F8F030FEF7EAFD31
:101FF4000746D5F8F03019013FF5F9AEFEF7E2FDDA
:10200400C01B0228F5D91AE7000C0244080000207E
:10201400D5F8F03023F08063C5F8F030FEF7D2FD38
:102024000746D5F8F0301A017FF5E1AEFEF7CAFD98
:10203400C01B0228F5D902E7AF4D6B6ADF071AD53A
:10204400A368AE4D012B26D1D5F8F03043F001033F
:10205400C5F8F030FEF7B6FD41F288380546A74FC3
:10206400D7F8F03099073FF5C6AEFEF7ABFD401B3D
:102074004045F5D9E3E66B6A43F001036B62FEF772
:10208400A1FD07466B6AD807DAD4FEF79BFDC01B97
:102094000228F7D9D3E60BBBD5F8F03041F28838E3
:1020A40023F00103C5F8F030D5F8F03023F08003B5
:1020B400C5F8F030D5F8F03023F00403C5F8F0305B
:1020C400FEF780FD0746D5F8F0309A077FF593AE0A
:1020D400FEF778FDC01B4045F5D9B0E6052B0CD1C1
:1020E400D5F8F03043F00403C5F8F030D5F8F030FB
:1020F40023F08003C5F8F030A6E7852BD5F8F0303F
:1021040008D143F00403C5F8F030D5F8F03043F0BB
:102114008003EFE723F00103C5F8F030D5F8F03081
:1021240023F00403C5F8F030D5F8F03023F0800331
:102134008EE7636A714D83B12B6843F480532B603F
:10214400FEF740FD07462B689B043FF558AEFEF7AB
:1021540039FDC01B0228F6D971E62B6823F480539D
:102164002B60FEF72FFD07462B6898047FF547AEDA
:10217400FEF728FDC01B0228F6D960E6182E5F4D35
:1021840072D02B68022923F080732B6059D1FEF79B
:1021940019FD06462B6899014DD4AB6AE26A23F413
:1021A4007C5323F003031343226B43EA0223AB6201
:1021B400A36BE26B013B013A5B02120402F4FE02E0
:1021C4009BB21343626B013AC2F308021343226CBD
:1021D400013A120602F0FE4213436B63AB6A23F02A
:1021E4001003AB62E36CDB00AB63AB6A43F0100338
:1021F400AB62AB6A626C23F00C031343AB62AB6A51
:10220400A26C23F020031343AB62AB6A43F4803324
:10221400AB622B6843F080732B60FEF7D3FC04465B
:10222400364D2B689A013FF5EEADFEF7CBFC001B53
:102234000228F6D903E6FEF7C5FC801B0228A9D9BB
:10224400FDE5FEF7BFFC04462B689B0106D4AB6A90
:1022540023F4E02323F00303AB62D4E5FEF7B2FCDE
:10226400001B0228F0D9EAE50129AA6A6B6B3FF446
:1022740003AEE06A02F0030181427FF4FDAD216BFD
:10228400C2F305228A427FF4F7AD626BC3F30801FF
:10229400013A91427FF4F0ADA26BC3F34621013AB7
:1022A40091427FF4E9ADE26BC3F30641013A9142F6
:1022B4007FF4E2AD226CC3F30663013A93427FF4E8
:1022C400DBADAB6BE26CC3F3CC0393423FF49BAD49
:1022D4000A4DAB6A23F01003AB62FEF773FC0646AB
:1022E400FEF770FCB042FBD0E36CDB00AB63AB6A7F
:1022F40043F01003B0E700BF00080244000C02449E
:1023040008B5FFF733FD054B054A1B6AC3F30213F7
:10231400D35C03F01F03D84008BD00BF000C024487
:10232400E94A00081F230D4A0360D36903F003033D
:102334004360136A03F00F02826003F07002C2600C
:102344001A091B0A03F07003436102F07002044B84
:1023540002611B6803F00F030B607047000C02441A
:102364000020024070B5334C0546236823F0806397
:102374002360FEF727FC064623681A014CD4E36A5F
:102384002A6823F47C5323F0030313436A6843EA63
:102394000223E362EB682A69013B013A5B021204FF
:1023A40002F4FE029BB21343AA68013AC2F3080284
:1023B40013436A69013A120602F0FE421343E363CF
:1023C400E36AAA6923F00C031343E362E36AEA694C
:1023D40023F020031343E362E36A6A6A1343E3626C
:1023E400E36A23F01003E362236C2A6A6FF3CF03DA
:1023F40043EAC2032364E36A0E4D43F01003E3622D
:10240400236843F080632360FEF7DCFB04462B68FB
:102414001B0108D5002005E0FEF7D4FB801B022831
:10242400AAD9032070BDFEF7CDFB001B0228EED90C
:10243400F7E700BF000C024470B5334C054623682F
:1024440023F080532360FEF7BDFB064623689A0001
:102454004CD4236B2A6823F47C5323F003031343E3
:102464006A6843EA02232363EB682A69013B013A61
:102474005B02120402F4FE029BB21343AA68013AFF
:10248400C2F3080213436A69013A120602F0FE42DB
:1024940013436364236BAA6923F00C03134323637C
:1024A400236BEA6923F0200313432363236B6A6AD3
:1024B40013432363236B23F010032363A36C2A6A5F
:1024C4006FF3CF0343EAC203A364236B0E4D43F0BF
:1024D40010032363236843F080532360FEF772FBE9
:1024E40004462B689B0008D5002005E0FEF76AFB34
:1024F400801B0228AAD9032070BDFEF763FB001BD2
:102504000228EED9F7E700BF000C024402682DE967
:10251400F843D701054608D52049806DD1F8E83045
:1025240023F040430343C1F8E830D60715D5EB6DDB
:10253400052B26D8DFE803F008032008080805F176
:102544000800FFF70FFFF0B9144AE96DD2F8D8304C
:1025540023F007030B43C2F8D83000262B689C07EE
:1025640008D52B6E102B00F072810ED89BB1082B6E
:1025740016D00126344624E005F13000FFF75CFF55
:10258400E1E70126EAE70326E8E723F00802202A28
:1025940001D0182BEDD1344607E000BF000C0244F3
:1025A40005F10800FFF7DEFE0446002C40F05481DC
:1025B400AA4A296ED2F8D83023F038030B43C2F864
:1025C400D8302B6858070DD56B6E802B00F06581D1
:1025D40000F24A81002B00F04F81402B00F057811C
:1025E400012634462B6819070FD5AB6EB3F5806FFF
:1025F40000F0748100F25881002B00F05E81B3F585
:10260400007F00F06581012634462B68DA060FD579
:10261400EB6EB3F5005F00F0828100F26681002B5F
:1026240000F06C81B3F5805F00F0738101263446BD
:102634002B689B060FD52B6FB3F5803F00F090817C
:1026440000F27481002B00F07A81B3F5004F00F0A2
:102654008181012634462B68DF040FD56B6FB3F1FB
:10266400007F00F09E8100F28281002B00F08881BF
:10267400B3F1807F00F08F81012634462B689804E3
:102684000BD5AB6FB3F5803F00F0A38100F29081CE
:10269400002B00F09381012634462B6859040BD596
:1026A400EB6FB3F5802F00F0AD8100F29A81002B1F
:1026B40000F09D81012634462B681A040CD5D5F808
:1026C4008030B3F5801F00F0B78100F2A381002BA6
:1026D40000F0A681012634462B68DB030BD5D5F820
:1026E4008430B3F1807F00F0AF8133F0007300F0E9
:1026F400B081012634466B68DF040BD5D5F88830E9
:10270400B3F1806F00F0B38133F0006300F0B48163
:1027140001263446D5E90013180509D54F4BDA696B
:1027240022F40042DA61DA69D5F8C8000243DA61BA
:10273400890310D5D5F88C30B3F5007F00F0C5813E
:1027440000F2A881002B00F0AE81B3F5807F00F089
:10275400B681012634462B685A0310D5D5F890303B
:10276400B3F5005F00F0D38100F2B681002B00F0D6
:10277400BC81B3F5805F00F0C481012634462B6828
:102784009B0216D5D5F8A030022B00F0C78103D9DF
:10279400033B022B00F2C881002C40F0C8812F4A71
:1027A400D5F8A010D2F8E83023F007030B43C2F8A1
:1027B400E830D5E900039F0510D5D5F8A41031F011
:1027C400080340F0B681002C40F0B681234AD2F8C9
:1027D400E83023F008030B43C2F8E830800140F1ED
:1027E400B8811F4F7B6A43F001037B62FEF7EAF96D
:1027F40080467B6AD90740F1A381002C40F0FD811B
:10280400164FD7F8F03013F4407340F0C581D5F873
:10281400BC30124903F44072B2F5407F40F0E981C4
:10282400C869104A20F47C5002EA13120243CA61B8
:102834000A4AC3F30B03D2F8F01021F44071C2F832
:10284400F010D2F8F0100B43C2F8F03081E105F13A
:102854003000FFF7F1FDA7E62646B2E6000C02447D
:1028640000080244CFFFFF0023F04002B2F5807F4E
:1028740002D0C02B7FF4B4AEA4B9B04A696ED2F8CA
:10288400D83023F4E0730B43C2F8D830AAE605F13C
:102894000800FFF767FD0446EEE705F13000FFF797
:1028A400CBFDF8E726469DE623F40072B2F5006FEF
:1028B40003D0B3F5C06F7FF4A6AEA4B99F4AA96E46
:1028C400D2F8D83023F460630B43C2F8D8309CE6C6
:1028D40005F10800FFF746FD0446EEE705F1300078
:1028E400FFF7AAFDF8E726468FE623F48052B2F5F7
:1028F400804F03D0B3F5405F7FF498AEA4B98F4AFC
:10290400E96ED2F8D83023F4E0430B43C2F8D83050
:102914008EE605F10800FFF725FD0446EEE705F114
:102924003000FFF789FDF8E7264681E623F40042EC
:10293400B2F5003F03D0B3F5C03F7FF48AAEA4B92B
:102944007E4A296FD2F8D83023F460330B43C2F89F
:10295400D83080E605F10800FFF704FD0446EEE7F1
:1029640005F13000FFF768FDF8E7264673E623F02B
:102974008072B2F1806F03D0B3F1407F7FF47CAEFC
:10298400A4B96E4A696FD2F8E03023F0E0630B43D8
:10299400C2F8E03072E605F10800FFF7E3FC0446F4
:1029A400EEE705F13000FFF747FDF8E7264665E658
:1029B40023F48033B3F5003F7FF46DAE7CB95F4AF6
:1029C400A96FD2F8E43023F440330B43C2F8E43067
:1029D40063E605F13000FFF72FFD0446EEE72646D7
:1029E4005BE623F48023B3F5002F7FF463AE7CB958
:1029F400524AE96FD2F8E43023F440230B43C2F87F
:102A0400E43059E605F13000FFF716FD0446EEE721
:102A1400264651E623F48013B3F5001F7FF45AAE23
:102A240084B9464AD5F88010D2F8E43023F4401330
:102A34000B43C2F8E4304FE605F13000FFF7FCFC2D
:102A44000446EDE7264647E605F13000FFF7F4FCBF
:102A5400044654B9394AD5F88410D2F8E43023F046
:102A640040730B43C2F8E43045E6264643E605F1DD
:102A74003000FFF7E1FC044654B9304AD5F8881019
:102A8400D2F8E43023F040630B43C2F8E43041E66B
:102A940026463FE623F48072B2F5806F03D0B3F587
:102AA400407F7FF456AEACB9244AD5F88C10D2F8E6
:102AB400DC3023F4E0630B43C2F8DC304BE605F171
:102AC4000800FFF74FFC0446EDE705F13000FFF77F
:102AD400B3FCF8E726463EE623F48052B2F5804F75
:102AE40003D0B3F5405F7FF448AEACB9134AD5F8D0
:102AF4009010D2F8DC3023F4E0430B43C2F8DC300E
:102B04003DE605F10800FFF72DFC0446EDE705F16D
:102B14003000FFF791FCF8E7264630E605F108009F
:102B2400FFF720FC044637E60126344641E62646F4
:102B34003FE60126344651E626464FE6000C0244A1
:102B4400FEF740F8A0EB080002287FF652AE0326F9
:102B5400344629684F0108D5D5F89820102A5CD04E
:102B64004DD8002A4FD001263446480207D5D5F85F
:102B74009C30002B59D0402B68D0012634462B685A
:102B840019017BD5D5F8AC30042B00F29080DFE836
:102B940003F06583896A6A00D5F8BC2002F44072A8
:102BA40093423FF434AED7F8F020D7F8F03022F453
:102BB400407143F48033C7F8F030D7F8F030D207CF
:102BC40023F48033C7F8F030C7F8F0107FF51FAE58
:102BD400FDF7F8FF41F288398046D7F8F0309B07BB
:102BE4003FF515AEFDF7EEFFA0EB08004845F4D91C
:102BF400ADE7CA6922F47C5219E62646A9E722F019
:102C04001003202BAFD174B9A348D0F8E83023F0D7
:102C140030031343C0F8E830A7E79F48836A43F4BE
:102C240000338362EFE726469FE79B4A936A43F4A7
:102C34000033936284B9984AD5F89C10D2F8E430F2
:102C440023F040030B43C2F8E43098E705F1080091
:102C5400FFF788FB0446EDE7264690E78E4A936A21
:102C640043F4003393622CBB8B4AD5F8AC10D2F8F2
:102C7400E03023F007030B43C2F8E0302B68DA009E
:102C840029D5D5F8B030102B40D015D893B3082BE4
:102C940036D0012634461EE005F10800FFF762FB3A
:102CA4000446E0E705F13000FFF7C6FBF8E701262C
:102CB4003446E3E72646E1E7182B01D0202BE8D180
:102CC4004CBB754AD5F8B010D2F8E03023F0380385
:102CD4000B43C2F8E0302B689B002FD5D5F8B430F5
:102CE400802B51D019D8002B42D0402B46D001263E
:102CF400344623E0684A936A43F400339362DFE77F
:102D040005F10800FFF72EFB0446D9E705F1300072
:102D1400FFF792FBF8E72646DDE7C02B02D0B3F5B8
:102D2400807FE4D1002C34D15B4AD5F8B410D2F8BA
:102D3400E03023F4E0730B43C2F8E0302B685F000B
:102D44000BD5D5F8B830B3F5806F3ED023D853B344
:102D5400B3F5007F33D0012634466B6898074CD511
:102D6400D5F8A830032B78D8DFE803F03B36713B65
:102D7400494A936A43F400339362D3E705F10800A8
:102D8400FFF7F0FA0446CDE705F13000FFF754FBF6
:102D9400F8E72646D2E723F40072B2F5006F02D0BA
:102DA400B3F5C06FD7D1ACB93B4AD5F8B810D2F857
:102DB400E03023F460630B43C2F8E030CDE705F163
:102DC4000800FFF7CFFA0446EDE705F13000FFF7FE
:102DD40033FBF8E72646C0E72F4A936A43F40033EF
:102DE4009362002C3CD12C4AD5F8A810D2F8E430D8
:102DF40023F003030B43C2F8E4306B6859070AD588
:102E0400D5F89430B3F5807F2CD0B3F5007F3AD059
:102E14006BB3012634466B68DA0650D5D5F8C43056
:102E2400202B4ED0302B3ED0102B37D001246B6892
:102E34001B0709D5184AD5F8C010D2F8E83023F09A
:102E4400C0030B43C2F8E8302046BDE8F88305F11F
:102E54000800FFF787FA0446C3E701263446CCE7A7
:102E64002646CAE70C4A936A43F40033936284B952
:102E7400094AD5F89410D2F8E83023F440730B4390
:102E8400C2F8E830C7E705F10800FFF76BFA04461B
:102E9400EDE72646BFE700BF000C02440C4A936AE4
:102EA40043F400339362002CC1D1094AD5F8C4100D
:102EB400D2F8E43023F030030B43C2F8E430344654
:102EC400B5E705F13000FFF7B7FA0446EBE700BFBA
:102ED400000C0244F8B5044608B90120F8BD0023EB
:102EE400026883624E4B9A42C36802D04D498A42BB
:102EF40001D10F2BF1D8E16B08334909DB0801FB41
:102F0400033347498A4203D001F180518A4262D196
:102F1400082BE2D894F8893003F0FF0223B9204645
:102F240084F88820FDF7F6FC0223226884F88930AF
:102F34001368656823F0010313609368A66B03F4B8
:102F4400F81CA369B3F1806F04D1B5F5800F59D192
:102F5400002E5CD015F48001E06817685CD0062868
:102F64005AD927F4807E276D4EEA07071760E76970
:102F74002B433843A76A33433843E76B384340EA6B
:102F84000C009060606B0343606A03432069034351
:102F940060690343206A0343E06C0343A06803436E
:102FA400A06C0343A06D0343E06D0343206E034311
:102FB400D360136D23F00103136529B1D368616DE8
:102FC40023F000430B43D36000200123C4F88C009A
:102FD40084F8893082E714498A4211D001F1805182
:102FE4008A420DD011498A420AD001F180518A42A5
:102FF40006D00F498A4203D001F180518A4289D117
:10300400102B86E7002DA5D1B6F1805FA2D11168FF
:1030140041F4805111609DE727F48077A6E700BF53
:10302400004C0140004C0150003001400038004089
:10303400003C00407047000090F83D30012B4CD11B
:10304400022380F83D300368DA6842F00102DA6056
:10305400234A934233D002F1805293422FD0B3F1EA
:10306400804F2CD0B3F1A04F29D01E4A934226D0D2
:1030740002F18052934222D01B4A93421FD002F1A4
:10308400805293421BD0194A934218D002F18052C5
:10309400934214D0164A934211D002F180529342C3
:1030A4000DD0144A93420AD002F18052934206D0C2
:1030B400114A934203D002F18052934207D1996896
:1030C4000E4A0A40062A06D0B2F5803F03D01A6899
:1030D40042F001021A60002070470120704700BFCF
:1030E400002C01400004004000080040000C004097
:1030F4000034014000180040004001400700010076
:103104007047704770477047036870B5DD681E6983
:103114000446B2070ED5A9070CD56FF002021A6156
:10312400012202779B699A0700F0A480FFF7E9FF68
:1031340000232377730711D568070FD56FF00402B6
:10314400236820461A61022222779B6913F4407F88
:1031540000F09680FFF7D5FF00232377310710D5C1
:103164002A070ED56FF00802236820461A6104224C
:103174002277DB699B0700F08980FFF7C2FF0023F9
:103184002377F10610D5EA060ED56FF010022368F6
:1031940020461A6108222277DB6913F4407F7BD032
:1031A400FFF7AFFF00232377F30708D5E80706D519
:1031B4006FF00102236820461A61FDF7AFFA16F496
:1031C400025F08D0290606D56FF402522368204610
:1031D4001A6100F012F9F20508D52B0606D56FF432
:1031E4008072236820461A6100F008F9700608D539
:1031F400690606D56FF04002236820461A61FFF77E
:1032040082FFB20608D5AB0606D56FF0200223680C
:1032140020461A6100F0F0F8F00208D5E90206D55C
:103224006FF48012236820461A6100F0E8F8B202B5
:1032340008D5AB0206D56FF40012236820461A6144
:1032440000F0DEF8700208D5690206D56FF480023A
:10325400236820461A6100F0D4F8320222D52B02EA
:1032640020D56FF4000223682046BDE870401A613F
:1032740000F0C8B8FFF744FF2046FFF743FF57E7C5
:10328400FFF73EFF2046FFF73DFF65E7FFF738FFF6
:103294002046FFF737FF72E7FFF732FF2046FFF7BC
:1032A40031FF7FE770BD0000344A0368904225D0A7
:1032B40002F18052904221D0B0F1804F1ED0B0F183
:1032C400A04F1BD02E4A904218D002F18052904257
:1032D40014D02C4A904211D002F1805290420DD069
:1032E400294A90420AD002F18052904206D0274ADD
:1032F400904203D002F18052904208D14A6823F0F0
:1033040070031343CA6823F4407313430DE0204A47
:103314009042F7D002F180529042F3D01D4A90427D
:10332400F0D002F180529042ECD04A6923F080033D
:1033340013438A68C2620A688262104A904211D0BA
:1033440002F1805290420DD0104A90420AD002F10C
:103354008052904206D00F4A904203D002F180522C
:10336400904201D10A690263026842F004020260D9
:1033740001224261BFF34F8F03607047002C01406C
:103384000004004000080040000C004000340140EC
:10339400001800400040014010B5044650B390F8B6
:1033A4003D3003F0FF021BB980F83C20FFF742FEDA
:1033B4000223206884F83D30211DFFF775FF0123A7
:1033C400002084F8483084F83E3084F83F3084F894
:1033D400403084F8413084F8423084F8433084F833
:1033E400443084F8453084F8463084F8473084F813
:1033F4003D3010BD0120FCE77047704770477047AF
:103404007047704770474FF0FF3200F10803C0E97E
:1034140002234360036100230360704700230361B8
:10342400704730B50C68631C0AD103695A684A6056
:1034340091608B605960036808610133036030BD9B
:1034440000F10802134652681568A542FAD9EDE75F
:103454000369D0E901128A6051605968814208BF4A
:103464005A6000220261186801381860704710B56C
:10347400044601F0D5F8A46B01F0DEF8B4FA84F048
:10348400400910BD03461A6C084610B462B1DC68EA
:10349400A1189C68D960A14228BF19685DF8044B43
:1034A40028BFD96001F0EABA5DF8044B704770B5E3
:1034B400044601F0B5F894F8455004F124066DB2C1
:1034C400002D01DD636AB3B9FF2384F8453001F0B0
:1034D400B3F801F0A5F894F8445004F110066DB265
:1034E400002D01DD23697BB9FF2384F84430BDE856
:1034F400704001F0A1B8304600F074FD08B100F04E
:1035040011FE013D6DB2DBE7304600F06BFD08B102
:1035140000F008FE013D6DB2E2E770B50E460446C8
:1035240008B972B6FEE7C56B65B3036CA3FB05353A
:1035340045BB01F075F8D4E90F314B432268A5630C
:10354400D0185B1A62601A44FF23A06084F84430E8
:10355400E26084F8453066B9236933B104F11000A0
:1035640000F040FD08B101F04FF801F065F80120CA
:1035740070BD04F11000FFF746FF04F12400FFF7CB
:1035840042FFF2E772B6FEE737B50D461C460BB9AB
:1035940072B6FEE708B112B119B972B6FEE7002996
:1035A400FBD148230193019B482B01D072B6FEE75F
:1035B4000121002D08BF2246C4E90F0584F84610F6
:1035C40020462260019BFFF7A8FF204603B030BDD0
:1035D4002DE9FF410E460446019208B972B6FEE792
:1035E40019B9036C0BB172B6FEE700F0C3FD0546D2
:1035F40018B9019B13B172B6FEE700254FF000081D
:1036040034E0019B1BB901F017F8002045E015B91F
:1036140002A800F04DFD01F00FF800F095FA00F05B
:10362400FFFF94F84430FF2B08BF84F8448094F8DB
:103634004530FF2B08BF84F8458000F0FDFF01A949
:1036440002A800F041FD88BB2046FFF710FF38B305
:10365400019904F1240000F08DFC2046FFF727FFB8
:1036640000F060FB08B900F0CFFF012500F0D8FF9F
:10367400A76B002FC5D031462046FFF703FF23690F
:10368400013FA76333B104F1100000F0ABFC08B1B3
:1036940000F0BAFF00F0D0FF012004B0BDE8F081D3
:1036A4002046FFF704FF00F03DFBDEE72046FFF76E
:1036B400FEFE00F037FB2046FFF7D9FE0028D4D0E9
:1036C400A3E770B504460D46164600F0A9FF94F82A
:1036D4004430FF2B04BF002384F8443094F8453071
:1036E400FF2B04BF002384F8453000F0A5FFA36B33
:1036F4002BB93246294604F1240000F04DFC204643
:10370400BDE87040FFF7D3BE2DE9F041044600F058
:1037140087FF304B304E1A68304F01321A603568DB
:10372400002D49D134601B68012B1FD1B846404697
:103734000135FFF768FE052D08F11408F7D1DFF80D
:10374400C480274D4046FFF75EFE2846FFF75BFE28
:103754002448FFF758FE2448FFF755FE2348FFF797
:1037640052FE234BC3F80080224B1D60224A201DC9
:10377400136801331360214AE36A11688B4288BFDE
:10378400136014225343F9184A68A2609568E560EF
:1037940068609060FA5861610132FA5000F04CFFA1
:1037A400174B1B689BB13368DA6AE36A9A420ED2FC
:1037B400BDE8F04100F028BF114B1B68002BD5D1A8
:1037C4003368DA6AE36A9A4298BF3460CEE7BDE8A8
:1037D400F08100BF28070020000800209C0700207B
:1037E4007407002058070020440700202C070020FD
:1037F400700700206C0700200C0700202007002021
:103804001C070020880700202DE9F84306461D4BBD
:103814001D4C1D681D4B0F46D3F800801C4BD3F87C
:10382400009020680430FFF713FE731C14D19FB17D
:10383400184B21685A688A6090682168C8602168BA
:1038440004314160216804319160226853611A682F
:1038540001321A60BDE8F88323682168AD195D6000
:1038640001F1040104D34846BDE8F843FFF7D9BD8C
:103874004046FFF7D6FD084B1A68AA4288BF1D6070
:10388400E8E700BF2407002000080020700700209C
:103894006C0700202C07002008070020094B18683B
:1038A400094B1B68DB6A184309D1084B1B68012BC1
:1038B40006D8074B1868074B1B68C01A70470020CE
:1038C400704700BF20070020000800209C0700204C
:1038D4000807002024070020064A13681968064BCD
:1038E40019B94FF0FF321A6070471268D268126833
:1038F400F9E700BF700700200807002010B590F812
:10390400613004463BB9006B01F024F82046BDE861
:10391400104001F01FB8012BF9D0022B01D072B670
:10392400FEE710BDF8B50C4C0C4F0D4D236803B9E0
:10393400F8BD00F075FEFB68DE68301DFFF788FDFA
:103944002B68013B2B602368013B236000F074FE6D
:103954003046FFF7D3FFE9E7400700204407002083
:10396400280700202DE9F0470A9C0746DDE908A84E
:1039740016469946256B69B14B1E04F133021F317B
:1039840013F8010F02F8010F08B18B42F8D100239C
:1039940084F85330BAF1040F01D972B6FEE706F188
:1039A4008043013B201DC4F82CA0C4F854A005EBAF
:1039B4008305FFF733FD04F11800FFF72FFD25F011
:1039C4000705CAF105032846A3613A464B46216B15
:1039D4002461646200F05AFE2D1AB6EBA50F206034
:1039E40001D872B6FEE7B8F1000F01D0C8F8004064
:1039F400BDE8F0872DE9F0430E46002187B0054667
:103A0400DDE90F94174698460491B9F1000F01D1EE
:103A140072B6FEE70CB972B6FEE764230593059A05
:103A24009A4201D072B6FEE72046059B00F0FAFFE9
:103A3400022384F8613004ABC4F8309001930E9BE8
:103A44003A4631462846009302944346FFF78AFFDC
:103A54002046FFF759FE049807B0BDE8F0832DE92E
:103A6400F043074685B0900088461646994600F014
:103A7400D3FE0546F0B1642000F0CEFE0446B0B19A
:103A84006422002100F0CEFF0D9B256301930C9B63
:103A9400324641463846009302944B46FFF762FF94
:103AA4002046FFF731FE012005B0BDE8F08328462B
:103AB40000F050FF4FF0FF30F6E7000010B58CB077
:103AC4002022002104A800F0ADFF164A04AB12F82E
:103AD400014B03F8014B002CF9D1134B80220293C4
:103AE400124B1348CDE9004304A92346FFF782FF94
:103AF400104B186070B100F0A5FC01280ED172B60D
:103B04004FF0FF320C4B1A600C4B18600C4B1C60CE
:103B140000F006FE0B4B1B680CB010BD0130F9D150
:103B240072B6FEE7DC4A00089C0600209C040020D4
:103B3400C93E000804070020080700201C070020D5
:103B440024070020044B0008024A13680133136061
:103B5400704700BF00070020014B1868704700BF82
:103B64002407002038B5114D114A2B68116803440D
:103B74009942044601D272B6FEE712689A4210D105
:103B84000C4B1B680BB972B6FEE708B972B6FEE7B8
:103B940000F046FD084A013C13680133136000F04D
:103BA4004BFD2B6823442B6038BD00BF2407002045
:103BB4000807002000070020180700202DE9F84F0F
:103BC4004D4B1B68002B40F091804C4B1C6801341A
:103BD4001C6084B94A4B1A6812680AB172B6FEE7CF
:103BE400484A1968106818601160474A136801331D
:103BF4001360FFF771FE454D00202B689C420CD3E7
:103C04004FF01408DFF8F8C0414F424ADCF80030A6
:103C14001B6853B94FF0FF332B603F4B1B68002BDD
:103C240018BF40F00100BDE8F88FDCF80030DB6815
:103C3400DB6859688C4201D22960EEE7D3F814900E
:103C4400D3E90261B1609E6803F1040E4E60D9F8B5
:103C54000410714504BFD968C9F8041000215961E2
:103C6400D9F800100139C9F80010D3F82890B9F137
:103C7400000F14D0D3E90761B160DE6903F1180ABB
:103C84004E60D9F80410514504BF196AC9F80410EC
:103C940000219962D9F800100139C9F80010D96AD5
:103CA400D7F80090494508FB01F902EB090A88BFDF
:103CB4003960DAF804109960D1F808B0C3F80CB090
:103CC400CBF804E0C1F808E052F80910C3F814A0D6
:103CD400013142F809101149D1F800E0D96ADEF83F
:103CE4002C30994288BF40F001008FE70C4A002035
:103CF40013680133136096E70007002024070020AF
:103D0400700700206C07002010070020080700201F
:103D1400200700209C070020140700200008002032
:103D2400180700202DE9F84F00F07AFC444B1A687C
:103D34000AB972B6FEE71A68013A1A601B682BB119
:103D4400002400F079FC2046BDE8F88F3D4A126853
:103D5400002AF5D09E464FF0140C01273A483B4CFC
:103D64003B4A3C4E50E0C368DB68D3F82880D3E973
:103D74000751A960DD6903F118094D60D8F80410F2
:103D8400494504BF196AC8F80410D8F80010C3F8EC
:103D940028E00139C8F80010D3F81480D3E902519F
:103DA400A9609D6803F104094D60D8F804104945E1
:103DB40004BFD968C8F80410D8F800100139C8F84D
:103DC4000010D96AD4F8008041450CFB01F802EBDD
:103DD400080A88BF2160DAF804109960D1F808B0A5
:103DE400C3F80CB0CBF80490C1F8089052F808104E
:103DF400C3F814A0013142F808103168DD6AC96AB9
:103E04008D4201D914490F6001680029ABD10BB16F
:103E1400FFF762FD114D2C6844B101270E4EFFF7E8
:103E2400CDFE00B13760013CF9D12C600A4B1B6810
:103E3400002B85D0074B01241B6800F0E5FB80E7CD
:103E44000007002028070020580700202007002032
:103E54009C070020000800201407002018070020F9
:103E640010B508B972B6FEE709B972B6FEE7FFF7F6
:103E74006BFE124B1A68124B1B68012B01D072B6F1
:103E8400FEE7046863182CBF0121002194420BD97A
:103E940009B19A420AD300240360FFF743FF08B92B
:103EA40000F0B2FB204610BD0029F2D003600021CF
:103EB400981AFFF7A9FC0124EFE700BF24070020AC
:103EC4000007002070B50F4C0F4D104EFFF72AFD70
:103ED4002368012B01D900F097FBFFF7DFFC0128D1
:103EE400F4D9FFF731FE2A6833689A4201D272B6D8
:103EF400FEE7FFF7D3FC012801D900F0E1FAFFF750
:103F040011FFE3E79C070020080700202407002096
:103F1400134B70B51A68134B12B101221A6070BDAD
:103F24001426114D1A602A68104C06FB02F3E1585E
:103F3400181979B1416808334968234499424160AA
:103F440008BFC1680A4B08BF4160C96819602A608C
:103F54001B68E4E70AB972B6FEE7013AE5E700BF79
:103F64000007002014070020200700209C070020E1
:103F74000008002010B50C4608B972B6FEE7054BE0
:103F840019681831FFF74DFA2046BDE810400121A9
:103F9400FFF73ABC0008002070B40C46114608B97B
:103FA40072B6FEE70E4B42681D680029EA61966806
:103FB4001D682E621D6805F1180575601D681B6873
:103FC40005F1180595609862036803F10103036025
:103FD40008BF204670BC18BF4FF0FF30FFF714BC79
:103FE40000080020C36870B5D86808B972B6FEE747
:103FF400836AD0E907128A60C16951605A6800F186
:1040040018018A4204BF026A5A60002282621A6856
:10401400013A1A60204B1B68002B30D1D0E9021200
:1040240043698A608168041D51605A68A24204BFD2
:10403400C2685A601A68013A1A60184AC36A116859
:104044008B424FF0140188BF13604B43144AD518B8
:10405400696881608E68C66074608C60D1584561FF
:104064000131D150FFF738FC0E4BC26A1B68DB6A82
:104074009A4285BF01200C4B0020186070BD0B4B89
:104084005A68C26194680462616091601A688362CC
:1040940001321A60E8E700BF000700202007002073
:1040A4009C07002000080020140700205807002067
:1040B400034B1B680360034B1B684360704700BFDE
:1040C400100700202407002070B50D46044608B9E7
:1040D40072B6FEE709B972B6FEE700F0A1FA0F4B1B
:1040E40019682B685A1C17D00D4826680068626846
:1040F400864208D08A4206D8002301242B6000F0AF
:104104009BFA204670BD881A8342F5D95B1A134482
:1041140020462B60FFF7CCFF0024F0E724070020A3
:10412400100700200122014B1A6070471407002079
:104134000B4B1B687BB90B4A106870B90A4B1B68A0
:1041440063B90A4B0A4A1B681068013B98420CBFCA
:10415400022001207047002070471846704700BFB6
:104164005807002014070020180700202807002003
:104174002C070020054B1B6833B1054B1868B0FAB7
:1041840080F0400940007047012070471C07002060
:1041940000070020034B0360034B0B608023136074
:1041A400704700BF3804002038020020914208B54F
:1041B400416000610AD8D21A83699A420DD2084B31
:1041C400011D1868FFF72DF9002008BD9A4201D29D
:1041D400994202D2034B011DF3E70120F5E700BF2A
:1041E400D0080020D408002070B504460D461646B9
:1041F400A1692B46324620462944FFF7D7FF00B970
:1042040070BDA36920461D44236A9847F0E7000067
:104214000E4B70B51B680546DB680E46DC68201D36
:10422400FFF716F994F824305A0709D5324629467F
:104234002046FFF7D9FF2046236ABDE8704018479F
:1042440023F0010384F82430F5E700BFD4080020EC
:1042540010B5084C23681A6822B9074A116813601C
:10426400216010BDDB684FF0FF311868FFF7D0FF05
:10427400F0E700BFD4080020D0080020F7B50F4CA9
:1042840000F0CEF925689DB90D4F0E4E3846FFF764
:10429400BAF83046FFF7B7F80B4B0C211F600B4BF5
:1042A4000A201E600A4A0B4B0095FFF76DF9206047
:1042B40003B0BDE8F04000F0BFB900BFCC08002057
:1042C400EC080020D8080020D4080020D0080020E2
:1042D4004C080020040800202DE9F0430027554E27
:1042E40085B0554B1B68D3F80090B9F1000F23D06B
:1042F4000025DB68D3F80090FFF726FCFFF72CFCC1
:10430400336804469842DFF8388117D33060002DB3
:1043140043D04A4B1B681D68B5FA85F56D092A46DA
:10432400D8F80000A9EB0401FFF7CBF9FFF7FAFC7A
:1043340048B900F069F906E00125DDE7FFF788FFD9
:104344003460FFF7EFFCCDE9017703970022D8F83A
:10435400000001A9FFF73CF90028C2D0019B002B03
:10436400F4DB039C002CF1D0636913B1201DFFF72B
:104374006FF8FFF7F1FB33680546984201D2FFF767
:1043840067FF019B3560013B082BDFD8DFE803F0B2
:104394000E0E31384A0E0E3138008145BFD8FFF772
:1043A400C1FC21464846FFF733FFCCE794F824309C
:1043B400A16943F0010384F82430029B2A46204675
:1043C4001944FFF7F3FE0028C0D094F824305907AD
:1043D4000AD5A36902992A4620461944FFF704FF27
:1043E4002046236A9847B1E723F0010384F8243078
:1043F400F6E794F8243023F0010384F82430A5E789
:1044040094F82430029943F0010384F82430A16124
:1044140009B972B6FEE72B462A4620462944FFF71F
:10442400C5FE93E794F824309A07E4D4204600F0BC
:1044340091FA8BE7C4080020D4080020D00800209B
:10444400CC08002010B588B0FFF718FF0F4B1B688D
:10445400B3B1002407AA06A905A8CDE90544FFF7CE
:1044640099FE059B079A0293069B0949019304232D
:10447400084800932346FFF7BDFA074B186008B9B4
:1044840072B6FEE7012008B010BD00BFCC080020C2
:10449400E14A0008DD420008C8080020002382B079
:1044A4000193064B1B68013301D072B6FEE772B666
:1044B400019B002BFCD002B0704700BF0C09002008
:1044C400F8B53A4B04461F6872B6BFF34F8FBFF37B
:1044D4006F8FFFF72DFE08B962B6F8BD4FF0E022EA
:1044E4000623334D136193692E683946002B08BFA8
:1044F4003346A74228BF2146D2F8044D481E640122
:1045040048BF4FF0007406FB003344BFC2F8044DAB
:104514002A68284E48BF9B1A326800249A4238BF42
:104524009B1A4FF0E02253619461146944F0010432
:10453400146121B1BFF34F8F30BFBFF36F8F62B6E9
:10454400BFF34F8FBFF36F8F72B6BFF34F8FBFF3BD
:104554006F8F4FF0E0240622226127692A68FF0347
:1045640018D5A16911440139CB1A3168994201D295
:104574009A4200D2531E4FF0E02253614FF0E023E1
:1045840000229A6107221A612A68013A5A61FFF7E8
:10459400E9FAA1E75143A369C81AB0FBF2F000FBA2
:1045A40002225B1A1A446261E8E700BF0409002092
:1045B40008090020000900204FF47A710E480F4AC0
:1045C4000368B3FBF1F313606FF07F42B2FBF3F3C4
:1045D4000B4A13605E220B4B1A604FF0E022042357
:1045E4001361002393610368B3FBF1F3013B53614F
:1045F40007231361704700BF000000200809002052
:1046040004090020000900204FF0E0234FF08052FD
:10461400C3F8042DBFF34F8FBFF36F8F70470000B3
:1046240072B6044A136801331360BFF34F8FBFF3AC
:104634006F8F70470C090020054B1A680AB972B6CF
:10464400FEE71A68013A1A601B6803B962B670473C
:104654000C09002010B500F0A7F80446FFF7AEFAE5
:1046640028B14FF0E0234FF08052C3F8042D2046C8
:10467400BDE8104000F09CB8836913F8023C662B37
:1046840001D100F073B872B6FEE7000010B54FF028
:10469400807440E90224184A4FF0123440F80C2C7C
:1046A4004FF003324FF0023C40E905244FF0013251
:1046B40040F8203C40E9072C4FF010334FF0113202
:1046C4004FF0093440E90A324FF008334FF0073C09
:1046D40040E90C344FF006334FF0053240E90E3C0C
:1046E4004FF0043340E910326FF0430340F8443C88
:1046F40040F8481D10BD00BFA14400084FF0E0235E
:10470400D3F8202D42F47F02C3F8202DD3F8202DB6
:1047140042F07F42C3F8202D0022C3F81C2D7047BD
:104724004FF0E023D3F8083D0D4AD96A10B5914201
:1047340001D072B6FEE79A6B0A4B9A4201D072B668
:10474400FEE70024FFF7DAFFFFF736FF064B1C6095
:1047540000F01CF8FFF7DCFBFFF7A0FE204610BDBD
:1047640001480008BD4700080C090020064A1168EA
:10477400086806C8022181F31488203080F3098870
:10478400BFF36F8F10470000000800200548006841
:10479400006880F3088862B6BFF34F8FBFF36F8F52
:1047A40066DF00BF08ED00E0EFF3108072B67047DB
:1047B40080F3108870470000EFF309800E4A1168F7
:1047C4002838086000227346FCC044464D465646CD
:1047D4005F46F0C072B6FFF79BFB62B6064A1168EB
:1047E40008681830F0C8A046A946B246BB4680F314
:1047F40009882838FCC8184700080020042071469E
:10480400084203D0EFF30980024A1047EFF308800F
:10481400004A10477D460008F8B5431E0A3341D8C4
:1048240010F0070300F1080405D0A3F10902A24225
:1048340038D31030C41A404EFFF786F93368F3B901
:104844003E4A3F4853071FBFD11D21F0070102F51F
:104854000042531A0CBF4FF400430A46002113448C
:10486400083B23F0070341600260C3E90011991A71
:10487400C2E900313360334B1960334B1960002CAB
:1048840056DDDFF8C4E0DEF80000A04250D32C4926
:10489400DFF8A8C00B68634502D32C4FBB420BD989
:1048A40072B6FEE70024C6E7654502D3BD42194649
:1048B40001D972B6FEE72B465A68A24202D21D689D
:1048C400002DF1D135689D4232D00D68083565451B
:1048D40001D3BD4201D972B6FEE71E68A2420E6042
:1048E40008D3171B102F0BD91A1912F0070F03D076
:1048F40072B6FEE772B6FEE757601E510A602246A2
:10490400811A42F000425A6000220E481A60104A8E
:1049140004681368A14203F10103CEF8001038BF04
:1049240001601360FFF7FEF96B0703D072B6FEE770
:104934000025F7E72846F8BD200900202C090020AF
:1049440024090020180900201C0900202B890020BC
:1049540014090020F8B50546002855D02B4FA0F1C6
:104964000804BC420BD32A4EB44208D850F8043C85
:10497400002B06DA50F8081C29B172B6FEE772B6AD
:10498400FEE772B6FEE723F0004222F0070340F888
:10499400042C13B1083A00F045F8FFF7D5F81D4A86
:1049A40055F8041C13680B4413601B4B18461A4635
:1049B4001B689C42FBD8824205D0BA4201D3B24262
:1049C40001D972B6FEE750681518AC4202BF14460E
:1049D40009185160606821188B4213D10F49096886
:1049E4008B4203D05968014461601968A242216076
:1049F40018BF14600A4A136801331360BDE8F84015
:104A0400FFF790B91946F1E7F8BD00BF2C09002063
:104A14002B8900201C0900202409002020090020E3
:104A24001009002002440346934200D1704703F862
:104A3400011BF9E770B50D4B00260D4D5B1B9C1057
:104A4400A64209D10B4D00F027F80B4B00265B1B47
:104A54009C10A64205D170BD55F8043B0136984719
:104A6400EEE755F8043B01369847F2E7084B000897
:104A7400084B0008084B00080C4B00080A44431E6E
:104A8400914200D1704710B511F8014B914203F8DF
:104A9400014FF9D110BD0000F8B500BFF8BC08BC47
:104AA4009E467047F8B500BFF8BC08BC9E467047E8
:104AB4005461736B5F316D73005461736B5F31309C
:104AC4006D73005461736B5F35306D7300546173A3
:104AD4006B5F3130306D730049444C4500546D7246
:104AE400205376630000000000010203040000006C
:104AF400000000000001020304060708090000008A
:044B040004000000A9
:044B08007902000826
:044B0C005502000846
:0C4B10000090D003010000001000000025
:0400000508000B15CF
:00000001FF
