:020000040800F2
:100000000040042089070008450600084D06000846
:10001000550600085D06000865060008D9070008B7
:100020000000000000000000000000008143000804
:100030006D06000800000000214300080D220008A2
:10004000D9070008D9070008D9070008D907000810
:10005000D9070008D9070008D9070008D907000800
:10006000D9070008D9070008D9070008D9070008F0
:10007000D9070008D9070008D9070008D9070008E0
:10008000D9070008D9070008D9070008D9070008D0
:10009000D9070008D9070008D9070008D9070008C0
:1000A000D9070008D9070008D9070008D9070008B0
:1000B000D9070008D9070008D9070008D9070008A0
:1000C000D9070008D9070008D9070008D907000890
:1000D000D9070008D9070008D9070008D907000880
:1000E000D9070008D9070008D9070008D907000870
:1000F000D90700087D060008D9070008D9070008BD
:10010000D9070008D9070008D9070008D90700084F
:10011000D9070008D9070008D9070008D90700083F
:10012000D9070008D9070008D9070008D90700082F
:10013000D9070008D9070008D9070008D90700081F
:10014000D9070008D9070008D9070008D90700080F
:10015000D9070008D9070008D9070008D9070008FF
:100160000000000000000000D9070008D9070008BF
:10017000D9070008D9070008D9070008D9070008DF
:10018000D9070008D9070008D907000800000000B7
:1001900000000000D9070008000000000000000077
:1001A0000000000000000000D9070008D90700087F
:1001B000D9070008D9070008D9070008D90700089F
:1001C000D9070008D907000800000000000000005F
:1001D000000000000000000000000000D907000837
:1001E000D9070008D907000800000000000000003F
:1001F000D9070008D9070008D90700080000000047
:1002000000000000D9070008D9070008D907000836
:10021000D9070008D9070008D9070008D90700083E
:10022000D90700080000000000000000D9070008FE
:10023000D9070008000000000000000000000000D6
:10024000000000000000000000000000D9070008C6
:04025000D9070008C2
:1002600010B5054C237833B9044B13B10448AFF3F0
:1002700000800123237010BD140000200000000046
:100280007C47000808B5034B1BB103490348AFF393
:10029000008008BD00000000180000207C47000816
:1002A00080B500AF104A0021104802F03FF8034625
:1002B0000F4A13600F4A00210F4802F037F8034637
:1002C0000E4A13600E4A00210E4802F02FF8034632
:1002D0000D4A13600D4A00210D4802F027F803462D
:1002E0000C4A136000BF80BDEC47000819030008EA
:1002F00030000020104800082903000834000020C6
:100300003448000839030008380000205848000825
:10031000490300083C00002080B582B000AF78603F
:10032000012002F094F8FBE780B582B000AF78605E
:10033000012002F08CF8FBE780B582B000AF786056
:10034000012002F084F8FBE780B582B000AF78604E
:10035000012002F07CF8FBE780B500AF00F03EFA28
:1003600000F00CF800F090F800F07AF801F08EFF41
:10037000FFF796FF01F0B0FF00BFFDE780B59CB02E
:1003800000AF07F1200350220021184604F0BCF909
:1003900007F1080300221A605A609A60DA601A6155
:1003A0005A612D4B1B6923F030032B4A43F0200385
:1003B0001361294B1B6903F030037B607B6800BF2E
:1003C000254B5B6903F00803082BF9D101233B623D
:1003D0004FF480337B620223BB640323FB64052359
:1003E0003B6540237B650223BB650223FB6502233B
:1003F0003B6608237B660023BB660023FB6607F190
:100400002003184600F09AFB0346002B01D000F0B1
:1004100092F81F23BB600323FB6000233B61002392
:100420007B610023BB610023FB6107F1080304210A
:10043000184600F0BBFF0346002B01D000F07BF80C
:10044000064B1B6823F03003044A43F0200313607B
:1004500000BF7037BD4680BD000802440020024046
:1004600080B500AF002000F039FB0346002B01D01F
:1004700000F061F800F052FB0346002B01D000F0C1
:100480005AF800BF80BD000080B485B000AF214B9A
:10049000D3F88C301F4A43F00403C2F88C301D4B54
:1004A000D3F88C3003F00403FB60FB68194BD3F8DE
:1004B0008C30184A43F08003C2F88C30154BD3F8C7
:1004C0008C3003F08003BB60BB68124BD3F88C30D8
:1004D000104A43F00103C2F88C300E4BD3F88C3035
:1004E00003F001037B607B680A4BD3F88C30094A28
:1004F00043F00203C2F88C30064BD3F88C3003F083
:1005000002033B603B6800BF1437BD465DF8047BC7
:10051000704700BF000C024480B582B000AF786025
:100520007B681B68B3F1804F01D100F07FF900BFF9
:100530000837BD4680BD80B400AF72B600BF00BFB3
:10054000FDE780B500AF00220F216FF0010000F041
:1005500045FA00BF80BD000080B58EB000AF786066
:10056000344BD3F89C30334A43F00103C2F89C303B
:10057000304BD3F89C3003F00103BB60BB6807F13C
:100580000C0207F110031146184601F025FAFB6929
:10059000FB62FB6A002B03D101F008FA786304E0E8
:1005A00001F004FA03465B007B637B6B5B09224A24
:1005B000A2FB0323DB09013BBB62204B4FF08042CF
:1005C0001A601E4B6322DA601C4ABB6A53601B4BE5
:1005D00000221A61194B00229A60184801F034FA7F
:1005E000034687F8333097F83330002B18D113487F
:1005F00001F08CFA034687F8333097F83330002B3C
:100600000ED17B680F2B08D8002279682D2000F0CE
:10061000E5F90B4A7B68136002E0012387F8333069
:100620002D2000F0F5F997F8333018463837BD46DD
:1006300080BD00BF000C0244C55A7C0A4000002067
:100640000400002080B400AF00BFFDE780B400AF1D
:1006500000BFFDE780B400AF00BFFDE780B400AF8E
:1006600000BFFDE780B400AF00BFFDE780B400AF7E
:1006700000BFBD465DF8047B7047000080B500AF49
:10068000024801F0F1FA00BF80BD00BF4000002029
:1006900080B483B000AF354BD3F88830334A43F48D
:1006A0007003C2F88830324B01221A60304B0022AE
:1006B000DA612F4B00221A622D4B1A682C492D4B00
:1006C00013400B602A4B00229A62294B0022DA6207
:1006D000274B00221A63264B274A5A63244B0022D9
:1006E0009A63234B244ADA63214B00221A64204B7D
:1006F000214A5A641E4B00229A641D4B1B681C4AF7
:1007000023F4802313601A4B00221A65174B4FF015
:1007100000629A60194B9B6903F060437B607B68C1
:10072000B3F1604F03D07B68B3F1404F17D1134B47
:10073000DB6903F00103002B05D0104B104ADA608F
:100740000E4B104ADA600D4BDB690C4A43F0020392
:10075000D3610A4BDB69094A43F00103D36100BF4F
:100760000C37BD465DF8047B704700BF00ED00E02C
:10077000000C0244E3EAE2EA8002010100200240A8
:100780003B2A19087F6E5D4C0D488546FFF780FFB8
:100790000C480D490D4A002302E0D458C4500433DC
:1007A000C4188C42F9D30A4A0A4C002301E01360B2
:1007B0000432A242FBD303F0AFFFFFF7CDFDFEE70B
:1007C0000040042000000020140000209C48000885
:1007D00014000020D42B0020FEE7000080B500AFFD
:1007E000032000F0F0F800F099FF02460C4B1B6A62
:1007F00003F00F030B49CB5C22FA03F30A4A1360A0
:10080000042000F013F90F20FFF7A6FE0346002B8B
:1008100001D0012302E0FFF794FE0023184680BDBB
:10082000000C02447C4800080000002080B400AFA7
:10083000064B1B781A46064B1B681344044A136088
:1008400000BFBD465DF8047B704700BF0800002074
:100850008C00002080B400AF034B1B681846BD46D7
:100860005DF8047B704700BF8C00002080B485B029
:1008700000AF78607B6803F00703FB600C4BDB681C
:10088000BB60BA684FF6FF031340BB60FB681A02F7
:10089000BB68134343F0BF6343F40033BB60044AB7
:1008A000BB68D36000BF1437BD465DF8047B70475A
:1008B00000ED00E080B400AF044BDB681B0A03F0DE
:1008C00007031846BD465DF8047B704700ED00E065
:1008D00080B483B000AF0346FB80B7F90630002B2D
:1008E0000BDBFB8803F01F020749B7F906305B09F1
:1008F000012000FA02F241F8232000BF0C37BD4668
:100900005DF8047B704700BF00E100E080B483B075
:1009100000AF03463960FB80B7F90630002B0ADBD5
:100920003B68DAB20C49B7F906301201D2B20B4477
:1009300083F800230AE03B68DAB20849FB8803F039
:100940000F03043B1201D2B20B441A7600BF0C37DE
:10095000BD465DF8047B704700E100E000ED00E07B
:1009600080B489B000AFF860B9607A60FB6803F0CA
:100970000703FB61FB69C3F10703042B28BF0423B2
:10098000BB61FB690433062B02D9FB69033B00E022
:1009900000237B614FF0FF32BB6902FA03F3DA43B5
:1009A000BB681A407B699A404FF0FF317B6901FABE
:1009B00003F3D9437B680B40134318462437BD46E5
:1009C0005DF8047B704780B582B000AF78607868CE
:1009D000FFF74CFF00BF0837BD4680BD80B586B02D
:1009E00000AF0346B9607A60FB81FFF763FF78616F
:1009F0007A68B9687869FFF7B3FF0246B7F90E3035
:100A000011461846FFF782FF00BF1837BD4680BD6C
:100A100080B582B000AF0346FB80B7F906301846B8
:100A2000FFF756FF00BF0837BD4680BD80B483B0D6
:100A300000AF78607B68042B44D801A252F823F001
:100A4000630A0008810A0008A30A0008C50A000812
:100A5000550A00081F4B1B681E4A43F0040313602D
:100A600031E01C4B1B681B4A23F0040313601A4B34
:100A7000D3F8E430184A23F00C03C2F8E43022E043
:100A8000144B1B68134A23F004031360124BD3F872
:100A9000E43023F00C03104A43F00403C2F8E430BE
:100AA00011E00C4B1B680B4A23F0040313600A4B44
:100AB000D3F8E43023F00C03074A43F00803C2F8EC
:100AC000E43000E000BF00BF0C37BD465DF8047B9A
:100AD000704700BF10E000E0000C024480B485B015
:100AE00000AF78600023FB730B4B1B6803F001031E
:100AF000002B02D00123FB7307E0074B1B6823F098
:100B0000040205497B6813430B60FB7B18461437CE
:100B1000BD465DF8047B70470004034080B400AF1D
:100B2000054B1B68044A43F0010313600023184679
:100B3000BD465DF8047B70470004034080B588B073
:100B400000AF78607B68002B02D1012300F028BC45
:100B5000944BDB6903F01803FB61924B9B6A03F033
:100B60000303BB617B681B6803F01003002B5BD0A1
:100B7000FB69082B05D0FB69182B14D1BB69022B2C
:100B800011D17B68DB69002B02D1012300F008BC86
:100B9000844B9B6923F47C127B681B6A1B0481498C
:100BA00013438B6140E07B68DB69002B23D07D4BD6
:100BB0001B687C4A43F480731360FFF74BFE786137
:100BC00008E0FFF747FE02467B69D31A022B01D9E2
:100BD0000323E5E3734B1B6803F40073002BF0D091
:100BE000704B9B6923F47C127B681B6A1B046D4964
:100BF00013438B6118E06B4B1B686A4A23F48073C4
:100C00001360FFF727FE786108E0FFF723FE024636
:100C10007B69D31A022B01D90323C1E3614B1B6803
:100C200003F40073002BF0D17B681B6803F0010311
:100C3000002B00F0A080FB69102B05D0FB69182B5E
:100C400009D1BB69032B06D17B685B68002B40F0A0
:100C500092800123A4E37B685B68B3F5803F06D1F3
:100C6000504B1B684F4A43F48033136058E07B6855
:100C70005B68002B12D14B4B1B684A4A23F480332C
:100C80001360484B1B68474A23F480131360454B9D
:100C90001B68444A23F48023136041E07B685B684F
:100CA000B3F5A02F12D13F4B1B683E4A43F480237B
:100CB00013603C4B1B683B4A23F480131360394B91
:100CC0001B68384A43F48033136029E07B685B6813
:100CD000B3F5A81F12D1334B1B68324A43F480236B
:100CE0001360304B1B682F4A43F4801313602D4B65
:100CF0001B682C4A43F48033136011E0294B1B68B6
:100D0000284A23F480331360264B1B68254A23F4BA
:100D100080231360234B1B68224A23F48013136043
:100D20007B685B68002B13D0FFF794FD786108E0C7
:100D3000FFF790FD02467B69D31A642B01D9032388
:100D40002EE3184B1B6803F40033002BF0D012E0A5
:100D5000FFF780FD786108E0FFF77CFD02467B69C4
:100D6000D31A642B01D903231AE30E4B1B6803F437
:100D70000033002BF0D17B681B6803F00203002BCB
:100D800000F09A80FB69002B05D0FB69182B49D134
:100D9000BB69012B46D17B68DB68002B04D10123A2
:100DA000FEE200BF000C0244FB69002B1CD19A4BF1
:100DB0001B6803F018027B681B699A4214D0964B9B
:100DC0001B6823F018027B681B69934913430B606F
:100DD00000F0D0FD914B1B681846FFF7BDFB0346A2
:100DE000002B01D00123DBE2FFF734FD786108E03E
:100DF000FFF730FD02467B69D31A022B01D903238A
:100E0000CEE2854B1B6803F00203002BF0D0824B2F
:100E10001B6923F4FE027B685B691B047E49134354
:100E20000B6149E07B68DB68002B2CD07A4B1B6898
:100E300023F018027B681B69774913430B60764BDC
:100E40001B68754A43F001031360FFF703FD7861E7
:100E500008E0FFF7FFFC02467B69D31A022B01D999
:100E600003239DE26C4B1B6803F00203002BF0D0C0
:100E7000694B1B6923F4FE027B685B691B046649AE
:100E800013430B6118E0644B1B68634A23F00103B2
:100E90001360FFF7DFFC786108E0FFF7DBFC024638
:100EA0007B69D31A022B01D9032379E25A4B1B68C1
:100EB00003F00203002BF0D17B681B6803F00803EA
:100EC000002B3CD07B689B69002B1CD0524BD3F885
:100ED000F030514A43F08063C2F8F030FFF7BAFCBB
:100EE000786108E0FFF7B6FC02467B69D31A022B53
:100EF00001D9032354E2484BD3F8F03003F00063E8
:100F0000002BEFD01BE0444BD3F8F030424A23F0E3
:100F10008063C2F8F030FFF79DFC786108E0FFF7CE
:100F200099FC02467B69D31A022B01D9032337E2CD
:100F3000394BD3F8F03003F00063002BEFD17B681E
:100F40001B6803F00403002B00F0D280344B5B6A73
:100F500003F00103002B18D1314B5B6A304A43F098
:100F600001035362FFF776FC786108E0FFF772FC3B
:100F700002467B69D31A022B01D9032310E2284BC6
:100F80005B6A03F00103002BF0D07B689B68012BA8
:100F900008D1214BD3F8F0301F4A43F00103C2F8C7
:100FA000F03074E07B689B68002B18D11A4BD3F8A3
:100FB000F030194A23F00103C2F8F030164BD3F891
:100FC000F030154A23F08003C2F8F030124BD3F80A
:100FD000F030114A23F00403C2F8F03057E07B6888
:100FE0009B68052B1ED10C4BD3F8F0300A4A43F016
:100FF0000403C2F8F030084BD3F8F030064A23F06F
:101000008003C2F8F030044BD3F8F030024A43F0CA
:101010000103C2F8F0303AE0000C02440400002062
:10102000000802447B689B68852B18D1A24BD3F83B
:10103000F030A14A43F00403C2F8F0309E4BD3F8DD
:10104000F0309D4A43F08003C2F8F0309A4BD3F859
:10105000F030994A43F00103C2F8F03017E0964BA4
:10106000D3F8F030944A23F00103C2F8F030924BE9
:10107000D3F8F030904A23F00403C2F8F0308E4BDE
:10108000D3F8F0308C4A23F08003C2F8F0307B684C
:101090009B68002B16D0FFF7DDFB78610AE0FFF7B5
:1010A000D9FB02467B69D31A41F28832934201D9B7
:1010B000032375E1804BD3F8F03003F00203002BDB
:1010C000EDD015E0FFF7C6FB78610AE0FFF7C2FB41
:1010D00002467B69D31A41F28832934201D9032335
:1010E0005EE1754BD3F8F03003F00203002BEDD135
:1010F0007B681B6803F02003002B36D07B685B6A9B
:10110000002B19D06C4B1B686B4A43F4805313605F
:10111000FFF7A0FB786108E0FFF79CFB02467B69C4
:10112000D31A022B01D903233AE1634B1B6803F462
:101130000053002BF0D018E05F4B1B685E4A23F48D
:1011400080531360FFF786FB786108E0FFF782FBAE
:1011500002467B69D31A022B01D9032320E1564BA7
:101160001B6803F40053002BF0D17B689B6A002BB3
:1011700000F01581FB69182B00F0AF807B689B6A3B
:10118000022B40F086804C4B1B684B4A23F0807347
:101190001360FFF75FFB786108E0FFF75BFB024637
:1011A0007B69D31A022B01D90323F9E0424B1B6858
:1011B00003F00073002BF0D13F4B9B6A23F47C5368
:1011C00023F003037A68D16A7A68126B12020A4329
:1011D000394913438B627B685B6B013BC3F30802A5
:1011E0007B689B6B013B5B029BB21A437B68DB6BAA
:1011F000013B1B0403F4FE031A437B681B6C013B99
:101200001B0603F0FE432C4913434B632A4B9B6A96
:10121000294A23F0100393627B68DB6C264ADB00CB
:101220009363254B9B6A244A43F010039362224B3D
:101230009B6A23F00C027B685B6C1F4913438B6233
:101240001D4B9B6A23F020027B689B6C1A49134359
:101250008B62194B9B6A184A43F480339362164B96
:101260001B68154A43F080731360FFF7F3FA786147
:1012700008E0FFF7EFFA02467B69D31A022B01D987
:1012800003238DE00C4B1B6803F00073002BF0D0A0
:1012900085E0094B1B68084A23F080731360FFF751
:1012A000D9FA78610AE0FFF7D5FA02467B69D31ACA
:1012B000022B03D9032373E0000C02443A4B1B6852
:1012C00003F00073002BEED1374B9B6A364A23F4B0
:1012D000E02323F00303936261E0334B9B6A3B619D
:1012E000314B5B6BFB607B689B6A012B31D03B69A8
:1012F00003F003027B68DB6A9A422AD13B691B0A2E
:1013000003F03F027B681B6B9A4222D1FB68C3F358
:1013100008027B685B6B013B9A421AD1FB685B0A4F
:1013200003F07F027B689B6B013B9A4211D1FB6803
:101330001B0C03F07F027B68DB6B013B9A4208D1F8
:10134000FB681B0E03F07F027B681B6C013B9A421B
:1013500001D0012324E0144B9B6BDB08C3F30C0288
:101360007B68DB6C9A421AD00F4B9B6A0E4A23F0C3
:1013700010039362FFF76EFA786100BFFFF76AFA15
:1013800002467B699342F9D07B68DB6C064ADB003E
:101390009363054B9B6A044A43F010039362002356
:1013A00018462037BD4680BD000C024480B584B08D
:1013B00000AF786039607B68002B01D101239EE18A
:1013C000834B1B6803F00F033A689A4210D9804B95
:1013D0001B6823F00F027E493B6813430B607C4B74
:1013E0001B6803F00F033A689A4201D0012386E19B
:1013F0007B681B6803F01003002B12D07B685A69CE
:10140000744B1B6A1B0A03F070039A4209D9714B93
:101410001B6A23F4E0427B685B691B026D4913433E
:101420000B627B681B6803F00803002B12D07B68FB
:101430001A69684B1B6A1B0903F070039A4209D9A9
:10144000644B1B6A23F4E0627B681B691B016149E2
:1014500013430B627B681B6803F00403002B10D05E
:101460007B68DA685B4B1B6A03F070039A4208D909
:10147000584B1B6A23F070027B68DB6855491343A5
:101480000B627B681B6803F00203002B10D07B68A3
:101490009A68504B1B6A03F00F039A4208D94D4BD0
:1014A0001B6A23F00F027B689B684A4913430B6257
:1014B0007B681B6803F00103002B00F093807B68BE
:1014C0005B68032B07D1434B1B6803F00073002BB1
:1014D00021D1012313E17B685B68022B07D13D4BCF
:1014E0001B6803F40033002B15D1012307E17B684F
:1014F0005B68012B07D1374B1B6803F40073002B8B
:1015000009D10123FBE0334B1B6803F00203002BDE
:1015100001D10123F3E02F4BDB6923F003027B6849
:101520005B682C491343CB61FFF794F9F8607B6843
:101530005B68032B12D10AE0FFF78CF90246FB68C7
:10154000D31A41F28832934201D90323D7E0214BC9
:10155000DB6903F01803182BEED143E07B685B686E
:10156000022B12D10AE0FFF775F90246FB68D31A85
:1015700041F28832934201D90323C0E0154BDB6965
:1015800003F01803102BEED12CE07B685B68012B75
:1015900022D10AE0FFF75EF90246FB68D31A41F256
:1015A0008832934201D90323A9E00A4BDB6903F097
:1015B0001803082BEED115E0FFF74CF90246FB6843
:1015C000D31A41F28832934206D9032397E000BF31
:1015D00000200240000C02444B4BDB6903F018036F
:1015E000002BE9D17B681B6803F00203002B10D0AD
:1015F0007B689A68444B1B6A03F00F039A4208D237
:10160000414B1B6A23F00F027B689B683E491343E2
:101610000B623E4B1B6803F00F033A689A4210D2EC
:101620003A4B1B6823F00F0238493B6813430B60A9
:10163000364B1B6803F00F033A689A4201D001232E
:101640005DE07B681B6803F00403002B10D07B680F
:10165000DA682D4B1B6A03F070039A4208D22A4BBA
:101660001B6A23F070027B68DB68274913430B6217
:101670007B681B6803F00803002B12D07B681A6993
:10168000214B1B6A1B0903F070039A4209D21E4BBF
:101690001B6A23F4E0627B681B691B011A49134330
:1016A0000B627B681B6803F01003002B12D07B6871
:1016B0005A69154B1B6A1B0A03F070039A4209D240
:1016C000114B1B6A23F4E0427B685B691B020E49E5
:1016D00013430B6200F022F802460B4B1B6A03F027
:1016E0000F030B49CB5C22FA03F30A4A13600A4B3F
:1016F0001B681846FEF730FF0346FB72FB7A18465C
:101700001037BD4680BD00BF000C024400200240DF
:101710007C480008000000200400002080B489B04C
:1017200000AF8C4BDB6903F01803082B02D18A4B06
:10173000FB6107E1874BDB6903F01803002B12D133
:10174000844B1B6803F02003002B09D0814B1B68DE
:10175000DB0803F00303814A22FA03F3FB61F1E0A3
:101760007E4BFB61EEE07B4BDB6903F01803102B33
:1017700002D17B4BFB61E5E0764BDB6903F018039C
:10178000182B40F0DD80734B9B6A03F003037B61F1
:10179000704B9B6A1B0A03F03F033B616D4B9B6AD6
:1017A0001B0903F00103FB606A4B9B6BDB08C3F36F
:1017B0000C03FA6802FB03F307EE903AF8EE677A3F
:1017C000C7ED027A3B69002B00F0B7807B69012BE3
:1017D00003D07B69032B56D077E05E4B1B6803F088
:1017E0002003002B2DD05B4B1B68DB0803F00303A9
:1017F0005A4A22FA03F37B607B6807EE903AF8EED0
:10180000676A3B6907EE903AF8EE677A86EEA77A48
:10181000504B5B6BC3F3080307EE903AF8EE676A30
:1018200097ED026ADFED4F5AC6EE257A76EEA77A7B
:10183000F7EE006A77EEA67A67EE277AC7ED067AAA
:1018400065E03B6907EE903AF8EE677ADFED466AAD
:1018500086EEA77A3F4B5B6BC3F3080307EE903A23
:10186000F8EE676A97ED026ADFED3E5AC6EE257A1A
:1018700076EEA77AF7EE006A77EEA67A67EE277A19
:10188000C7ED067A43E03B6907EE903AF8EE677AD7
:10189000DFED366A86EEA77A2E4B5B6BC3F3080347
:1018A00007EE903AF8EE676A97ED026ADFED2D5A7F
:1018B000C6EE257A76EEA77AF7EE006A77EEA67A7C
:1018C00067EE277AC7ED067A21E03B6907EE903A8A
:1018D000F8EE677ADFED266A86EEA77A1D4B5B6B22
:1018E000C3F3080307EE903AF8EE676A97ED026AD1
:1018F000DFED1C5AC6EE257A76EEA77AF7EE006A7F
:1019000077EEA67A67EE277AC7ED067A00BF114B0D
:101910005B6B5B0A03F07F0301333B603B6807EEC0
:10192000903AB8EE677AD7ED066AC6EE877AFCEE93
:10193000E77A17EE903AFB6104E00023FB6101E0D7
:10194000064BFB61FB6918462437BD465DF8047BF6
:10195000704700BF000C024400093D000090D00316
:1019600040787D01000000460024744C20BCBE4B32
:101970000024744A80B500AFFFF7D0FE0246084B42
:101980001B6A03F00F030749CB5C03F01F0322FA25
:1019900003F3054A1360044B1B68184680BD00BF63
:1019A000000C02447C4800080000002080B500AF15
:1019B000FFF7E0FF0246064B1B6A1B0903F0070313
:1019C0000449CB5C03F01F0322FA03F3184680BDE1
:1019D000000C02448C48000880B485B000AF7860E9
:1019E00039607B681F221A60154BDB6903F0030224
:1019F0007B685A60124B1B6AFB60FB6803F00F02A6
:101A00007B689A60FB6803F070027B68DA60FB68B1
:101A10001B0903F070027B681A61FB681B0A03F064
:101A200070027B685A61074B1B6803F00F023B682A
:101A30001A6000BF1437BD465DF8047B704700BFD5
:101A4000000C02440020024080B582B000AF7860F4
:101A50007B68002B01D1012349E07B6893F83D307E
:101A6000DBB2002B06D17B68002283F83C2078682B
:101A700000F041F87B68022283F83D207B681A68F9
:101A80007B6804331946104600F066FA7B68012231
:101A900083F848207B68012283F83E207B6801227E
:101AA00083F83F207B68012283F840207B68012275
:101AB00083F841207B68012283F842207B68012261
:101AC00083F843207B68012283F844207B6801224D
:101AD00083F845207B68012283F846207B68012239
:101AE00083F847207B68012283F83D2000231846B5
:101AF0000837BD4680BD80B483B000AF786000BFBA
:101B00000C37BD465DF8047B7047000080B485B09B
:101B100000AF78607B6893F83D30DBB2012B01D0D9
:101B200001237CE07B68022283F83D207B681B68F0
:101B3000DA687B681B6842F00102DA607B681B6828
:101B40003A4A93424AD07B681B68394A934245D04F
:101B50007B681B68B3F1804F40D07B681B68B3F192
:101B6000A04F3BD07B681B68324A934236D07B68DB
:101B70001B68314A934231D07B681B682F4A9342DD
:101B80002CD07B681B682E4A934227D07B681B6849
:101B90002C4A934222D07B681B682B4A93421DD06B
:101BA0007B681B68294A934218D07B681B68284AC7
:101BB000934213D07B681B68264A93420ED07B6801
:101BC0001B68254A934209D07B681B68234A9342CD
:101BD00004D07B681B68224A934215D17B681B683E
:101BE0009A68204B1340FB60FB68062B15D0FB68FE
:101BF000B3F5803F11D07B681B681A687B681B684F
:101C000042F001021A6008E07B681B681A687B6872
:101C10001B6842F001021A6000E000BF0023184672
:101C20001437BD465DF8047B704700BF002C0140AF
:101C3000002C015000040040000400500008004047
:101C400000080050000C0040000C0050003401401F
:101C500000340150001800400018005000400140BE
:101C6000004001500700010080B584B000AF7860EB
:101C70007B681B68DB68FB607B681B681B69BB605B
:101C8000BB6803F00203002B20D0FB6803F00203C3
:101C9000002B1BD07B681B686FF002021A617B6807
:101CA00001221A777B681B689B6903F00303002BF2
:101CB00003D0786800F031F905E0786800F023F986
:101CC000786800F034F97B6800221A77BB6803F06B
:101CD0000403002B20D0FB6803F00403002B1BD06F
:101CE0007B681B686FF004021A617B6802221A7716
:101CF0007B681B689B6903F44073002B03D07868F2
:101D000000F00BF905E0786800F0FDF8786800F065
:101D10000EF97B6800221A77BB6803F00803002BDA
:101D200020D0FB6803F00803002B1BD07B681B68E6
:101D30006FF008021A617B6804221A777B681B68BF
:101D4000DB6903F00303002B03D0786800F0E5F8AB
:101D500005E0786800F0D7F8786800F0E8F87B686C
:101D600000221A77BB6803F01003002B20D0FB6819
:101D700003F01003002B1BD07B681B686FF0100270
:101D80001A617B6808221A777B681B68DB6903F499
:101D90004073002B03D0786800F0BFF805E0786846
:101DA00000F0B1F8786800F0C2F87B6800221A777A
:101DB000BB6803F00103002B0CD0FB6803F00103A8
:101DC000002B07D07B681B686FF001021A617868EE
:101DD000FEF7A2FBBB6803F08003002B04D1BB68B5
:101DE00003F40053002B0CD0FB6803F08003002B9E
:101DF00007D07B681B686FF402521A61786800F0A4
:101E00009FF9BB6803F48073002B0CD0FB6803F0D0
:101E10008003002B07D07B681B686FF480721A6107
:101E2000786800F097F9BB6803F04003002B0CD0F2
:101E3000FB6803F04003002B07D07B681B686FF042
:101E400040021A61786800F07CF8BB6803F0200358
:101E5000002B0CD0FB6803F02003002B07D07B681D
:101E60001B686FF020021A61786800F05FF9BB68A8
:101E700003F48013002B0CD0FB6803F48013002BB9
:101E800007D07B681B686FF480121A61786800F0D5
:101E90006BF9BB6803F40013002B0CD0FB6803F450
:101EA0000013002B07D07B681B686FF400121A61C7
:101EB000786800F063F9BB6803F48003002B0CD052
:101EC000FB6803F48003002B07D07B681B686FF46A
:101ED00080021A61786800F05BF9BB6803F40003C4
:101EE000002B0CD0FB6803F40003002B07D07B68A9
:101EF0001B686FF400021A61786800F053F900BFA4
:101F00001037BD4680BD80B483B000AF786000BF9D
:101F10000C37BD465DF8047B704780B483B000AFDA
:101F2000786000BF0C37BD465DF8047B704780B415
:101F300083B000AF786000BF0C37BD465DF8047B0E
:101F4000704780B483B000AF786000BF0C37BD46E7
:101F50005DF8047B7047000080B485B000AF786006
:101F600039607B681B68FB607B68624A93422BD0B8
:101F70007B68614A934227D07B68B3F1804F23D0BE
:101F80007B68B3F1A04F1FD07B685C4A93421BD0A3
:101F90007B685B4A934217D07B685A4A934213D0BE
:101FA0007B68594A93420FD07B68584A93420BD0C2
:101FB0007B68574A934207D07B68564A934203D0C6
:101FC0007B68554A934208D1FB6823F07003FB609D
:101FD0003B685B68FA681343FB607B68454A934241
:101FE0003BD07B68444A934237D07B68B3F1804F43
:101FF00033D07B68B3F1A04F2FD07B683F4A934228
:102000002BD07B683E4A934227D07B683D4A93425F
:1020100023D07B683C4A93421FD07B683B4A934263
:102020001BD07B683A4A934217D07B68394A934267
:1020300013D07B68384A93420FD07B68374A93426B
:102040000BD07B68364A934207D07B68354A93426F
:1020500003D07B68344A934208D1FB6823F4407371
:10206000FB603B68DB68FA681343FB60FB6823F0A6
:1020700080023B685B691343FB607B68FA681A6007
:102080003B689A687B68DA623B681A687B689A6288
:102090007B68184A934213D07B68174A93420FD04B
:1020A0007B681C4A93420BD07B681B4A934207D043
:1020B0007B681C4A934203D07B681B4A934203D13E
:1020C0003B681A697B681A637B6801225A617B68E6
:1020D0001B6903F00103012B05D17B681B6923F009
:1020E00001027B681A6100BF1437BD465DF8047BAE
:1020F000704700BF002C0140002C0150000400403C
:10210000000400500008004000080050000C00408F
:10211000000C005000340140003401500018004011
:1021200000180050004001400040015080B483B0CE
:1021300000AF786000BF0C37BD465DF8047B704788
:1021400080B483B000AF786000BF0C37BD465DF847
:10215000047B704780B483B000AF786000BF0C3759
:10216000BD465DF8047B704780B483B000AF7860F3
:1021700000BF0C37BD465DF8047B704780B483B068
:1021800000AF786000BF0C37BD465DF8047B704738
:1021900080B483B000AF786000BF0C37BD465DF8F7
:1021A000047B704780B483B000AF786000BF0C3709
:1021B000BD465DF8047B704780B483B000AF034632
:1021C0003960FB80B7F90630002B0ADB3B68DAB2D6
:1021D0000C49B7F906301201D2B20B4483F8002340
:1021E0000AE03B68DAB20849FB8803F00F03043BBE
:1021F0001201D2B20B441A7600BF0C37BD465DF80F
:10220000047B704700E100E000ED00E080B500AF26
:10221000054B1B6801F0A6FB0346012B01D001F022
:1022200051FF00BF80BD00BF10E000E080B500AFEF
:1022300000216FF00400FFF7BFFF00BF80BD80B535
:1022400086B000AF00237B61EFF30583FB60FB6882
:10225000002B02D001237B6113E001F083FB386186
:102260003B69012B0DD0EFF31083BB60BB68002BE3
:1022700005D1EFF311837B607B68002B01D0012334
:102280007B617B6918461837BD4680BD80B582B03A
:1022900000AFFFF7D4FF0346002B03D06FF0050318
:1022A0007B6012E001F05EFB38603B68012B09D1D6
:1022B000084B1B68002B05D1064B01221A60002336
:1022C0007B6002E04FF0FF337B607B681846083785
:1022D000BD4680BD9000002080B582B000AFFFF702
:1022E000AEFF0346002B03D06FF005037B6016E0C2
:1022F00001F038FB38603B68012B0DD10A4B1B689D
:10230000012B09D1FFF792FF074B02221A6000F060
:10231000F7FD00237B6002E04FF0FF337B607B68BA
:1023200018460837BD4680BD9000002080B58EB0AD
:1023300004AFF860B9607A6000237B61FFF77FFF2C
:102340000346002B7ED1FB68002B7BD080233B62B1
:102350001823FB6100237B624FF0FF33BB617B6876
:10236000002B45D07B681B68002B02D07B681B6864
:102370007B627B689B69002B02D07B689B69FB6159
:10238000FB69002B08D0FB69382B05D87B685B689C
:1023900003F00103002B01D0002354E07B685B694C
:1023A000002B03D07B685B699B083B627B689B6862
:1023B000002B0ED07B68DB685B2B0AD97B681B691E
:1023C000002B06D07B685B69002B02D00123BB6128
:1023D00010E07B689B68002B0CD17B68DB68002BCE
:1023E00008D17B681B69002B04D10023BB6101E08D
:1023F0000023BB61BB69012B10D17B681B697A6824
:10240000926802920193FB690093BB683A6A796A09
:10241000F86800F0A5FB03467B6113E0BB69002B65
:1024200010D13B6A9AB207F114030193FB69009340
:10243000BB68796AF86800F0E0FB0346012B01D025
:1024400000237B617B6918462837BD4680BD80B577
:1024500084B000AF7860FFF7F2FE0346002B03D094
:102460006FF00503FB6007E00023FB607B68002B37
:1024700002D0786800F01EFDFB6818461037BD4694
:1024800080BD000080B485B000AFF860B9607A60AC
:10249000FB68074A1A60BB68064A1A607B6880229C
:1024A0001A6000BF1437BD465DF8047B704700BF5B
:1024B00094000020F000002080B485B000AFF860E8
:1024C000B9607A60FB68074A1A60BB68064A1A60FE
:1024D0007B6880221A6000BF1437BD465DF8047B1C
:1024E000704700BFF00200204C03002080B483B08E
:1024F00000AF78607B6803F108027B685A607B68F4
:102500004FF0FF329A607B6803F108027B68DA6063
:102510007B6803F108027B681A617B6800221A60FD
:1025200000BF0C37BD465DF8047B704780B483B0B4
:1025300000AF78607B6800221A6100BF0C37BD468F
:102540005DF8047B704780B485B000AF7860396077
:102550003B681B68BB60BB68B3F1FF3F03D17B687E
:102560001B69FB600CE07B680833FB6002E0FB68E2
:102570005B68FB60FB685B681B68BA689A42F6D2CE
:10258000FB685A683B685A603B685B683A689A60C7
:102590003B68FA689A60FB683A685A603B687A68F8
:1025A0001A617B681B685A1C7B681A6000BF14376D
:1025B000BD465DF8047B704780B485B000AF78609D
:1025C0007B681B69FB607B685B687A6892689A60CD
:1025D0007B689B687A6852685A60FB685B687A68B7
:1025E0009A4203D17B689A68FB685A607B68002234
:1025F0001A61FB681B685A1EFB681A60FB681B683F
:1026000018461437BD465DF8047B704780B584B02A
:1026100000AF786039600123FB607B68BB60BB68FA
:10262000002B03D101F060FE00BFFDE7BB68002B6B
:1026300057D0BB68DB6B002B53D0BB681A6CBB68F0
:10264000DB6B0021A3FB0223002B00D001210B46F2
:10265000002B46D101F00AFDBB681A68BB68DB6B32
:10266000B968096C01FB03F31A44BB689A60BB6844
:1026700000229A63BB681A68BB685A60BB681A6814
:10268000BB68DB6B013BB968096C01FB03F31A44BF
:10269000BB68DA60BB68FF2283F84420BB68FF2276
:1026A00083F845203B68002B0ED1BB681B69002BCB
:1026B00014D0BB681033184600F04AFF0346002BC5
:1026C0000CD001F0C1FC09E0BB6810331846FFF7DD
:1026D0000DFFBB6824331846FFF708FF01F0D8FC54
:1026E00001E00023FB60FB68002B03D101F0FCFD3F
:1026F00000BFFDE7FB6818461037BD4680BD80B5BA
:1027000088B002AFF860B9607A603B6000237B61FB
:102710003B68002B03D101F0E7FD00BFFDE7FB683C
:10272000002B29D03B68002B26D07B68002B02D0E1
:10273000BB68002B20D07B68002B02D1BB68002B2C
:102740001AD150233B613B69502B03D001F0CCFDE3
:1027500000BFFDE73B693B687B617B69012283F831
:10276000462097F820207B69009313467A68B96861
:10277000F86800F00DF806E07B69002B03D101F04A
:10278000B3FD00BFFDE77B6918461837BD4680BD25
:1027900080B584B000AFF860B9607A60FB70BB6848
:1027A000002B03D1BB69BA691A6002E0BB697A6881
:1027B0001A60BB69FA68DA63BB69BA681A640121F6
:1027C000B869FFF723FFBB69FA7883F84C2000BF94
:1027D0001037BD4680BD80B58AB000AFF860B960E3
:1027E0007A6000237B62FB683B623B6A002B03D16B
:1027F00001F07AFD00BFFDE7BB68002B03D13B6A07
:102800001B6C002B01D1012300E00023002B03D11E
:1028100001F06AFD00BFFDE701F0A4F80346002BBC
:1028200002D17B68002B01D1012300E00023002BA3
:1028300003D101F059FD00BFFDE701F017FC3B6A31
:102840009B6BFB61FB69002B19D0B968386A00F0FB
:102850007EF8FB695A1E3B6A9A633B6A1B69002B30
:1028600009D03B6A1033184600F072FE0346002B75
:1028700001D001F0E9FB01F00BFC012363E07B6870
:10288000002B03D101F004FC00235CE07B6A002BE9
:1028900006D107F11403184600F028FF01237B62DC
:1028A00001F0F6FB00F088FB01F0E0FB3B6A93F8D7
:1028B00044305BB2B3F1FF3F03D13B6A002283F89F
:1028C00044203B6A93F845305BB2B3F1FF3F03D13C
:1028D0003B6A002283F8452001F0DAFB3A1D07F13C
:1028E00014031146184600F017FF0346002B1DD1B4
:1028F000386A00F0A4F80346002B11D03B6A243359
:102900007A681146184600F0C7FD386A00F045F8AD
:1029100000F060FB0346002B8FD101F095FB8CE7A4
:10292000386A00F03AF800F055FB86E7386A00F0A4
:1029300034F800F04FFB386A00F081F80346002BB2
:102940003FF47BAF002318462837BD4680BD80B5D5
:1029500082B000AF786039607B681B6C002B18D0A8
:102960007B68DA687B681B6C1A447B68DA607B687A
:10297000DA687B689B689A4203D37B681A687B6835
:10298000DA607B68D9687B681B6C1A46386801F08E
:10299000E7FE00BF0837BD4680BD80B584B000AFFC
:1029A000786001F063FB7B6893F84530FB7311E0BE
:1029B0007B685B6A002B12D07B682433184600F0DA
:1029C000C7FD0346002B01D000F0FEFEFB7B013B60
:1029D000DBB2FB7397F90F30002BE9DC00E000BF9E
:1029E0007B68FF2283F8452001F052FB01F03EFB9B
:1029F0007B6893F84430BB7311E07B681B69002B44
:102A000012D07B681033184600F0A2FD0346002B5D
:102A100001D000F0D9FEBB7B013BDBB2BB7397F961
:102A20000E30002BE9DC00E000BF7B68FF2283F85A
:102A3000442001F02DFB00BF1037BD4680BD80B59E
:102A400084B000AF786001F011FB7B689B6B002BBA
:102A500002D10123FB6001E00023FB6001F018FBC1
:102A6000FB6818461037BD4680BD000080B584B0B5
:102A700000AF786039600023BB607B68002B03D116
:102A800001F032FC00BFFDE73B68002B24D000239F
:102A9000FB601EE0174AFB68DB0013445B687A6842
:102AA0009A4205D1FB68DB00124A1344BB6013E075
:102AB000BB68002B0AD10F4AFB6852F83330002B59
:102AC00004D1FB68DB000B4A1344BB60FB68013395
:102AD000FB60FB68072BDDD9BB68002B05D0BB680A
:102AE0003A681A60BB687A685A6000BF1037BD4602
:102AF00080BD00BF4C05002080B586B000AFF860F7
:102B0000B9607A60FB687B6101F0B0FA7B6993F889
:102B100044305BB2B3F1FF3F03D17B69002283F8FD
:102B200044207B6993F845305BB2B3F1FF3F03D19A
:102B30007B69002283F8452001F0AAFA7B699B6B30
:102B4000002B06D17B6924337A68B968184600F0F7
:102B5000C1FC7869FFF721FF00BF1837BD4680BD73
:102B600080B58CB004AFF860B9607A603B60FB6AF6
:102B7000002B03D101F0B8FB00BFFDE73B6B002B3E
:102B800003D101F0B1FB00BFFDE75C237B617B69F2
:102B90005C2B03D001F0A8FB00BFFDE77B693B6B1A
:102BA000002B23D0FB6A002B20D03B6BFB615C2207
:102BB0000021F86901F0A8FDFB69FA6A1A63FB6954
:102BC000022283F8592000230393FB69029307F143
:102BD00018030193BB6A00933B687A68B968F86888
:102BE00000F055F8F86900F0D5F801E00023BB616A
:102BF000BB6918462037BD4680BD80B58CB004AF98
:102C0000F860B9603B601346FB80FB889B00184668
:102C100001F0CAFB78617B69002B13D05C2001F0C6
:102C2000C3FBF861FB69002B08D05C220021F86926
:102C300001F06AFDFB697A691A6305E0786901F0C1
:102C40005FFC01E00023FB61FB69002B17D0FB69EF
:102C5000002283F85920FA8800230393FB6902932A
:102C6000FB6A0193BB6A00933B68B968F86800F09F
:102C70000EF8F86900F08EF80123BB6102E04FF016
:102C8000FF33BB61BB6918462037BD4680BD80B5A8
:102C900086B000AFF860B9607A603B60BB6A186BC1
:102CA0007B689B001A46A52101F02EFDBB6A1A6BBA
:102CB0007B6803F18043013B9B0013443B613B690C
:102CC00023F007033B613B6903F00703002B03D0AC
:102CD00001F00AFB00BFFDE7BB68002B1ED00023FC
:102CE0007B6112E0BA687B6913441978BA6A7B6920
:102CF000134434330A461A70BA687B6913441B784C
:102D0000002B06D07B6901337B617B690F2BE9D9EE
:102D100000E000BFBB6A002283F843203B6A372BE8
:102D200003D901F0E1FA00BFFDE73B6A372B01D977
:102D300037233B62BB6A3A6ADA62BB6A3A6ADA6490
:102D4000BB6A04331846FFF7F1FBBB6A1833184619
:102D5000FFF7ECFBBB6ABA6A1A613B6AC3F138023F
:102D6000BB6A9A61BB6ABA6A5A62BB6A196B3B68F2
:102D7000FA68386901F0D8F90246BB6A1A607B6AC2
:102D8000002B02D07B6ABA6A1A6000BF1837BD46B2
:102D900080BD000080B584B000AF786001F066F9B6
:102DA0003E4B1B6801333D4A13603D4B1B68002BB3
:102DB00009D13B4A7B681360384B1B68012B10D14B
:102DC00000F01EFD0DE0374B1B68002B09D1344B82
:102DD0001B68DA6A7B68DB6A9A4202D8304A7B68F1
:102DE0001360314B1B6801332F4A13602E4B1A6856
:102DF0007B685A647B68DA6A2C4B1B689A4203D959
:102E00007B68DB6A294A13607B68DA6A28491346C3
:102E10009B0013449B000B4404331B68FB607B68DE
:102E2000FA689A60FB689A687B68DA60FB689B685E
:102E30007A6804325A607B681A1DFB689A607B6866
:102E4000DA6A13469B0013449B00194A1A447B68B4
:102E50005A617B68DA6A164913469B0013449B004B
:102E60000B441B68591C124813469B0013449B00DB
:102E70000344196001F00CF90A4B1B68002B08D0C1
:102E8000074B1B68DA6A7B68DB6A9A4201D201F061
:102E9000DBF800BF1037BD4680BD00BF600A0020D0
:102EA0008C0500206C0A00207C0A0020680A0020A3
:102EB0009005002080B584B000AF78600023FB60EF
:102EC0007B68002B10D00D4B1B68002B03D001F04A
:102ED0000BFA00BFFDE700F06FF80021786800F002
:102EE0005FFD00F077F8F860FB68002B01D101F07E
:102EF000ABF800BF1037BD4680BD00BF880A002078
:102F000080B588B004AF0023BB6000237B603A46E5
:102F1000391D07F108031846FFF7B4FA39687B68D2
:102F2000BA68029201930023009300230A461B49CA
:102F30001B48FFF715FE03461A4A1360194B1B681E
:102F4000002B02D00123FB6001E00023FB60FB6843
:102F5000012B02D100F092FDF860FB68012B0ED12D
:102F600001F0C2F9104B4FF0FF321A600F4B0122F3
:102F70001A600F4B00221A6001F060F907E0FB684D
:102F8000B3F1FF3F03D101F0AFF900BFFDE7094BFB
:102F90001B6800BF1037BD4680BD00BFD447000886
:102FA000E1370008840A0020800A00206C0A002013
:102FB000640A00200C00002080B400AF044B1B68A2
:102FC0000133034A136000BFBD465DF8047B7047C0
:102FD000880A002080B586B000AF00237B61002303
:102FE0003B616B4B1B68002B03D101F07DF900BFE7
:102FF000FDE701F03BF8664B1B68013B644A136038
:10300000634B1B68002B40F0BB80624B1B68002B9E
:1030100000F0B6808BE0604BDB68DB687B617B692E
:103020009B6ABB607B69DB697A69126A9A607B691B
:103030001B6A7A69D2695A60BB685A687B6918331F
:103040009A4203D17B691A6ABB685A607B69002285
:103050009A62BB681B685A1EBB681A607B695B6911
:103060007B607B699B687A69D2689A607B69DB6860
:103070007A6992685A607B685A687B6904339A421D
:1030800003D17B69DA687B685A607B6900225A61E8
:103090007B681B685A1E7B681A607B69DA6A3F4B43
:1030A0001B689A4203D97B69DB6A3C4A13607B69DF
:1030B000DA6A3B4913469B0013449B000B440433DC
:1030C0001B683B607B693A689A603B689A687B69D9
:1030D000DA603B689B687A6904325A607B691A1D22
:1030E0003B689A607B69DA6A13469B0013449B0035
:1030F0002B4A1A447B695A617B69DA6A284913466C
:103100009B0013449B000B441B68591C2448134626
:103110009B0013449B00034419607B69DA6A214BCE
:103120001B68DB6A9A4202D31F4B01221A601A4BBA
:103130001B68002B7FF46FAF7B69002B01D000F080
:10314000F5FB1A4B1B68FB60FB68002B10D000F0EE
:103150003FF80346002B02D0134B01221A60FB6894
:10316000013BFB60FB68002BF1D1104B00221A6081
:103170000D4B1B68002B03D001233B6100F064FF63
:1031800000F086FF3B6918461837BD4680BD00BF7A
:10319000880A0020600A0020200A0020680A002017
:1031A000900500208C050020740A0020700A002081
:1031B00080B483B000AF054B1B687B607B6818460A
:1031C0000C37BD465DF8047B704700BF640A0020E1
:1031D00080B588B000AF0023FB617A4B1B68002BE1
:1031E00040F0E680784B1B680133BB61764ABB69CF
:1031F0001360BB69002B19D1744B1B681B68002B33
:1032000003D001F071F800BFFDE7704B1B687B61D4
:103210006F4B1B686D4A13606D4A7B6913606D4B81
:103220001B6801336B4A136000F080FB6A4B1B681C
:10323000BA699A42C0F0A780644B1B681B68002BD8
:1032400004D1654B4FF0FF321A609CE05F4B1B6866
:10325000DB68DB683B613B695B68FB60BA69FB6804
:103260009A4203D25C4AFB6813608CE03B695B695D
:10327000BB603B699B683A69D2689A603B69DB68CE
:103280003A6992685A60BB685A683B6904339A424B
:1032900003D13B69DA68BB685A603B6900225A6116
:1032A000BB681B685A1EBB681A603B699B6A002B8F
:1032B0001ED03B699B6A7B603B69DB693A69126A95
:1032C0009A603B691B6A3A69D2695A607B685A689E
:1032D0003B6918339A4203D13B691A6A7B685A608A
:1032E0003B6900229A627B681B685A1E7B681A60E1
:1032F0003B69DA6A394B1B689A4203D93B69DB6A3E
:10330000364A13603B69DA6A354913469B00134419
:103310009B000B4404331B683B603B693A689A602E
:103320003B689A683B69DA603B689B683A6904329B
:103330005A603B691A1D3B689A603B69DA6A13461A
:103340009B0013449B00264A1A443B695A613B691F
:10335000DA6A234913469B0013449B000B441B6805
:10336000591C1F4813469B0013449B0003441960DB
:103370003B69DA6A1B4B1B68DB6A9A427FF65CAFDB
:103380000123FB6158E7174B1B68DA6A144913469F
:103390009B0013449B000B441B68012B01D90123A4
:1033A000FB61114B1B68002B07D00123FB6104E07C
:1033B0000E4B1B6801330D4A1360FB69184620371A
:1033C000BD4680BD880A0020640A0020180A00203B
:1033D0001C0A0020780A0020800A0020680A0020C9
:1033E000900500208C050020740A0020700A00203F
:1033F00080B582B000AF234B1B68002B03D0224B5B
:1034000001221A603AE0204B00221A601F4B1B6811
:103410007B6009E07B68002B03D100F065FF00BFF3
:10342000FDE77B68013B7B6019497A6813469B0086
:1034300013449B000B441B68002BEBD07A681346A7
:103440009B0013449B00124A13443B603B685B683B
:103450005A683B685A603B685A683B6808339A422E
:1034600004D13B685B685A683B685A603B685B689C
:10347000DB68084A1360054A7B68136000BF0837A1
:10348000BD4680BD880A0020740A0020680A00201A
:10349000900500208C05002080B582B000AF7860D8
:1034A00039607B68002B03D100F01EFF00BFFDE7F1
:1034B000074B1B68183319467868FFF744F8012159
:1034C000386800F06DFA00BF0837BD4680BD00BF08
:1034D0008C05002080B586B000AFF860B9607A60D6
:1034E000FB68002B03D100F0FFFE00BFFDE7FB6887
:1034F0005B687B61154B1B687A69DA61134B1B684B
:103500007A6992681A62114B1A687B699B68183253
:103510005A600E4B1B6803F118027B699A600B4BD3
:103520001B68FA689A62FB681B685A1CFB681A6081
:103530007B68002B02D04FF0FF33BB607968B8681E
:1035400000F02EFA00BF1837BD4680BD8C05002064
:1035500080B588B000AF78607B68DB68DB68BB61F2
:10356000BB69002B03D100F0BFFE00BFFDE7BB69C4
:103570009B6A7B61BB69DB69BA69126A9A60BB6945
:103580001B6ABA69D2695A607B695A68BB69183389
:103590009A4203D1BB691A6A7B695A60BB690022EF
:1035A0009A627B691B685A1E7B691A60494B1B68CB
:1035B000002B5FD1BB695B69FB60BB699B68BA6923
:1035C000D2689A60BB69DB68BA6992685A60FB6826
:1035D0005A68BB6904339A4203D1BB69DA68FB6855
:1035E0005A60BB6900225A61FB681B685A1EFB685F
:1035F0001A60BB69DA6A384B1B689A4203D9BB6907
:10360000DB6A354A1360BB69DA6A344913469B00AA
:1036100013449B000B4404331B68BB60BB69BA684E
:103620009A60BB689A68BB69DA60BB689B68BA69D4
:1036300004325A60BB691A1DBB689A60BB69DA6ABA
:1036400013469B0013449B00244A1A44BB695A61E9
:10365000BB69DA6A214913469B0013449B000B4463
:103660001B68591C1D4813469B0013449B000344D0
:1036700019601BE01A4B5B683B61BB693A69DA6110
:103680003B699A68BB691A623B699B68BA691832E0
:103690005A60BB6903F118023B699A60BB69104A22
:1036A0009A620F4B1B6801330D4A1360BB69DA6ADB
:1036B0000C4B1B68DB6A9A4205D90123FB610A4B5C
:1036C00001221A6001E00023FB61FB6918462037E4
:1036D000BD4680BD880A0020680A002090050020B1
:1036E000200A00208C050020740A002080B483B0DA
:1036F00000AF7860064B1A687B681A60054B1A6841
:103700007B685A6000BF0C37BD465DF8047B70478C
:10371000780A0020640A002080B586B000AF786087
:1037200039607B68002B03D100F0DEFD00BFFDE7B0
:103730003B68002B03D100F0D7FD00BFFDE700F090
:1037400095FC1F4B1B683B617B685B683A69D31A29
:10375000FB603B681B68B3F1FF3F02D100237B6134
:1037600026E07B681A68174B1B689A420AD07B6870
:103770005B683A699A4205D301237B613B6800226A
:103780001A6015E03B681B68FA689A420BD23B68E6
:103790001A68FB68D21A3B681A607868FFF7A6FFC0
:1037A00000237B6104E03B6800221A6001237B61F7
:1037B00000F06EFC7B6918461837BD4680BD00BF1F
:1037C000640A0020780A002080B400AF034B012275
:1037D0001A6000BFBD465DF8047B7047740A002084
:1037E00080B582B000AF786000F04AF8034B1B68E8
:1037F000012BF9D900F028FCF6E700BF9005002066
:1038000080B582B000AF00237B600CE07A6813467D
:103810009B0013449B00124A13441846FEF766FEB1
:103820007B6801337B607B68372BEFD90D48FEF74F
:103830005DFE0D48FEF75AFE0C48FEF757FE0C4899
:10384000FEF754FE0B48FEF751FE0B4B054A1A607B
:103850000A4B054A1A6000BF0837BD4680BD00BF4D
:1038600090050020F0090020040A0020200A002012
:10387000340A00204C0A0020180A00201C0A0020EC
:1038800080B582B000AF19E000F0F0FB104BDB68B0
:10389000DB687B607B6804331846FEF78DFE0D4BBA
:1038A0001B68013B0B4A13600B4B1B68013B0A4A28
:1038B000136000F0EDFB786800F010F8064B1B6811
:1038C000002BE1D100BF00BF0837BD4680BD00BF5F
:1038D000340A0020600A0020480A002080B582B027
:1038E00000AF78607B6893F85930002B08D17B6873
:1038F0001B6B184600F004FE786800F001FE11E032
:103900007B6893F85930012B03D1786800F0F8FDFB
:1039100008E07B6893F85930022B03D000F0E4FCF8
:1039200000BFFDE700BF0837BD4680BD80B400AFD3
:103930000A4B1B681B68002B04D1094B4FF0FF3268
:103940001A6005E0054B1B68DB681B68044A1360BE
:1039500000BFBD465DF8047B704700BF180A002019
:10396000800A002080B483B000AF0B4B1B68002B93
:1039700002D101237B6008E0084B1B68002B02D1B9
:1039800002237B6001E000237B607B6818460C37D4
:10399000BD465DF8047B70476C0A0020880A002051
:1039A00080B586B000AF786039602E4B1B687B61B4
:1039B0002D4B1B6804331846FEF7FEFD7B68B3F100
:1039C000FF3F24D13B68002B21D0284B5B683B6133
:1039D000254B1B683A699A60234B1B683A699268C9
:1039E000DA60214B1A683B699B6804325A601E4BAF
:1039F0001B681A1D3B699A601B4B1B681B4A5A6166
:103A00001A4B1B680133194A136000BF26E07A691C
:103A10007B681344FB60144B1B68FA685A60FA68B1
:103A20007B699A4209D2124B1A680F4B1B68043308
:103A300019461046FEF787FD10E00E4B1A680A4B38
:103A40001B68043319461046FEF77DFD0A4B1B68C0
:103A5000FA689A4202D2084AFB68136000BF18371E
:103A6000BD4680BD640A00208C0500204C0A002061
:103A70001C0A0020180A0020800A002080B588B0A7
:103A800004AF0023FB6000F05FFA184B1B68002BAB
:103A900020D00023BB6000237B603A46391D07F12C
:103AA00008031846FEF708FD39687B68BA68029279
:103AB00001930223009300230A460D490D48FFF7A6
:103AC0004FF803460C4A13600B4B1B68002B01D0C8
:103AD0000123FB60FB68002B03D100F005FC00BF55
:103AE000FDE7FB6818461037BD4680BDBC0A0020C4
:103AF000DC470008A13B0008C00A002080B584B064
:103B000000AFF860B9607A6008E0FB689B69BA684A
:103B10001344BB60FB681B6AF8689847FB689A69A6
:103B2000BB68D118BB687A68F86800F0D7F803461C
:103B3000002BEAD100BF00BF1037BD4680BD00009A
:103B400080B584B000AF78603960144B1B68DB68C7
:103B5000DB68FB60FB6804331846FEF72DFDFB684D
:103B600093F8283003F00403002B05D03A687968F5
:103B7000F868FFF7C3FF08E0FB6893F8283023F0EC
:103B80000103DAB2FB6883F82820FB681B6AF86837
:103B9000984700BF1037BD4680BD00BFB40A002063
:103BA00080B584B000AF786007F10803184600F0D4
:103BB00051F8F860BB681946F86800F005F800F0A5
:103BC000CFF800BFF0E7000080B584B000AF7860A8
:103BD0003960FFF7F1F907F10803184600F05EF8C5
:103BE000F860BB68002B2AD13B68002B0AD17A68A9
:103BF000FB689A4206D8FFF7EDF9F9687868FFF795
:103C00009FFF1EE03B68002B08D0104B1B681B6811
:103C1000002B01D1012300E000233B600C4B18680E
:103C20007A68FB68D31A3A681946FEF765FFFFF712
:103C3000D1F90346002B04D100F006FA01E0FFF7AA
:103C4000C9F900BF1037BD4680BD00BFB80A0020CB
:103C5000BC0A002080B485B000AF78600E4B1B68B2
:103C60001B68002B01D1012200E000227B681A6052
:103C70007B681B68002B05D1074B1B68DB681B6842
:103C8000FB6001E00023FB60FB6818461437BD466B
:103C90005DF8047B704700BFB40A002080B584B093
:103CA00000AF7860FFF784FAF8600B4B1B68FA6886
:103CB0009A4205D200F022F97B6801221A6002E0E4
:103CC0007B6800221A60044AFB681360FB68184690
:103CD0001037BD4680BD00BFC40A002080B586B045
:103CE00000AFF860B9607A603B6000237B61FB68DD
:103CF000BA685A60FB68FA681A61BA687B689A42C7
:103D000012D87A683B68D21AFB689B699A4202D340
:103D100001237B611BE0104B1A68FB6804331946D2
:103D20001046FEF710FC12E07A683B689A4206D211
:103D3000BA683B689A4202D301237B6107E0074BD4
:103D40001A68FB68043319461046FEF7FCFB7B69D2
:103D500018461837BD4680BDB80A0020B40A0020B6
:103D600080B588B000AFB7E07B68002B11DA3B1D4F
:103D70000433FB61FB69002B03D100F0B5FA00BFEF
:103D8000FDE7FB691B68FA695068FA699268114699
:103D900098477B68002BC0F29F80FB68BB61BB69C2
:103DA0005B69002B04D0BB6904331846FEF704FCA2
:103DB0003B461846FFF772FF78617B68013B082B92
:103DC00000F2878001A252F823F000BFF13D000805
:103DD000F13D0008593E00086D3E0008A93E00086C
:103DE000F13D0008F13D0008593E00086D3E000815
:103DF000BB6993F8283043F00103DAB2BB6983F85A
:103E00002820BA68BB699B69D118BB687A69B86910
:103E1000FFF764FF0346002B5DD0BB6993F82830A1
:103E200003F00403002B09D0BA68BB699B691344F3
:103E30007A691946B869FFF761FE08E0BB6993F833
:103E4000283023F00103DAB2BB6983F82820BB696C
:103E50001B6AB86998473EE0BB6993F8283023F0A5
:103E60000103DAB2BB6983F8282035E0BB6993F817
:103E7000283043F00103DAB2BB6983F82820BA681E
:103E8000BB699A61BB699B69002B03D100F02CFAD6
:103E900000BFFDE7BB699A697B69D1187B697A69C4
:103EA000B869FFF71BFF17E0BB6993F8283003F0F0
:103EB0000203002B03D1B86900F022FB0CE0BB69C0
:103EC00093F8283023F00103DAB2BB6983F8282085
:103ED00002E000BF00E000BF074B1B68391D002255
:103EE0001846FEF778FC0346002B7FF43DAF00BF79
:103EF00000BF2037BD4680BDBC0A002080B582B01F
:103F000000AF09E00E4B1B68DB681B683B604FF09D
:103F1000FF313868FFF714FE094B1B681B68002B44
:103F2000F0D1074B1B687B60064B1B68044A13608B
:103F3000044A7B68136000BF0837BD4680BD00BFE0
:103F4000B40A0020B80A002080B582B002AF00F0A9
:103F50008DF8154B1B68002B20D11448FEF7C6FACC
:103F60001348FEF7C3FA134B104A1A60124B104A5B
:103F70001A6000230093114B114A10210A20FEF70A
:103F8000BEFB0346084A1360074B1B68002B05D095
:103F9000054B1B680B491846FEF768FD00F078F8E2
:103FA00000BFBD4680BD00BFBC0A00208C0A0020B7
:103FB000A00A0020B40A0020B80A0020680B0020E4
:103FC000C80A0020E447000880B400AF0B4B002271
:103FD0001A600B4B00221A600A4B1B680A4AA2FBAC
:103FE00003239B09094A013B1360044B07221A6013
:103FF00000BFBD465DF8047B704700BF10E000E0E5
:1040000018E000E000000020D34D621014E000E052
:1040100080B582B000AF00237B600A4B1B68B3F110
:10402000FF3F03D000F060F900BFFDE700F05CF94E
:1040300000BF7B68002BFCD000BF00BF0837BD4627
:1040400080BD00BF1000002080B400AF064B4FF0D1
:1040500080521A60BFF34F8FBFF36F8F00BFBD4612
:104060005DF8047B704700BF04ED00E080B500AF51
:1040700000F03AF9054B1B680133044A1360BFF3A3
:104080004F8FBFF36F8F00BF80BD00BF10000020B7
:1040900080B500AF0A4B1B68002B03D100F024F958
:1040A00000BFFDE7064B1B68013B054A1360044B4C
:1040B0001B68002B02D1002000F023F900BF80BD57
:1040C0001000002080B582B000AF00F00DF97860DC
:1040D000FFF77EF80346002B03D0054B4FF08052CC
:1040E0001A60786800F00DF900BF0837BD4680BD42
:1040F00004ED00E080B584B000AF78607B689B6918
:10410000FB60FB68023B1B78FB72FB7A022B02D13F
:1041100000F0B6F803E000F0E7F800BFFDE700BFED
:104120001037BD4680BD000080B485B000AFF86098
:10413000B9607A603B60FB68043BFB60FB684FF052
:1041400080721A60FB68043BFB607A68FB681A6047
:10415000FB68043BFB60384AFB681A60FB68043B61
:10416000FB60FB684FF012321A60FB68043BFB6097
:10417000FB684FF003321A60FB68043BFB60FB688E
:104180004FF002321A60FB68043BFB60FB684FF0A3
:1041900001321A60FB68043BFB603A68FB681A60F6
:1041A000FB68043BFB60FB684FF011321A60FB6850
:1041B000043BFB60FB684FF010321A60FB68043B65
:1041C000FB60FB684FF009321A60FB68043BFB6040
:1041D000FB684FF008321A60FB68043BFB60FB6829
:1041E0004FF007321A60FB68043BFB60FB684FF03E
:1041F00006321A60FB68043BFB60FB684FF0053237
:104200001A60FB68043BFB60FB684FF004321A60E5
:10421000FB68043BFB60FB686FF043021A60FB68BD
:10422000043BFB60BA68FB681A60FB6818461437E9
:10423000BD465DF8047B70471140000880B500AFB3
:104240000C4B1B680B4A43F47F031360094B1B683C
:10425000084A43F07F431360FFF7B6FE064B002287
:104260001A6000F02DF8FFF7C3F8FFF7D1FE002326
:10427000184680BD20ED00E0100000200000000086
:104280000B4A1168086806C881F30B88022181F384
:104290001488203080F30988BFF36F8F4FF000003F
:1042A00080F31188104700BFAFF30080AFF30080A8
:1042B0008C05002000BF00BF0000000000000000CF
:1042C00007480068006880F3088862B661B6BFF3EB
:1042D0004F8FBFF36F8F02DF00BF00BFAFF30080CF
:1042E00008ED00E000BF00BFEFF311804FF0500178
:1042F00081F31188BFF34F8FBFF36F8F704700BFFB
:10430000184680F31188BFF34F8FBFF36F8F70474C
:1043100000BF0000000000000000000000000000DE
:10432000EFF30980EFF30B82734620E9FC0F104A8C
:10433000116808604FF0500080F31188BFF34F8F71
:10434000BFF36F8FFFF754F84FF0000080F3118830
:10435000074A11680868B0E8FC0F82F30B8880F305
:1043600009881847AFF30080AFF30080AFF30080F7
:104370008C05002000BF00BF00000000000000000E
:104380001EF0040F0CBFEFF30880EFF3098004491F
:10439000084700BFAFF30080AFF30080AFF30080A9
:1043A000F540000800BF00BF80B588B000AF78605E
:1043B00000237B61FEF700FE4C4B1B68002B01D1F4
:1043C00000F0ECF87B68002B12D008227B6803F029
:1043D0000703D31A08333B613B69DB437A689A428F
:1043E00004D87A683B6913447B6001E000237B605A
:1043F0007B68002B69DB7B68002B66D03C4B1B681D
:104400007A689A4261D83B4BBB613A4B1B68FB61AF
:1044100004E0FB69BB61FB691B68FB61FB695B68CE
:104420007A689A4203D9FB691B68002BF1D12F4BA4
:104430001B68FA699A4248D0BB691B68082213447A
:104440007B61FB691A68BB691A60FB695A687B6803
:10445000D21A08235B009A4218D9FA697B68134480
:10446000FB60FB6803F00703002B03D0FFF73CFF62
:1044700000BFFDE7FB695A687B68D21AFB685A6087
:10448000FB697A685A60F86800F0E4F8184B1A681B
:10449000FB695B68D31A164A1360154B1A68164BF2
:1044A0001B689A4203D2124B1B68134A1360FB69C4
:1044B0005B6843F00042FB695A60FB6900221A60A6
:1044C0000E4B1B6801330D4A1360FEF783FD7B69B9
:1044D00003F00703002B03D0FFF706FF00BFFDE743
:1044E0007B6918462037BD4680BD00BFC02B002029
:1044F000C42B0020B82B0020C82B0020CC2B002080
:1045000080B584B000AF78607B68FB607B68002B6F
:104510003BD008235B42FA681344FB60FB68BB6036
:10452000BB685B68002B03DBFFF7DEFE00BFFDE727
:10453000BB681B68002B03D0FFF7D6FE00BFFDE76A
:10454000BB685B68DB0F03F00103DBB2002B1CD000
:10455000BB681B68002B18D1BB685B6823F0004266
:10456000BB685A60FEF728FDBB685A68094B1B6898
:104570001344084A1360B86800F06CF8064B1B68D7
:104580000133054A1360FEF725FD00BF1037BD4615
:1045900080BD00BFC42B0020D02B002080B485B08C
:1045A00000AF4FF40053BB60254BFB60FB6803F08A
:1045B0000703002B0CD0FB680733FB60FB6823F07C
:1045C0000703FB60BA68FB68D31A1D4A1344BB603B
:1045D000FB687B601B4A7B6813601A4B00225A60A1
:1045E0007B68BA681344FB600822FB689B1AFB6077
:1045F000FB6823F00703FB60FB68134A1360124B50
:104600001B6800225A60104B1B6800221A607B68EE
:104610003B603B68FA68D21A3B685A600A4B1A68DA
:104620003B681A603B685B68084A13603B685B68DC
:10463000074A136000BF1437BD465DF8047B70471E
:10464000B80B0020B82B0020C02B0020C82B002066
:10465000C42B002080B485B000AF7860284BFB608D
:1046600002E0FB681B68FB60FB681B687A689A4283
:10467000F7D8FB68BB60FB685B68BA6813447A686C
:104680009A4208D1FB685A687B685B681A44FB68E9
:104690005A60FB687B607B68BB607B685B68BA685C
:1046A0001A44FB681B689A4218D1FB681A68154BBC
:1046B0001B689A420DD07B685A68FB681B685B6870
:1046C0001A447B685A60FB681B681A687B681A602A
:1046D00008E00C4B1A687B681A6003E0FB681A68F4
:1046E0007B681A60FA687B689A4202D0FB687A6835
:1046F0001A6000BF1437BD465DF8047B704700BFE9
:10470000B82B0020C02B002002440346934200D166
:10471000704703F8011BF9E770B50D4D00260D4CED
:10472000641BA410A64209D10B4D00260B4C00F0CF
:1047300025F8641BA410A64205D170BD55F8043BB2
:1047400001369847EEE755F8043B01369847F2E703
:1047500094480008944800089448000898480008C5
:104760000A44431E914200D1704710B511F8014B25
:10477000914203F8014FF9D110BD0000F8B500BF18
:10478000F8BC08BC9E467047F8B500BFF8BC08BC32
:044790009E4670478A
:104794005461736B5F4273775F316D730000000087
:1047A4005461736B5F4170705F316D730000000082
:1047B4005461736B5F4273775F31306D7300000037
:1047C4005461736B5F4170705F31306D7300000032
:1047D40049444C4500000000546D72205376630038
:1047E400546D72510000000094470008000000005E
:1047F40000000000000000000000000000020000B3
:10480400180000000000000000000000A447000899
:104814000000000000000000000000000000000094
:10482400000200001800000000000000000000006A
:10483400B447000800000000000000000000000071
:10484400000000000002000018000000000000004A
:1048540000000000C4470008000000000000000041
:10486400000000000000000000020000180000002A
:104874000000000000000000000000000000000034
:1048840001020304060708090000000001020304F2
:044894008502000891
:0448980061020008B1
:10489C000090D00310000000010000003700000061
:0448AC00AAAAAAAA60
:04000005080007895F
:00000001FF
