:020000040800F2
:1000000000400420690E0008250D00082D0D000891
:10001000350D00083D0D0008450D0008B90E00081B
:100020000000000000000000000000004181000806
:100030004D0D000800000000E1800008715E00081E
:10004000B90E0008B90E0008B90E0008B90E000874
:10005000B90E0008B90E0008B90E0008B90E000864
:10006000B90E0008B90E0008B90E0008B90E000854
:10007000B90E0008B90E0008B90E0008B90E000844
:10008000B90E0008B90E0008B90E0008B90E000834
:10009000B90E0008B90E0008B90E0008B90E000824
:1000A000B90E0008B90E0008B90E0008B90E000814
:1000B000B90E0008B90E0008B90E0008B90E000804
:1000C000B90E0008B90E0008B90E0008B90E0008F4
:1000D000B90E0008B90E0008B90E0008B90E0008E4
:1000E000B90E0008B90E0008B90E0008B90E0008D4
:1000F000B90E00085D0D0008B90E0008B90E000821
:10010000B90E0008B90E0008B90E0008B90E0008B3
:10011000B90E0008B90E0008B90E0008B90E0008A3
:10012000B90E0008B90E0008B90E0008B90E000893
:10013000B90E0008B90E0008B90E0008B90E000883
:10014000B90E0008B90E0008B90E0008B90E000873
:10015000B90E0008B90E0008B90E0008B90E000863
:100160000000000000000000B90E0008B90E0008F1
:10017000B90E0008B90E0008B90E0008B90E000843
:10018000B90E0008B90E0008B90E00080000000002
:1001900000000000B90E0008000000000000000090
:1001A0000000000000000000B90E0008B90E0008B1
:1001B000B90E0008B90E0008B90E0008B90E000803
:1001C000B90E0008B90E0008000000000000000091
:1001D000000000000000000000000000B90E000850
:1001E000B90E0008B90E0008000000000000000071
:1001F000B90E0008B90E0008B90E00080000000092
:1002000000000000B90E0008B90E0008B90E000881
:10021000B90E0008B90E0008B90E0008B90E0008A2
:10022000B90E00080000000000000000B90E000830
:10023000B90E0008000000000000000000000000EF
:10024000000000000000000000000000B90E0008DF
:04025000B90E0008DB
:1002600010B5054C237833B9044B13B10448AFF3F0
:1002700000800123237010BD10000020000000004A
:100280003485000808B5034B1BB103490348AFF39D
:10029000008008BD00000000140000203485000824
:1002A00080B483B000AF786000BF0C37BD465DF806
:1002B000047B704780B500AF104A0021104805F05C
:1002C00063FE03460F4A13600F4A00210F4805F0F2
:1002D0005BFE03460E4A13600E4A00210E4805F0ED
:1002E00053FE03460D4A13600D4A00210D4805F0E8
:1002F0004BFE03460C4A136000BF80BDA485000876
:100300002D0300082C000020C88500083D030008CC
:1003100030000020EC8500084D0300083400002068
:10032000108600085D0300083800002080B582B008
:1003300000AF7860012005F0B8FEFBE780B582B021
:1003400000AF7860012005F0B0FEFBE780B582B019
:1003500000AF78600A2005F0A8FEFBE780B582B008
:1003600000AF78600A2005F0A0FEFBE780B500AF83
:1003700000F0A4FD00F014F800F004FA00F098F981
:1003800000F080F800F00EF900F052F900F0A4F946
:1003900005F0AAFDFFF78EFF05F0CCFD00BFFDE7DD
:1003A00080B59CB000AF07F1200350220021184611
:1003B00008F086F807F1080300221A605A609A6074
:1003C000DA601A615A612D4B1B6923F030032B4A06
:1003D00043F020031361294B1B6903F030037B605A
:1003E0007B6800BF254B5B6903F00803082BF9D13C
:1003F00001233B624FF480337B620223BB640323FF
:10040000FB6405233B6540237B650223BB65022318
:10041000FB6502233B6608237B660023BB66002343
:10042000FB6607F12003184602F084FD0346002B0B
:1004300001D000F028FA1F23BB600323FB600023D8
:100440003B6100237B610023BB610023FB6107F15B
:1004500008030421184603F0A5F90346002B01D038
:1004600000F011FA064B1B6823F03003044A43F0F6
:100470002003136000BF7037BD4680BD00080244F2
:100480000020024080B590B000AF07F124030022A5
:100490001A605A609A60DA601A615A619A613B1D6B
:1004A00020220021184608F00BF83A4B3A4A1A600D
:1004B000384B4FF480225A60364B00229A60354BFD
:1004C0000022DA60334B00221A61324B04225A6157
:1004D000304B00221A762F4B00225A762D4B0122E8
:1004E000DA612C4B002283F820202A4B00229A62EA
:1004F000284B0022DA62274B002283F83420254B58
:1005000000221A63234B00229A63224B002283F8B5
:100510003C20204800F0ECFF0346002B01D000F007
:10052000B2F91E4B7B624FF44003BB621C4BFB6273
:10053000012387F8303040F605737B634FF4F56391
:10054000BB634FF44053FB6307F124031946114882
:1005500001F024FD0346002B01D000F094F9104B6C
:100560007B600623BB600523FB607F233B61042384
:100570007B610023BB613B1D1946064801F00CF965
:100580000346002B01D000F07EF900BF4037BD4686
:1005900080BD00BF3C000020008002420000C07D02
:1005A0000200300480B500AF1F4B204A1A601E4B7A
:1005B00000225A601C4B00229A601B4B0022DA601A
:1005C000194B00221A74184B00225A74164B002241
:1005D0009A74154B10225A61134B01229A61124BE7
:1005E0000F22DA61104B04221A620F4B01225A6269
:1005F0000D4B01229A620C4B0122DA620A4B012256
:100600001A63094B00225A63074B00229A63064B78
:100610000022DA63044802F005F80346002B01D0FB
:1006200000F031F900BF80BDA400002000A8004008
:1006300080B500AF1B4B1C4A1A601A4B1B4A5A600C
:10064000184B00229A60174B0122DA60154B0022EA
:100650001A61144B00225A61124B00229A61114B0D
:100660000022DA610F4B00221A620E4802F000FBF2
:100670000346002B01D000F006F90021094802F0E2
:1006800092FB0346002B01D000F0FDF80021054845
:1006900002F0D4FB0346002B01D000F0F4F800BFB9
:1006A00080BD00BF0801002000540040FF7BF00027
:1006B00080B500AF002002F00DFC0346002B01D0F6
:1006C00000F0E1F802F026FC0346002B01D000F018
:1006D000DAF800BF80BD000080B500AF274B284A84
:1006E0001A60264B4FF480025A60244B00229A6015
:1006F000224B0722DA60214B00221A611F4B002295
:100700005A611E4B4FF000529A611C4B4FF0405201
:10071000DA611A4B00221A62184B00225A62174BF8
:1007200000229A62154B0722DA62144B4FF0804286
:100730005A63124B00229A63104B0022DA630F4B6C
:1007400000229A640D4B0022DA640C4B00221A65D9
:100750000A4B00225A65094B00229A65074B00227A
:10076000DA65064B00221A66044804F059FE034677
:10077000002B01D000F087F800BF80BD5C01002095
:100780000030014080B58AB000AF07F114030022A9
:100790001A605A609A60DA601A61304BD3F88C3074
:1007A0002E4A43F00403C2F88C302C4BD3F88C3023
:1007B00003F004033B613B69284BD3F88C30274A94
:1007C00043F08003C2F88C30244BD3F88C3003F014
:1007D0008003FB60FB68214BD3F88C301F4A43F049
:1007E0000103C2F88C301D4BD3F88C3003F00103A9
:1007F000BB60BB68194BD3F88C30184A43F0020336
:10080000C2F88C30154BD3F88C3003F002037B60B8
:100810007B6800222021124802F012FA20237B611B
:100820000123BB610023FB6100233B6207F114033A
:1008300019460B4802F0B2F84FF480737B61002335
:10084000BB610023FB6107F114031946054802F060
:10085000A5F800BF2837BD4680BD00BF000C02448C
:10086000000802420000024280B582B000AF78600A
:100870007B681B68B3F1804F01D100F047FB00BFDC
:100880000837BD4680BD80B400AF72B600BF00BF60
:10089000FDE780B500AF00220F216FF0010001F0ED
:1008A00041FE00BF80BD000080B5BEB000AF7860E3
:1008B00007F1E40300221A605A609A60DA601A6154
:1008C00007F11003D0220021184607F0F9FD7B68DC
:1008D0001B682E4A934254D14FF400124FF000038C
:1008E000C7E904230323BB610423FB6140233B626C
:1008F00002237B620223BB620423FB6208233B6367
:1009000000237B630023BB634FF48023FB6302233C
:10091000C7F8B03007F11003184603F091FA034608
:10092000002B01D0FFF7AFFF194BD3F88C30184ADA
:1009300043F48063C2F88C30154BD3F88C3003F449
:100940008063FB60FB68124BD3F88C30104A43F095
:100950000103C2F88C300E4BD3F88C3003F0010346
:10096000BB60BB680223C7F8E4300323C7F8E83054
:100970000023C7F8EC3007F1E4031946054802F0FC
:100980000DF800BFF837BD4680BD00BF00800242B1
:10099000000C02440000024280B5BEB000AF786097
:1009A00007F1E40300221A605A609A60DA601A6163
:1009B00007F11003D0220021184607F081FD7B6863
:1009C0001B68274A934247D14FF000024FF00403BF
:1009D000C7E904234FF48073C7F8A43007F110036C
:1009E000184603F02DFA0346002B01D0FFF74BFF0A
:1009F0001C4BD3F8A0301B4A43F40073C2F8A0305C
:100A0000184BD3F8A03003F40073FB60FB68154B60
:100A1000D3F88C30134A43F00203C2F88C30114BE8
:100A2000D3F88C3003F00203BB60BB684FF4405333
:100A3000C7F8E4300223C7F8E8300023C7F8EC30E9
:100A40000023C7F8F0300923C7F8F43007F1E403B6
:100A50001946054801F0A2FF00BFF837BD4680BD2A
:100A600000A80040000C02440004024280B5BEB061
:100A700000AF786007F1E40300221A605A609A60C0
:100A8000DA601A6107F11003D0220021184607F03E
:100A900017FD7B681B68264A934245D14FF40052EC
:100AA0004FF00003C7E904230023C7F8883007F19B
:100AB0001003184603F0C4F90346002B01D0FFF7DA
:100AC000E2FE1C4BD3F88C301A4A43F00203C2F802
:100AD0008C30184BD3F88C3003F00203FB60FB68BA
:100AE000C023C7F8E4301223C7F8E8300023C7F862
:100AF000EC300023C7F8F0300423C7F8F43007F1D6
:100B0000E40319460C4801F049FF0A4BD3F89C3026
:100B1000084A43F40013C2F89C30064BD3F89C30CB
:100B200003F40013BB60BB6800BFF837BD4680BD4F
:100B300000540040000C02440004024280B5BEB0E4
:100B400000AF786007F1E40300221A605A609A60EF
:100B5000DA601A6107F11003D0220021184607F06D
:100B6000AFFC7B681B68314A93425BD14FF0006257
:100B70004FF00003C7E9042303233B6404237B6491
:100B80004023BB640223FB6402233B6502237B6595
:100B90000023BB652023FB6500233B664FF48033B5
:100BA0007B660223C7F8BC3007F11003184603F038
:100BB00047F90346002B01D0FFF765FE1C4BD3F825
:100BC000A4301B4A43F48053C2F8A430184BD3F826
:100BD000A43003F48053FB60FB68154BD3F88C30D2
:100BE000134A43F00103C2F88C30114BD3F88C3018
:100BF00003F00103BB60BB6848F2E003C7F8E430D0
:100C00000223C7F8E8300023C7F8EC300023C7F808
:100C1000F0300523C7F8F43007F1E403194605481E
:100C200001F0BCFE00BFF837BD4680BD003001407A
:100C3000000C02440000024280B58EB000AF786024
:100C4000344BD3F89C30334A43F00103C2F89C3054
:100C5000304BD3F89C3003F00103BB60BB6807F155
:100C60000C0207F110031146184603F0B1F8FB69B6
:100C7000FB62FB6A002B03D103F094F8786304E075
:100C800003F090F803465B007B637B6B5B09224AB1
:100C9000A2FB0323DB09013BBB62204B4FF08042E8
:100CA0001A601E4B6322DA601C4ABB6A53601B4BFE
:100CB00000221A61194B00229A60184804F0F7FCD0
:100CC000034687F8333097F83330002B18D1134898
:100CD00004F04EFD034687F8333097F83330002B8D
:100CE0000ED17B680F2B08D8002279682D2001F0E7
:100CF00019FC0B4A7B68136002E0012387F833304C
:100D00002D2001F029FC97F8333018463837BD46BE
:100D100080BD00BF000C0244C55A7C0AEC010020D3
:100D20000400002080B400AF00BFFDE780B400AF36
:100D300000BFFDE780B400AF00BFFDE780B400AFA7
:100D400000BFFDE780B400AF00BFFDE780B400AF97
:100D500000BFBD465DF8047B7047000080B500AF62
:100D6000024804F0B3FD00BF80BD00BFEC010020CD
:100D700080B483B000AF354BD3F88830334A43F4A6
:100D80007003C2F88830324B01221A60304B0022C7
:100D9000DA612F4B00221A622D4B1A682C492D4B19
:100DA00013400B602A4B00229A62294B0022DA6220
:100DB000274B00221A63264B274A5A63244B0022F2
:100DC0009A63234B244ADA63214B00221A64204B96
:100DD000214A5A641E4B00229A641D4B1B681C4A10
:100DE00023F4802313601A4B00221A65174B4FF02F
:100DF00000629A60194B9B6903F060437B607B68DB
:100E0000B3F1604F03D07B68B3F1404F17D1134B60
:100E1000DB6903F00103002B05D0104B104ADA60A8
:100E20000E4B104ADA600D4BDB690C4A43F00203AB
:100E3000D3610A4BDB69094A43F00103D36100BF68
:100E40000C37BD465DF8047B704700BF00ED00E045
:100E5000000C0244E3EAE2EA8002010100200240C1
:100E60003B2A19087F6E5D4C0D488546FFF780FFD1
:100E70000C480D490D4A002302E0D458C4500433F5
:100E8000C4188C42F9D30A4A0A4C002301E01360CB
:100E90000432A242FBD307F01BFBFFF767FAFEE721
:100EA00000400420000000201000002058860008A8
:100EB00010000020802D0020FEE7000080B500AF6C
:100EC000032001F024FB02F025FE02460C4B1B6AB6
:100ED00003F00F030B49CB5C22FA03F30A4A1360B9
:100EE000042001F047FB0F20FFF7A6FE0346002B6E
:100EF00001D0012302E0FFF7CCFC0023184680BD9F
:100F0000000C0244348600080000002080B400AFCA
:100F1000064B1B781A46064B1B681344044A1360A1
:100F200000BFBD465DF8047B704700BF080000208D
:100F30003802002080B400AF034B1B681846BD4642
:100F40005DF8047B704700BF3802002080B483B096
:100F500000AF786039607B689B6823F47C123B6843
:100F60001A437B689A6000BF0C37BD465DF8047B6E
:100F7000704780B483B000AF786039607B689B684D
:100F800023F0E0723B681A437B689A6000BF0C371D
:100F9000BD465DF8047B704780B483B000AF7860D5
:100FA0007B689B6803F0E07318460C37BD465DF81C
:100FB000047B704780B483B000AF78607B68D3F85F
:100FC000C83043F001027B68C3F8C82000BF0C376B
:100FD000BD465DF8047B704780B483B000AF786095
:100FE000064BD3F8C830054A43F00103C2F8C830B5
:100FF00000BF0C37BD465DF8047B7047008002429D
:1010000080B487B000AFF860B9607A603B60FB687D
:1010100060331A46BB689B0013447B617B691A6886
:10102000084B13407A6802F0F8413A680A431343C8
:1010300043F000427B691A6000BF1C37BD465DF873
:10104000047B704700F0FF0380B485B000AF786088
:1010500039607B6860331A463B689B001344FB6031
:10106000FB681B6803F0F84318461437BD465DF86B
:10107000047B704780B487B000AFF860B9607A60D5
:10108000FB6860331A46BB689B0013447B617B6935
:101090001B6823F000427B681A437B691A6000BF1B
:1010A0001C37BD465DF8047B704780B487B000AF45
:1010B000F860B9607A60FB6860331A46BB689B00D1
:1010C00013447B617B691B6823F080727B681A4341
:1010D0007B691A6000BF1C37BD465DF8047B704712
:1010E00080B487B000AFF860B9607A60FB686033A5
:1010F0001A46BB689B0013447B617B691B6823F025
:1011000000727B681A437B691A6000BF1C37BD46BA
:101110005DF8047B704780B483B000AF78603960BD
:101120007B685B6923F000423B681A437B685A6125
:1011300000BF0C37BD465DF8047B704780B487B0B4
:1011400000AFF860B9607A60FB6830331A46BB685C
:101150001B0A9B0003F00C0313447B617B691A6834
:10116000BB6803F01F031F2101FA03F3DB431A409E
:101170007B689B0E03F01F01BB6803F01F0301FA9D
:1011800003F31A437B691A6000BF1C37BD465DF844
:10119000047B704780B487B000AFF860B9607A60B4
:1011A000FB6814331A46BB685B0E9B0003F0040314
:1011B00013447B617B691A68BB681B0D03F01F0336
:1011C000072101FA03F3DB431A40BB681B0D03F050
:1011D0001F03796801FA03F31A437B691A6000BFA1
:1011E0001C37BD465DF8047B7047000080B485B0B5
:1011F00000AFF860B9607A60FB68D3F8B020BB68D4
:10120000C3F31303DB431A407B6803F01803084958
:10121000D940BB680B40C3F313031A43FB68C3F800
:10122000B02000BF1437BD465DF8047B704700BF97
:10123000FFFF0F0080B487B000AFF860B9607A603C
:10124000FB680C331946BB681B0D03F00302BB6837
:1012500003F001035B4203F0240313449B000B449F
:101260007B617B691A68BB6823F0024323F4401357
:10127000DB431A407968BB680B401A437B691A60EC
:1012800000BF1C37BD465DF8047B704780B487B053
:1012900000AFF860B9607A603B60FB6820331A46A3
:1012A000BB681B0D9B0003F00C0313447B617B693F
:1012B0001B6803F0F0227B6819043B680B431A4358
:1012C0007B691A6000BF1C37BD465DF8047B704720
:1012D00080B483B000AF78607B689B6823F02043C4
:1012E00023F03F037A68936000BF0C37BD465DF87A
:1012F000047B704780B483B000AF78607B689B68E4
:1013000003F00053B3F1005F01D1012300E000239B
:1013100018460C37BD465DF8047B704780B483B037
:1013200000AF78607B689B6823F0104323F03F0395
:1013300043F080527B689A6000BF0C37BD465DF871
:10134000047B704780B483B000AF78607B689B6893
:1013500003F08053B3F1805F01D1012300E000234B
:1013600018460C37BD465DF8047B704780B483B0E7
:1013700000AF78607B689B6803F00103012B01D10B
:10138000012300E0002318460C37BD465DF8047BBE
:10139000704780B483B000AF78607B689B6803F0CF
:1013A0000403042B01D1012300E0002318460C376D
:1013B000BD465DF8047B704780B483B000AF7860B1
:1013C0007B689B6803F00803082B01D1012300E030
:1013D000002318460C37BD465DF8047B704780B487
:1013E00083B000AF78607B6880221A6000BF0C3742
:1013F000BD465DF8047B704780B483B000AF786071
:101400007B684FF480721A6000BF0C37BD465DF8F0
:10141000047B704780B483B000AF78607B684FF482
:1014200000721A6000BF0C37BD465DF8047B704740
:1014300080B483B000AF78607B685B6843F0800263
:101440007B685A6000BF0C37BD465DF8047B70476F
:1014500080B483B000AF78607B685B6843F48072CF
:101460007B685A6000BF0C37BD465DF8047B70474F
:1014700080B483B000AF78607B685B6843F400722F
:101480007B685A6000BF0C37BD465DF8047B70472F
:1014900080B483B000AF78607B685B6823F0800223
:1014A0007B685A6000BF0C37BD465DF8047B70470F
:1014B00080B483B000AF78607B685B6823F480728F
:1014C0007B685A6000BF0C37BD465DF8047B7047EF
:1014D00080B483B000AF78607B685B6823F40072EF
:1014E0007B685A6000BF0C37BD465DF8047B7047CF
:1014F00090B589B000AF78600023FB770023FB60D4
:101500007B68002B01D1012336E17B681B69002B2E
:101510007B689B6D002B09D17868FFF7C5F97B6864
:101520000022DA657B68002283F854207B681B6800
:101530001846FFF7DFFE0346002B04D07B681B68CC
:101540001846FFF7C5FE7B681B681846FFF7FAFED2
:101550000346002B15D17B681B681846FFF7DEFE9B
:10156000874B1B689B09874AA2FB03239B09013316
:101570005B00FB6002E0FB68013BFB60FB68002B4B
:10158000F9D17B681B681846FFF7DCFE0346002B89
:101590000DD17B689B6D43F010027B689A657B6878
:1015A000DB6D43F001027B68DA650123FB777B6822
:1015B0001B681846FFF7EDFE78617B689B6D03F0B2
:1015C0001003002B40F0CF807B69002B40F0CB80D4
:1015D0007B689B6D23F4817343F002027B689A65FC
:1015E0007B681B681846FFF7C1FE0346002B10D12D
:1015F0006548FFF7BBFE04466448FFF7B7FE0346A5
:101600002343002B05D17B685B6819466048FFF7D0
:101610009DFC7B685B7E5A037B689B6B1A437B68EF
:10162000DB681A437B689B681A437B6893F8203019
:101630001B041343BB617B6893F82030012B06D158
:101640007B685B6A013B5B04BA691343BB617B68DF
:101650009B6A002B09D07B689B6A03F478727B68D5
:10166000DB6A1343BA691343BB617B681B68DA68A2
:10167000484B13407A681268B9690B43D3607B68A2
:101680001B681B6923F040617B681A6B7B681B68D1
:101690000A431A617B681B681846FFF78DFE3861A4
:1016A0007B69002B3DD13B69002B3AD17B681B7EC7
:1016B0009A037B6893F834305B001343BB617B680B
:1016C0001B68DB6823F4804323F002037A68126806
:1016D000B9690B43D3607B6893F83C30012B18D178
:1016E0007B681B681B6923F4FF6323F004037A689B
:1016F000116C7A68526C11437A68926C11437A6863
:10170000D26C0A431A437B681B6842F001021A61DB
:1017100007E07B681B681A697B681B6822F001027E
:101720001A617B681B69012B0CD17B681B681B6BE2
:1017300023F00F017B68DB695A1E7B681B680A4334
:101740001A6307E07B681B681A6B7B681B6822F0D2
:101750000F021A637B689B6D23F0030343F00102C1
:101760007B689A6507E07B689B6D43F010027B689D
:101770009A650123FB77FB7F18462437BD4690BD51
:1017800000000020632D3E050080024200810242DD
:10179000008302420740F0FF80B5B6B000AF78602A
:1017A0003960002387F8D7300023FB607B6893F80B
:1017B0005430012B01D10223D8E37B68012283F846
:1017C00054207B681B681846FFF7E3FD0346002B97
:1017D00040F0BD833B681B68012B04D17B681B680C
:1017E0001846FFF7F9FB7B6818683B6859683B6847
:1017F0001B681A46FFF7A2FC7B681B681846FFF7B8
:10180000C8FDC7F8D0007B681B681846FFF7D4FDF9
:10181000C7F8CC00D7F8D030002B40F0D981D7F8EA
:10182000CC30002B40F0D4813B689B68B3F1004F73
:101830000FD17B6818683B681B6800221946FFF7C8
:10184000A9FC7B681B684FF000411846FFF763FC5A
:101850000EE07B6818683B6819683B689B681A460D
:10186000FFF798FC7B681B6800211846FFF753FCC4
:101870003B685A697B681B68DB68DB0803F003037D
:101880005B0002FA03F3C7F8C8303B681B69042BFE
:1018900022D07B6818683B6819693B681A68D7F8DA
:1018A000C830FFF7ADFB7B6818683B6819693B6877
:1018B0009B691A46FFF7F9FB7B6818683B68196952
:1018C0003B681B7F012B02D14FF0007300E0002327
:1018D0001A46FFF705FC7BE17B681B680021184670
:1018E000FFF7B2FB0346C3F31303002B0AD17B6857
:1018F0001B6800211846FFF7A7FB03469B0E03F069
:101900001F021EE07B681B6800211846FFF79CFB46
:101910000346C7F8BC30D7F8BC3093FAA3F3C7F836
:10192000C030D7F8C030C7F8B830D7F8B830002B7F
:1019300001D1202304E0D7F8B830B3FA83F3DBB247
:101940001A463B681B68C3F31303002B05D13B68A1
:101950001B689B0E03F01F0318E03B681B68C7F869
:10196000B030D7F8B03093FAA3F3C7F8AC30D7F85B
:10197000AC30C7F8B430D7F8B430002B01D12023F5
:1019800004E0D7F8B430B3FA83F3DBB29A4206D15D
:101990007B681B68002200211846FFF76BFB7B6801
:1019A0001B6801211846FFF74FFB0346C3F31303DF
:1019B000002B0AD17B681B6801211846FFF744FB06
:1019C00003469B0E03F01F021EE07B681B6801218B
:1019D0001846FFF739FB0346C7F8A430D7F8A43000
:1019E00093FAA3F3C7F8A030D7F8A030C7F8A8300F
:1019F000D7F8A830002B01D1202304E0D7F8A83075
:101A0000B3FA83F3DBB21A463B681B68C3F31303D4
:101A1000002B05D13B681B689B0E03F01F0318E0E9
:101A20003B681B68C7F89830D7F8983093FAA3F34F
:101A3000C7F89430D7F89430C7F89C30D7F89C306A
:101A4000002B01D1202304E0D7F89C30B3FA83F3B4
:101A5000DBB29A4206D17B681B680022012118463E
:101A6000FFF708FB7B681B6802211846FFF7ECFABA
:101A70000346C3F31303002B0AD17B681B680221C2
:101A80001846FFF7E1FA03469B0E03F01F021EE023
:101A90007B681B6802211846FFF7D6FA0346C7F891
:101AA0008C30D7F88C3093FAA3F3C7F88830D7F886
:101AB0008830C7F89030D7F89030002B01D1202320
:101AC00004E0D7F89030B3FA83F3DBB21A463B68F0
:101AD0001B68C3F31303002B05D13B681B689B0EE7
:101AE00003F01F0316E03B681B68C7F88030D7F887
:101AF000803093FAA3F3FB67FB6FC7F88430D7F805
:101B00008430002B01D1202304E0D7F88430B3FACD
:101B100083F3DBB29A4206D17B681B680022022164
:101B20001846FFF7A7FA7B681B6803211846FFF7E2
:101B30008BFA0346C3F31303002B0AD17B681B689F
:101B400003211846FFF780FA03469B0E03F01F029D
:101B500017E07B681B6803211846FFF775FA0346F8
:101B60007B677B6F93FAA3F33B673B6FBB67BB6FEE
:101B7000002B01D1202303E0BB6FB3FA83F3DBB268
:101B80001A463B681B68C3F31303002B05D13B685F
:101B90001B689B0E03F01F0311E03B681B68BB66CC
:101BA000BB6E93FAA3F37B667B6EFB66FB6E002B2A
:101BB00001D1202303E0FB6EB3FA83F3DBB29A4238
:101BC00006D17B681B68002203211846FFF752FAF2
:101BD0007B681B681846FFF7C9FB0346002B40F0E3
:101BE0003F817B6818683B6819683B68DB681A4668
:101BF000FFF7FCFA3B68DB688E4A934240F0308185
:101C00007B6818683B681B68C3F31303002B0BD178
:101C10003B681B689B0E013303F01F03092B94BF25
:101C200001230023DBB219E03B681B68FB65FB6DF9
:101C300093FAA3F3BB65BB6D3B663B6E002B01D1F2
:101C4000202303E03B6EB3FA83F3DBB2013303F0EE
:101C50001F03092B94BF01230023DBB2002B79D093
:101C60003B681B68C3F31303002B07D13B681B6859
:101C70009B0E01339B0603F0F84215E03B681B689E
:101C80003B653B6D93FAA3F3FB64FB6C7B657B6D5B
:101C9000002B01D1202303E07B6DB3FA83F3DBB289
:101CA00001339B0603F0F8423B681B68C3F3130340
:101CB000002B09D13B681B689B0E013303F01F0307
:101CC000012101FA03F317E03B681B687B647B6C1E
:101CD00093FAA3F33B643B6CBB64BB6C002B01D158
:101CE000202303E0BB6CB3FA83F3DBB2013303F0D0
:101CF0001F03012101FA03F342EA03013B681B6859
:101D0000C3F31303002B0AD13B681B689B0E0133FE
:101D100003F01F0213465B0013441B0518E03B68E9
:101D20001B68BB63BB6B93FAA3F37B637B6BFB63A7
:101D3000FB6B002B01D1202303E0FB6BB3FA83F391
:101D4000DBB2013303F01F0213465B0013441B0593
:101D50000B4380E03B681B68C3F31303002B07D1E0
:101D60003B681B689B0E01339B0603F0F84215E0AD
:101D70003B681B68FB62FB6A93FAA3F3BB62BB6A16
:101D80003B633B6B002B01D1202303E03B6BB3FA99
:101D900083F3DBB201339B0603F0F8423B681B6818
:101DA000C3F31303002B09D13B681B689B0E01335F
:101DB00003F01F03012101FA03F317E03B681B68DE
:101DC0003B623B6A93FAA3F3FB61FB697B627B6A2C
:101DD000002B01D1202303E07B6AB3FA83F3DBB24B
:101DE000013303F01F03012101FA03F342EA030167
:101DF0003B681B68C3F31303002B0DD13B681B68C2
:101E00009B0E013303F01F0213465B0013441E3B7D
:101E10001B0543F000731DE03B681B687B617B6919
:101E200093FAA3F33B613B69BB61BB69002B03D110
:101E3000202305E000007F40BB69B3FA83F3DBB2E7
:101E4000013303F01F0213465B0013441E3B1B05C6
:101E500043F000730B433A6892681946FFF79AF90A
:101E60003B681A68434B1340002B79D04248FFF778
:101E700093F8C7F8C4003B681B68404A934224D1DA
:101E8000D7F8C43003F40003002B1ED17B681B6815
:101E90003B4A934264D1D7F8C43043F40003194657
:101EA0003548FFF766F8374B1B689B09364AA2FB9B
:101EB00003239B0901335B00FB6002E0FB68013BED
:101EC000FB60FB68002BF9D14AE03B681B682F4A96
:101ED000934213D1D7F8C43003F08073002B0DD197
:101EE0007B681B682A4A93423AD1D7F8C43043F042
:101EF000807319462048FFF73CF831E03B681B68C7
:101F0000244A934213D1D7F8C43003F48003002B42
:101F10000DD17B681B681A4A934221D1D7F8C4308F
:101F200043F4800319461448FFF723F818E03B6890
:101F30001B68194A934213D17B681B68104A93426D
:101F40000ED07B681B681846FFF734F808E07B6802
:101F50009B6D43F020027B689A65012387F8D73098
:101F60007B68002283F8542097F8D7301846D8377A
:101F7000BD4680BD0000088000830242000021C3EE
:101F80000080024200000020632D3E05000029432E
:101F900000810242000052C700005A4780B58EB04F
:101FA00000AF78603960002387F82F303B685B68AA
:101FB000B3F5400F03D03B685B68B3F1A07F7B684B
:101FC00093F85430012B01D10223EAE17B6801220E
:101FD00083F854207B681B681846FFF7DAF9B8626B
:101FE0007B681B681846FFF7E7F97862BB6A002B2D
:101FF00040F075817B6A002B40F071813B681B6863
:10200000904A934240F08D803B685B68B3F1E07F7B
:1020100034D0B3F1E07F56D8B3F1C07F4BD0B3F1E9
:10202000C07F50D8B3F1A07F1BD0B3F1A07F4AD8B6
:10203000B3F1807F37D0B3F1807F44D8B3F5000F80
:1020400029D0B3F5400F3ED17B6818683B689B6888
:1020500023F07C7343F440031A467A49FFF7EAF809
:1020600039E07B6818683B689B6823F07C7343F019
:10207000A0731A467349FFF7DDF82CE07B681868F7
:102080003B689B6823F07C7343F0E0731A466D490C
:10209000FFF7D0F81FE07B681B686B4A6949184658
:1020A000FFF7C8F817E07B681B68684A654918465F
:1020B000FFF7C0F80FE07B681B68654A6149184666
:1020C000FFF7B8F807E07B681B6800225D491846F7
:1020D000FFF7B0F800BF7B681B681B6A23F4E04180
:1020E0003B689A697B681B680A431A627B689B6D30
:1020F00023F480327B689A657B681B681846FFF77B
:102100006EF93B681B7B012B05D17B681B68184669
:10211000FFF78EF9E3E07B681B681846FFF7B8F914
:10212000DDE03B685B68B3F1E07F1DD0B3F1E07F99
:1021300000F29280B3F1C07F7BD0B3F1C07F00F298
:102140008B80B3F1A07F0FD0B3F1A07F00F2848029
:10215000B3F1807F6DD0B3F1807F7DD8B3F5000FF0
:1021600067D0B3F5400F77D13B681B68394A93427B
:102170002FD13B689B68C3F31303002B08D13B6846
:102180009B689B0E03F01F03012202FA03F316E083
:102190003B689B68FB61FB6993FAA3F3BB61BB6976
:1021A0003B623B6A002B01D1202303E03B6AB3FA78
:1021B00083F3DBB203F01F03012202FA03F37A6810
:1021C0001268D2F8A0107A6812680B43C2F8A030E7
:1021D0004BE03B689B68C3F31303002B08D13B68BB
:1021E0009B689B0E03F01F03012202FA03F316E023
:1021F0003B689B683B613B6993FAA3F3FB60FB6818
:102200007B617B69002B01D1202303E07B69B3FA5A
:1022100083F3DBB203F01F03012202FA03F37A68AF
:102220001268D2F8A4107A6812680B43C2F8A4307E
:102230001BE07B6818683B681B68054A1946FEF777
:10224000F9FF12E00000C07DFFFF8F00FFFF0F01CC
:10225000FFFF8F01FFFF1F007B6818683B681B684A
:1022600000221946FEF7E6FF00BF3B681B684F4A95
:1022700093421AD17B689B6D23F400327B689A6588
:102280007B681B681846FFF7B7F83B681B7B012B80
:1022900005D17B681B681846FFF7DAF81FE07B68FA
:1022A0001B681846FFF704F919E07B689B6D23F45F
:1022B00080227B689A657B681B681846FFF7AAF83E
:1022C0003B681B7B012B05D17B681B681846FFF719
:1022D000CFF804E07B681B681846FFF7F9F83B6805
:1022E0001B68334A934218D13B681A697B681B68A4
:1022F000DB68DB0803F003035B0002FA03F37B6394
:102300003B685A697B681B68DB68DB0803F00303E2
:102310005B0002FA03F33B6335E07B681B68DB6814
:1023200003F01803182B0FD03B681A697B681B68F1
:10233000DB68DB0803F00303C3F102035B0003F077
:102340001E0322FA03F302E03B681B699B007B63D8
:102350007B681B68DB6803F01803182B0FD03B6801
:102360005A697B681B68DB68DB0803F00303C3F171
:1023700002035B0003F01E0322FA03F302E03B6852
:102380005B699B003B637B6818683B6819683B6B23
:102390007A6BFEF77BFF7B68002283F8542097F866
:1023A0002F3018463837BD4680BD00BFFFFF1F00E5
:1023B0000000C07D80B485B000AF78607B6803F01A
:1023C0000703FB600C4BDB68BB60BA684FF6FF038A
:1023D0001340BB60FB681A02BB68134343F0BF6342
:1023E00043F40033BB60044ABB68D36000BF1437BA
:1023F000BD465DF8047B704700ED00E080B400AF9F
:10240000044BDB681B0A03F007031846BD465DF862
:10241000047B704700ED00E080B483B000AF03465A
:10242000FB80B7F90630002B0BDBFB8803F01F02A3
:102430000749B7F906305B09012000FA02F241F8BA
:10244000232000BF0C37BD465DF8047B704700BFFA
:1024500000E100E080B483B000AF03463960FB8048
:10246000B7F90630002B0ADB3B68DAB20C49B7F942
:1024700006301201D2B20B4483F800230AE03B6815
:10248000DAB20849FB8803F00F03043B1201D2B211
:102490000B441A7600BF0C37BD465DF8047B7047CD
:1024A00000E100E000ED00E080B489B000AFF8602A
:1024B000B9607A60FB6803F00703FB61FB69C3F155
:1024C0000703042B28BF0423BB61FB690433062BDD
:1024D00002D9FB69033B00E000237B614FF0FF3230
:1024E000BB6902FA03F3DA43BB681A407B699A407E
:1024F0004FF0FF317B6901FA03F3D9437B680B404E
:10250000134318462437BD465DF8047B704780B5F9
:1025100082B000AF78607868FFF74CFF00BF0837E3
:10252000BD4680BD80B586B000AF0346B9607A6015
:10253000FB81FFF763FF78617A68B9687869FFF714
:10254000B3FF0246B7F90E3011461846FFF782FF77
:1025500000BF1837BD4680BD80B582B000AF0346CE
:10256000FB80B7F906301846FFF756FF00BF083763
:10257000BD4680BD80B483B000AF78607B68042B1B
:1025800044D801A252F823F0AB250008C925000861
:10259000EB2500080D2600089D2500081F4B1B6831
:1025A0001E4A43F00403136031E01C4B1B681B4AB6
:1025B00023F0040313601A4BD3F8E430184A23F0D5
:1025C0000C03C2F8E43022E0144B1B68134A23F0DA
:1025D00004031360124BD3F8E43023F00C03104AC9
:1025E00043F00403C2F8E43011E00C4B1B680B4AC3
:1025F00023F0040313600A4BD3F8E43023F00C03F8
:10260000074A43F00803C2F8E43000E000BF00BF0F
:102610000C37BD465DF8047B704700BF10E000E05A
:10262000000C024480B584B000AF78607B68002B5A
:1026300001D1012347E17B6893F85C30DBB2002BCA
:1026400006D17B68002283F85D207868FEF7A4F944
:102650007B681B689A697B681B6822F010029A618C
:10266000FEF768FCF86012E0FEF764FC0246FB68C7
:10267000D31A0A2B0BD97B681B6E43F001027B68CF
:102680001A667B68032283F85C2001231BE17B68C8
:102690001B689B6903F00803082BE5D07B681B6867
:1026A0009A697B681B6842F001029A61FEF742FC5E
:1026B000F86012E0FEF73EFC0246FB68D31A0A2BD4
:1026C0000BD97B681B6E43F001027B681A667B683E
:1026D000032283F85C200123F5E07B681B689B697B
:1026E00003F00103002BE5D07B681B689A697B68C7
:1026F0001B6842F002029A617B681B68744A93422D
:1027000003D1744A7B685B6813607B681B7C012B78
:1027100008D17B681B689A697B681B6822F04002BD
:102720009A6107E07B681B689A697B681B6842F0C6
:1027300040029A617B685B7C012B08D17B681B6837
:102740009A697B681B6842F480429A6107E07B6863
:102750001B689A697B681B6822F480429A617B68D7
:102760009B7C012B08D17B681B689A697B681B687E
:1027700022F480529A6107E07B681B689A697B6843
:102780001B6842F480529A617B681B689B6923F442
:1027900040717B689A687B681B680A439A617B6812
:1027A0001B689A697B681B6822F0A4029A617B68A7
:1027B0001B681A697B681B6822F010021A617B682B
:1027C000DB68012B08D17B681B689A697B681B68F2
:1027D00042F004029A612CE07B68DB68002B28D071
:1027E0007B68DB68022B1CD07B681B689A697B685E
:1027F0001B6842F080029A617B681B681A697B68DB
:102800001B6842F010021A617B68DB68032B10D151
:102810007B681B689A697B681B6842F020029A619A
:1028200007E07B681B689A697B681B6842F020029E
:102830009A617B689B69013B5A067B68DB69013BB7
:102840001B021A437B681B6A013B42EA03017B6857
:102850005B69013B1A047B681B680A43DA617B6889
:102860009B68B3F5407F15D17B689B6A5A1E7B68D5
:10287000DB6A013B1B021A437B681B6B013B1B019C
:1028800042EA03017B685B6A013B1A047B681B68B0
:102890000A43DA607B681B68D3F8C0107B68DA6B88
:1028A0007B681B680A43C3F8C020786800F014F8FE
:1028B0007B6800229A657B6800221A667B68012289
:1028C00083F85C20002318461037BD4680BD00BF4A
:1028D00000A4004000A5004080B485B000AF78603F
:1028E0002C4BBB607B681B682B4A934203D1BB68AF
:1028F00003F55473BB607B68BA681A647B681B6815
:10290000D3F8803023F4F8117B685B6B1A047B6882
:102910001B680A43C3F88020BB6803F170027B6820
:102920005A647B681B68D3F8803023F070617B6841
:102930009B6B1A067B681B680A43C3F88020BB6840
:1029400003F1B0027B689A64BB6803F5C4727B68CC
:10295000DA64BB6803F518727B681A65BB6803F517
:102960001E727B685A65BB68FB6005E0FB6800224D
:102970001A60FB680433FB60BB6803F55473FA68A4
:102980009A42F3D300BF00BF1437BD465DF8047B05
:10299000704700BF00AC004000A8004080B487B082
:1029A00000AF7860396000233B6136E13B681A680C
:1029B00001213B6901FA03F31340FB60FB68002B24
:1029C00000F028813B685B68022B03D03B685B68A2
:1029D000122B25D13B69DA087B68083253F8223084
:1029E0007B613B6903F007039B000F2202FA03F3AC
:1029F000DB437A6913407B613B681B6903F00F027C
:102A00003B6903F007039B0002FA03F37A6913435F
:102A10007B613B69DA087B680832796943F82210E8
:102A20007B681B687B613B695B00032202FA03F34E
:102A3000DB437A6913407B613B685B6803F0030208
:102A40003B695B0002FA03F37A6913437B617B689D
:102A50007A691A603B685B68012B0BD03B685B6846
:102A6000022B07D03B685B68112B03D03B685B6887
:102A7000122B30D17B689B687B613B695B00032232
:102A800002FA03F3DB437A6913407B613B68DA683F
:102A90003B695B0002FA03F37A6913437B617B684D
:102AA0007A699A607B685B687B6101223B6902FA04
:102AB00003F3DB437A6913407B613B685B681B0966
:102AC00003F001023B6902FA03F37A6913437B6165
:102AD0007B687A695A603B685B68032B17D07B6818
:102AE000DB687B613B695B00032202FA03F3DB4393
:102AF0007A6913407B613B689A683B695B0002FA24
:102B000003F37A6913437B617B687A69DA603B6817
:102B10005B6803F08053002B7CD0474A3B699B08DD
:102B2000183352F823307B613B6903F00303DB0069
:102B30000F2202FA03F3DB437A6913407B617B685F
:102B40009A0A3E4B13403A6902F00302D2009340C6
:102B50007A6913437B6138493B699B0818337A696A
:102B600041F82320344B1B687B61FB68DB437A69A7
:102B700013407B613B685B6803F48013002B03D038
:102B80007A69FB6813437B612B4A7B6913602A4B8C
:102B90005B687B61FB68DB437A6913407B613B6860
:102BA0005B6803F40013002B03D07A69FB681343BE
:102BB0007B61214A7B6953601F4BD3F884307B6172
:102BC000FB68DB437A6913407B613B685B6803F415
:102BD0000033002B03D07A69FB6813437B61164AEC
:102BE0007B69C2F88430144BD3F880307B61FB687A
:102BF000DB437A6913407B613B685B6803F4803395
:102C0000002B03D07A69FB6813437B610A4A7B6916
:102C1000C2F880303B6901333B613B681A683B690D
:102C200022FA03F3002B7FF4C1AE00BF00BF1C37B4
:102C3000BD465DF8047B7047002002447F7F2F0073
:102C400080B483B000AF78600B467B8013467B7006
:102C50007B78002B03D07A887B689A6102E07A88BF
:102C60007B689A6200BF0C37BD465DF8047B7047F5
:102C700080B582B000AF78607B68002B01D1012362
:102C80008DE07B6893F84130DBB2002B06D17B6886
:102C9000002283F840207868FDF7E8FE7B68242254
:102CA00083F841207B681B681A687B681B6822F0E8
:102CB00001021A607B685A687B681B6822F07062A8
:102CC0001A617B681B689A687B681B6822F4004263
:102CD0009A607B68DB68012B07D17B689A687B6808
:102CE0001B6842F400429A6006E07B689A687B6841
:102CF0001B6842F404429A607B68DB68022B08D1AF
:102D00007B681B685A687B681B6842F400625A60E3
:102D100007E07B681B685A687B681B6822F40062C6
:102D20005A607B681B685B687A68126843F00073BE
:102D300043F4004353607B681B68DA687B681B6858
:102D400022F40042DA607B681A697B685B6942EAB8
:102D500003017B689B691A027B681B680A43DA607F
:102D60007B68D9697B681A6A7B681B680A431A60AA
:102D70007B681B681A687B681B6842F001021A6056
:102D80007B6800225A647B68202283F841207B689C
:102D900000221A637B68002283F842200023184631
:102DA0000837BD4680BD80B483B000AF786039601D
:102DB0007B6893F84130DBB2202B38D17B6893F8E5
:102DC0004030012B01D1022332E07B68012283F8DD
:102DD00040207B68242283F841207B681B681A68A6
:102DE0007B681B6822F001021A607B681B681A6806
:102DF0007B681B6822F480521A607B681B68196824
:102E00007B681B683A680A431A607B681B681A680B
:102E10007B681B6842F001021A607B68202283F8FD
:102E200041207B68002283F84020002300E0022339
:102E300018460C37BD465DF8047B704780B485B0FA
:102E400000AF786039607B6893F84130DBB2202BAB
:102E500039D17B6893F84030012B01D1022333E054
:102E60007B68012283F840207B68242283F841207C
:102E70007B681B681A687B681B6822F001021A6075
:102E80007B681B681B68FB60FB6823F47063FB6056
:102E90003B681B02FA681343FB607B681B68FA6897
:102EA0001A607B681B681A687B681B6842F0010225
:102EB0001A607B68202283F841207B68002283F817
:102EC0004020002300E0022318461437BD465DF879
:102ED000047B704780B485B000AF78600023FB733B
:102EE0000B4B1B6803F00103002B02D00123FB7383
:102EF00007E0074B1B6823F0040205497B68134376
:102F00000B60FB7B18461437BD465DF8047B7047A9
:102F10000004034080B400AF054B1B68044A43F033
:102F20000103136000231846BD465DF8047B70471B
:102F30000004034080B588B000AF78607B68002B48
:102F400002D1012300F028BC944BDB6903F0180385
:102F5000FB61924B9B6A03F00303BB617B681B68B8
:102F600003F01003002B5BD0FB69082B05D0FB6935
:102F7000182B14D1BB69022B11D17B68DB69002BA4
:102F800002D1012300F008BC844B9B6923F47C121E
:102F90007B681B6A1B04814913438B6140E07B689B
:102FA000DB69002B23D07D4B1B687C4A43F4807384
:102FB0001360FDF7BFFF786108E0FDF7BBFF024635
:102FC0007B69D31A022B01D90323E5E3734B1B68FA
:102FD00003F40073002BF0D0704B9B6923F47C1238
:102FE0007B681B6A1B046D4913438B6118E06B4BB4
:102FF0001B686A4A23F480731360FDF79BFF7861B6
:1030000008E0FDF797FF02467B69D31A022B01D92E
:103010000323C1E3614B1B6803F40073002BF0D161
:103020007B681B6803F00103002B00F0A080FB69A4
:10303000102B05D0FB69182B09D1BB69032B06D1D6
:103040007B685B68002B40F092800123A4E37B68DF
:103050005B68B3F5803F06D1504B1B684F4A43F481
:103060008033136058E07B685B68002B12D14B4BB8
:103070001B684A4A23F480331360484B1B68474A55
:1030800023F480131360454B1B68444A23F48023C8
:10309000136041E07B685B68B3F5A02F12D13F4B12
:1030A0001B683E4A43F4802313603C4B1B683B4A39
:1030B00023F480131360394B1B68384A43F4803380
:1030C000136029E07B685B68B3F5A81F12D1334B0E
:1030D0001B68324A43F480231360304B1B682F4A2D
:1030E00043F4801313602D4B1B682C4A43F4803348
:1030F000136011E0294B1B68284A23F480331360C6
:10310000264B1B68254A23F480231360234B1B683E
:10311000224A23F4801313607B685B68002B13D072
:10312000FDF708FF786108E0FDF704FF02467B69C0
:10313000D31A642B01D903232EE3184B1B6803F425
:103140000033002BF0D012E0FDF7F4FE786108E0C8
:10315000FDF7F0FE02467B69D31A642B01D90323E5
:103160001AE30E4B1B6803F40033002BF0D17B688D
:103170001B6803F00203002B00F09A80FB69002B10
:1031800005D0FB69182B49D1BB69012B46D17B685F
:10319000DB68002B04D10123FEE200BF000C0244D7
:1031A000FB69002B1CD19A4B1B6803F018027B684B
:1031B0001B699A4214D0964B1B6823F018027B6857
:1031C0001B69934913430B6000F0D0FD914B1B68C2
:1031D0001846FDF731FD0346002B01D00123DBE249
:1031E000FDF7A8FE786108E0FDF7A4FE02467B69C2
:1031F000D31A022B01D90323CEE2854B1B6803F0BF
:103200000203002BF0D0824B1B6923F4FE027B6883
:103210005B691B047E4913430B6149E07B68DB68F3
:10322000002B2CD07A4B1B6823F018027B681B699B
:10323000774913430B60764B1B68754A43F00103D3
:103240001360FDF777FE786108E0FDF773FE024634
:103250007B69D31A022B01D903239DE26C4B1B68B7
:1032600003F00203002BF0D0694B1B6923F4FE022C
:103270007B685B691B04664913430B6118E0644B70
:103280001B68634A23F001031360FDF753FE786166
:1032900008E0FDF74FFE02467B69D31A022B01D9E5
:1032A000032379E25A4B1B6803F00203002BF0D191
:1032B0007B681B6803F00803002B3CD07B689B698C
:1032C000002B1CD0524BD3F8F030514A43F08063AE
:1032D000C2F8F030FDF72EFE786108E0FDF72AFE17
:1032E00002467B69D31A022B01D9032354E2484BCF
:1032F000D3F8F03003F00063002BEFD01BE0444B19
:10330000D3F8F030424A23F08063C2F8F030FDF782
:1033100011FE786108E0FDF70DFE02467B69D31AC5
:10332000022B01D9032337E2394BD3F8F03003F0F5
:103330000063002BEFD17B681B6803F00403002BB4
:1033400000F0D280344B5B6A03F00103002B18D1EC
:10335000314B5B6A304A43F001035362FDF7EAFDEB
:10336000786108E0FDF7E6FD02467B69D31A022B7F
:1033700001D9032310E2284B5B6A03F00103002B01
:10338000F0D07B689B68012B08D1214BD3F8F0303B
:103390001F4A43F00103C2F8F03074E07B689B6879
:1033A000002B18D11A4BD3F8F030194A23F001033F
:1033B000C2F8F030164BD3F8F030154A23F08003F2
:1033C000C2F8F030124BD3F8F030114A23F0040366
:1033D000C2F8F03057E07B689B68052B1ED10C4B80
:1033E000D3F8F0300A4A43F00403C2F8F030084B37
:1033F000D3F8F030064A23F08003C2F8F030044BD3
:10340000D3F8F030024A43F00103C2F8F0303AE05A
:10341000000C024404000020000802447B689B6802
:10342000852B18D1A24BD3F8F030A14A43F0040306
:10343000C2F8F0309E4BD3F8F0309D4A43F0800341
:10344000C2F8F0309A4BD3F8F030994A43F00103B8
:10345000C2F8F03017E0964BD3F8F030944A23F0DE
:103460000103C2F8F030924BD3F8F030904A23F0C9
:103470000403C2F8F0308E4BD3F8F0308C4A23F0BE
:103480008003C2F8F0307B689B68002B16D0FDF7F4
:1034900051FD78610AE0FDF74DFD02467B69D31AC4
:1034A00041F28832934201D9032375E1804BD3F86E
:1034B000F03003F00203002BEDD015E0FDF73AFDEC
:1034C00078610AE0FDF736FD02467B69D31A41F2C6
:1034D0008832934201D903235EE1754BD3F8F03073
:1034E00003F00203002BEDD17B681B6803F020037F
:1034F000002B36D07B685B6A002B19D06C4B1B68A5
:103500006B4A43F480531360FDF714FD786108E0C3
:10351000FDF710FD02467B69D31A022B01D9032364
:103520003AE1634B1B6803F40053002BF0D018E022
:103530005F4B1B685E4A23F480531360FDF7FAFC6F
:10354000786108E0FDF7F6FC02467B69D31A022B8E
:1035500001D9032320E1564B1B6803F40053002BD1
:10356000F0D17B689B6A002B00F01581FB69182B5A
:1035700000F0AF807B689B6A022B40F086804C4B4A
:103580001B684B4A23F080731360FDF7D3FC78610E
:1035900008E0FDF7CFFC02467B69D31A022B01D964
:1035A0000323F9E0424B1B6803F00073002BF0D1BA
:1035B0003F4B9B6A23F47C5323F003037A68D16A60
:1035C0007A68126B12020A43394913438B627B6893
:1035D0005B6B013BC3F308027B689B6B013B5B02A7
:1035E0009BB21A437B68DB6B013B1B0403F4FE03B5
:1035F0001A437B681B6C013B1B0603F0FE432C49FE
:1036000013434B632A4B9B6A294A23F010039362AE
:103610007B68DB6C264ADB009363254B9B6A244A5C
:1036200043F010039362224B9B6A23F00C027B68E9
:103630005B6C1F4913438B621D4B9B6A23F0200276
:103640007B689B6C1A4913438B62194B9B6A184A1F
:1036500043F480339362164B1B68154A43F0807322
:103660001360FDF767FC786108E0FDF763FC024634
:103670007B69D31A022B01D903238DE00C4B1B6805
:1036800003F00073002BF0D085E0094B1B68084A5B
:1036900023F080731360FDF74DFC78610AE0FDF7BD
:1036A00049FC02467B69D31A022B03D9032373E03A
:1036B000000C02443A4B1B6803F00073002BEED160
:1036C000374B9B6A364A23F4E02323F003039362CB
:1036D00061E0334B9B6A3B61314B5B6BFB607B680A
:1036E0009B6A012B31D03B6903F003027B68DB6AE4
:1036F0009A422AD13B691B0A03F03F027B681B6B8D
:103700009A4222D1FB68C3F308027B685B6B013BE2
:103710009A421AD1FB685B0A03F07F027B689B6BBD
:10372000013B9A4211D1FB681B0C03F07F027B68BE
:10373000DB6B013B9A4208D1FB681B0E03F07F0252
:103740007B681B6C013B9A4201D0012324E0144B9F
:103750009B6BDB08C3F30C027B68DB6C9A421AD0CC
:103760000F4B9B6A0E4A23F010039362FDF7E2FBB6
:10377000786100BFFDF7DEFB02467B699342F9D01A
:103780007B68DB6C064ADB009363054B9B6A044A4B
:1037900043F010039362002318462037BD4680BDD6
:1037A000000C024480B584B000AF786039607B685B
:1037B000002B01D101239EE1834B1B6803F00F0313
:1037C0003A689A4210D9804B1B6823F00F027E4959
:1037D0003B6813430B607C4B1B6803F00F033A6894
:1037E0009A4201D0012386E17B681B6803F0100335
:1037F000002B12D07B685A69744B1B6A1B0A03F0BA
:1038000070039A4209D9714B1B6A23F4E0427B682A
:103810005B691B026D4913430B627B681B6803F0F5
:103820000803002B12D07B681A69684B1B6A1B09BE
:1038300003F070039A4209D9644B1B6A23F4E062D7
:103840007B681B691B01614913430B627B681B6822
:1038500003F00403002B10D07B68DA685B4B1B6A13
:1038600003F070039A4208D9584B1B6A23F0700288
:103870007B68DB68554913430B627B681B6803F068
:103880000203002B10D07B689A68504B1B6A03F030
:103890000F039A4208D94D4B1B6A23F00F027B6835
:1038A0009B684A4913430B627B681B6803F0010362
:1038B000002B00F093807B685B68032B07D1434BA0
:1038C0001B6803F00073002B21D1012313E17B68F7
:1038D0005B68022B07D13D4B1B6803F40033002BC0
:1038E00015D1012307E17B685B68012B07D1374BBA
:1038F0001B6803F40073002B09D10123FBE0334B59
:103900001B6803F00203002B01D10123F3E02F4BCE
:10391000DB6923F003027B685B682C491343CB61AE
:10392000FDF708FBF8607B685B68032B12D10AE0A7
:10393000FDF700FB0246FB68D31A41F2883293423E
:1039400001D90323D7E0214BDB6903F01803182BBF
:10395000EED143E07B685B68022B12D10AE0FDF7F1
:10396000E9FA0246FB68D31A41F28832934201D940
:103970000323C0E0154BDB6903F01803102BEED1D5
:103980002CE07B685B68012B22D10AE0FDF7D2FABC
:103990000246FB68D31A41F28832934201D90323CD
:1039A000A9E00A4BDB6903F01803082BEED115E000
:1039B000FDF7C0FA0246FB68D31A41F288329342FF
:1039C00006D9032397E000BF00200240000C024408
:1039D0004B4BDB6903F01803002BE9D17B681B68B4
:1039E00003F00203002B10D07B689A68444B1B6ADB
:1039F00003F00F039A4208D2414B1B6A23F00F02D7
:103A00007B689B683E4913430B623E4B1B6803F087
:103A10000F033A689A4210D23A4B1B6823F00F0208
:103A200038493B6813430B60364B1B6803F00F03A8
:103A30003A689A4201D001235DE07B681B6803F07D
:103A40000403002B10D07B68DA682D4B1B6A03F04F
:103A500070039A4208D22A4B1B6A23F070027B68DB
:103A6000DB68274913430B627B681B6803F008037C
:103A7000002B12D07B681A69214B1B6A1B0903F0CB
:103A800070039A4209D21E4B1B6A23F4E0627B68E2
:103A90001B691B011A4913430B627B681B6803F007
:103AA0001003002B12D07B685A69154B1B6A1B0A46
:103AB00003F070039A4209D2114B1B6A23F4E042CF
:103AC0007B685B691B020E4913430B6200F022F80E
:103AD00002460B4B1B6A03F00F030B49CB5C22FA27
:103AE00003F30A4A13600A4B1B681846FDF7A4F853
:103AF0000346FB72FB7A18461037BD4680BD00BFF7
:103B0000000C02440020024034860008000000201F
:103B10000400002080B489B000AF8C4BDB6903F057
:103B20001803082B02D18A4BFB6107E1874BDB6945
:103B300003F01803002B12D1844B1B6803F0200301
:103B4000002B09D0814B1B68DB0803F00303814A7B
:103B500022FA03F3FB61F1E07E4BFB61EEE07B4B6D
:103B6000DB6903F01803102B02D17B4BFB61E5E00E
:103B7000764BDB6903F01803182B40F0DD80734BA4
:103B80009B6A03F003037B61704B9B6A1B0A03F083
:103B90003F033B616D4B9B6A1B0903F00103FB6014
:103BA0006A4B9B6BDB08C3F30C03FA6802FB03F35D
:103BB00007EE903AF8EE677AC7ED027A3B69002B80
:103BC00000F0B7807B69012B03D07B69032B56D0B3
:103BD00077E05E4B1B6803F02003002B2DD05B4B7E
:103BE0001B68DB0803F003035A4A22FA03F37B60E5
:103BF0007B6807EE903AF8EE676A3B6907EE903A09
:103C0000F8EE677A86EEA77A504B5B6BC3F3080336
:103C100007EE903AF8EE676A97ED026ADFED4F5AC9
:103C2000C6EE257A76EEA77AF7EE006A77EEA67AE8
:103C300067EE277AC7ED067A65E03B6907EE903AB2
:103C4000F8EE677ADFED466A86EEA77A3F4B5B6B4C
:103C5000C3F3080307EE903AF8EE676A97ED026A3D
:103C6000DFED3E5AC6EE257A76EEA77AF7EE006AC9
:103C700077EEA67A67EE277AC7ED067A43E03B69CE
:103C800007EE903AF8EE677ADFED366A86EEA77AAD
:103C90002E4B5B6BC3F3080307EE903AF8EE676AAE
:103CA00097ED026ADFED2D5AC6EE257A76EEA77AF9
:103CB000F7EE006A77EEA67A67EE277AC7ED067A06
:103CC00021E03B6907EE903AF8EE677ADFED266A6D
:103CD00086EEA77A1D4B5B6BC3F3080307EE903AA1
:103CE000F8EE676A97ED026ADFED1C5AC6EE257A98
:103CF00076EEA77AF7EE006A77EEA67A67EE277A75
:103D0000C7ED067A00BF114B5B6B5B0A03F07F03C4
:103D100001333B603B6807EE903AB8EE677AD7ED27
:103D2000066AC6EE877AFCEEE77A17EE903AFB61F8
:103D300004E00023FB6101E0064BFB61FB691846D0
:103D40002437BD465DF8047B704700BF000C024479
:103D500000093D000090D00340787D01000000463E
:103D60000024744C20BCBE4B0024744A80B500AFC4
:103D7000FFF7D0FE0246084B1B6A03F00F0307490A
:103D8000CB5C03F01F0322FA03F3054A1360044BD4
:103D90001B68184680BD00BF000C02443486000832
:103DA0000000002080B500AFFFF7E0FF0246064BA1
:103DB0001B6A1B0903F007030449CB5C03F01F03D4
:103DC00022FA03F3184680BD000C02444486000822
:103DD00080B485B000AF786039607B681F221A60BC
:103DE000154BDB6903F003027B685A60124B1B6AB8
:103DF000FB60FB6803F00F027B689A60FB6803F0CE
:103E000070027B68DA60FB681B0903F070027B6854
:103E10001A61FB681B0A03F070027B685A61074B4A
:103E20001B6803F00F023B681A6000BF1437BD46E1
:103E30005DF8047B704700BF000C02440020024084
:103E40002DE9B04FBAB000AFC7F8D400002387F80F
:103E5000E330002387F8E230D7F8D430D3E90023E9
:103E600002F08074002554EA05030BD0CD4BD3F843
:103E7000E83023F04041D7F8D4309B6DC94A0B435A
:103E8000C2F8E830D7F8D430D3E9002302F00108B3
:103E90004FF0000958EA090342D0D7F8D430DB6D5F
:103EA000052B23D801A252F823F000BFF53E0008ED
:103EB000C53E0008D93E0008F53E0008F53E000862
:103EC000F53E0008D7F8D4300833184601F078F9E9
:103ED000034687F8E3300EE0D7F8D4303033184685
:103EE00001F006FA034687F8E33004E0012387F87F
:103EF000E33000E000BF97F8E330002B0CD1A94B72
:103F0000D3F8D83023F00701D7F8D430DB6DA54AB9
:103F10000B43C2F8D83003E097F8E33087F8E2307B
:103F2000D7F8D430D3E9002302F0020A4FF0000B97
:103F30005AEA0B0300F08880D7F8D4301B6E282B88
:103F400068D801A252F823F01D400008154000086F
:103F500015400008154000081540000815400008ED
:103F60001540000815400008ED3F00081540000806
:103F700015400008154000081540000815400008CD
:103F800015400008154000080140000815400008D1
:103F900015400008154000081540000815400008AD
:103FA00015400008154000081D4000081540000895
:103FB000154000081540000815400008154000088D
:103FC00015400008154000081D4000081540000875
:103FD000154000081540000815400008154000086D
:103FE00015400008154000081D400008D7F8D430DF
:103FF0000833184601F0E4F8034687F8E3300EE092
:10400000D7F8D4303033184601F072F9034687F8F8
:10401000E33004E0012387F8E33000E000BF97F8C5
:10402000E330002B0CD15F4BD3F8D83023F03801AC
:10403000D7F8D4301B6E5B4A0B43C2F8D83003E08C
:1040400097F8E33087F8E230D7F8D430D3E900238B
:1040500002F00403C7F8C8300023C7F8CC30D7E912
:1040600032120B4613434ED0D7F8D4305B6EB3F503
:10407000A07F2CD0B3F5A07F25D8B3F5807F28D0C2
:10408000B3F5807F1FD8C02B25D0C02B1BD8802B29
:104090000FD0802B17D8002B1FD0402B13D1D7F86F
:1040A000D4300833184601F08BF8034687F8E33024
:1040B00014E0D7F8D4303033184601F019F903462C
:1040C00087F8E3300AE0012387F8E33006E000BF19
:1040D00004E000BF02E000BF00E000BF97F8E3305B
:1040E000002B0CD12F4BD3F8D83023F4E071D7F844
:1040F000D4305B6E2B4A0B43C2F8D83003E097F8FC
:10410000E33087F8E230D7F8D430D3E9002302F067
:104110000803C7F8C0300023C7F8C430D7E930120D
:104120000B46134356D0D7F8D4309B6EB3F5206FAF
:1041300031D0B3F5206F2AD8B3F5006F2DD0B3F589
:10414000006F24D8B3F5C06F29D0B3F5C06F1ED867
:10415000B3F5806F11D0B3F5806F18D8002B23D042
:10416000B3F5007F13D1D7F8D4300833184601F0E7
:1041700027F8034687F8E33017E0D7F8D430303318
:10418000184601F0B5F8034687F8E3300DE0012347
:1041900087F8E33009E000BF07E000BF05E000BF9B
:1041A00003E000BF000C024400BF97F8E330002B8F
:1041B0000CD1B94BD3F8D83023F46061D7F8D430A0
:1041C0009B6EB54A0B43C2F8D83003E097F8E33052
:1041D00087F8E230D7F8D430D3E9002302F0100397
:1041E000C7F8B8300023C7F8BC30D7E92E120B4609
:1041F000134353D0D7F8D430DB6EB3F5A04F31D092
:10420000B3F5A04F2AD8B3F5804F2DD0B3F5804F2A
:1042100024D8B3F5405F29D0B3F5405F1ED8B3F57D
:10422000005F11D0B3F5005F18D8002B20D0B3F594
:10423000805F13D1D7F8D4300833184600F0C0FFA0
:10424000034687F8E33014E0D7F8D430303318460B
:1042500001F04EF8034687F8E3300AE0012387F8BF
:10426000E33006E000BF04E000BF02E000BF00E072
:1042700000BF97F8E330002B0CD1874BD3F8D83030
:1042800023F4E041D7F8D430DB6E834A0B43C2F805
:10429000D83003E097F8E33087F8E230D7F8D4302D
:1042A000D3E9002302F02003C7F8B0300023C7F899
:1042B000B430D7E92C120B46134353D0D7F8D4307F
:1042C0001B6FB3F5203F31D0B3F5203F2AD8B3F5AB
:1042D000003F2DD0B3F5003F24D8B3F5C03F29D01F
:1042E000B3F5C03F1ED8B3F5803F11D0B3F5803F82
:1042F00018D8002B20D0B3F5004F13D1D7F8D43005
:104300000833184600F05CFF034687F8E33014E0FA
:10431000D7F8D4303033184600F0EAFF034687F868
:10432000E3300AE0012387F8E33006E000BF04E051
:1043300000BF02E000BF00E000BF97F8E330002BB1
:104340000CD1554BD3F8D83023F46031D7F8D430A2
:104350001B6F514A0B43C2F8D83003E097F8E330A3
:1043600087F8E230D7F8D430D3E9002302F4805341
:10437000C7F8A8300023C7F8AC30D7E92A120B469B
:10438000134353D0D7F8D4305B6FB3F1A06F31D063
:10439000B3F1A06F2AD8B3F1806F2DD0B3F1806F45
:1043A00024D8B3F1407F29D0B3F1407F1ED8B3F1B8
:1043B000007F11D0B3F1007F18D8002B20D0B3F1CB
:1043C000807F13D1D7F8D4300833184600F0F8FEB8
:1043D000034687F8E33014E0D7F8D430303318467A
:1043E00000F086FF034687F8E3300AE0012387F8F0
:1043F000E33006E000BF04E000BF02E000BF00E0E1
:1044000000BF97F8E330002B0CD1234BD3F8E030FA
:1044100023F0E061D7F8D4305B6F1F4A0B43C2F83A
:10442000E03003E097F8E33087F8E230D7F8D43093
:10443000D3E9002302F40053C7F8A0300023C7F8E3
:10444000A430D7E928120B4613433DD0D7F8D43017
:104450009B6FB3F5403F1BD0B3F5403F14D8B3F585
:10446000003F17D0B3F5003F0ED8002B16D0B3F5A0
:10447000803F09D1D7F8D4303033184600F038FFE8
:10448000034687F8E3300AE0012387F8E33006E0CB
:1044900000BF04E000BF02E0000C024400BF97F838
:1044A000E330002B0CD1994BD3F8E43023F44031A6
:1044B000D7F8D4309B6F954A0B43C2F8E43003E041
:1044C00097F8E33087F8E230D7F8D430D3E9002307
:1044D00002F48043C7F898300023C7F89C30D7E92E
:1044E00026120B4613433BD0D7F8D430DB6FB3F51D
:1044F000402F1BD0B3F5402F14D8B3F5002F17D0A1
:10450000B3F5002F0ED8002B14D0B3F5802F09D1AE
:10451000D7F8D4303033184600F0EAFE034687F867
:10452000E33008E0012387F8E33004E000BF02E055
:1045300000BF00E000BF97F8E330002B0CD1734BB5
:10454000D3F8E43023F44021D7F8D430DB6F6F4A3E
:104550000B43C2F8E43003E097F8E33087F8E23029
:10456000D7F8D430D3E9002302F40043C7F89030E1
:104570000023C7F89430D7E924120B4613433DD0EB
:10458000D7F8D430D3F88030B3F5401F1BD0B3F543
:10459000401F14D8B3F5001F17D0B3F5001F0ED875
:1045A000002B14D0B3F5801F09D1D7F8D4303033A5
:1045B000184600F09DFE034687F8E33008E001232B
:1045C00087F8E33004E000BF02E000BF00E000BF76
:1045D00097F8E330002B0DD14C4BD3F8E43023F4A3
:1045E0004011D7F8D430D3F88030484A0B43C2F892
:1045F000E43003E097F8E33087F8E230D7F8D430BE
:10460000D3E9002302F48033C7F888300023C7F8C9
:104610008C30D7E922120B46134335D0D7F8D4306B
:10462000D3F88430B3F1007F15D0B3F1007F0ED8FA
:10463000002B12D0B3F1807F09D1D7F8D4303033BA
:10464000184600F055FE034687F8E33006E00123E4
:1046500087F8E33002E000BF00E000BF97F8E330E6
:10466000002B0DD1294BD3F8E43023F04071D7F85B
:10467000D430D3F88430254A0B43C2F8E43003E049
:1046800097F8E33087F8E230D7F8D430D3E9002345
:104690000021C7F8801003F48053C7F88430D7E9AD
:1046A00020120B46134337D0D7F8D430D3F88830D4
:1046B000B3F1006F15D0B3F1006F0ED8002B12D0FC
:1046C000B3F1806F09D1D7F8D4303033184600F0F9
:1046D0000FFE034687F8E33006E0012387F8E33056
:1046E00002E000BF00E000BF97F8E330002B0FD1DD
:1046F000064BD3F8E43023F04061D7F8D430D3F838
:104700008830024A0B43C2F8E43005E0000C024452
:1047100097F8E33087F8E230D7F8D430D3E90023B4
:104720000021B96703F40063FB67D7E91E120B464B
:1047300013430ED0B84BDB69B74A23F40043D3616F
:10474000B54BD969D7F8D430D3F8C830B24A0B4347
:10475000D361D7F8D430D3E9002302F400333B67A8
:1047600000237B67D7E91C120B46134355D0D7F8BB
:10477000D430D3F88C30B3F5A06F31D0B3F5A06F3F
:104780002AD8B3F5806F2DD0B3F5806F24D8B3F558
:10479000407F29D0B3F5407F1ED8B3F5007F11D0FC
:1047A000B3F5007F18D8002B20D0B3F5807F13D14C
:1047B000D7F8D4300833184600F002FD034687F8D6
:1047C000E33014E0D7F8D4303033184600F090FDD1
:1047D000034687F8E3300AE0012387F8E33006E078
:1047E00000BF04E000BF02E000BF00E000BF97F898
:1047F000E330002B0DD1884BD3F8DC3023F4E0619B
:10480000D7F8D430D3F88C30834A0B43C2F8DC306D
:1048100003E097F8E33087F8E230D7F8D430D3E9F3
:10482000002302F48023BB660023FB66D7E91A123B
:104830000B46134355D0D7F8D430D3F89030B3F5A6
:10484000A04F31D0B3F5A04F2AD8B3F5804F2DD06B
:10485000B3F5804F24D8B3F5405F29D0B3F5405F5E
:104860001ED8B3F5005F11D0B3F5005F18D8002B48
:1048700020D0B3F5805F13D1D7F8D4300833184671
:1048800000F09EFC034687F8E33014E0D7F8D430FC
:104890003033184600F02CFD034687F8E3300AE079
:1048A000012387F8E33006E000BF04E000BF02E028
:1048B00000BF00E000BF97F8E330002B0DD1564B4E
:1048C000D3F8DC3023F4E041D7F8D430D3F890307B
:1048D000514A0B43C2F8DC3003E097F8E33087F825
:1048E000E230D7F8D430D3E9002302F400133B665A
:1048F00000237B66D7E918120B46134332D0D7F852
:10490000D430D3F8A030052B0FD8032B11D2012BB4
:1049100011D9022B09D1D7F8D4300833184600F04A
:104920004FFC034687F8E33006E0012387F8E330C5
:1049300002E000BF00E000BF97F8E330002B0DD18C
:10494000354BD3F8E83023F00701D7F8D430D3F84B
:10495000A030314A0B43C2F8E83003E097F8E33067
:1049600087F8E230D7F8D430D3E900230021B965C5
:1049700003F40073FB65D7E916120B46134324D0EA
:10498000D7F8D430D3F8A430002B05D0082B05D0AD
:10499000012387F8E33002E000BF00E000BF97F892
:1049A000E330002B0DD11C4BD3F8E83023F0080185
:1049B000D7F8D430D3F8A430174A0B43C2F8E83004
:1049C00003E097F8E33087F8E230D7F8D430D3E942
:1049D000002302F000733B6500237B65D7E91412C6
:1049E0000B46134300F0B9800C4B5B6A0B4A43F053
:1049F00001035362FCF79EFAC7F8DC0010E0FCF7F5
:104A000099FA0246D7F8DC30D31A022B08D90323CF
:104A100087F8E3300AE000BF000C024400080244BB
:104A2000BA4B5B6A03F00103002BE8D097F8E33040
:104A3000002B40F08E80B64BD3F8F03003F4407377
:104A4000C7F8E430D7F8E430002B23D0D7F8D430BF
:104A5000D3F8BC20D7F8E43093421BD0AC4BD3F84A
:104A6000F03023F44073C7F8E430A94BD3F8F030AA
:104A7000A74A43F48033C2F8F030A54BD3F8F030A6
:104A8000A34A23F48033C2F8F030A14AD7F8E430C7
:104A9000C2F8F030D7F8E43003F00103002B19D04E
:104AA000FCF748FAC7F8DC000DE0FCF743FA0246D1
:104AB000D7F8DC30D21A41F288339A4203D9032363
:104AC00087F8E33006E0924BD3F8F03003F00203AE
:104AD000002BEAD097F8E330002B35D1D7F8D4304B
:104AE000D3F8BC3003F44073B3F5407F10D1884B4A
:104AF000DB6923F47C51D7F8D430D3F8BC301B09E0
:104B000023F07F4323F03003814A0B43D36105E058
:104B10007F4BDB697E4A23F47C53D3617C4BD3F813
:104B2000F0307B4A23F44073C2F8F030784BD3F86E
:104B3000F010D7F8D430D3F8BC30C3F30B03744A69
:104B40000B43C2F8F03008E097F8E33087F8E23022
:104B500003E097F8E33087F8E230D7F8D430D3E9B0
:104B6000002302F08063BB640023FB64D7E91212C8
:104B70000B46134335D0D7F8D430D3F89830302BC8
:104B800014D0302B0ED8202B12D0202B0AD8002B7B
:104B900010D0102B06D15E4B9B6A5D4A43F4003364
:104BA000936208E0012387F8E33004E000BF02E0ED
:104BB00000BF00E000BF97F8E330002B0DD1544B4D
:104BC000D3F8E83023F03001D7F8D430D3F8983058
:104BD0004F4A0B43C2F8E83003E097F8E33087F818
:104BE000E230D7F8D430D3E9002302F480033B64E9
:104BF00000237B64D7E910120B46134333D0D7F858
:104C0000D430D3F89C30002B02D0402B07D010E0DA
:104C10003F4B9B6A3E4A43F4003393620DE0D7F862
:104C2000D4300833184600F0CBFA034687F8E33057
:104C300003E0012387F8E33000BF97F8E330002B4F
:104C40000DD1334BD3F8E43023F04001D7F8D43002
:104C5000D3F89C302E4A0B43C2F8E43003E097F8B7
:104C6000E33087F8E230D7F8D430D3E9002302F0FC
:104C70000063BB630023FB63D7E90E120B461343AB
:104C80004CD0D7F8D430D3F8AC30042B27D801A2BD
:104C900052F823F0A94C0008B74C0008CB4C000890
:104CA000E74C0008E74C0008194B9B6A184A43F48C
:104CB0000033936218E0D7F8D4300833184600F078
:104CC0007FFA034687F8E3300EE0D7F8D43030336C
:104CD000184600F00DFB034687F8E33004E001239B
:104CE00087F8E33000E000BF97F8E330002B11D1E4
:104CF000074BD3F8E03023F00701D7F8D430D3F8CE
:104D0000AC30034A0B43C2F8E03007E0000802442D
:104D1000000C024497F8E33087F8E230D7F8D4303B
:104D2000D3E9002302F080533B6300237B63D7E980
:104D30000C120B46134300F08180D7F8D430D3F81F
:104D4000B030202B5FD801A252F823F0D14D0008DB
:104D5000074E0008074E0008074E0008074E0008DF
:104D6000074E0008074E0008074E0008DF4D0008F8
:104D7000074E0008074E0008074E0008074E0008BF
:104D8000074E0008074E0008074E0008F34D0008C4
:104D9000074E0008074E0008074E0008074E00089F
:104DA000074E0008074E0008074E00080F4E000887
:104DB000074E0008074E0008074E0008074E00087F
:104DC000074E0008074E0008074E00080F4E000867
:104DD000B94B9B6AB84A43F40033936218E0D7F8A2
:104DE000D4300833184600F0EBF9034687F8E33077
:104DF0000EE0D7F8D4303033184600F079FA034685
:104E000087F8E33004E0012387F8E33000E000BFD7
:104E100097F8E330002B0DD1A74BD3F8E03023F007
:104E20003801D7F8D430D3F8B030A34A0B43C2F8D6
:104E3000E03003E097F8E33087F8E230D7F8D43079
:104E4000D3E9002302F00053BB620023FB62D7E9E1
:104E50000A120B4613434ED0D7F8D430D3F8B430EF
:104E6000B3F5807F2ED0B3F5807F27D8C02B2BD011
:104E7000C02B23D8802B17D0802B1FD8002B02D01B
:104E8000402B07D01AE08C4B9B6A8B4A43F40033CB
:104E900093621AE0D7F8D4300833184600F090F93E
:104EA000034687F8E33010E0D7F8D43030331846A3
:104EB00000F01EFA034687F8E33006E0012387F886
:104EC000E33002E000BF00E000BF97F8E330002BC2
:104ED0000DD1794BD3F8E03023F4E072D7F8D43019
:104EE000D3F8B43074491343C1F8E03003E097F8C5
:104EF000E33087F8E230D7F8D430D3E9002302F06A
:104F000080433B6200237B62D7E908120B461343C0
:104F100055D0D7F8D430D3F8B830B3F5206F31D0AE
:104F2000B3F5206F2AD8B3F5006F2DD0B3F5006F1D
:104F300024D8B3F5C06F29D0B3F5C06F1ED8B3F530
:104F4000806F11D0B3F5806F18D8002B20D0B3F547
:104F5000007F13D1D7F8D4300833184600F030F969
:104F6000034687F8E33014E0D7F8D43030331846DE
:104F700000F0BEF9034687F8E3300AE0012387F822
:104F8000E33006E000BF04E000BF02E000BF00E045
:104F900000BF97F8E330002B0DD1474BD3F8E0303A
:104FA00023F46062D7F8D430D3F8B83042491343C1
:104FB000C1F8E03003E097F8E33087F8E230D7F843
:104FC000D430D3E900230021B96103F00203FB616F
:104FD000D7E906120B4613433CD0D7F8D430D3F8A8
:104FE000A830032B1BD801A252F823F02750000849
:104FF000FD4F00080B500008275000082E4B9B6AFD
:105000002D4A43F4003393620EE0D7F8D4300833CE
:10501000184600F0D5F8034687F8E33004E0012392
:1050200087F8E33000E000BF97F8E330002B0DD1A4
:10503000214BD3F8E43023F00302D7F8D430D3F86F
:10504000A8301D491343C1F8E43003E097F8E3307A
:1050500087F8E230D7F8D430D3E900230021396152
:1050600003F004037B61D7E904120B4613433CD0E1
:10507000D7F8D430D3F89430B3F5007F0ED0B3F521
:10508000007F15D8002B19D0B3F5807F10D10A4BC3
:105090009B6A094A43F40033936210E0D7F8D43096
:1050A0000833184600F08CF8034687F8E33006E032
:1050B000012387F8E33002E0000C024400BF97F8B8
:1050C000E330002B0DD13D4BD3F8E83023F4407290
:1050D000D7F8D430D3F8943038491343C1F8E830C6
:1050E00003E097F8E33087F8E230D7F8D430D3E91B
:1050F00000230021B96003F01003FB60D7E902121E
:105100000B46134338D0D7F8D430D3F8C430302B03
:105110001BD0302B15D8102B02D0202B07D010E03D
:10512000264B9B6A254A43F4003393620EE0D7F87E
:10513000D4303033184600F0DBF8034687F8E3300C
:1051400004E0012387F8E33000E000BF97F8E33084
:10515000002B0DD1194BD3F8E43023F03002D7F8EF
:10516000D430D3F8C43015491343C1F8E43003E018
:1051700097F8E33087F8E230D7F8D430D3E900234A
:105180000021396003F008037B60D7E900120B4669
:1051900013430CD0094BD3F8E83023F0C002D7F802
:1051A000D430D3F8C03005491343C1F8E83097F83C
:1051B000E2301846E837BD46BDE8B08F000C024427
:1051C00080B584B000AF7860484B1B68474A23F035
:1051D00080631360FBF7AEFEF86008E0FBF7AAFE01
:1051E0000246FB68D31A022B01D903237AE03F4B16
:1051F0001B6803F00063002BF0D13C4BDB6A23F407
:105200007C5323F003037A6811687A6852681202AB
:105210000A4336491343CB627B689B68013BC3F367
:1052200008027B68DB68013B5B029BB21A437B6828
:105230001B69013B1B0403F4FE031A437B685B6993
:10524000013B1B0603F0FE4328491343CB63274B66
:10525000DB6A23F00C027B689B6924491343CB6211
:10526000224BDB6A23F020027B68DB691F49134372
:10527000CB621E4BDA6A7B685B6A1C491343CB62C4
:105280001A4BDB6A194A23F01003D362174B1B6CCD
:1052900023F47F4323F0F8037A68126AD20013499B
:1052A00013430B64114BDB6A104A43F01003D362C3
:1052B0000E4B1B680D4A43F080631360FBF73AFE08
:1052C000F86008E0FBF736FE0246FB68D31A022BB3
:1052D00001D9032306E0054B1B6803F00063002B94
:1052E000F0D0002318461037BD4680BD000C0244A4
:1052F00080B584B000AF7860484B1B68474A23F004
:1053000080531360FBF716FEF86008E0FBF712FE0F
:105310000246FB68D31A022B01D903237AE03F4BE4
:105320001B6803F00053002BF0D13C4B1B6B23F4A4
:105330007C5323F003037A6811687A68526812027A
:105340000A43364913430B637B689B68013BC3F3F5
:1053500008027B68DB68013B5B029BB21A437B68F7
:105360001B69013B1B0403F4FE031A437B685B6962
:10537000013B1B0603F0FE43284913434B64274BB4
:105380001B6B23F00C027B689B69244913430B635E
:10539000224B1B6B23F020027B68DB691F49134300
:1053A0000B631E4B1A6B7B685B6A1C4913430B63D0
:1053B0001A4B1B6B194A23F010031363174B9B6C9A
:1053C00023F47F4323F0F8037A68126AD20013496A
:1053D00013438B64114B1B6B104A43F01003136390
:1053E0000E4B1B680D4A43F080531360FBF7A2FD80
:1053F000F86008E0FBF79EFD0246FB68D31A022B1B
:1054000001D9032306E0054B1B6803F00053002B72
:10541000F0D0002318461037BD4680BD000C024472
:1054200080B584B000AF78607B68002B01D1012388
:105430000DE17B681B68884A934204D07B681B6837
:10544000864A934200E000BF7B6800229A627B6834
:105450001B68814A934204D07B681B687F4A934251
:1054600005D17B68DB680F2B01D90123EFE0786859
:1054700000F002F9F8607B681B68774A934204D019
:105480007B681B68754A934202D1FB68082B20D8C1
:105490007B681B68724A934218D07B681B68714A0C
:1054A000934213D07B681B686F4A93420ED07B688F
:1054B0001B686E4A934209D07B681B686C4A934212
:1054C00004D07B681B686B4A934204D1FB68102BA5
:1054D00001D90123BBE07B6893F88930DBB2002B54
:1054E00006D17B68002283F888207868FBF726FBCA
:1054F0007B68022283F889207B681B681A687B68B6
:105500001B6822F001021A607B681B689B6803F429
:10551000F813BB607B689B69B3F1806F19D17B681E
:105520005B68B3F5800F03D17B689B6B002B08D0C1
:105530007B685B68002B0CD17B689B6BB3F1805F51
:1055400007D17B681B681A687B681B6842F480522D
:105550001A607B685B6803F48003002B0FD07B68C4
:10556000DB68062B0BD97B681B681B6823F48071F2
:105570007B681A6D7B681B680A431A6007E07B68CA
:105580001B681A687B681B6822F480721A607B684B
:10559000DA697B689B6A1A43BB681A437B68DB6BDA
:1055A00042EA03017B68DA687B681B680A439A60F9
:1055B0007B685A6B7B685B6A1A437B689B6B1A43F8
:1055C0007B689B691A437B681B691A437B685B692C
:1055D0001A437B681B6A1A437B685B681A437B68C3
:1055E000DB6C1A437B689B681A437B689B6C1A438D
:1055F0007B689B6D1A437B68DB6D42EA03017B6825
:105600001A6E7B681B680A43DA607B681B681A6D38
:105610007B681B6822F001021A657B685B6803F4F3
:105620008003002B0AD07B681B68DB6823F00041F5
:105630007B685A6D7B681B680A43DA607B680022CE
:10564000C3F88C207B68012283F889200023184648
:105650001037BD4680BD00BF004C0140004C0150DA
:105660000030014000300150003800400038005048
:10567000003C0040003C005080B485B000AF786032
:105680007B68DB6B5B090133FB607B68DB680133A4
:10569000BB60BB680733DB08BB60BB68FA6802FB12
:1056A00003F318461437BD465DF8047B704780B598
:1056B00082B000AF78607B68002B01D1012349E004
:1056C0007B6893F83D30DBB2002B06D17B6800226B
:1056D00083F83C20786800F041F87B68022283F868
:1056E0003D207B681A687B6804331946104600F039
:1056F00065FA7B68012283F848207B68012283F8E1
:105700003E207B68012283F83F207B68012283F8DA
:1057100040207B68012283F841207B68012283F8C6
:1057200042207B68012283F843207B68012283F8B2
:1057300044207B68012283F845207B68012283F89E
:1057400046207B68012283F847207B68012283F88A
:105750003D20002318460837BD4680BD80B483B085
:1057600000AF786000BF0C37BD465DF8047B704722
:1057700080B485B000AF78607B6893F83D30DBB2D1
:10578000012B01D001237CE07B68022283F83D20BD
:105790007B681B68DA687B681B6842F00102DA608C
:1057A0007B681B683A4A93424AD07B681B68394A37
:1057B000934245D07B681B68B3F1804F40D07B6833
:1057C0001B68B3F1A04F3BD07B681B68324A934201
:1057D00036D07B681B68314A934231D07B681B68A6
:1057E0002F4A93422CD07B681B682E4A934227D0C5
:1057F0007B681B682C4A934222D07B681B682B4A2B
:1058000093421DD07B681B68294A934218D07B685D
:105810001B68284A934213D07B681B68264A934230
:105820000ED07B681B68254A934209D07B681B68B1
:10583000234A934204D07B681B68224A934215D1C5
:105840007B681B689A68204B1340FB60FB68062B43
:1058500015D0FB68B3F5803F11D07B681B681A68D0
:105860007B681B6842F001021A6008E07B681B68D5
:105870001A687B681B6842F001021A6000E000BFF2
:10588000002318461437BD465DF8047B704700BFFF
:10589000002C0140002C0150000400400004005086
:1058A0000008004000080050000C0040000C0050B0
:1058B000003401400034015000180040001800502E
:1058C00000400140004001500700010080B584B055
:1058D00000AF78607B681B68DB68FB607B681B68D7
:1058E0001B69BB60BB6803F00203002B20D0FB6880
:1058F00003F00203002B1BD07B681B686FF00202D1
:105900001A617B6801221A777B681B689B6903F028
:105910000303002B03D0786800F031F905E07868C4
:1059200000F023F9786800F034F97B6800221A77D8
:10593000BB6803F00403002B20D0FB6803F00403D2
:10594000002B1BD07B681B686FF004021A617B6818
:1059500002221A777B681B689B6903F44073002B53
:1059600003D0786800F00BF905E0786800F0FDF8E6
:10597000786800F00EF97B6800221A77BB6803F0A4
:105980000803002B20D0FB6803F00803002B1BD07A
:105990007B681B686FF008021A617B6804221A7723
:1059A0007B681B68DB6903F00303002B03D0786876
:1059B00000F0E5F805E0786800F0D7F8786800F0C6
:1059C000E8F87B6800221A77BB6803F01003002B0D
:1059D00020D0FB6803F01003002B1BD07B681B68F2
:1059E0006FF010021A617B6808221A777B681B68C7
:1059F000DB6903F44073002B03D0786800F0BFF834
:105A000005E0786800F0B1F8786800F0C2F87B68CB
:105A100000221A77BB6803F00103002B0CD0FB684F
:105A200003F00103002B07D07B681B686FF00102B5
:105A30001A617868FAF718FFBB6803F08003002B3F
:105A400004D1BB6803F40053002B0CD0FB6803F0B7
:105A50008003002B07D07B681B686FF402521A6129
:105A6000786800F09FF9BB6803F48073002B0CD0BA
:105A7000FB6803F08003002B07D07B681B686FF482
:105A800080721A61786800F097F9BB6803F04003F0
:105A9000002B0CD0FB6803F04003002B07D07B6881
:105AA0001B686FF040021A61786800F07CF8BB68F0
:105AB00003F02003002B0CD0FB6803F02003002B25
:105AC00007D07B681B686FF020021A61786800F0CD
:105AD0005FF9BB6803F48013002B0CD0FB6803F460
