:020000040800F2
:1000000000400420610F00081D0E0008250E0008A6
:100010002D0E0008350E00083D0E0008B10F000837
:100020000000000000000000000000008D820008B9
:10003000450E00080000000045820008E57F00082A
:10004000B10F0008B10F0008B10F0008B10F000890
:10005000B10F0008B10F0008B10F0008B10F000880
:10006000B10F0008B10F0008B10F0008B10F000870
:10007000B10F0008B10F0008B10F0008B10F000860
:10008000B10F0008B10F0008B10F0008B10F000850
:10009000B10F0008B10F0008B10F0008B10F000840
:1000A000B10F0008B10F0008B10F0008B10F000830
:1000B000B10F0008B10F0008B10F0008B10F000820
:1000C000B10F0008B10F0008B10F0008B10F000810
:1000D000B10F0008B10F0008B10F0008B10F000800
:1000E000B10F0008B10F0008B10F0008B10F0008F0
:1000F000B10F0008550E0008B10F0008B10F00083D
:10010000B10F0008B10F0008B10F0008B10F0008CF
:10011000B10F0008B10F0008B10F0008B10F0008BF
:10012000B10F0008B10F0008B10F0008B10F0008AF
:10013000B10F0008B10F0008B10F0008B10F00089F
:10014000B10F0008B10F0008B10F0008B10F00088F
:10015000B10F0008B10F0008B10F0008B10F00087F
:100160000000000000000000B10F0008B10F0008FF
:10017000B10F0008B10F0008B10F0008B10F00085F
:10018000B10F0008B10F0008B10F00080000000017
:1001900000000000B10F0008000000000000000097
:1001A0000000000000000000B10F0008B10F0008BF
:1001B000B10F0008B10F0008B10F0008B10F00081F
:1001C000B10F0008B10F000800000000000000009F
:1001D000000000000000000000000000B10F000857
:1001E000B10F0008B10F000800000000000000007F
:1001F000B10F0008B10F0008B10F000800000000A7
:1002000000000000B10F0008B10F0008B10F000896
:10021000B10F0008B10F0008B10F0008B10F0008BE
:10022000B10F00080000000000000000B10F00083E
:10023000B10F0008000000000000000000000000F6
:10024000000000000000000000000000B10F0008E6
:04025000B10F0008E2
:1002540010B5054C237833B9044B13B10448AFF3FC
:1002640000800123237010BD0C000020000000005A
:100274009087000808B5034B1BB103490348AFF34B
:10028400008008BD000000001000002090870008D6
:1002940080B500AF00F08CFE00F012F800F002FA16
:1002A40000F096F900F07EF800F00CF900F050F937
:1002B40000F0A2F900F080FA06F004FC00BFFDE7AC
:1002C40080B59CB000AF07F12003502200211846EE
:1002D40008F022FA07F1080300221A605A609A60B3
:1002E400DA601A615A612D4B1B6923F030032B4AE3
:1002F40043F020031361294B1B6903F030037B6037
:100304007B6800BF254B5B6903F00803082BF9D118
:1003140001233B624FF480337B620223BB640323DB
:10032400FB6405233B6540237B650223BB650223F5
:10033400FB6502233B6608237B660023BB66002320
:10034400FB6607F12003184602F0B0FE0346002BBB
:1003540001D000F016FB1F23BB600323FB600023C6
:100364003B6100237B610023BB610023FB6107F138
:1003740008030421184603F0D1FA0346002B01D0E8
:1003840000F0FFFA064B1B6823F03003044A43F0E5
:100394002003136000BF7037BD4680BD00080244CF
:1003A4000020024080B590B000AF07F12403002282
:1003B4001A605A609A60DA601A615A619A613B1D48
:1003C40020220021184608F0A7F93A4B3A4A1A604D
:1003D400384B4FF480225A60364B00229A60354BDA
:1003E4000022DA60334B00221A61324B04225A6134
:1003F400304B00221A762F4B00225A762D4B0122C5
:10040400DA612C4B002283F820202A4B00229A62C6
:10041400284B0022DA62274B002283F83420254B34
:1004240000221A63234B00229A63224B002283F892
:100434003C20204801F0E8F80346002B01D000F0EE
:10044400A0FA1E4B7B624FF44003BB621C4BFB6261
:10045400012387F8303040F605737B634FF4F5636E
:10046400BB634FF44053FB6307F12403194611485F
:1004740001F034FE0346002B01D000F082FA104B49
:100484007B600623BB600523FB607F233B61042361
:100494007B610023BB613B1D1946064801F008FA45
:1004A4000346002B01D000F06CFA00BF4037BD4674
:1004B40080BD00BF28000020008002420000C07DF3
:1004C4000200300480B500AF1F4B204A1A601E4B57
:1004D40000225A601C4B00229A601B4B0022DA60F7
:1004E400194B00221A74184B00225A74164B00221E
:1004F4009A74154B10225A61134B01229A61124BC4
:100504000F22DA61104B04221A620F4B01225A6245
:100514000D4B01229A620C4B0122DA620A4B012232
:100524001A63094B00225A63074B00229A63064B55
:100534000022DA63044802F015F90346002B01D0C7
:1005440000F01FFA00BF80BD9000002000A800400A
:1005540080B500AF1B4B1C4A1A601A4B1B4A5A60E9
:10056400184B00229A60174B0122DA60154B0022C7
:100574001A61144B00225A61124B00229A61114BEA
:100584000022DA610F4B00221A620E4802F01CFCB2
:100594000346002B01D000F0F4F90021094802F0D1
:1005A400AEFC0346002B01D000F0EBF90021054816
:1005B40002F0F0FC0346002B01D000F0E2F900BF8A
:1005C40080BD00BFF400002000540040FF7BF00019
:1005D40080B500AF002002F029FD0346002B01D0B6
:1005E40000F0CFF902F042FD0346002B01D000F0E9
:1005F400C8F900BF80BD000080B500AF274B284A72
:100604001A60264B4FF480025A60244B00229A60F1
:10061400224B0722DA60214B00221A611F4B002271
:100624005A611E4B4FF000529A611C4B4FF04052DE
:10063400DA611A4B00221A62184B00225A62174BD5
:1006440000229A62154B0722DA62144B4FF0804263
:100654005A63124B00229A63104B0022DA630F4B49
:1006640000229A640D4B0022DA640C4B00221A65B6
:100674000A4B00225A65094B00229A65074B002257
:10068400DA65064B00221A66044804F087FF034625
:10069400002B01D000F075F900BF80BD4801002097
:1006A4000030014080B58AB000AF07F11403002286
:1006B4001A605A609A60DA601A613B4BD3F88C3046
:1006C400394A43F00403C2F88C30374BD3F88C30EA
:1006D40003F004033B613B69334BD3F88C30324A5B
:1006E40043F08003C2F88C302F4BD3F88C3003F0E6
:1006F4008003FB60FB682C4BD3F88C302A4A43F010
:100704000103C2F88C30284BD3F88C3003F001037A
:10071400BB60BB68244BD3F88C30234A43F00203FC
:10072400C2F88C30204BD3F88C3003F002037B608A
:100734007B6800224FF490711C4802F02DFB0022CC
:100744004FF486611A4802F027FB4FF490737B61E3
:100754000123BB610023FB6100233B6207F1140307
:100764001946124802F0BAF94FF486637B610123FB
:10077400BB610023FB6100233B6207F114031946AC
:100784000B4802F0ABF94FF480737B610023BB612B
:100794000023FB6107F114031946064802F09EF991
:1007A40000BF2837BD4680BD000C02440008024249
:1007B400000402420000024280B582B002AF00236E
:1007C40001930123009300234FF4807213491448CA
:1007D40005F06FFF002301930123009300234FF4DE
:1007E40080721049104805F064FF0023019301232F
:1007F400009300234FF480720C490D4805F059FF13
:10080400002301930123009300234FF480720949CC
:10081400094805F04EFF00BFBD4680BDA88700080B
:1008240041080008B48700088D080008C087000844
:10083400D5080008CC8700081D09000880B584B0DD
:1008440000AF786006F0B0FA0346FB6001224FF473
:1008540080710B4802F0A0FA0A4B1B680133094A65
:10086400136007F10C030121184606F057F8002223
:100874004FF48071024802F08FFA00BFE6E700BF30
:1008840000080242D801002080B584B000AF78602F
:1008940006F08AFA0346FB60012220210A4802F08E
:1008A4007BFA0A4B1B680133084A136007F10C03F7
:1008B4000A21184606F032F800222021024802F0EC
:1008C4006BFA00BFE8E700BF00040242DC0100202D
:1008D40080B584B000AF786006F066FA0346FB602A
:1008E400012210210A4802F057FA0A4B1B6801330F
:1008F400084A136007F10C033221184606F00EF87B
:1009040000221021024802F047FA00BFE8E700BFC6
:1009140000040242E001002080B584B000AF78609A
:1009240006F042FA0346FB6001224FF480610B4853
:1009340002F032FA0A4B1B680133094A136007F1CB
:100944000C036421184605F0E9FF00224FF480618E
:10095400024802F021FA00BFE6E700BF00040242A9
:10096400E401002080B582B000AF78607B681B682A
:10097400B3F1804F01D100F043FB00BF0837BD46FF
:1009840080BD80B400AF72B600BF00BFFDE780B584
:1009940000AF02F07BFB00BF80BD000080B5BEB09D
:1009A40000AF786007F1E40300221A605A609A608D
:1009B400DA601A6107F11003D0220021184607F00B
:1009C400ABFE7B681B682E4A934254D14FF400124D
:1009D4004FF00003C7E904230323BB610423FB6135
:1009E40040233B6204237B620423BB620423FB6237
:1009F40008233B6300237B630023BB634FF4802302
:100A0400FB630223C7F8B03007F11003184603F064
:100A1400D3FA0346002B01D0FFF7B3FF194BD3F8E9
:100A24008C30184A43F48063C2F88C30154BD3F8E9
:100A34008C3003F48063FB60FB68124BD3F88C307A
:100A4400104A43F00103C2F88C300E4BD3F88C30BB
:100A540003F00103BB60BB680223C7F8E43003233F
:100A6400C7F8E8300023C7F8EC3007F1E40319466F
:100A7400054802F033F800BFF837BD4680BD00BF1B
:100A840000800242000C02440000024280B5BEB065
:100A940000AF786007F1E40300221A605A609A609C
:100AA400DA601A6107F11003D0220021184607F01A
:100AB40033FE7B681B68274A934247D14FF00002FC
:100AC4004FF00403C7E904234FF48073C7F8A4303C
:100AD40007F11003184603F06FFA0346002B01D008
:100AE400FFF74FFF1C4BD3F8A0301B4A43F40073AD
:100AF400C2F8A030184BD3F8A03003F40073FB60A5
:100B0400FB68154BD3F88C30134A43F00203C2F848
:100B14008C30114BD3F88C3003F00203BB60BB68FC
:100B24004FF44053C7F8E4300223C7F8E8300023F9
:100B3400C7F8EC300023C7F8F0300923C7F8F430C5
:100B440007F1E4031946054801F0C8FF00BFF83770
:100B5400BD4680BD00A80040000C024400040242CF
:100B640080B5BEB000AF786007F1E40300221A60DC
:100B74005A609A60DA601A6107F11003D0220021EA
:100B8400184607F0C9FD7B681B68264A934245D185
:100B94004FF400524FF00003C7E904230023C7F8C1
:100BA400883007F11003184603F006FA0346002BB9
:100BB40001D0FFF7E6FE1C4BD3F88C301A4A43F001
:100BC4000203C2F88C30184BD3F88C3003F00203C4
:100BD400FB60FB68C023C7F8E4301223C7F8E83091
:100BE4000023C7F8EC300023C7F8F0300423C7F81B
:100BF400F43007F1E40319460C4801F06FFF0A4B87
:100C0400D3F89C30084A43F40013C2F89C30064BD6
:100C1400D3F89C3003F40013BB60BB6800BFF83703
:100C2400BD4680BD00540040000C02440004024252
:100C340080B5BEB000AF786007F1E40300221A600B
:100C44005A609A60DA601A6107F11003D022002119
:100C5400184607F061FD7B681B68314A93425BD1FB
:100C64004FF000624FF00003C7E9042303233B6401
:100C740004237B644023BB640423FB6402233B659D
:100C840004237B650023BB652023FB6500233B66AF
:100C94004FF480337B660223C7F8BC3007F110039E
:100CA400184603F089F90346002B01D0FFF769FECB
:100CB4001C4BD3F8A4301B4A43F48053C2F8A4302D
:100CC400184BD3F8A43003F48053FB60FB68154B36
:100CD400D3F88C30134A43F00103C2F88C30114B23
:100CE400D3F88C3003F00103BB60BB6848F2E00327
:100CF400C7F8E4300223C7F8E8300023C7F8EC3023
:100D04000023C7F8F0300523C7F8F43007F1E403F3
:100D14001946054801F0E2FE00BFF837BD4680BD24
:100D240000300140000C02440000024280B58EB045
:100D340000AF7860344BD3F89C30334A43F001035E
:100D4400C2F89C30304BD3F89C3003F00103BB60F5
:100D5400BB6807F10C0207F110031146184603F0B3
:100D6400F3F8FB69FB62FB6A002B03D103F0D6F8AE
:100D7400786304E003F0D2F803465B007B637B6B8B
:100D84005B09224AA2FB0323DB09013BBB62204B24
:100D94004FF080421A601E4B6322DA601C4ABB6A21
:100DA40053601B4B00221A61194B00229A601848A9
:100DB40004F03BFD034687F8333097F83330002BBB
:100DC40018D1134804F092FD034687F8333097F89E
:100DD4003330002B0ED17B680F2B08D800227968A2
:100DE4002D2001F03FFC0B4A7B68136002E00123D5
:100DF40087F833302D2001F04FFC97F83330184634
:100E04003837BD4680BD00BF000C0244C55A7C0A79
:100E1400E80100200400002080B400AF00BFFDE71B
:100E240080B400AF00BFFDE780B400AF00BFFDE7B2
:100E340080B400AF00BFFDE780B400AF00BFFDE7A2
:100E440080B400AF00BFBD465DF8047B704700006E
:100E540080B500AF024804F0F7FD00BF80BD00BFBD
:100E6400E801002080B483B000AF354BD3F888305C
:100E7400334A43F47003C2F88830324B01221A60BB
:100E8400304B0022DA612F4B00221A622D4B1A6874
:100E94002C492D4B13400B602A4B00229A62294B9C
:100EA4000022DA62274B00221A63264B274A5A6330
:100EB400244B00229A63234B244ADA63214B0022F9
:100EC4001A64204B214A5A641E4B00229A641D4B1B
:100ED4001B681C4A23F4802313601A4B00221A65F2
:100EE400174B4FF000629A60194B9B6903F0604303
:100EF4007B607B68B3F1604F03D07B68B3F1404FF4
:100F040017D1134BDB6903F00103002B05D0104B01
:100F1400104ADA600E4B104ADA600D4BDB690C4A5A
:100F240043F00203D3610A4BDB69094A43F001032E
:100F3400D36100BF0C37BD465DF8047B704700BF2A
:100F440000ED00E0000C0244E3EAE2EA8002010161
:100F5400002002403B2A19087F6E5D4C0D488546EF
:100F6400FFF780FF0C480D490D4A002302E0D458D6
:100F7400C4500433C4188C42F9D30A4A0A4C0023DF
:100F840001E013600432A242FBD307F0CDFBFFF76C
:100F94007FF9FEE700400420000000200C00002040
:100FA4000C8800080C0000202C890020FEE70000BB
:100FB40080B500AF032001F04AFB02F067FE024651
:100FC4000C4B1B6A03F00F030B49CB5C22FA03F3AF
:100FD4000A4A1360042001F06DFB0F20FFF7A6FE00
:100FE4000346002B01D0012302E0FFF7D0FC0023CD
:100FF400184680BD000C0244E88700080000002069
:1010040080B400AF064B1B781A46064B1B6813448A
:10101400044A136000BFBD465DF8047B704700BFFF
:10102400080000203402002080B400AF034B1B688A
:101034001846BD465DF8047B704700BF34020020AB
:1010440080B483B000AF786039607B689B6823F418
:101054007C123B681A437B689A6000BF0C37BD461C
:101064005DF8047B704780B483B000AF786039606A
:101074007B689B6823F0E0723B681A437B689A6044
:1010840000BF0C37BD465DF8047B704780B483B065
:1010940000AF78607B689B6803F0E07318460C37F8
:1010A400BD465DF8047B704780B483B000AF7860C0
:1010B400064BD3F8C830054A43F00103C2F8C830E0
:1010C40000BF0C37BD465DF8047B704700810242C7
:1010D40080B483B000AF78607B680D4A934208D136
:1010E4000C4BD3F8C8300B4A43F00103C2F8C830A4
:1010F40007E07B68D3F8C83043F001027B68C3F88B
:10110400C82000BF0C37BD465DF8047B704700BFA4
:10111400008102420080024280B487B000AFF860D0
:10112400B9607A603B60FB6860331A46BB689B0019
:1011340013447B617B691A68084B13407A6802F098
:10114400F8413A680A43134343F000427B691A604A
:1011540000BF1C37BD465DF8047B704700F0FF03F9
:1011640080B485B000AF786039607B6860331A461C
:101174003B689B001344FB60FB681B6803F0F84367
:1011840018461437BD465DF8047B704780B487B0B9
:1011940000AFF860B9607A60FB6860331A46BB68D8
:1011A4009B0013447B617B691B6823F000427B68CE
:1011B4001A437B691A6000BF1C37BD465DF8047B87
:1011C400704780B487B000AFF860B9607A60FB689C
:1011D40060331A46BB689B0013447B617B691B68C0
:1011E40023F080727B681A437B691A6000BF1C3746
:1011F400BD465DF8047B704780B487B000AFF860EB
:10120400B9607A60FB6860331A46BB689B0013447C
:101214007B617B691B6823F000727B681A437B69DE
:101224001A6000BF1C37BD465DF8047B704780B46C
:1012340083B000AF786039607B685B6923F000425B
:101244003B681A437B685A6100BF0C37BD465DF8A2
:10125400047B704780B487B000AFF860B9607A60EF
:10126400FB6830331A46BB681B0A9B0003F00C036F
:1012740013447B617B691A68BB6803F01F031F2159
:1012840001FA03F3DB431A407B689B0E03F01F0152
:10129400BB6803F01F0301FA03F31A437B691A6066
:1012A40000BF1C37BD465DF8047B704780B487B02F
:1012B40000AFF860B9607A60FB6814331A46BB6803
:1012C4005B0E9B0003F0040313447B617B691A6883
:1012D400BB681B0D03F01F03072101FA03F3DB4373
:1012E4001A40BB681B0D03F01F03796801FA03F36E
:1012F4001A437B691A6000BF1C37BD465DF8047B46
:101304007047000080B485B000AFF860B9607A60BF
:10131400FB68D3F8B020BB68C3F31303DB431A4064
:101324007B6803F018030849D940BB680B40C3F33A
:1013340013031A43FB68C3F8B02000BF1437BD463B
:101344005DF8047B704700BFFFFF0F0080B487B0D7
:1013540000AFF860B9607A60FB680C331946BB686B
:101364001B0D03F00302BB6803F001035B4203F0AF
:10137400240313449B000B447B617B691A68BB689C
:1013840023F0024323F44013DB431A407968BB681B
:101394000B401A437B691A6000BF1C37BD465DF8D9
:1013A400047B704780B487B000AFF860B9607A609E
:1013B4003B60FB6820331A46BB681B0D9B0003F09F
:1013C4000C0313447B617B691B6803F0F0227B6888
:1013D40019043B680B431A437B691A6000BF1C372E
:1013E400BD465DF8047B704780B483B000AF78607D
:1013F4007B689B6823F0204323F03F037A68936063
:1014040000BF0C37BD465DF8047B704780B483B0E1
:1014140000AF78607B689B6803F00053B3F1005F12
:1014240001D1012300E0002318460C37BD465DF8C6
:10143400047B704780B483B000AF78607B689B689E
:1014440023F0104323F03F0343F080527B689A60FB
:1014540000BF0C37BD465DF8047B704780B483B091
:1014640000AF78607B689B6803F08053B3F1805FC2
:1014740001D1012300E0002318460C37BD465DF876
:10148400047B704780B483B000AF78607B689B684E
:1014940003F00103012B01D1012300E000231846CE
:1014A4000C37BD465DF8047B704780B483B000AF51
:1014B40078607B689B6803F00403042B01D101234B
:1014C40000E0002318460C37BD465DF8047B7047E6
:1014D40080B483B000AF78607B689B6803F0080336
:1014E400082B01D1012300E0002318460C37BD4628
:1014F4005DF8047B704780B483B000AF78607B688C
:1015040080221A6000BF0C37BD465DF8047B70472B
:1015140080B483B000AF78607B684FF480721A6047
:1015240000BF0C37BD465DF8047B704780B483B0C0
:1015340000AF78607B684FF400721A6000BF0C370C
:10154400BD465DF8047B704780B483B000AF78601B
:101554007B685B6843F080027B685A6000BF0C378D
:10156400BD465DF8047B704780B483B000AF7860FB
:101574007B685B6843F480727B685A6000BF0C37F9
:10158400BD465DF8047B704780B483B000AF7860DB
:101594007B685B6843F400727B685A6000BF0C3759
:1015A400BD465DF8047B704780B483B000AF7860BB
:1015B4007B685B6823F080027B685A6000BF0C374D
:1015C400BD465DF8047B704780B483B000AF78609B
:1015D4007B685B6823F480727B685A6000BF0C37B9
:1015E400BD465DF8047B704780B483B000AF78607B
:1015F4007B685B6823F400727B685A6000BF0C3719
:10160400BD465DF8047B704790B589B000AF786043
:101614000023FB770023FB607B68002B01D10123AF
:1016240036E17B681B69002B7B689B6D002B09D11D
:101634007868FFF7B3F97B680022DA657B680022DB
:1016440083F854207B681B681846FFF7DFFE0346C7
:10165400002B04D07B681B681846FFF7C5FE7B6827
:101664001B681846FFF7FAFE0346002B15D17B686A
:101674001B681846FFF7DEFE874B1B689B09874AE9
:10168400A2FB03239B0901335B00FB6002E0FB68C0
:10169400013BFB60FB68002BF9D17B681B68184693
:1016A400FFF7DCFE0346002B0DD17B689B6D43F0F6
:1016B40010027B689A657B68DB6D43F001027B68EE
:1016C400DA650123FB777B681B681846FFF7EDFE9C
:1016D40078617B689B6D03F01003002B40F0CF8092
:1016E4007B69002B40F0CB807B689B6D23F4817376
:1016F40043F002027B689A657B681B681846FFF713
:10170400C1FE0346002B10D16548FFF7BBFE04461B
:101714006448FFF7B7FE03462343002B05D17B68DB
:101724005B6819466048FFF78BFC7B685B7E5A0355
:101734007B689B6B1A437B68DB681A437B689B68F6
:101744001A437B6893F820301B041343BB617B6806
:1017540093F82030012B06D17B685B6A013B5B0464
:10176400BA691343BB617B689B6A002B09D07B6811
:101774009B6A03F478727B68DB6A1343BA69134388
:10178400BB617B681B68DA68484B13407A6812684F
:10179400B9690B43D3607B681B681B6923F0406104
:1017A4007B681A6B7B681B680A431A617B681B6839
:1017B4001846FFF78DFE38617B69002B3DD13B69EC
:1017C400002B3AD17B681B7E9A037B6893F83430F4
:1017D4005B001343BB617B681B68DB6823F48043B5
:1017E40023F002037A681268B9690B43D3607B68FB
:1017F40093F83C30012B18D17B681B681B6923F4D8
:10180400FF6323F004037A68116C7A68526C114305
:101814007A68926C11437A68D26C0A431A437B68E3
:101824001B6842F001021A6107E07B681B681A69B1
:101834007B681B6822F001021A617B681B69012B1B
:101844000CD17B681B681B6B23F00F017B68DB6981
:101854005A1E7B681B680A431A6307E07B681B688F
:101864001A6B7B681B6822F00F021A637B689B6DFE
:1018740023F0030343F001027B689A6507E07B6869
:101884009B6D43F010027B689A650123FB77FB7F15
:1018940018462437BD4690BD00000020632D3E0548
:1018A4000080024200810242008302420740F0FFAE
:1018B40080B5B6B000AF78603960002387F8D730C0
:1018C4000023FB607B6893F85430012B01D1022381
:1018D400EBE37B68012283F854207B681B6818467D
:1018E400FFF7E3FD0346002B40F0D0833B681B6801
:1018F400012B09D03B681B68B04A934209D13B686D
:10190400DB68AF4A934204D17B681B681846FFF733
:10191400DFFB7B6818683B6859683B681B681A469C
:10192400FFF798FC7B681B681846FFF7BEFDC7F8F5
:10193400D0007B681B681846FFF7CAFDC7F8CC00C7
:10194400D7F8D030002B40F0DD81D7F8CC30002B15
:1019540040F0D8813B689B68B3F1004F0FD17B689E
:1019640018683B681B6800221946FFF79FFC7B68D8
:101974001B684FF000411846FFF759FC0EE07B68E6
:1019840018683B6819683B689B681A46FFF78EFC29
:101994007B681B6800211846FFF749FC3B685A69BD
:1019A4007B681B68DB68DB0803F003035B0002FA57
:1019B40003F3C7F8C8303B681B69042B22D07B684B
:1019C40018683B6819693B681A68D7F8C830FFF78C
:1019D400A3FB7B6818683B6819693B689B691A46D6
:1019E400FFF7EFFB7B6818683B6819693B681B7F4E
:1019F400012B02D14FF0007300E000231A46FFF7D9
:101A0400FBFB7FE17B681B6800211846FFF7A8FBFE
:101A14000346C3F31303002B0AD17B681B68002120
:101A24001846FFF79DFB03469B0E03F01F021EE0C2
:101A34007B681B6800211846FFF792FB0346C7F832
:101A4400BC30D7F8BC3093FAA3F3C7F8C030D7F84A
:101A5400C030C7F8B830D7F8B830002B01D12023F4
:101A640004E0D7F8B830B3FA83F3DBB21A463B6824
:101A74001B68C3F31303002B05D13B681B689B0E43
:101A840003F01F0318E03B681B68C7F8B030D7F8B1
:101A9400B03093FAA3F3C7F8AC30D7F8AC30C7F83A
:101AA400B430D7F8B430002B01D1202304E0D7F8A8
:101AB400B430B3FA83F3DBB29A4206D17B681B6875
:101AC400002200211846FFF761FB7B681B68012197
:101AD4001846FFF745FB0346C3F31303002B0AD153
:101AE4007B681B6801211846FFF73AFB03469B0EEF
:101AF40003F01F021EE07B681B6801211846FFF7F4
:101B04002FFB0346C7F8A430D7F8A43093FAA3F305
:101B1400C7F8A030D7F8A030C7F8A830D7F8A83055
:101B2400002B01D1202304E0D7F8A830B3FA83F3C3
:101B3400DBB21A463B681B68C3F31303002B05D1C1
:101B44003B681B689B0E03F01F0318E03B681B688F
:101B5400C7F89830D7F8983093FAA3F3C7F89430BD
:101B6400D7F89430C7F89C30D7F89C30002B01D1BB
:101B7400202304E0D7F89C30B3FA83F3DBB29A4213
:101B840006D17B681B68002201211846FFF7FEFA84
:101B94007B681B6802211846FFF7E2FA0346C3F389
:101BA4001303002B0ED17B681B6802211846FFF734
:101BB400D7FA03469B0E03F01F0222E00200300412
:101BC40000007F407B681B6802211846FFF7C8FAB3
:101BD4000346C7F88C30D7F88C3093FAA3F3C7F8D0
:101BE4008830D7F88830C7F89030D7F89030002B79
:101BF40001D1202304E0D7F89030B3FA83F3DBB2A9
:101C04001A463B681B68C3F31303002B05D13B68DA
:101C14001B689B0E03F01F0316E03B681B68C7F8A4
:101C24008030D7F8803093FAA3F3FB67FB6FC7F8D3
:101C34008430D7F88430002B01D1202304E0D7F876
:101C44008430B3FA83F3DBB29A4206D17B681B6813
:101C5400002202211846FFF799FA7B681B680321CA
:101C64001846FFF77DFA0346C3F31303002B0AD18A
:101C74007B681B6803211846FFF772FA03469B0E24
:101C840003F01F0217E07B681B6803211846FFF767
:101C940067FA03467B677B6F93FAA3F33B673B6F5B
:101CA400BB67BB6F002B01D1202303E0BB6FB3FAEA
:101CB40083F3DBB21A463B681B68C3F31303002BA0
:101CC40005D13B681B689B0E03F01F0311E03B68C2
:101CD4001B68BB66BB6E93FAA3F37B667B6EFB66E5
:101CE400FB6E002B01D1202303E0FB6EB3FA83F3D8
:101CF400DBB29A4206D17B681B6800220321184696
:101D0400FFF744FA7B681B681846FFF7BBFB0346E2
:101D1400002B40F03F817B6818683B6819683B687A
:101D2400DB681A46FFF7EEFA3B68DB688E4A93429B
:101D340040F030817B6818683B681B68C3F3130369
:101D4400002B0BD13B681B689B0E013303F01F0370
:101D5400092B94BF01230023DBB219E03B681B6805
:101D6400FB65FB6D93FAA3F3BB65BB6D3B663B6EF2
:101D7400002B01D1202303E03B6EB3FA83F3DBB2E3
:101D8400013303F01F03092B94BF01230023DBB2AB
:101D9400002B79D03B681B68C3F31303002B07D1D6
:101DA4003B681B689B0E01339B0603F0F84215E069
:101DB4003B681B683B653B6D93FAA3F3FB64FB6CC8
:101DC4007B657B6D002B01D1202303E07B6DB3FA8F
:101DD40083F3DBB201339B0603F0F8423B681B68D4
:101DE400C3F31303002B09D13B681B689B0E01331B
:101DF40003F01F03012101FA03F317E03B681B689A
:101E04007B647B6C93FAA3F33B643B6CBB64BB6C59
:101E1400002B01D1202303E0BB6CB3FA83F3DBB2C4
:101E2400013303F01F03012101FA03F342EA030122
:101E34003B681B68C3F31303002B0AD13B681B6880
:101E44009B0E013303F01F0213465B0013441B0572
:101E540018E03B681B68BB63BB6B93FAA3F37B631B
:101E64007B6BFB63FB6B002B01D1202303E0FB6B3B
:101E7400B3FA83F3DBB2013303F01F0213465B00B2
:101E840013441B050B4380E03B681B68C3F3130337
:101E9400002B07D13B681B689B0E01339B0603F0A4
:101EA400F84215E03B681B68FB62FB6A93FAA3F3F4
:101EB400BB62BB6A3B633B6B002B01D1202303E075
:101EC4003B6BB3FA83F3DBB201339B0603F0F842B6
:101ED4003B681B68C3F31303002B09D13B681B68E1
:101EE4009B0E013303F01F03012101FA03F317E0F2
:101EF4003B681B683B623B6A93FAA3F3FB61FB6993
:101F04007B627B6A002B01D1202303E07B6AB3FA56
:101F140083F3DBB2013303F01F03012101FA03F35E
:101F240042EA03013B681B68C3F31303002B0DD182
:101F34003B681B689B0E013303F01F0213465B00D2
:101F440013441E3B1B0543F000731DE03B681B68F4
:101F54007B617B6993FAA3F33B613B69BB61BB691A
:101F6400002B03D1202305E000007F40BB69B3FAB6
:101F740083F3DBB2013303F01F0213465B00134407
:101F84001E3B1B0543F000730B433A6892681946E5
:101F9400FFF78CF93B681A68464B1340002B7ED040
:101FA4004548FFF773F8C7F8C4003B681B68434A09
:101FB400934224D1D7F8C43003F40003002B1ED17C
:101FC4007B681B683E4A934269D1D7F8C43043F416
:101FD400000319463848FFF746F83A4B1B689B093B
:101FE400394AA2FB03239B0901335B00FB6002E037
:101FF400FB68013BFB60FB68002BF9D14FE03B68B9
:102004001B68324A934213D1D7F8C43003F080736B
:10201400002B0DD17B681B682D4A93423FD1D7F822
:10202400C43043F0807319462348FFF71CF836E0A8
:102034003B681B68274A934213D1D7F8C43003F492
:102044008003002B0DD17B681B681D4A934226D167
:10205400D7F8C43043F4800319461748FFF703F850
:102064001DE03B681B681C4A934205D17B681B68D2
:102074001846FFF719F812E03B681B68012B0ED1D4
:102084007B681B681846FFF723F808E07B689B6DA4
:1020940043F020027B689A65012387F8D7307B6878
:1020A400002283F8542097F8D7301846D837BD4615
:1020B40080BD00BF0000088000830242000021C3ED
:1020C4000080024200000020632D3E0500002943E9
:1020D40000810242000052C700005A4780B58EB00A
:1020E40000AF78603960002387F82F303B685B6865
:1020F400B3F5400F03D03B685B68B3F1A07F7B6806
:1021040093F85430012B01D10223EAE17B680122C8
:1021140083F854207B681B681846FFF7C6F9B86239
:102124007B681B681846FFF7D3F97862BB6A002BFB
:1021340040F075817B6A002B40F071813B681B681D
:10214400904A934240F08D803B685B68B3F1E07F36
:1021540034D0B3F1E07F56D8B3F1C07F4BD0B3F1A4
:10216400C07F50D8B3F1A07F1BD0B3F1A07F4AD871
:10217400B3F1807F37D0B3F1807F44D8B3F5000F3B
:1021840029D0B3F5400F3ED17B6818683B689B6843
:1021940023F07C7343F440031A467A49FFF7D6F8D8
:1021A40039E07B6818683B689B6823F07C7343F0D4
:1021B400A0731A467349FFF7C9F82CE07B681868C6
:1021C4003B689B6823F07C7343F0E0731A466D49C7
:1021D400FFF7BCF81FE07B681B686B4A6949184627
:1021E400FFF7B4F817E07B681B68684A654918462E
:1021F400FFF7ACF80FE07B681B68654A6149184635
:10220400FFF7A4F807E07B681B6800225D491846C5
:10221400FFF79CF800BF7B681B681B6A23F4E0414E
:102224003B689A697B681B680A431A627B689B6DEA
:1022340023F480327B689A657B681B681846FFF735
:102244005AF93B681B7B012B05D17B681B68184638
:10225400FFF77AF9E3E07B681B681846FFF7A4F9F7
:10226400DDE03B685B68B3F1E07F1DD0B3F1E07F54
:1022740000F29280B3F1C07F7BD0B3F1C07F00F253
:102284008B80B3F1A07F0FD0B3F1A07F00F28480E4
:10229400B3F1807F6DD0B3F1807F7DD8B3F5000FAB
:1022A40067D0B3F5400F77D13B681B68394A934236
:1022B4002FD13B689B68C3F31303002B08D13B6801
:1022C4009B689B0E03F01F03012202FA03F316E03E
:1022D4003B689B68FB61FB6993FAA3F3BB61BB6931
:1022E4003B623B6A002B01D1202303E03B6AB3FA33
:1022F40083F3DBB203F01F03012202FA03F37A68CB
:102304001268D2F8A0107A6812680B43C2F8A030A1
:102314004BE03B689B68C3F31303002B08D13B6875
:102324009B689B0E03F01F03012202FA03F316E0DD
:102334003B689B683B613B6993FAA3F3FB60FB68D2
:102344007B617B69002B01D1202303E07B69B3FA15
:1023540083F3DBB203F01F03012202FA03F37A686A
:102364001268D2F8A4107A6812680B43C2F8A43039
:102374001BE07B6818683B681B68054A1946FEF732
:10238400E5FF12E00000C07DFFFF8F00FFFF0F019B
:10239400FFFF8F01FFFF1F007B6818683B681B6805
:1023A40000221946FEF7D2FF00BF3B681B684F4A64
:1023B40093421AD17B689B6D23F400327B689A6543
:1023C4007B681B681846FFF7A3F83B681B7B012B4F
:1023D40005D17B681B681846FFF7C6F81FE07B68C9
:1023E4001B681846FFF7F0F819E07B689B6D23F42F
:1023F40080227B689A657B681B681846FFF796F80D
:102404003B681B7B012B05D17B681B681846FFF7D3
:10241400BBF804E07B681B681846FFF7E5F83B68E7
:102424001B68334A934218D13B681A697B681B685E
:10243400DB68DB0803F003035B0002FA03F37B634E
:102444003B685A697B681B68DB68DB0803F003039D
:102454005B0002FA03F33B6335E07B681B68DB68CF
:1024640003F01803182B0FD03B681A697B681B68AC
:10247400DB68DB0803F00303C3F102035B0003F032
:102484001E0322FA03F302E03B681B699B007B6393
:102494007B681B68DB6803F01803182B0FD03B68BC
:1024A4005A697B681B68DB68DB0803F00303C3F12C
:1024B40002035B0003F01E0322FA03F302E03B680D
:1024C4005B699B003B637B6818683B6819683B6BDE
:1024D4007A6BFEF767FF7B68002283F8542097F835
:1024E4002F3018463837BD4680BD00BFFFFF1F00A0
:1024F4000000C07D80B485B000AF78607B6803F0D5
:102504000703FB600C4BDB68BB60BA684FF6FF0344
:102514001340BB60FB681A02BB68134343F0BF63FC
:1025240043F40033BB60044ABB68D36000BF143774
:10253400BD465DF8047B704700ED00E080B400AF59
:10254400044BDB681B0A03F007031846BD465DF81D
:10255400047B704700ED00E080B483B000AF034615
:10256400FB80B7F90630002B0BDBFB8803F01F025E
:102574000749B7F906305B09012000FA02F241F875
:10258400232000BF0C37BD465DF8047B704700BFB5
:1025940000E100E080B483B000AF03463960FB8003
:1025A400B7F90630002B0ADB3B68DAB20C49B7F9FD
:1025B40006301201D2B20B4483F800230AE03B68D0
:1025C400DAB20849FB8803F00F03043B1201D2B2CC
:1025D4000B441A7600BF0C37BD465DF8047B704788
:1025E40000E100E000ED00E080B489B000AFF860E5
:1025F400B9607A60FB6803F00703FB61FB69C3F110
:102604000703042B28BF0423BB61FB690433062B97
:1026140002D9FB69033B00E000237B614FF0FF32EA
:10262400BB6902FA03F3DA43BB681A407B699A4038
:102634004FF0FF317B6901FA03F3D9437B680B4008
:10264400134318462437BD465DF8047B704780B5B4
:1026540082B000AF78607868FFF74CFF00BF08379E
:10266400BD4680BD80B586B000AF0346B9607A60D0
:10267400FB81FFF763FF78617A68B9687869FFF7CF
:10268400B3FF0246B7F90E3011461846FFF782FF32
:1026940000BF1837BD4680BD80B582B000AF034689
:1026A400FB80B7F906301846FFF756FF00BF08371E
:1026B400BD4680BD80B483B000AF78607B68042BD6
:1026C40044D801A252F823F0EF2600080D27000891
:1026D4002F27000851270008E12600081F4B1B681C
:1026E4001E4A43F00403136031E01C4B1B681B4A71
:1026F40023F0040313601A4BD3F8E430184A23F090
:102704000C03C2F8E43022E0144B1B68134A23F094
:1027140004031360124BD3F8E43023F00C03104A83
:1027240043F00403C2F8E43011E00C4B1B680B4A7D
:1027340023F0040313600A4BD3F8E43023F00C03B2
:10274400074A43F00803C2F8E43000E000BF00BFCA
:102754000C37BD465DF8047B704700BF10E000E015
:10276400000C024480B584B000AF78607B68002B15
:1027740001D1012347E17B6893F85C30DBB2002B85
:1027840006D17B68002283F85D207868FEF77EF925
:102794007B681B689A697B681B6822F010029A6147
:1027A400FEF742FCF86012E0FEF73EFC0246FB68CE
:1027B400D31A0A2B0BD97B681B6E43F001027B688A
:1027C4001A667B68032283F85C2001231BE17B6883
:1027D4001B689B6903F00803082BE5D07B681B6822
:1027E4009A697B681B6842F001029A61FEF71CFC3F
:1027F400F86012E0FEF718FC0246FB68D31A0A2BB5
:102804000BD97B681B6E43F001027B681A667B68F8
:10281400032283F85C200123F5E07B681B689B6935
:1028240003F00103002BE5D07B681B689A697B6881
:102834001B6842F002029A617B681B68744A9342E7
:1028440003D1744A7B685B6813607B681B7C012B33
:1028540008D17B681B689A697B681B6822F0400278
:102864009A6107E07B681B689A697B681B6842F081
:1028740040029A617B685B7C012B08D17B681B68F2
:102884009A697B681B6842F480429A6107E07B681E
:102894001B689A697B681B6822F480429A617B6892
:1028A4009B7C012B08D17B681B689A697B681B6839
:1028B40022F480529A6107E07B681B689A697B68FE
:1028C4001B6842F480529A617B681B689B6923F4FD
:1028D40040717B689A687B681B680A439A617B68CD
:1028E4001B689A697B681B6822F0A4029A617B6862
:1028F4001B681A697B681B6822F010021A617B68E6
:10290400DB68012B08D17B681B689A697B681B68AC
:1029140042F004029A612CE07B68DB68002B28D02B
:102924007B68DB68022B1CD07B681B689A697B6818
:102934001B6842F080029A617B681B681A697B6895
:102944001B6842F010021A617B68DB68032B10D10C
:102954007B681B689A697B681B6842F020029A6155
:1029640007E07B681B689A697B681B6842F0200259
:102974009A617B689B69013B5A067B68DB69013B72
:102984001B021A437B681B6A013B42EA03017B6812
:102994005B69013B1A047B681B680A43DA617B6844
:1029A4009B68B3F5407F15D17B689B6A5A1E7B6890
:1029B400DB6A013B1B021A437B681B6B013B1B0157
:1029C40042EA03017B685B6A013B1A047B681B686B
:1029D4000A43DA607B681B68D3F8C0107B68DA6B43
:1029E4007B681B680A43C3F8C020786800F014F8B9
:1029F4007B6800229A657B6800221A667B68012244
:102A040083F85C20002318461037BD4680BD00BF04
:102A140000A4004000A5004080B485B000AF7860F9
:102A24002C4BBB607B681B682B4A934203D1BB6869
:102A340003F55473BB607B68BA681A647B681B68CF
:102A4400D3F8803023F4F8117B685B6B1A047B683D
:102A54001B680A43C3F88020BB6803F170027B68DB
:102A64005A647B681B68D3F8803023F070617B68FC
:102A74009B6B1A067B681B680A43C3F88020BB68FB
:102A840003F1B0027B689A64BB6803F5C4727B6887
:102A9400DA64BB6803F518727B681A65BB6803F5D2
:102AA4001E727B685A65BB68FB6005E0FB68002208
:102AB4001A60FB680433FB60BB6803F55473FA685F
:102AC4009A42F3D300BF00BF1437BD465DF8047BC0
:102AD400704700BF00AC004000A8004080B487B03D
:102AE40000AF7860396000233B6142E13B681A68BB
:102AF40001213B6901FA03F31340FB60FB68002BDF
:102B040000F034813B685B68022B03D03B685B6850
:102B1400122B25D13B69DA087B68083253F822303E
:102B24007B613B6903F007039B000F2202FA03F366
:102B3400DB437A6913407B613B681B6903F00F0236
:102B44003B6903F007039B0002FA03F37A6913431A
:102B54007B613B69DA087B680832796943F82210A3
:102B64007B681B687B613B695B00032202FA03F309
:102B7400DB437A6913407B613B685B6803F00302C3
:102B84003B695B0002FA03F37A6913437B617B6858
:102B94007A691A603B685B68012B0BD03B685B6801
:102BA400022B07D03B685B68112B03D03B685B6842
:102BB400122B30D17B689B687B613B695B000322ED
:102BC40002FA03F3DB437A6913407B613B68DA68FA
:102BD4003B695B0002FA03F37A6913437B617B6808
:102BE4007A699A607B685B687B6101223B6902FABF
:102BF40003F3DB437A6913407B613B685B681B0921
:102C040003F001023B6902FA03F37A6913437B611F
:102C14007B687A695A603B685B6803F00303032BA3
:102C240009D13B685B6803F00303032B1BD13B68AA
:102C34009B68012B17D07B68DB687B613B695B0079
:102C4400032202FA03F3DB437A6913407B613B6896
:102C54009A683B695B0002FA03F37A6913437B6168
:102C64007B687A69DA603B685B6803F08053002B09
:102C74007CD0474A3B699B08183352F823307B6168
:102C84003B6903F00303DB000F2202FA03F3DB4387
:102C94007A6913407B617B689A0A3E4B13403A6918
:102CA40002F00302D20093407A6913437B613849EE
:102CB4003B699B0818337A6941F82320344B1B681D
:102CC4007B61FB68DB437A6913407B613B685B682B
:102CD40003F48013002B03D07A69FB6813437B61F0
:102CE4002B4A7B6913602A4B5B687B61FB68DB437F
:102CF4007A6913407B613B685B6803F40013002B23
:102D040003D07A69FB6813437B61214A7B69536072
:102D14001F4BD3F884307B61FB68DB437A69134033
:102D24007B613B685B6803F40033002B03D07A6952
:102D3400FB6813437B61164A7B69C2F88430144BE9
:102D4400D3F880307B61FB68DB437A6913407B6195
:102D54003B685B6803F48033002B03D07A69FB681B
:102D640013437B610A4A7B69C2F880303B690133B3
:102D74003B613B681A683B6922FA03F3002B7FF43A
:102D8400B5AE00BF00BF1C37BD465DF8047B70477D
:102D9400002002447F7F2F0080B483B000AF7860AE
:102DA4000B467B8013467B707B78002B03D07A889C
:102DB4007B689A6102E07A887B689A6200BF0C376C
:102DC400BD465DF8047B704780B582B000AF786083
:102DD4007B68002B01D101238DE07B6893F841309F
:102DE400DBB2002B06D17B68002283F84020786890
:102DF400FDF7B6FE7B68242283F841207B681B68BC
:102E04001A687B681B6822F001021A607B685A68A2
:102E14007B681B6822F070621A617B681B689A6881
:102E24007B681B6822F400429A607B68DB68012B94
:102E340007D17B689A687B681B6842F400429A60F9
:102E440006E07B689A687B681B6842F404429A60D7
:102E54007B68DB68022B08D17B681B685A687B6837
:102E64001B6842F400625A6007E07B681B685A687A
:102E74007B681B6822F400625A607B681B685B688D
:102E84007A68126843F0007343F4004353607B682C
:102E94001B68DA687B681B6822F40042DA607B688E
:102EA4001A697B685B6942EA03017B689B691A02C1
:102EB4007B681B680A43DA607B68D9697B681A6A95
:102EC4007B681B680A431A607B681B681A687B6806
:102ED4001B6842F001021A607B6800225A647B6816
:102EE400202283F841207B6800221A637B68002239
:102EF40083F84220002318460837BD4680BD80B4BD
:102F040083B000AF786039607B6893F84130DBB2FE
:102F1400202B38D17B6893F84030012B01D1022358
:102F240032E07B68012283F840207B68242283F806
:102F340041207B681B681A687B681B6822F00102C9
:102F44001A607B681B681A687B681B6822F48052CD
:102F54001A607B681B6819687B681B683A680A43B7
:102F64001A607B681B681A687B681B6842F0010260
:102F74001A607B68202283F841207B68002283F852
:102F84004020002300E0022318460C37BD465DF8BC
:102F9400047B704780B485B000AF786039607B688B
:102FA40093F84130DBB2202B39D17B6893F8403061
:102FB400012B01D1022333E07B68012283F84020F6
:102FC4007B68242283F841207B681B681A687B682D
:102FD4001B6822F001021A607B681B681B68FB6097
:102FE400FB6823F47063FB603B681B02FA681343BD
:102FF400FB607B681B68FA681A607B681B681A6848
:103004007B681B6842F001021A607B68202283F807
:1030140041207B68002283F84020002300E0022343
:1030240018461437BD465DF8047B704780B485B0FC
:1030340000AF78600023FB730B4B1B6803F00103A4
:10304400002B02D00123FB7307E0074B1B6823F01E
:10305400040205497B6813430B60FB7B1846143755
:10306400BD465DF8047B70470004034080B400AFA4
:10307400054B1B68044A43F0010313600023184600
:10308400BD465DF8047B70470004034080B400AF84
:10309400054BDB6A044A43F00103D36200BFBD461B
:1030A4005DF8047B704700BF0008024480B588B017
:1030B40000AF78607B68002B02D1012300F028BCAC
:1030C400944BDB6903F01803FB61924B9B6A03F09A
:1030D4000303BB617B681B6803F01003002B5BD008
:1030E400FB69082B05D0FB69182B14D1BB69022B93
:1030F40011D17B68DB69002B02D1012300F008BCED
:10310400844B9B6923F47C127B681B6A1B048149F2
:1031140013438B6140E07B68DB69002B23D07D4B3C
:103124001B687C4A43F480731360FDF77DFF78616C
:1031340008E0FDF779FF02467B69D31A022B01D917
:103144000323E5E3734B1B6803F40073002BF0D0F7
:10315400704B9B6923F47C127B681B6A1B046D49CA
:1031640013438B6118E06B4B1B686A4A23F480732A
:103174001360FDF759FF786108E0FDF755FF02463B
:103184007B69D31A022B01D90323C1E3614B1B686A
:1031940003F40073002BF0D17B681B6803F0010378
:1031A400002B00F0A080FB69102B05D0FB69182BC5
:1031B40009D1BB69032B06D17B685B68002B40F007
:1031C40092800123A4E37B685B68B3F5803F06D15A
:1031D400504B1B684F4A43F48033136058E07B68BC
:1031E4005B68002B12D14B4B1B684A4A23F4803393
:1031F4001360484B1B68474A23F480131360454B04
:103204001B68444A23F48023136041E07B685B68B5
:10321400B3F5A02F12D13F4B1B683E4A43F48023E1
:1032240013603C4B1B683B4A23F480131360394BF7
:103234001B68384A43F48033136029E07B685B6879
:10324400B3F5A81F12D1334B1B68324A43F48023D1
:103254001360304B1B682F4A43F4801313602D4BCB
:103264001B682C4A43F48033136011E0294B1B681C
:10327400284A23F480331360264B1B68254A23F421
:1032840080231360234B1B68224A23F480131360AA
:103294007B685B68002B13D0FDF7C6FE786108E0FD
:1032A400FDF7C2FE02467B69D31A642B01D90323BE
:1032B4002EE3184B1B6803F40033002BF0D012E00C
:1032C400FDF7B2FE786108E0FDF7AEFE02467B69C9
:1032D400D31A642B01D903231AE30E4B1B6803F49E
:1032E4000033002BF0D17B681B6803F00203002B32
:1032F40000F09A80FB69002B05D0FB69182B49D19B
:10330400BB69012B46D17B68DB68002B04D1012308
:10331400FEE200BF000C0244FB69002B1CD19A4B57
:103324001B6803F018027B681B699A4214D0964B01
:103334001B6823F018027B681B69934913430B60D5
:1033440000F0D0FD914B1B681846FDF7EFFC0346D7
:10335400002B01D00123DBE2FDF766FE786108E073
:10336400FDF762FE02467B69D31A022B01D90323BF
:10337400CEE2854B1B6803F00203002BF0D0824B96
:103384001B6923F4FE027B685B691B047E491343BB
:103394000B6149E07B68DB68002B2CD07A4B1B68FF
:1033A40023F018027B681B69774913430B60764B43
:1033B4001B68754A43F001031360FDF735FE78611D
:1033C40008E0FDF731FE02467B69D31A022B01D9CE
:1033D40003239DE26C4B1B6803F00203002BF0D027
:1033E400694B1B6923F4FE027B685B691B04664915
:1033F40013430B6118E0644B1B68634A23F0010319
:103404001360FDF711FE786108E0FDF70DFE02463A
:103414007B69D31A022B01D9032379E25A4B1B6827
:1034240003F00203002BF0D17B681B6803F0080350
:10343400002B3CD07B689B69002B1CD0524BD3F8EB
:10344400F030514A43F08063C2F8F030FDF7ECFDF0
:10345400786108E0FDF7E8FD02467B69D31A022B88
:1034640001D9032354E2484BD3F8F03003F000634E
:10347400002BEFD01BE0444BD3F8F030424A23F04A
:103484008063C2F8F030FDF7CFFD786108E0FDF706
:10349400CBFD02467B69D31A022B01D9032337E201
:1034A400394BD3F8F03003F00063002BEFD17B6885
:1034B4001B6803F00403002B00F0D280344B5B6ADA
:1034C40003F00103002B18D1314B5B6A304A43F0FF
:1034D40001035362FDF7A8FD786108E0FDF7A4FD40
:1034E40002467B69D31A022B01D9032310E2284B2D
:1034F4005B6A03F00103002BF0D07B689B68012B0F
:1035040008D1214BD3F8F0301F4A43F00103C2F82D
:10351400F03074E07B689B68002B18D11A4BD3F809
:10352400F030194A23F00103C2F8F030164BD3F8F7
:10353400F030154A23F08003C2F8F030124BD3F870
:10354400F030114A23F00403C2F8F03057E07B68EE
:103554009B68052B1ED10C4BD3F8F0300A4A43F07C
:103564000403C2F8F030084BD3F8F030064A23F0D5
:103574008003C2F8F030044BD3F8F030024A43F031
:103584000103C2F8F0303AE0000C024404000020C9
:10359400000802447B689B68852B18D1A24BD3F8A2
:1035A400F030A14A43F00403C2F8F0309E4BD3F844
:1035B400F0309D4A43F08003C2F8F0309A4BD3F8C0
:1035C400F030994A43F00103C2F8F03017E0964B0B
:1035D400D3F8F030944A23F00103C2F8F030924B50
:1035E400D3F8F030904A23F00403C2F8F0308E4B45
:1035F400D3F8F0308C4A23F08003C2F8F0307B68B3
:103604009B68002B16D0FDF70FFD78610AE0FDF7EB
:103614000BFD02467B69D31A41F28832934201D9E9
:10362400032375E1804BD3F8F03003F00203002B41
:10363400EDD015E0FDF7F8FC78610AE0FDF7F4FC45
:1036440002467B69D31A41F28832934201D903239B
:103654005EE1754BD3F8F03003F00203002BEDD19B
:103664007B681B6803F02003002B36D07B685B6A01
:10367400002B19D06C4B1B686B4A43F480531360C6
:10368400FDF7D2FC786108E0FDF7CEFC02467B69C9
:10369400D31A022B01D903233AE1634B1B6803F4C9
:1036A4000053002BF0D018E05F4B1B685E4A23F4F4
:1036B40080531360FDF7B8FC786108E0FDF7B4FCB3
:1036C40002467B69D31A022B01D9032320E1564B0E
:1036D4001B6803F40053002BF0D17B689B6A002B1A
:1036E40000F01581FB69182B00F0AF807B689B6AA2
:1036F400022B40F086804C4B1B684B4A23F08073AE
:103704001360FDF791FC786108E0FDF78DFC02463B
:103714007B69D31A022B01D90323F9E0424B1B68BE
:1037240003F00073002BF0D13F4B9B6A23F47C53CE
:1037340023F003037A68D16A7A68126B12020A438F
:10374400394913438B627B685B6B013BC3F308020B
:103754007B689B6B013B5B029BB21A437B68DB6B10
:10376400013B1B0403F4FE031A437B681B6C013BFF
:103774001B0603F0FE432C4913434B632A4B9B6AFD
:10378400294A23F0100393627B68DB6C264ADB0032
:103794009363254B9B6A244A43F010039362224BA4
:1037A4009B6A23F00C027B685B6C1F4913438B629A
:1037B4001D4B9B6A23F020027B689B6C1A491343C0
:1037C4008B62194B9B6A184A43F480339362164BFD
:1037D4001B68154A43F080731360FDF725FC78617C
:1037E40008E0FDF721FC02467B69D31A022B01D9BC
:1037F40003238DE00C4B1B6803F00073002BF0D007
:1038040085E0094B1B68084A23F080731360FDF7B9
:103814000BFC78610AE0FDF707FC02467B69D31ACA
:10382400022B03D9032373E0000C02443A4B1B68B8
:1038340003F00073002BEED1374B9B6A364A23F416
:10384400E02323F00303936261E0334B9B6A3B6103
:10385400314B5B6BFB607B689B6A012B31D03B690E
:1038640003F003027B68DB6A9A422AD13B691B0A94
:1038740003F03F027B681B6B9A4222D1FB68C3F3BF
:1038840008027B685B6B013B9A421AD1FB685B0AB6
:1038940003F07F027B689B6B013B9A4211D1FB686A
:1038A4001B0C03F07F027B68DB6B013B9A4208D15F
:1038B400FB681B0E03F07F027B681B6C013B9A4282
:1038C40001D0012324E0144B9B6BDB08C3F30C02EF
:1038D4007B68DB6C9A421AD00F4B9B6A0E4A23F02A
:1038E40010039362FDF7A0FB786100BFFDF79CFB1A
:1038F40002467B699342F9D07B68DB6C064ADB00A5
:103904009363054B9B6A044A43F0100393620023BC
:1039140018462037BD4680BD000C024480B584B0F3
:1039240000AF786039607B68002B01D101239EE1F0
:10393400834B1B6803F00F033A689A4210D9804BFB
:103944001B6823F00F027E493B6813430B607C4BDA
:103954001B6803F00F033A689A4201D0012386E101
:103964007B681B6803F01003002B12D07B685A6934
:10397400744B1B6A1B0A03F070039A4209D9714BFA
:103984001B6A23F4E0427B685B691B026D491343A5
:103994000B627B681B6803F00803002B12D07B6862
:1039A4001A69684B1B6A1B0903F070039A4209D910
:1039B400644B1B6A23F4E0627B681B691B01614949
:1039C40013430B627B681B6803F00403002B10D0C5
:1039D4007B68DA685B4B1B6A03F070039A4208D970
:1039E400584B1B6A23F070027B68DB68554913430C
:1039F4000B627B681B6803F00203002B10D07B680A
:103A04009A68504B1B6A03F00F039A4208D94D4B36
:103A14001B6A23F00F027B689B684A4913430B62BD
:103A24007B681B6803F00103002B00F093807B6824
:103A34005B68032B07D1434B1B6803F00073002B17
:103A440021D1012313E17B685B68022B07D13D4B35
:103A54001B6803F40033002B15D1012307E17B68B5
:103A64005B68012B07D1374B1B6803F40073002BF1
:103A740009D10123FBE0334B1B6803F00203002B45
:103A840001D10123F3E02F4BDB6923F003027B68B0
:103A94005B682C491343CB61FDF7C6FAF8607B6879
:103AA4005B68032B12D10AE0FDF7BEFA0246FB68FD
:103AB400D31A41F28832934201D90323D7E0214B30
:103AC400DB6903F01803182BEED143E07B685B68D5
:103AD400022B12D10AE0FDF7A7FA0246FB68D31ABB
:103AE40041F28832934201D90323C0E0154BDB69CC
:103AF40003F01803102BEED12CE07B685B68012BDC
:103B040022D10AE0FDF790FA0246FB68D31A41F28B
:103B14008832934201D90323A9E00A4BDB6903F0FD
:103B24001803082BEED115E0FDF77EFA0246FB6878
:103B3400D31A41F28832934206D9032397E000BF97
:103B440000200240000C02444B4BDB6903F01803D5
:103B5400002BE9D17B681B6803F00203002B10D013
:103B64007B689A68444B1B6A03F00F039A4208D29D
:103B7400414B1B6A23F00F027B689B683E49134349
:103B84000B623E4B1B6803F00F033A689A4210D253
:103B94003A4B1B6823F00F0238493B6813430B6010
:103BA400364B1B6803F00F033A689A4201D0012395
:103BB4005DE07B681B6803F00403002B10D07B6876
:103BC400DA682D4B1B6A03F070039A4208D22A4B21
:103BD4001B6A23F070027B68DB68274913430B627E
:103BE4007B681B6803F00803002B12D07B681A69FA
:103BF400214B1B6A1B0903F070039A4209D21E4B26
:103C04001B6A23F4E0627B681B691B011A49134396
:103C14000B627B681B6803F01003002B12D07B68D7
:103C24005A69154B1B6A1B0A03F070039A4209D2A6
:103C3400114B1B6A23F4E0427B685B691B020E494B
:103C440013430B6200F022F802460B4B1B6A03F08D
:103C54000F030B49CB5C22FA03F30A4A13600A4BA5
:103C64001B681846FDF762F80346FB72FB7A184698
:103C74001037BD4680BD00BF000C02440020024046
:103C8400E8870008000000200400002080B489B008
:103C940000AF8C4BDB6903F01803082B02D18A4B6D
:103CA400FB6107E1874BDB6903F01803002B12D19A
:103CB400844B1B6803F02003002B09D0814B1B6845
:103CC400DB0803F00303814A22FA03F3FB61F1E00A
:103CD4007E4BFB61EEE07B4BDB6903F01803102B9A
:103CE40002D17B4BFB61E5E0764BDB6903F0180303
:103CF400182B40F0DD80734B9B6A03F003037B6158
:103D0400704B9B6A1B0A03F03F033B616D4B9B6A3C
:103D14001B0903F00103FB606A4B9B6BDB08C3F3D5
:103D24000C03FA6802FB03F307EE903AF8EE677AA5
:103D3400C7ED027A3B69002B00F0B7807B69012B49
:103D440003D07B69032B56D077E05E4B1B6803F0EE
:103D54002003002B2DD05B4B1B68DB0803F003030F
:103D64005A4A22FA03F37B607B6807EE903AF8EE36
:103D7400676A3B6907EE903AF8EE677A86EEA77AAF
:103D8400504B5B6BC3F3080307EE903AF8EE676A97
:103D940097ED026ADFED4F5AC6EE257A76EEA77AE2
:103DA400F7EE006A77EEA67A67EE277AC7ED067A11
:103DB40065E03B6907EE903AF8EE677ADFED466A14
:103DC40086EEA77A3F4B5B6BC3F3080307EE903A8A
:103DD400F8EE676A97ED026ADFED3E5AC6EE257A81
:103DE40076EEA77AF7EE006A77EEA67A67EE277A80
:103DF400C7ED067A43E03B6907EE903AF8EE677A3E
:103E0400DFED366A86EEA77A2E4B5B6BC3F30803AD
:103E140007EE903AF8EE676A97ED026ADFED2D5AE5
:103E2400C6EE257A76EEA77AF7EE006A77EEA67AE2
:103E340067EE277AC7ED067A21E03B6907EE903AF0
:103E4400F8EE677ADFED266A86EEA77A1D4B5B6B88
:103E5400C3F3080307EE903AF8EE676A97ED026A37
:103E6400DFED1C5AC6EE257A76EEA77AF7EE006AE5
:103E740077EEA67A67EE277AC7ED067A00BF114B74
:103E84005B6B5B0A03F07F0301333B603B6807EE27
:103E9400903AB8EE677AD7ED066AC6EE877AFCEEFA
:103EA400E77A17EE903AFB6104E00023FB6101E03E
:103EB400064BFB61FB6918462437BD465DF8047B5D
:103EC400704700BF000C024400093D000090D0037D
:103ED40040787D01000000460024744C20BCBE4B99
:103EE4000024744A80B500AFFFF7D0FE0246084BA9
:103EF4001B6A03F00F030749CB5C03F01F0322FA8C
:103F040003F3054A1360044B1B68184680BD00BFC9
:103F1400000C0244E88700080000002080B500AFD0
:103F2400FFF7E0FF0246064B1B6A1B0903F0070379
:103F34000449CB5C03F01F0322FA03F3184680BD47
:103F4400000C0244F887000880B485B000AF7860A4
:103F540039607B681F221A60154BDB6903F003028A
:103F64007B685A60124B1B6AFB60FB6803F00F020C
:103F74007B689A60FB6803F070027B68DA60FB6818
:103F84001B0903F070027B681A61FB681B0A03F0CB
:103F940070027B685A61074B1B6803F00F023B6891
:103FA4001A6000BF1437BD465DF8047B704700BF3C
:103FB400000C0244002002402DE9B04FBAB000AF1B
:103FC400C7F8D400002387F8E330002387F8E230F1
:103FD400D7F8D430D3E9002302F08074002554EAE2
:103FE40005030BD0CD4BD3F8E83023F04041D7F88C
:103FF400D4309B6DC94A0B43C2F8E830D7F8D430AB
:10400400D3E9002302F001084FF0000958EA09033C
:1040140042D0D7F8D430DB6D052B23D801A252F857
:1040240023F000BF714000084140000855400008DB
:10403400714000087140000871400008D7F8D4307E
:104044000833184601F07AF9034687F8E3300EE0A6
:10405400D7F8D4303033184601F008FA034687F80D
:10406400E33004E0012387F8E33000E000BF97F871
:10407400E330002B0CD1A94BD3F8D83023F007013F
:10408400D7F8D430DB6DA54A0B43C2F8D83003E02F
:1040940097F8E33087F8E230D7F8D430D3E9002337
:1040A40002F0020A4FF0000B5AEA0B0300F088807A
:1040B400D7F8D4301B6E282B68D801A252F823F00D
:1040C400994100089141000891410008914100087C
:1040D4009141000891410008914100089141000874
:1040E400694100089141000891410008914100088C
:1040F4009141000891410008914100089141000854
:104104007D41000891410008914100089141000857
:104114009141000891410008914100089141000833
:10412400994100089141000891410008914100081B
:104134009141000891410008914100089141000813
:1041440099410008914100089141000891410008FB
:1041540091410008914100089141000891410008F3
:1041640099410008D7F8D4300833184601F0E6F82E
:10417400034687F8E3300EE0D7F8D43030331846DE
:1041840001F074F9034687F8E33004E0012387F86B
:10419400E33000E000BF97F8E330002B0CD15F4B15
:1041A400D3F8D83023F03801D7F8D4301B6E5B4AEB
:1041B4000B43C2F8D83003E097F8E33087F8E230D5
:1041C400D7F8D430D3E9002302F00403C7F8C83089
:1041D4000023C7F8CC30D7E932120B4613434ED034
:1041E400D7F8D4305B6EB3F5A07F2CD0B3F5A07FA5
:1041F40025D8B3F5807F28D0B3F5807F1FD8C02B96
:1042040025D0C02B1BD8802B0FD0802B17D8002B88
:104214001FD0402B13D1D7F8D4300833184601F0FF
:104224008DF8034687F8E33014E0D7F8D430303300
:10423400184601F01BF9034687F8E3300AE001232E
:1042440087F8E33006E000BF04E000BF02E000BFEF
:1042540000E000BF97F8E330002B0CD12F4BD3F8CC
:10426400D83023F4E071D7F8D4305B6E2B4A0B437B
:10427400C2F8D83003E097F8E33087F8E230D7F893
:10428400D430D3E9002302F00803C7F8C030002378
:10429400C7F8C430D7E930120B46134356D0D7F8C9
:1042A400D4309B6EB3F5206F31D0B3F5206F2AD88C
:1042B400B3F5006F2DD0B3F5006F24D8B3F5C06FFC
:1042C40029D0B3F5C06F1ED8B3F5806F11D0B3F504
:1042D400806F18D8002B23D0B3F5007F13D1D7F803
:1042E400D4300833184601F029F8034687F8E33040
:1042F40017E0D7F8D4303033184601F0B7F8034646
:1043040087F8E3300DE0012387F8E33009E000BFCC
:1043140007E000BF05E000BF03E000BF000C02445B
:1043240000BF97F8E330002B0CD1B94BD3F8D83049
:1043340023F46061D7F8D4309B6EB54A0B43C2F8BE
:10434400D83003E097F8E33087F8E230D7F8D43078
:10435400D3E9002302F01003C7F8B8300023C7F8EC
:10436400BC30D7E92E120B46134353D0D7F8D430C0
:10437400DB6EB3F5A04F31D0B3F5A04F2AD8B3F517
:10438400804F2DD0B3F5804F24D8B3F5405F29D0AA
:10439400B3F5405F1ED8B3F5005F11D0B3F5005FED
:1043A40018D8002B20D0B3F5805F13D1D7F8D430C0
:1043B4000833184600F0C2FF034687F8E33014E0E0
:1043C400D7F8D4303033184601F050F8034687F854
:1043D400E3300AE0012387F8E33006E000BF04E09D
:1043E40000BF02E000BF00E000BF97F8E330002BFD
:1043F4000CD1874BD3F8D83023F4E041D7F8D4302C
:10440400DB6E834A0B43C2F8D83003E097F8E330FD
:1044140087F8E230D7F8D430D3E9002302F0200340
:10442400C7F8B0300023C7F8B430D7E92C120B46D4
:10443400134353D0D7F8D4301B6FB3F5203F31D09A
:10444400B3F5203F2AD8B3F5003F2DD0B3F5003F94
:1044540024D8B3F5C03F29D0B3F5C03F1ED8B3F577
:10446400803F11D0B3F5803F18D8002B20D0B3F58E
:10447400004F13D1D7F8D4300833184600F05EFF4C
:10448400034687F8E33014E0D7F8D43030331846C5
:1044940000F0ECFF034687F8E3300AE0012387F8D5
:1044A400E33006E000BF04E000BF02E000BF00E02C
:1044B40000BF97F8E330002B0CD1554BD3F8D8301C
:1044C40023F46031D7F8D4301B6F514A0B43C2F840
:1044D400D83003E097F8E33087F8E230D7F8D430E7
:1044E400D3E9002302F48053C7F8A8300023C7F8A7
:1044F400AC30D7E92A120B46134353D0D7F8D43043
:104504005B6FB3F1A06F31D0B3F1A06F2AD8B3F1D0
:10451400806F2DD0B3F1806F24D8B3F1407F29D0C0
:10452400B3F1407F1ED8B3F1007F11D0B3F1007F07
:1045340018D8002B20D0B3F1807F13D1D7F8D43012
:104544000833184600F0FAFE034687F8E33014E017
:10455400D7F8D4303033184600F088FF034687F884
:10456400E3300AE0012387F8E33006E000BF04E00B
:1045740000BF02E000BF00E000BF97F8E330002B6B
:104584000CD1234BD3F8E03023F0E061D7F8D430DA
:104594005B6F1F4A0B43C2F8E03003E097F8E33047
:1045A40087F8E230D7F8D430D3E9002302F400537B
:1045B400C7F8A0300023C7F8A430D7E928120B4667
:1045C40013433DD0D7F8D4309B6FB3F5403F1BD095
:1045D400B3F5403F14D8B3F5003F17D0B3F5003F0F
:1045E4000ED8002B16D0B3F5803F09D1D7F8D430BC
:1045F4003033184600F03AFF034687F8E3300AE008
:10460400012387F8E33006E000BF04E000BF02E0C6
:10461400000C024400BF97F8E330002B0CD1994BF7
:10462400D3F8E43023F44031D7F8D4309B6F954A63
:104634000B43C2F8E43003E097F8E33087F8E23044
:10464400D7F8D430D3E9002302F48043C7F8983074
:104654000023C7F89C30D7E926120B4613433BD0FE
:10466400D7F8D430DB6FB3F5402F1BD0B3F5402F10
:1046740014D8B3F5002F17D0B3F5002F0ED8002BA4
:1046840014D0B3F5802F09D1D7F8D430303318467D
:1046940000F0ECFE034687F8E33008E0012387F8D6
:1046A400E33004E000BF02E000BF00E000BF97F881
:1046B400E330002B0CD1734BD3F8E43023F44021C6
:1046C400D7F8D430DB6F6F4A0B43C2F8E43003E011
:1046D40097F8E33087F8E230D7F8D430D3E90023F1
:1046E40002F40043C7F890300023C7F89430D7E9A8
:1046F40024120B4613433DD0D7F8D430D3F880307E
:10470400B3F5401F1BD0B3F5401F14D8B3F5001FF9
:1047140017D0B3F5001F0ED8002B14D0B3F5801FAB
:1047240009D1D7F8D4303033184600F09FFE034641
:1047340087F8E33008E0012387F8E33004E000BFA2
:1047440002E000BF00E000BF97F8E330002B0DD17A
:104754004C4BD3F8E43023F44011D7F8D430D3F8D9
:104764008030484A0B43C2F8E43003E097F8E33062
:1047740087F8E230D7F8D430D3E9002302F4803349
:10478400C7F888300023C7F88C30D7E922120B46CB
:10479400134335D0D7F8D430D3F88430B3F1007F45
:1047A40015D0B3F1007F0ED8002B12D0B3F1807F67
:1047B40009D1D7F8D4303033184600F057FE0346F9
:1047C40087F8E33006E0012387F8E33002E000BF16
:1047D40000E000BF97F8E330002B0DD1294BD3F84C
:1047E400E43023F04071D7F8D430D3F88430254A2C
:1047F4000B43C2F8E43003E097F8E33087F8E23083
:10480400D7F8D430D3E900230021C7F8801003F48B
:104814008053C7F88430D7E920120B46134337D0AE
:10482400D7F8D430D3F88830B3F1006F15D0B3F192
:10483400006F0ED8002B12D0B3F1806F09D1D7F8D6
:10484400D4303033184600F011FE034687F8E330C5
:1048540006E0012387F8E33002E000BF00E000BF78
:1048640097F8E330002B0FD1064BD3F8E43023F054
:104874004061D7F8D430D3F88830024A0B43C2F8E9
:10488400E43005E0000C024497F8E33087F8E230A6
:10489400D7F8D430D3E900230021B96703F40063C7
:1048A400FB67D7E91E120B4613430ED0B84BDB69E6
:1048B400B74A23F40043D361B54BD969D7F8D43050
:1048C400D3F8C830B24A0B43D361D7F8D430D3E914
:1048D400002302F400333B6700237B67D7E91C12F3
:1048E4000B46134355D0D7F8D430D3F88C30B3F5F6
:1048F400A06F31D0B3F5A06F2AD8B3F5806F2DD057
:10490400B3F5806F24D8B3F5407F29D0B3F5407F49
:104914001ED8B3F5007F11D0B3F5007F18D8002B53
:1049240020D0B3F5807F13D1D7F8D430083318469C
:1049340000F004FD034687F8E33014E0D7F8D430E0
:104944003033184600F092FD034687F8E3300AE05E
:10495400012387F8E33006E000BF04E000BF02E073
:1049640000BF00E000BF97F8E330002B0DD1884B67
:10497400D3F8DC3023F4E061D7F8D430D3F88C30AA
:10498400834A0B43C2F8DC3003E097F8E33087F83E
:10499400E230D7F8D430D3E9002302F48023BB6695
:1049A4000023FB66D7E91A120B46134355D0D7F8F8
:1049B400D430D3F89030B3F5A04F31D0B3F5A04F35
:1049C4002AD8B3F5804F2DD0B3F5804F24D8B3F552
:1049D400405F29D0B3F5405F1ED8B3F5005F11D016
:1049E400B3F5005F18D8002B20D0B3F5805F13D146
:1049F400D7F8D4300833184600F0A0FC034687F8F3
:104A0400E33014E0D7F8D4303033184600F02EFDEC
:104A1400034687F8E3300AE0012387F8E33006E031
:104A240000BF04E000BF02E000BF00E000BF97F851
:104A3400E330002B0DD1564BD3F8DC3023F4E041A6
:104A4400D7F8D430D3F89030514A0B43C2F8DC3055
:104A540003E097F8E33087F8E230D7F8D430D3E9AD
:104A6400002302F400133B6600237B66D7E9181287
:104A74000B46134332D0D7F8D430D3F8A030052BEB
:104A84000FD8032B11D2012B11D9022B09D1D7F83E
:104A9400D4300833184600F051FC034687F8E3305D
:104AA40006E0012387F8E33002E000BF00E000BF26
:104AB40097F8E330002B0DD1354BD3F8E83023F0D1
:104AC4000701D7F8D430D3F8A030314A0B43C2F8E9
:104AD400E83003E097F8E33087F8E230D7F8D430D1
:104AE400D3E900230021B96503F40073FB65D7E91A
:104AF40016120B46134324D0D7F8D430D3F8A4307D
:104B0400002B05D0082B05D0012387F8E33002E001
:104B140000BF00E000BF97F8E330002B0DD11C4B21
:104B2400D3F8E83023F00801D7F8D430D3F8A43010
:104B3400174A0B43C2F8E83003E097F8E33087F8EC
:104B4400E230D7F8D430D3E9002302F000733B6598
:104B540000237B65D7E914120B46134300F0BB8096
:104B64000C4B5B6A0B4A43F001035362FCF75CFA9B
:104B7400C7F8DC0010E0FCF757FA0246D7F8DC303F
:104B8400D31A022B08D9032387F8E3300AE000BFC5
:104B9400000C024400080244BB4B5B6A03F00103AF
:104BA400002BE8D097F8E330002B40F09080B74B0F
:104BB400D3F8F03003F44073C7F8E430D7F8E430A6
:104BC400002B25D0D7F8D430D3F8BC3003F440728E
:104BD400D7F8E43093421BD0AC4BD3F8F03023F435
:104BE4004073C7F8E430A94BD3F8F030A74A43F434
:104BF4008033C2F8F030A54BD3F8F030A34A23F445
:104C04008033C2F8F030A14AD7F8E430C2F8F0306B
:104C1400D7F8E43003F00103002B19D0FCF704FAB1
:104C2400C7F8DC000DE0FCF7FFF90246D7F8DC30EA
:104C3400D21A41F288339A4203D9032387F8E33026
:104C440006E0924BD3F8F03003F00203002BEAD0D5
:104C540097F8E330002B35D1D7F8D430D3F8BC30F3
:104C640003F44073B3F5407F10D1884BDB6923F420
:104C74007C51D7F8D430D3F8BC301B0923F07F43E0
:104C840023F03003814A0B43D36105E07F4BDB699A
:104C94007E4A23F47C53D3617C4BD3F8F0307B4AB7
:104CA40023F44073C2F8F030784BD3F8F010D7F8FF
:104CB400D430D3F8BC30C3F30B03744A0B43C2F8AB
:104CC400F03008E097F8E33087F8E23003E097F833
:104CD400E33087F8E230D7F8D430D3E9002302F088
:104CE4008063BB640023FB64D7E912120B461343B1
:104CF40035D0D7F8D430D3F89830302B14D0302BAB
:104D04000ED8202B12D0202B0AD8002B10D0102B19
:104D140006D15E4B9B6A5D4A43F40033936208E01C
:104D2400012387F8E33004E000BF02E000BF00E0A5
:104D340000BF97F8E330002B0DD1544BD3F8E83083
:104D440023F03001D7F8D430D3F898304F4A0B43CE
:104D5400C2F8E83003E097F8E33087F8E230D7F898
:104D6400D430D3E9002302F480033B6400237B6442
:104D7400D7E910120B46134333D0D7F8D430D3F805
:104D84009C30002B02D0402B07D010E03F4B9B6A95
:104D94003E4A43F4003393620DE0D7F8D43008332D
:104DA400184600F0CBFA034687F8E33003E001230A
:104DB40087F8E33000BF97F8E330002B0DD1334B75
:104DC400D3F8E43023F04001D7F8D430D3F89C3042
:104DD4002E4A0B43C2F8E43003E097F8E33087F837
:104DE400E230D7F8D430D3E9002302F00063BB6388
:104DF4000023FB63D7E90E120B4613434CD0D7F8BC
:104E0400D430D3F8AC30042B27D801A252F823F0C5
:104E1400294E0008374E00084B4E0008674E000824
:104E2400674E0008194B9B6A184A43F40033936297
:104E340018E0D7F8D4300833184600F07FFA034658
:104E440087F8E3300EE0D7F8D4303033184600F05A
:104E54000DFB034687F8E33004E0012387F8E330D1
:104E640000E000BF97F8E330002B11D1074BD3F8D3
:104E7400E03023F00701D7F8D430D3F8AC30034A3C
:104E84000B43C2F8E03007E000080244000C02447F
:104E940097F8E33087F8E230D7F8D430D3E9002329
:104EA40002F080533B6300237B63D7E90C120B466B
:104EB400134300F08180D7F8D430D3F8B030202BDE
:104EC4005FD801A252F823F0514F0008874F000821
:104ED400874F0008874F0008874F0008874F000856
:104EE400874F0008874F00085F4F0008874F00086E
:104EF400874F0008874F0008874F0008874F000836
:104F0400874F0008874F0008734F0008874F000839
:104F1400874F0008874F0008874F0008874F000815
:104F2400874F0008874F00088F4F0008874F0008FD
:104F3400874F0008874F0008874F0008874F0008F5
:104F4400874F0008874F00088F4F0008B94B9B6AB2
:104F5400B84A43F40033936218E0D7F8D4300833E6
:104F6400184600F0EBF9034687F8E3300EE0D7F873
:104F7400D4303033184600F079FA034687F8E3302A
:104F840004E0012387F8E33000E000BF97F8E33042
:104F9400002B0DD1A74BD3F8E03023F03801D7F81C
:104FA400D430D3F8B030A34A0B43C2F8E03003E066
:104FB40097F8E33087F8E230D7F8D430D3E9002308
:104FC40002F00053BB620023FB62D7E90A120B46CE
:104FD40013434ED0D7F8D430D3F8B430B3F5807F30
:104FE4002ED0B3F5807F27D8C02B2BD0C02B23D84D
:104FF400802B17D0802B1FD8002B02D0402B07D03A
:105004001AE08C4B9B6A8B4A43F4003393621AE098
:10501400D7F8D4300833184600F090F9034687F8DF
:10502400E33010E0D7F8D4303033184600F01EFADD
:10503400034687F8E33006E0012387F8E33002E013
:1050440000BF00E000BF97F8E330002B0DD1794B8F
:10505400D3F8E03023F4E072D7F8D430D3F8B43086
:1050640074491343C1F8E03003E097F8E33087F85C
:10507400E230D7F8D430D3E9002302F080433B6216
:1050840000237B62D7E908120B46134355D0D7F8A7
:10509400D430D3F8B830B3F5206F31D0B3F5206FE6
:1050A4002AD8B3F5006F2DD0B3F5006F24D8B3F52B
:1050B400C06F29D0B3F5C06F1ED8B3F5806F11D07F
:1050C400B3F5806F18D8002B20D0B3F5007F13D12F
:1050D400D7F8D4300833184600F030F9034687F87F
:1050E400E33014E0D7F8D4303033184600F0BEF97A
:1050F400034687F8E3300AE0012387F8E33006E04B
:1051040000BF04E000BF02E000BF00E000BF97F86A
:10511400E330002B0DD1474BD3F8E03023F4606229
:10512400D7F8D430D3F8B83042491343C1F8E0304B
:1051340003E097F8E33087F8E230D7F8D430D3E9C6
:1051440000230021B96103F00203FB61D7E90612D1
:105154000B4613433CD0D7F8D430D3F8A830032BF4
:105164001BD801A252F823F0A75100087D51000872
:105174008B510008A75100082E4B9B6A2D4A43F41B
:10518400003393620EE0D7F8D4300833184600F0A9
:10519400D5F8034687F8E33004E0012387F8E330C9
:1051A40000E000BF97F8E330002B0DD1214BD3F87A
:1051B400E43023F00302D7F8D430D3F8A8301D49E3
:1051C4001343C1F8E43003E097F8E33087F8E230A2
:1051D400D7F8D430D3E900230021396103F0040364
:1051E4007B61D7E904120B4613433CD0D7F8D43083
:1051F400D3F89430B3F5007F0ED0B3F5007F15D803
:10520400002B19D0B3F5807F10D10A4B9B6A094A51
:1052140043F40033936210E0D7F8D43008331846CF
:1052240000F08CF8034687F8E33006E0012387F8A2
:10523400E33002E0000C024400BF97F8E330002B97
:105244000DD13D4BD3F8E83023F44072D7F8D43075
:10525400D3F8943038491343C1F8E83003E097F8A1
:10526400E33087F8E230D7F8D430D3E900230021C3
:10527400B96003F01003FB60D7E902120B46134335
:1052840038D0D7F8D430D3F8C430302B1BD0302BDF
:1052940015D8102B02D0202B07D010E0264B9B6A88
:1052A400254A43F4003393620EE0D7F8D430303308
:1052B400184600F0DBF8034687F8E33004E00123E6
:1052C40087F8E33000E000BF97F8E330002B0DD1FE
:1052D400194BD3F8E43023F03002D7F8D430D3F8A4
:1052E400C43015491343C1F8E43003E097F8E330C0
:1052F40087F8E230D7F8D430D3E9002300213960AD
:1053040003F008037B60D7E900120B4613430CD06B
:10531400094BD3F8E83023F0C002D7F8D430D3F8DF
:10532400C03005491343C1F8E83097F8E230184615
:10533400E837BD46BDE8B08F000C024480B584B0A8
:1053440000AF7860484B1B68474A23F080631360C2
:10535400FBF76AFEF86008E0FBF766FE0246FB68AE
:10536400D31A022B01D903237AE03F4B1B6803F0C5
:105374000063002BF0D13C4BDB6A23F47C5323F015
:1053840003037A6811687A68526812020A4336493C
:105394001343CB627B689B68013BC3F308027B68C1
:1053A400DB68013B5B029BB21A437B681B69013BD0
:1053B4001B0403F4FE031A437B685B69013B1B0671
:1053C40003F0FE4328491343CB63274BDB6A23F0E6
:1053D4000C027B689B6924491343CB62224BDB6A32
:1053E40023F020027B68DB691F491343CB621E4B09
:1053F400DA6A7B685B6A1C491343CB621A4BDB6A2B
:10540400194A23F01003D362174B1B6C23F47F4318
:1054140023F0F8037A68126AD200134913430B6429
:10542400114BDB6A104A43F01003D3620E4B1B6826
:105434000D4A43F080631360FBF7F6FDF86008E063
:10544400FBF7F2FD0246FB68D31A022B01D90323B2
:1054540006E0054B1B6803F00063002BF0D000232B
:1054640018461037BD4680BD000C024480B584B098
:1054740000AF7860484B1B68474A23F080531360A1
:10548400FBF7D2FDF86008E0FBF7CEFD0246FB68AF
:10549400D31A022B01D903237AE03F4B1B6803F094
:1054A4000053002BF0D13C4B1B6B23F47C5323F0B3
:1054B40003037A6811687A68526812020A4336490B
:1054C40013430B637B689B68013BC3F308027B684F
:1054D400DB68013B5B029BB21A437B681B69013B9F
:1054E4001B0403F4FE031A437B685B69013B1B0640
:1054F40003F0FE43284913434B64274B1B6B23F0F3
:105504000C027B689B69244913430B63224B1B6B7E
:1055140023F020027B68DB691F4913430B631E4B96
:105524001A6B7B685B6A1C4913430B631A4B1B6B36
:10553400194A23F010031363174B9B6C23F47F4326
:1055440023F0F8037A68126AD200134913438B6478
:10555400114B1B6B104A43F0100313630E4B1B6873
:105564000D4A43F080531360FBF75EFDF86008E0DA
:10557400FBF75AFD0246FB68D31A022B01D9032319
:1055840006E0054B1B6803F00053002BF0D000230A
:1055940018461037BD4680BD000C024480B584B067
:1055A40000AF78607B68002B01D101230DE17B689B
:1055B4001B68884A934204D07B681B68864A9342DE
:1055C40000E000BF7B6800229A627B681B68814A06
:1055D400934204D07B681B687F4A934205D17B6861
:1055E400DB680F2B01D90123EFE0786800F002F9A2
:1055F400F8607B681B68774A934204D07B681B6819
:10560400754A934202D1FB68082B20D87B681B683B
:10561400724A934218D07B681B68714A934213D034
:105624007B681B686F4A93420ED07B681B686E4A86
:10563400934209D07B681B686C4A934204D07B6810
:105644001B686B4A934204D1FB68102B01D90123D8
:10565400BBE07B6893F88930DBB2002B06D17B6812
:10566400002283F888207868FBF7E2FA7B6802223C
:1056740083F889207B681B681A687B681B6822F0A2
:1056840001021A607B681B689B6803F4F813BB6013
:105694007B689B69B3F1806F19D17B685B68B3F554
:1056A400800F03D17B689B6B002B08D07B685B6801
:1056B400002B0CD17B689B6BB3F1805F07D17B68B7
:1056C4001B681A687B681B6842F480521A607B6806
:1056D4005B6803F48003002B0FD07B68DB68062B28
:1056E4000BD97B681B681B6823F480717B681A6D77
:1056F4007B681B680A431A6007E07B681B681A68AA
:105704007B681B6822F480721A607B68DA697B68A4
:105714009B6A1A43BB681A437B68DB6B42EA03014A
:105724007B68DA687B681B680A439A607B685A6BFB
:105734007B685B6A1A437B689B6B1A437B689B6933
:105744001A437B681B691A437B685B691A437B684D
:105754001B6A1A437B685B681A437B68DB6C1A43D9
:105764007B689B681A437B689B6C1A437B689B6DC0
:105774001A437B68DB6D42EA03017B681A6E7B681F
:105784001B680A43DA607B681B681A6D7B681B68B8
:1057940022F001021A657B685B6803F48003002B26
:1057A4000AD07B681B68DB6823F000417B685A6D74
:1057B4007B681B680A43DA607B680022C3F88C208C
:1057C4007B68012283F88920002318461037BD46E0
:1057D40080BD00BF004C0140004C0150003001402E
:1057E400003001500038004000380050003C0040B8
:1057F400003C005080B485B000AF78607B68DB6B00
:105804005B090133FB607B68DB680133BB60BB6809
:105814000733DB08BB60BB68FA6802FB03F3184676
:105824001437BD465DF8047B704780B582B000AF85
:1058340078607B68002B01D1012349E07B6893F8F1
:105844003D30DBB2002B06D17B68002283F83C207C
:10585400786800F041F87B68022283F83D207B6879
:105864001A687B6804331946104600F065FA7B68B1
:10587400012283F848207B68012283F83E207B685C
:10588400012283F83F207B68012283F840207B6853
:10589400012283F841207B68012283F842207B683F
:1058A400012283F843207B68012283F844207B682B
:1058B400012283F845207B68012283F846207B6817
:1058C400012283F847207B68012283F83D200023CE
:1058D40018460837BD4680BD80B483B000AF7860F9
:1058E40000BF0C37BD465DF8047B704780B485B0BB
:1058F40000AF78607B6893F83D30DBB2012B01D0B8
:1059040001237CE07B68022283F83D207B681B68CE
:10591400DA687B681B6842F00102DA607B681B6806
:105924003A4A93424AD07B681B68394A934245D02D
:105934007B681B68B3F1804F40D07B681B68B3F170
:10594400A04F3BD07B681B68324A934236D07B68B9
:105954001B68314A934231D07B681B682F4A9342BB
:105964002CD07B681B682E4A934227D07B681B6827
:105974002C4A934222D07B681B682B4A93421DD049
:105984007B681B68294A934218D07B681B68284AA5
:10599400934213D07B681B68264A93420ED07B68DF
:1059A4001B68254A934209D07B681B68234A9342AB
:1059B40004D07B681B68224A934215D17B681B681C
:1059C4009A68204B1340FB60FB68062B15D0FB68DC
:1059D400B3F5803F11D07B681B681A687B681B682D
:1059E40042F001021A6008E07B681B681A687B6851
:1059F4001B6842F001021A6000E000BF0023184651
:105A04001437BD465DF8047B704700BF002C01408D
:105A1400002C015000040040000400500008004025
:105A240000080050000C0040000C005000340140FD
:105A3400003401500018004000180050004001409C
:105A4400004001500700010080B584B000AF7860C9
:105A54007B681B68DB68FB607B681B681B69BB6039
:105A6400BB6803F00203002B20D0FB6803F00203A1
:105A7400002B1BD07B681B686FF002021A617B68E5
:105A840001221A777B681B689B6903F00303002BD0
:105A940003D0786800F031F905E0786800F023F964
:105AA400786800F034F97B6800221A77BB6803F049
:105AB4000403002B20D0FB6803F00403002B1BD04D
:105AC4007B681B686FF004021A617B6802221A77F4
